{"contracts/Vault1.sol":{"Vault1":{"abi":[{"inputs":[{"internalType":"address","name":"_launchpadContract","type":"address"}],"stateMutability":"nonpayable","type":"constructor"},{"inputs":[],"name":"MAX_DEPOSIT","outputs":[{"internalType":"uint256","name":"","type":"uint256"}],"stateMutability":"view","type":"function"},{"inputs":[],"name":"MAX_PARTICIPANTS","outputs":[{"internalType":"uint256","name":"","type":"uint256"}],"stateMutability":"view","type":"function"},{"inputs":[],"name":"MIN_DEPOSIT","outputs":[{"internalType":"uint256","name":"","type":"uint256"}],"stateMutability":"view","type":"function"},{"inputs":[],"name":"TOTAL_PARTICIPANTS","outputs":[{"internalType":"uint256","name":"","type":"uint256"}],"stateMutability":"view","type":"function"},{"inputs":[],"name":"allowedToTransfer","outputs":[{"internalType":"address","name":"","type":"address"}],"stateMutability":"view","type":"function"},{"inputs":[{"internalType":"address","name":"","type":"address"}],"name":"balanceOf","outputs":[{"internalType":"uint256","name":"","type":"uint256"}],"stateMutability":"view","type":"function"},{"inputs":[],"name":"deposit","outputs":[],"stateMutability":"payable","type":"function"},{"inputs":[],"name":"getAddressWithHighestShare","outputs":[{"internalType":"address","name":"","type":"address"}],"stateMutability":"view","type":"function"},{"inputs":[],"name":"getBalance","outputs":[{"internalType":"uint256","name":"","type":"uint256"}],"stateMutability":"view","type":"function"},{"inputs":[],"name":"getSecondUserShare","outputs":[{"internalType":"uint256","name":"","type":"uint256"}],"stateMutability":"view","type":"function"},{"inputs":[],"name":"launchpadContract","outputs":[{"internalType":"address","name":"","type":"address"}],"stateMutability":"view","type":"function"},{"inputs":[],"name":"makeTotalParticipant99","outputs":[],"stateMutability":"nonpayable","type":"function"},{"inputs":[],"name":"owner","outputs":[{"internalType":"address","name":"","type":"address"}],"stateMutability":"view","type":"function"},{"inputs":[{"internalType":"uint256","name":"","type":"uint256"}],"name":"participants","outputs":[{"internalType":"address","name":"","type":"address"}],"stateMutability":"view","type":"function"},{"inputs":[],"name":"totalSupply","outputs":[{"internalType":"uint256","name":"","type":"uint256"}],"stateMutability":"view","type":"function"},{"inputs":[],"name":"transferToLaunchpad","outputs":[],"stateMutability":"nonpayable","type":"function"}],"evm":{"bytecode":{"linkReferences":{},"object":"60a06040523462000047576200001e6200001862000126565b62000243565b620000286200004d565b61136d6200026582396080518181816105f40152610dcb015261136d90f35b62000053565b60405190565b600080fd5b601f801991011690565b634e487b7160e01b600052604160045260246000fd5b90620000849062000058565b810190811060018060401b038211176200009d57604052565b62000062565b90620000ba620000b26200004d565b928362000078565b565b600080fd5b60018060a01b031690565b620000d790620000c1565b90565b620000e581620000cc565b03620000ed57565b600080fd5b905051906200010182620000da565b565b9060208282031262000120576200011d91600001620000f2565b90565b620000bc565b62000149620015d2803803806200013d81620000a3565b92833981019062000103565b90565b60001b90565b9062000161600019916200014c565b9181191691161790565b90565b90565b90565b6200018d6200018762000193926200016b565b62000171565b6200016e565b90565b90565b90620001b3620001ad620001bb9262000174565b62000196565b825462000152565b9055565b90620001d260018060a01b03916200014c565b9181191691161790565b620001f5620001ef620001fb92620000c1565b62000171565b620000c1565b90565b6200020990620001dc565b90565b6200021790620001fe565b90565b90565b9062000237620002316200023f926200020c565b6200021a565b8254620001bf565b9055565b6200026290620002566000600562000199565b3360805260006200021d565b56fe60806040526004361015610013575b6107c4565b61001e60003561011d565b806306dd74a5146101185780630fec195914610113578063116136da1461010e57806312065fe01461010957806318160ddd1461010457806319507d2c146100ff57806335c1d349146100fa57806342373e74146100f557806370a08231146100f057806374244bc9146100eb5780637cda8ed5146100e65780638da5cb5b146100e1578063d0e30db0146100dc578063dd5967c3146100d7578063e1e158a5146100d25763f3baf0700361000e5761078f565b610723565b6106b1565b61064b565b610616565b6105bf565b61058a565b610545565b610464565b61042f565b61033c565b6102f7565b610289565b610254565b6101a4565b610169565b60e01c90565b60405190565b600080fd5b600080fd5b600091031261013e57565b61012e565b90565b61014f90610143565b9052565b919061016790600060208501940190610146565b565b3461019957610179366004610133565b6101956101846107f5565b61018c610123565b91829182610153565b0390f35b610129565b60000190565b346101d2576101b4366004610133565b6101bc610b25565b6101c4610123565b806101ce8161019e565b0390f35b610129565b1c90565b60018060a01b031690565b6101f69060086101fb93026101d7565b6101db565b90565b9061020991546101e6565b90565b6102176000806101fe565b90565b60018060a01b031690565b61022e9061021a565b90565b61023a90610225565b9052565b919061025290600060208501940190610231565b565b3461028457610264366004610133565b61028061026f61020c565b610277610123565b9182918261023e565b0390f35b610129565b346102b957610299366004610133565b6102b56102a4610b2f565b6102ac610123565b91829182610153565b0390f35b610129565b90565b6102d19060086102d693026101d7565b6102be565b90565b906102e491546102c1565b90565b6102f460026000906102d9565b90565b3461032757610307366004610133565b6103236103126102e7565b61031a610123565b91829182610153565b0390f35b610129565b61033960046000906101fe565b90565b3461036c5761034c366004610133565b61036861035761032c565b61035f610123565b9182918261023e565b0390f35b610129565b61037a81610143565b0361038157565b600080fd5b9050359061039382610371565b565b906020828203126103af576103ac91600001610386565b90565b61012e565b634e487b7160e01b600052603260045260246000fd5b5490565b600052602060002090565b6103e2816103ca565b8210156103fd576103f46001916103ce565b91020190600090565b6103b4565b600161040d816103ca565b82101561042a5761042791610421916103d9565b906101fe565b90565b600080fd5b3461045f5761045b61044a610445366004610395565b610402565b610452610123565b9182918261023e565b0390f35b610129565b3461049457610474366004610133565b61049061047f610bfc565b610487610123565b9182918261023e565b0390f35b610129565b6104a281610225565b036104a957565b600080fd5b905035906104bb82610499565b565b906020828203126104d7576104d4916000016104ae565b90565b61012e565b90565b6104f36104ee6104f89261021a565b6104dc565b61021a565b90565b610504906104df565b90565b610510906104fb565b90565b9061051d90610507565b600052602052604060002090565b6105429061053d600391600092610513565b6102d9565b90565b346105755761057161056061055b3660046104bd565b61052b565b610568610123565b91829182610153565b0390f35b610129565b61058760056000906102d9565b90565b346105ba5761059a366004610133565b6105b66105a561057a565b6105ad610123565b91829182610153565b0390f35b610129565b346105ed576105cf366004610133565b6105d7610e96565b6105df610123565b806105e98161019e565b0390f35b610129565b7f000000000000000000000000000000000000000000000000000000000000000090565b3461064657610626366004610133565b6106426106316105f2565b610639610123565b9182918261023e565b0390f35b610129565b610656366004610133565b61065e61106e565b610666610123565b806106708161019e565b0390f35b90565b61068b61068661069092610674565b6104dc565b610143565b90565b6106a3668e1bc9bf040000610677565b90565b6106ae610693565b90565b346106e1576106c1366004610133565b6106dd6106cc6106a6565b6106d4610123565b91829182610153565b0390f35b610129565b90565b6106fd6106f8610702926106e6565b6104dc565b610143565b90565b61071566470de4df8200006106e9565b90565b610720610705565b90565b3461075357610733366004610133565b61074f61073e610718565b610746610123565b91829182610153565b0390f35b610129565b90565b61076f61076a61077492610758565b6104dc565b610143565b90565b610781606461075b565b90565b61078c610777565b90565b346107bf5761079f366004610133565b6107bb6107aa610784565b6107b2610123565b91829182610153565b0390f35b610129565b600080fd5b600090565b60001c90565b6107e06107e5916107ce565b6102be565b90565b6107f290546107d4565b90565b6107fd6107c9565b50610825610820600361081a6108146001806103d9565b906101fe565b90610513565b6107e8565b90565b610834610839916107ce565b6101db565b90565b6108469054610828565b90565b60209181520190565b60007f4e6f7420616c6c6f77656420746f207472616e736665722066756e6473000000910152565b610887601d602092610849565b61089081610852565b0190565b6108aa906020810190600081830391015261087a565b90565b156108b457565b6108bc610123565b62461bcd60e51b8152806108d260048201610894565b0390fd5b6108fb6108e3600461083c565b6108f56108ef33610225565b91610225565b146108ad565b610903610989565b565b60007f5661756c74206973206e6f742066756c6c207965740000000000000000000000910152565b61093a6015602092610849565b61094381610905565b0190565b61095d906020810190600081830391015261092d565b90565b1561096757565b61096f610123565b62461bcd60e51b81528061098560048201610947565b0390fd5b6109b561099660056107e8565b6109af6109a96109a4610777565b610143565b91610143565b14610960565b6109bd610aaf565b565b90565b6109d66109d16109db926109bf565b6104dc565b61021a565b90565b6109e7906109c2565b90565b60007f4c61756e636870616420636f6e7472616374206e6f7420736574000000000000910152565b610a1f601a602092610849565b610a28816109ea565b0190565b610a429060208101906000818303910152610a12565b90565b15610a4c57565b610a54610123565b62461bcd60e51b815280610a6a60048201610a2c565b0390fd5b610a77906104df565b90565b610a8390610a6e565b90565b610a8f906104fb565b90565b610a9b906104fb565b90565b610aa6610123565b3d6000823e3d90fd5b610ade610abc600061083c565b610ad7610ad1610acc60006109de565b610225565b91610225565b1415610a45565b6000808080610afc610af7610af28361083c565b610a7a565b610a86565b610b0530610a92565b3190828215610b1c575bf115610b1757565b610a9e565b506108fc610b0f565b610b2d6108d6565b565b610b376107c9565b50610b4130610a92565b3190565b600090565b60007f537562736372697074696f6e206e6f7420656e64656400000000000000000000910152565b610b7f6016602092610849565b610b8881610b4a565b0190565b610ba29060208101906000818303910152610b72565b90565b15610bac57565b610bb4610123565b62461bcd60e51b815280610bca60048201610b8c565b0390fd5b90565b610be5610be0610bea92610bce565b6104dc565b610143565b90565b6001610bf99101610143565b90565b610c04610b45565b50610c31610c1260056107e8565b610c2b610c25610c20610777565b610143565b91610143565b14610ba5565b610c47610c4160016000906103d9565b906101fe565b610c70610c6b6003610c65610c5f60016000906103d9565b906101fe565b90610513565b6107e8565b610c7a6001610bd1565b5b80610c97610c91610c8c60016103ca565b610143565b91610143565b1015610d1057610cb2610cac600183906103d9565b906101fe565b610cc6610cc160038390610513565b6107e8565b610cd8610cd285610143565b91610143565b11610ced575b50610ce890610bed565b610c7b565b91509150610ce8610d08610d0360038490610513565b6107e8565b919290610cde565b505090565b60207f6f6e000000000000000000000000000000000000000000000000000000000000917f4f6e6c79206f776e65722063616e20706572666f726d2074686973206163746960008201520152565b610d706022604092610849565b610d7981610d15565b0190565b610d939060208101906000818303910152610d63565b90565b15610d9d57565b610da5610123565b62461bcd60e51b815280610dbb60048201610d7d565b0390fd5b610dfb33610df5610def7f0000000000000000000000000000000000000000000000000000000000000000610225565b91610225565b14610d96565b610e03610e80565b565b90565b610e1c610e17610e2192610e05565b6104dc565b610143565b90565b60001b90565b90610e3760001991610e24565b9181191691161790565b610e55610e50610e5a92610143565b6104dc565b610143565b90565b90565b90610e75610e70610e7c92610e41565b610e5d565b8254610e2a565b9055565b610e94610e8d6063610e08565b6005610e60565b565b610e9e610dbf565b565b610eb4610eaf610eb9926109bf565b6104dc565b610143565b90565b60007f557365722068617320616c7265616479206465706f7369746564000000000000910152565b610ef1601a602092610849565b610efa81610ebc565b0190565b610f149060208101906000818303910152610ee4565b90565b15610f1e57565b610f26610123565b62461bcd60e51b815280610f3c60048201610efe565b0390fd5b60007f496e76616c6964206465706f73697420616d6f756e7400000000000000000000910152565b610f756016602092610849565b610f7e81610f40565b0190565b610f989060208101906000818303910152610f68565b90565b15610fa257565b610faa610123565b62461bcd60e51b815280610fc060048201610f82565b0390fd5b60207f65206465706f7369747300000000000000000000000000000000000000000000917f5661756c742069732066756c6c2c2063616e6e6f7420616363657074206d6f7260008201520152565b61101f602a604092610849565b61102881610fc4565b0190565b6110429060208101906000818303910152611012565b90565b1561104c57565b611054610123565b62461bcd60e51b81528061106a6004820161102c565b0390fd5b61109e61108561108060033390610513565b6107e8565b6110986110926000610ea0565b91610143565b14610f17565b346110b86110b26110ad610705565b610143565b91610143565b101580611102575b6110c990610f9b565b6110f66110d660056107e8565b6110ef6110e96110e4610777565b610143565b91610143565b1115611045565b6111003433611278565b565b506110c93461112061111a611115610693565b610143565b91610143565b111590506110c0565b634e487b7160e01b600052601160045260246000fd5b61114e61115491939293610143565b92610143565b820180921161115f57565b611129565b90565b634e487b7160e01b600052604160045260246000fd5b600052602060002090565b5490565b61119581611188565b8210156111b0576111a760019161117d565b91020190600090565b6103b4565b1b90565b919060086111d99102916111d360018060a01b03846111b5565b926111b5565b9181191691161790565b90565b91906111fc6111f761120493610507565b6111e3565b9083546111b9565b9055565b908154916801000000000000000083101561123857826112309160016112369501815561118c565b906111e6565b565b611167565b9061124e60018060a01b0391610e24565b9181191691161790565b9061126d61126861127492610507565b6111e3565b825461123d565b9055565b6112c06112f59261129c6112958261129060026107e8565b61113f565b6002610e60565b6112ba6112ab60038590610513565b916112b5836107e8565b61113f565b90610e60565b6112e66112df6112d06001610bd1565b6112da60056107e8565b61113f565b6005610e60565b6112f06001611164565b611208565b6112ff60056107e8565b61131861131261130d610777565b610143565b91610143565b14611320575b565b61133261132b610bfc565b6004611258565b61131e56fea2646970667358221220b09f02d264df3b7264c693594aa91257f92bce23b7f692d743e6b84ee941ee5664736f6c63430008180033","opcodes":"PUSH1 0xA0 PUSH1 0x40 MSTORE CALLVALUE PUSH3 0x47 JUMPI PUSH3 0x1E PUSH3 0x18 PUSH3 0x126 JUMP JUMPDEST PUSH3 0x243 JUMP JUMPDEST PUSH3 0x28 PUSH3 0x4D JUMP JUMPDEST PUSH2 0x136D PUSH3 0x265 DUP3 CODECOPY PUSH1 0x80 MLOAD DUP2 DUP2 DUP2 PUSH2 0x5F4 ADD MSTORE PUSH2 0xDCB ADD MSTORE PUSH2 0x136D SWAP1 RETURN JUMPDEST PUSH3 0x53 JUMP JUMPDEST PUSH1 0x40 MLOAD SWAP1 JUMP JUMPDEST PUSH1 0x0 DUP1 REVERT JUMPDEST PUSH1 0x1F DUP1 NOT SWAP2 ADD AND SWAP1 JUMP JUMPDEST PUSH4 0x4E487B71 PUSH1 0xE0 SHL PUSH1 0x0 MSTORE PUSH1 0x41 PUSH1 0x4 MSTORE PUSH1 0x24 PUSH1 0x0 REVERT JUMPDEST SWAP1 PUSH3 0x84 SWAP1 PUSH3 0x58 JUMP JUMPDEST DUP2 ADD SWAP1 DUP2 LT PUSH1 0x1 DUP1 PUSH1 0x40 SHL SUB DUP3 GT OR PUSH3 0x9D JUMPI PUSH1 0x40 MSTORE JUMP JUMPDEST PUSH3 0x62 JUMP JUMPDEST SWAP1 PUSH3 0xBA PUSH3 0xB2 PUSH3 0x4D JUMP JUMPDEST SWAP3 DUP4 PUSH3 0x78 JUMP JUMPDEST JUMP JUMPDEST PUSH1 0x0 DUP1 REVERT JUMPDEST PUSH1 0x1 DUP1 PUSH1 0xA0 SHL SUB AND SWAP1 JUMP JUMPDEST PUSH3 0xD7 SWAP1 PUSH3 0xC1 JUMP JUMPDEST SWAP1 JUMP JUMPDEST PUSH3 0xE5 DUP2 PUSH3 0xCC JUMP JUMPDEST SUB PUSH3 0xED JUMPI JUMP JUMPDEST PUSH1 0x0 DUP1 REVERT JUMPDEST SWAP1 POP MLOAD SWAP1 PUSH3 0x101 DUP3 PUSH3 0xDA JUMP JUMPDEST JUMP JUMPDEST SWAP1 PUSH1 0x20 DUP3 DUP3 SUB SLT PUSH3 0x120 JUMPI PUSH3 0x11D SWAP2 PUSH1 0x0 ADD PUSH3 0xF2 JUMP JUMPDEST SWAP1 JUMP JUMPDEST PUSH3 0xBC JUMP JUMPDEST PUSH3 0x149 PUSH3 0x15D2 DUP1 CODESIZE SUB DUP1 PUSH3 0x13D DUP2 PUSH3 0xA3 JUMP JUMPDEST SWAP3 DUP4 CODECOPY DUP2 ADD SWAP1 PUSH3 0x103 JUMP JUMPDEST SWAP1 JUMP JUMPDEST PUSH1 0x0 SHL SWAP1 JUMP JUMPDEST SWAP1 PUSH3 0x161 PUSH1 0x0 NOT SWAP2 PUSH3 0x14C JUMP JUMPDEST SWAP2 DUP2 NOT AND SWAP2 AND OR SWAP1 JUMP JUMPDEST SWAP1 JUMP JUMPDEST SWAP1 JUMP JUMPDEST SWAP1 JUMP JUMPDEST PUSH3 0x18D PUSH3 0x187 PUSH3 0x193 SWAP3 PUSH3 0x16B JUMP JUMPDEST PUSH3 0x171 JUMP JUMPDEST PUSH3 0x16E JUMP JUMPDEST SWAP1 JUMP JUMPDEST SWAP1 JUMP JUMPDEST SWAP1 PUSH3 0x1B3 PUSH3 0x1AD PUSH3 0x1BB SWAP3 PUSH3 0x174 JUMP JUMPDEST PUSH3 0x196 JUMP JUMPDEST DUP3 SLOAD PUSH3 0x152 JUMP JUMPDEST SWAP1 SSTORE JUMP JUMPDEST SWAP1 PUSH3 0x1D2 PUSH1 0x1 DUP1 PUSH1 0xA0 SHL SUB SWAP2 PUSH3 0x14C JUMP JUMPDEST SWAP2 DUP2 NOT AND SWAP2 AND OR SWAP1 JUMP JUMPDEST PUSH3 0x1F5 PUSH3 0x1EF PUSH3 0x1FB SWAP3 PUSH3 0xC1 JUMP JUMPDEST PUSH3 0x171 JUMP JUMPDEST PUSH3 0xC1 JUMP JUMPDEST SWAP1 JUMP JUMPDEST PUSH3 0x209 SWAP1 PUSH3 0x1DC JUMP JUMPDEST SWAP1 JUMP JUMPDEST PUSH3 0x217 SWAP1 PUSH3 0x1FE JUMP JUMPDEST SWAP1 JUMP JUMPDEST SWAP1 JUMP JUMPDEST SWAP1 PUSH3 0x237 PUSH3 0x231 PUSH3 0x23F SWAP3 PUSH3 0x20C JUMP JUMPDEST PUSH3 0x21A JUMP JUMPDEST DUP3 SLOAD PUSH3 0x1BF JUMP JUMPDEST SWAP1 SSTORE JUMP JUMPDEST PUSH3 0x262 SWAP1 PUSH3 0x256 PUSH1 0x0 PUSH1 0x5 PUSH3 0x199 JUMP JUMPDEST CALLER PUSH1 0x80 MSTORE PUSH1 0x0 PUSH3 0x21D JUMP JUMPDEST JUMP INVALID PUSH1 0x80 PUSH1 0x40 MSTORE PUSH1 0x4 CALLDATASIZE LT ISZERO PUSH2 0x13 JUMPI JUMPDEST PUSH2 0x7C4 JUMP JUMPDEST PUSH2 0x1E PUSH1 0x0 CALLDATALOAD PUSH2 0x11D JUMP JUMPDEST DUP1 PUSH4 0x6DD74A5 EQ PUSH2 0x118 JUMPI DUP1 PUSH4 0xFEC1959 EQ PUSH2 0x113 JUMPI DUP1 PUSH4 0x116136DA EQ PUSH2 0x10E JUMPI DUP1 PUSH4 0x12065FE0 EQ PUSH2 0x109 JUMPI DUP1 PUSH4 0x18160DDD EQ PUSH2 0x104 JUMPI DUP1 PUSH4 0x19507D2C EQ PUSH2 0xFF JUMPI DUP1 PUSH4 0x35C1D349 EQ PUSH2 0xFA JUMPI DUP1 PUSH4 0x42373E74 EQ PUSH2 0xF5 JUMPI DUP1 PUSH4 0x70A08231 EQ PUSH2 0xF0 JUMPI DUP1 PUSH4 0x74244BC9 EQ PUSH2 0xEB JUMPI DUP1 PUSH4 0x7CDA8ED5 EQ PUSH2 0xE6 JUMPI DUP1 PUSH4 0x8DA5CB5B EQ PUSH2 0xE1 JUMPI DUP1 PUSH4 0xD0E30DB0 EQ PUSH2 0xDC JUMPI DUP1 PUSH4 0xDD5967C3 EQ PUSH2 0xD7 JUMPI DUP1 PUSH4 0xE1E158A5 EQ PUSH2 0xD2 JUMPI PUSH4 0xF3BAF070 SUB PUSH2 0xE JUMPI PUSH2 0x78F JUMP JUMPDEST PUSH2 0x723 JUMP JUMPDEST PUSH2 0x6B1 JUMP JUMPDEST PUSH2 0x64B JUMP JUMPDEST PUSH2 0x616 JUMP JUMPDEST PUSH2 0x5BF JUMP JUMPDEST PUSH2 0x58A JUMP JUMPDEST PUSH2 0x545 JUMP JUMPDEST PUSH2 0x464 JUMP JUMPDEST PUSH2 0x42F JUMP JUMPDEST PUSH2 0x33C JUMP JUMPDEST PUSH2 0x2F7 JUMP JUMPDEST PUSH2 0x289 JUMP JUMPDEST PUSH2 0x254 JUMP JUMPDEST PUSH2 0x1A4 JUMP JUMPDEST PUSH2 0x169 JUMP JUMPDEST PUSH1 0xE0 SHR SWAP1 JUMP JUMPDEST PUSH1 0x40 MLOAD SWAP1 JUMP JUMPDEST PUSH1 0x0 DUP1 REVERT JUMPDEST PUSH1 0x0 DUP1 REVERT JUMPDEST PUSH1 0x0 SWAP2 SUB SLT PUSH2 0x13E JUMPI JUMP JUMPDEST PUSH2 0x12E JUMP JUMPDEST SWAP1 JUMP JUMPDEST PUSH2 0x14F SWAP1 PUSH2 0x143 JUMP JUMPDEST SWAP1 MSTORE JUMP JUMPDEST SWAP2 SWAP1 PUSH2 0x167 SWAP1 PUSH1 0x0 PUSH1 0x20 DUP6 ADD SWAP5 ADD SWAP1 PUSH2 0x146 JUMP JUMPDEST JUMP JUMPDEST CALLVALUE PUSH2 0x199 JUMPI PUSH2 0x179 CALLDATASIZE PUSH1 0x4 PUSH2 0x133 JUMP JUMPDEST PUSH2 0x195 PUSH2 0x184 PUSH2 0x7F5 JUMP JUMPDEST PUSH2 0x18C PUSH2 0x123 JUMP JUMPDEST SWAP2 DUP3 SWAP2 DUP3 PUSH2 0x153 JUMP JUMPDEST SUB SWAP1 RETURN JUMPDEST PUSH2 0x129 JUMP JUMPDEST PUSH1 0x0 ADD SWAP1 JUMP JUMPDEST CALLVALUE PUSH2 0x1D2 JUMPI PUSH2 0x1B4 CALLDATASIZE PUSH1 0x4 PUSH2 0x133 JUMP JUMPDEST PUSH2 0x1BC PUSH2 0xB25 JUMP JUMPDEST PUSH2 0x1C4 PUSH2 0x123 JUMP JUMPDEST DUP1 PUSH2 0x1CE DUP2 PUSH2 0x19E JUMP JUMPDEST SUB SWAP1 RETURN JUMPDEST PUSH2 0x129 JUMP JUMPDEST SHR SWAP1 JUMP JUMPDEST PUSH1 0x1 DUP1 PUSH1 0xA0 SHL SUB AND SWAP1 JUMP JUMPDEST PUSH2 0x1F6 SWAP1 PUSH1 0x8 PUSH2 0x1FB SWAP4 MUL PUSH2 0x1D7 JUMP JUMPDEST PUSH2 0x1DB JUMP JUMPDEST SWAP1 JUMP JUMPDEST SWAP1 PUSH2 0x209 SWAP2 SLOAD PUSH2 0x1E6 JUMP JUMPDEST SWAP1 JUMP JUMPDEST PUSH2 0x217 PUSH1 0x0 DUP1 PUSH2 0x1FE JUMP JUMPDEST SWAP1 JUMP JUMPDEST PUSH1 0x1 DUP1 PUSH1 0xA0 SHL SUB AND SWAP1 JUMP JUMPDEST PUSH2 0x22E SWAP1 PUSH2 0x21A JUMP JUMPDEST SWAP1 JUMP JUMPDEST PUSH2 0x23A SWAP1 PUSH2 0x225 JUMP JUMPDEST SWAP1 MSTORE JUMP JUMPDEST SWAP2 SWAP1 PUSH2 0x252 SWAP1 PUSH1 0x0 PUSH1 0x20 DUP6 ADD SWAP5 ADD SWAP1 PUSH2 0x231 JUMP JUMPDEST JUMP JUMPDEST CALLVALUE PUSH2 0x284 JUMPI PUSH2 0x264 CALLDATASIZE PUSH1 0x4 PUSH2 0x133 JUMP JUMPDEST PUSH2 0x280 PUSH2 0x26F PUSH2 0x20C JUMP JUMPDEST PUSH2 0x277 PUSH2 0x123 JUMP JUMPDEST SWAP2 DUP3 SWAP2 DUP3 PUSH2 0x23E JUMP JUMPDEST SUB SWAP1 RETURN JUMPDEST PUSH2 0x129 JUMP JUMPDEST CALLVALUE PUSH2 0x2B9 JUMPI PUSH2 0x299 CALLDATASIZE PUSH1 0x4 PUSH2 0x133 JUMP JUMPDEST PUSH2 0x2B5 PUSH2 0x2A4 PUSH2 0xB2F JUMP JUMPDEST PUSH2 0x2AC PUSH2 0x123 JUMP JUMPDEST SWAP2 DUP3 SWAP2 DUP3 PUSH2 0x153 JUMP JUMPDEST SUB SWAP1 RETURN JUMPDEST PUSH2 0x129 JUMP JUMPDEST SWAP1 JUMP JUMPDEST PUSH2 0x2D1 SWAP1 PUSH1 0x8 PUSH2 0x2D6 SWAP4 MUL PUSH2 0x1D7 JUMP JUMPDEST PUSH2 0x2BE JUMP JUMPDEST SWAP1 JUMP JUMPDEST SWAP1 PUSH2 0x2E4 SWAP2 SLOAD PUSH2 0x2C1 JUMP JUMPDEST SWAP1 JUMP JUMPDEST PUSH2 0x2F4 PUSH1 0x2 PUSH1 0x0 SWAP1 PUSH2 0x2D9 JUMP JUMPDEST SWAP1 JUMP JUMPDEST CALLVALUE PUSH2 0x327 JUMPI PUSH2 0x307 CALLDATASIZE PUSH1 0x4 PUSH2 0x133 JUMP JUMPDEST PUSH2 0x323 PUSH2 0x312 PUSH2 0x2E7 JUMP JUMPDEST PUSH2 0x31A PUSH2 0x123 JUMP JUMPDEST SWAP2 DUP3 SWAP2 DUP3 PUSH2 0x153 JUMP JUMPDEST SUB SWAP1 RETURN JUMPDEST PUSH2 0x129 JUMP JUMPDEST PUSH2 0x339 PUSH1 0x4 PUSH1 0x0 SWAP1 PUSH2 0x1FE JUMP JUMPDEST SWAP1 JUMP JUMPDEST CALLVALUE PUSH2 0x36C JUMPI PUSH2 0x34C CALLDATASIZE PUSH1 0x4 PUSH2 0x133 JUMP JUMPDEST PUSH2 0x368 PUSH2 0x357 PUSH2 0x32C JUMP JUMPDEST PUSH2 0x35F PUSH2 0x123 JUMP JUMPDEST SWAP2 DUP3 SWAP2 DUP3 PUSH2 0x23E JUMP JUMPDEST SUB SWAP1 RETURN JUMPDEST PUSH2 0x129 JUMP JUMPDEST PUSH2 0x37A DUP2 PUSH2 0x143 JUMP JUMPDEST SUB PUSH2 0x381 JUMPI JUMP JUMPDEST PUSH1 0x0 DUP1 REVERT JUMPDEST SWAP1 POP CALLDATALOAD SWAP1 PUSH2 0x393 DUP3 PUSH2 0x371 JUMP JUMPDEST JUMP JUMPDEST SWAP1 PUSH1 0x20 DUP3 DUP3 SUB SLT PUSH2 0x3AF JUMPI PUSH2 0x3AC SWAP2 PUSH1 0x0 ADD PUSH2 0x386 JUMP JUMPDEST SWAP1 JUMP JUMPDEST PUSH2 0x12E JUMP JUMPDEST PUSH4 0x4E487B71 PUSH1 0xE0 SHL PUSH1 0x0 MSTORE PUSH1 0x32 PUSH1 0x4 MSTORE PUSH1 0x24 PUSH1 0x0 REVERT JUMPDEST SLOAD SWAP1 JUMP JUMPDEST PUSH1 0x0 MSTORE PUSH1 0x20 PUSH1 0x0 KECCAK256 SWAP1 JUMP JUMPDEST PUSH2 0x3E2 DUP2 PUSH2 0x3CA JUMP JUMPDEST DUP3 LT ISZERO PUSH2 0x3FD JUMPI PUSH2 0x3F4 PUSH1 0x1 SWAP2 PUSH2 0x3CE JUMP JUMPDEST SWAP2 MUL ADD SWAP1 PUSH1 0x0 SWAP1 JUMP JUMPDEST PUSH2 0x3B4 JUMP JUMPDEST PUSH1 0x1 PUSH2 0x40D DUP2 PUSH2 0x3CA JUMP JUMPDEST DUP3 LT ISZERO PUSH2 0x42A JUMPI PUSH2 0x427 SWAP2 PUSH2 0x421 SWAP2 PUSH2 0x3D9 JUMP JUMPDEST SWAP1 PUSH2 0x1FE JUMP JUMPDEST SWAP1 JUMP JUMPDEST PUSH1 0x0 DUP1 REVERT JUMPDEST CALLVALUE PUSH2 0x45F JUMPI PUSH2 0x45B PUSH2 0x44A PUSH2 0x445 CALLDATASIZE PUSH1 0x4 PUSH2 0x395 JUMP JUMPDEST PUSH2 0x402 JUMP JUMPDEST PUSH2 0x452 PUSH2 0x123 JUMP JUMPDEST SWAP2 DUP3 SWAP2 DUP3 PUSH2 0x23E JUMP JUMPDEST SUB SWAP1 RETURN JUMPDEST PUSH2 0x129 JUMP JUMPDEST CALLVALUE PUSH2 0x494 JUMPI PUSH2 0x474 CALLDATASIZE PUSH1 0x4 PUSH2 0x133 JUMP JUMPDEST PUSH2 0x490 PUSH2 0x47F PUSH2 0xBFC JUMP JUMPDEST PUSH2 0x487 PUSH2 0x123 JUMP JUMPDEST SWAP2 DUP3 SWAP2 DUP3 PUSH2 0x23E JUMP JUMPDEST SUB SWAP1 RETURN JUMPDEST PUSH2 0x129 JUMP JUMPDEST PUSH2 0x4A2 DUP2 PUSH2 0x225 JUMP JUMPDEST SUB PUSH2 0x4A9 JUMPI JUMP JUMPDEST PUSH1 0x0 DUP1 REVERT JUMPDEST SWAP1 POP CALLDATALOAD SWAP1 PUSH2 0x4BB DUP3 PUSH2 0x499 JUMP JUMPDEST JUMP JUMPDEST SWAP1 PUSH1 0x20 DUP3 DUP3 SUB SLT PUSH2 0x4D7 JUMPI PUSH2 0x4D4 SWAP2 PUSH1 0x0 ADD PUSH2 0x4AE JUMP JUMPDEST SWAP1 JUMP JUMPDEST PUSH2 0x12E JUMP JUMPDEST SWAP1 JUMP JUMPDEST PUSH2 0x4F3 PUSH2 0x4EE PUSH2 0x4F8 SWAP3 PUSH2 0x21A JUMP JUMPDEST PUSH2 0x4DC JUMP JUMPDEST PUSH2 0x21A JUMP JUMPDEST SWAP1 JUMP JUMPDEST PUSH2 0x504 SWAP1 PUSH2 0x4DF JUMP JUMPDEST SWAP1 JUMP JUMPDEST PUSH2 0x510 SWAP1 PUSH2 0x4FB JUMP JUMPDEST SWAP1 JUMP JUMPDEST SWAP1 PUSH2 0x51D SWAP1 PUSH2 0x507 JUMP JUMPDEST PUSH1 0x0 MSTORE PUSH1 0x20 MSTORE PUSH1 0x40 PUSH1 0x0 KECCAK256 SWAP1 JUMP JUMPDEST PUSH2 0x542 SWAP1 PUSH2 0x53D PUSH1 0x3 SWAP2 PUSH1 0x0 SWAP3 PUSH2 0x513 JUMP JUMPDEST PUSH2 0x2D9 JUMP JUMPDEST SWAP1 JUMP JUMPDEST CALLVALUE PUSH2 0x575 JUMPI PUSH2 0x571 PUSH2 0x560 PUSH2 0x55B CALLDATASIZE PUSH1 0x4 PUSH2 0x4BD JUMP JUMPDEST PUSH2 0x52B JUMP JUMPDEST PUSH2 0x568 PUSH2 0x123 JUMP JUMPDEST SWAP2 DUP3 SWAP2 DUP3 PUSH2 0x153 JUMP JUMPDEST SUB SWAP1 RETURN JUMPDEST PUSH2 0x129 JUMP JUMPDEST PUSH2 0x587 PUSH1 0x5 PUSH1 0x0 SWAP1 PUSH2 0x2D9 JUMP JUMPDEST SWAP1 JUMP JUMPDEST CALLVALUE PUSH2 0x5BA JUMPI PUSH2 0x59A CALLDATASIZE PUSH1 0x4 PUSH2 0x133 JUMP JUMPDEST PUSH2 0x5B6 PUSH2 0x5A5 PUSH2 0x57A JUMP JUMPDEST PUSH2 0x5AD PUSH2 0x123 JUMP JUMPDEST SWAP2 DUP3 SWAP2 DUP3 PUSH2 0x153 JUMP JUMPDEST SUB SWAP1 RETURN JUMPDEST PUSH2 0x129 JUMP JUMPDEST CALLVALUE PUSH2 0x5ED JUMPI PUSH2 0x5CF CALLDATASIZE PUSH1 0x4 PUSH2 0x133 JUMP JUMPDEST PUSH2 0x5D7 PUSH2 0xE96 JUMP JUMPDEST PUSH2 0x5DF PUSH2 0x123 JUMP JUMPDEST DUP1 PUSH2 0x5E9 DUP2 PUSH2 0x19E JUMP JUMPDEST SUB SWAP1 RETURN JUMPDEST PUSH2 0x129 JUMP JUMPDEST PUSH32 0x0 SWAP1 JUMP JUMPDEST CALLVALUE PUSH2 0x646 JUMPI PUSH2 0x626 CALLDATASIZE PUSH1 0x4 PUSH2 0x133 JUMP JUMPDEST PUSH2 0x642 PUSH2 0x631 PUSH2 0x5F2 JUMP JUMPDEST PUSH2 0x639 PUSH2 0x123 JUMP JUMPDEST SWAP2 DUP3 SWAP2 DUP3 PUSH2 0x23E JUMP JUMPDEST SUB SWAP1 RETURN JUMPDEST PUSH2 0x129 JUMP JUMPDEST PUSH2 0x656 CALLDATASIZE PUSH1 0x4 PUSH2 0x133 JUMP JUMPDEST PUSH2 0x65E PUSH2 0x106E JUMP JUMPDEST PUSH2 0x666 PUSH2 0x123 JUMP JUMPDEST DUP1 PUSH2 0x670 DUP2 PUSH2 0x19E JUMP JUMPDEST SUB SWAP1 RETURN JUMPDEST SWAP1 JUMP JUMPDEST PUSH2 0x68B PUSH2 0x686 PUSH2 0x690 SWAP3 PUSH2 0x674 JUMP JUMPDEST PUSH2 0x4DC JUMP JUMPDEST PUSH2 0x143 JUMP JUMPDEST SWAP1 JUMP JUMPDEST PUSH2 0x6A3 PUSH7 0x8E1BC9BF040000 PUSH2 0x677 JUMP JUMPDEST SWAP1 JUMP JUMPDEST PUSH2 0x6AE PUSH2 0x693 JUMP JUMPDEST SWAP1 JUMP JUMPDEST CALLVALUE PUSH2 0x6E1 JUMPI PUSH2 0x6C1 CALLDATASIZE PUSH1 0x4 PUSH2 0x133 JUMP JUMPDEST PUSH2 0x6DD PUSH2 0x6CC PUSH2 0x6A6 JUMP JUMPDEST PUSH2 0x6D4 PUSH2 0x123 JUMP JUMPDEST SWAP2 DUP3 SWAP2 DUP3 PUSH2 0x153 JUMP JUMPDEST SUB SWAP1 RETURN JUMPDEST PUSH2 0x129 JUMP JUMPDEST SWAP1 JUMP JUMPDEST PUSH2 0x6FD PUSH2 0x6F8 PUSH2 0x702 SWAP3 PUSH2 0x6E6 JUMP JUMPDEST PUSH2 0x4DC JUMP JUMPDEST PUSH2 0x143 JUMP JUMPDEST SWAP1 JUMP JUMPDEST PUSH2 0x715 PUSH7 0x470DE4DF820000 PUSH2 0x6E9 JUMP JUMPDEST SWAP1 JUMP JUMPDEST PUSH2 0x720 PUSH2 0x705 JUMP JUMPDEST SWAP1 JUMP JUMPDEST CALLVALUE PUSH2 0x753 JUMPI PUSH2 0x733 CALLDATASIZE PUSH1 0x4 PUSH2 0x133 JUMP JUMPDEST PUSH2 0x74F PUSH2 0x73E PUSH2 0x718 JUMP JUMPDEST PUSH2 0x746 PUSH2 0x123 JUMP JUMPDEST SWAP2 DUP3 SWAP2 DUP3 PUSH2 0x153 JUMP JUMPDEST SUB SWAP1 RETURN JUMPDEST PUSH2 0x129 JUMP JUMPDEST SWAP1 JUMP JUMPDEST PUSH2 0x76F PUSH2 0x76A PUSH2 0x774 SWAP3 PUSH2 0x758 JUMP JUMPDEST PUSH2 0x4DC JUMP JUMPDEST PUSH2 0x143 JUMP JUMPDEST SWAP1 JUMP JUMPDEST PUSH2 0x781 PUSH1 0x64 PUSH2 0x75B JUMP JUMPDEST SWAP1 JUMP JUMPDEST PUSH2 0x78C PUSH2 0x777 JUMP JUMPDEST SWAP1 JUMP JUMPDEST CALLVALUE PUSH2 0x7BF JUMPI PUSH2 0x79F CALLDATASIZE PUSH1 0x4 PUSH2 0x133 JUMP JUMPDEST PUSH2 0x7BB PUSH2 0x7AA PUSH2 0x784 JUMP JUMPDEST PUSH2 0x7B2 PUSH2 0x123 JUMP JUMPDEST SWAP2 DUP3 SWAP2 DUP3 PUSH2 0x153 JUMP JUMPDEST SUB SWAP1 RETURN JUMPDEST PUSH2 0x129 JUMP JUMPDEST PUSH1 0x0 DUP1 REVERT JUMPDEST PUSH1 0x0 SWAP1 JUMP JUMPDEST PUSH1 0x0 SHR SWAP1 JUMP JUMPDEST PUSH2 0x7E0 PUSH2 0x7E5 SWAP2 PUSH2 0x7CE JUMP JUMPDEST PUSH2 0x2BE JUMP JUMPDEST SWAP1 JUMP JUMPDEST PUSH2 0x7F2 SWAP1 SLOAD PUSH2 0x7D4 JUMP JUMPDEST SWAP1 JUMP JUMPDEST PUSH2 0x7FD PUSH2 0x7C9 JUMP JUMPDEST POP PUSH2 0x825 PUSH2 0x820 PUSH1 0x3 PUSH2 0x81A PUSH2 0x814 PUSH1 0x1 DUP1 PUSH2 0x3D9 JUMP JUMPDEST SWAP1 PUSH2 0x1FE JUMP JUMPDEST SWAP1 PUSH2 0x513 JUMP JUMPDEST PUSH2 0x7E8 JUMP JUMPDEST SWAP1 JUMP JUMPDEST PUSH2 0x834 PUSH2 0x839 SWAP2 PUSH2 0x7CE JUMP JUMPDEST PUSH2 0x1DB JUMP JUMPDEST SWAP1 JUMP JUMPDEST PUSH2 0x846 SWAP1 SLOAD PUSH2 0x828 JUMP JUMPDEST SWAP1 JUMP JUMPDEST PUSH1 0x20 SWAP2 DUP2 MSTORE ADD SWAP1 JUMP JUMPDEST PUSH1 0x0 PUSH32 0x4E6F7420616C6C6F77656420746F207472616E736665722066756E6473000000 SWAP2 ADD MSTORE JUMP JUMPDEST PUSH2 0x887 PUSH1 0x1D PUSH1 0x20 SWAP3 PUSH2 0x849 JUMP JUMPDEST PUSH2 0x890 DUP2 PUSH2 0x852 JUMP JUMPDEST ADD SWAP1 JUMP JUMPDEST PUSH2 0x8AA SWAP1 PUSH1 0x20 DUP2 ADD SWAP1 PUSH1 0x0 DUP2 DUP4 SUB SWAP2 ADD MSTORE PUSH2 0x87A JUMP JUMPDEST SWAP1 JUMP JUMPDEST ISZERO PUSH2 0x8B4 JUMPI JUMP JUMPDEST PUSH2 0x8BC PUSH2 0x123 JUMP JUMPDEST PUSH3 0x461BCD PUSH1 0xE5 SHL DUP2 MSTORE DUP1 PUSH2 0x8D2 PUSH1 0x4 DUP3 ADD PUSH2 0x894 JUMP JUMPDEST SUB SWAP1 REVERT JUMPDEST PUSH2 0x8FB PUSH2 0x8E3 PUSH1 0x4 PUSH2 0x83C JUMP JUMPDEST PUSH2 0x8F5 PUSH2 0x8EF CALLER PUSH2 0x225 JUMP JUMPDEST SWAP2 PUSH2 0x225 JUMP JUMPDEST EQ PUSH2 0x8AD JUMP JUMPDEST PUSH2 0x903 PUSH2 0x989 JUMP JUMPDEST JUMP JUMPDEST PUSH1 0x0 PUSH32 0x5661756C74206973206E6F742066756C6C207965740000000000000000000000 SWAP2 ADD MSTORE JUMP JUMPDEST PUSH2 0x93A PUSH1 0x15 PUSH1 0x20 SWAP3 PUSH2 0x849 JUMP JUMPDEST PUSH2 0x943 DUP2 PUSH2 0x905 JUMP JUMPDEST ADD SWAP1 JUMP JUMPDEST PUSH2 0x95D SWAP1 PUSH1 0x20 DUP2 ADD SWAP1 PUSH1 0x0 DUP2 DUP4 SUB SWAP2 ADD MSTORE PUSH2 0x92D JUMP JUMPDEST SWAP1 JUMP JUMPDEST ISZERO PUSH2 0x967 JUMPI JUMP JUMPDEST PUSH2 0x96F PUSH2 0x123 JUMP JUMPDEST PUSH3 0x461BCD PUSH1 0xE5 SHL DUP2 MSTORE DUP1 PUSH2 0x985 PUSH1 0x4 DUP3 ADD PUSH2 0x947 JUMP JUMPDEST SUB SWAP1 REVERT JUMPDEST PUSH2 0x9B5 PUSH2 0x996 PUSH1 0x5 PUSH2 0x7E8 JUMP JUMPDEST PUSH2 0x9AF PUSH2 0x9A9 PUSH2 0x9A4 PUSH2 0x777 JUMP JUMPDEST PUSH2 0x143 JUMP JUMPDEST SWAP2 PUSH2 0x143 JUMP JUMPDEST EQ PUSH2 0x960 JUMP JUMPDEST PUSH2 0x9BD PUSH2 0xAAF JUMP JUMPDEST JUMP JUMPDEST SWAP1 JUMP JUMPDEST PUSH2 0x9D6 PUSH2 0x9D1 PUSH2 0x9DB SWAP3 PUSH2 0x9BF JUMP JUMPDEST PUSH2 0x4DC JUMP JUMPDEST PUSH2 0x21A JUMP JUMPDEST SWAP1 JUMP JUMPDEST PUSH2 0x9E7 SWAP1 PUSH2 0x9C2 JUMP JUMPDEST SWAP1 JUMP JUMPDEST PUSH1 0x0 PUSH32 0x4C61756E636870616420636F6E7472616374206E6F7420736574000000000000 SWAP2 ADD MSTORE JUMP JUMPDEST PUSH2 0xA1F PUSH1 0x1A PUSH1 0x20 SWAP3 PUSH2 0x849 JUMP JUMPDEST PUSH2 0xA28 DUP2 PUSH2 0x9EA JUMP JUMPDEST ADD SWAP1 JUMP JUMPDEST PUSH2 0xA42 SWAP1 PUSH1 0x20 DUP2 ADD SWAP1 PUSH1 0x0 DUP2 DUP4 SUB SWAP2 ADD MSTORE PUSH2 0xA12 JUMP JUMPDEST SWAP1 JUMP JUMPDEST ISZERO PUSH2 0xA4C JUMPI JUMP JUMPDEST PUSH2 0xA54 PUSH2 0x123 JUMP JUMPDEST PUSH3 0x461BCD PUSH1 0xE5 SHL DUP2 MSTORE DUP1 PUSH2 0xA6A PUSH1 0x4 DUP3 ADD PUSH2 0xA2C JUMP JUMPDEST SUB SWAP1 REVERT JUMPDEST PUSH2 0xA77 SWAP1 PUSH2 0x4DF JUMP JUMPDEST SWAP1 JUMP JUMPDEST PUSH2 0xA83 SWAP1 PUSH2 0xA6E JUMP JUMPDEST SWAP1 JUMP JUMPDEST PUSH2 0xA8F SWAP1 PUSH2 0x4FB JUMP JUMPDEST SWAP1 JUMP JUMPDEST PUSH2 0xA9B SWAP1 PUSH2 0x4FB JUMP JUMPDEST SWAP1 JUMP JUMPDEST PUSH2 0xAA6 PUSH2 0x123 JUMP JUMPDEST RETURNDATASIZE PUSH1 0x0 DUP3 RETURNDATACOPY RETURNDATASIZE SWAP1 REVERT JUMPDEST PUSH2 0xADE PUSH2 0xABC PUSH1 0x0 PUSH2 0x83C JUMP JUMPDEST PUSH2 0xAD7 PUSH2 0xAD1 PUSH2 0xACC PUSH1 0x0 PUSH2 0x9DE JUMP JUMPDEST PUSH2 0x225 JUMP JUMPDEST SWAP2 PUSH2 0x225 JUMP JUMPDEST EQ ISZERO PUSH2 0xA45 JUMP JUMPDEST PUSH1 0x0 DUP1 DUP1 DUP1 PUSH2 0xAFC PUSH2 0xAF7 PUSH2 0xAF2 DUP4 PUSH2 0x83C JUMP JUMPDEST PUSH2 0xA7A JUMP JUMPDEST PUSH2 0xA86 JUMP JUMPDEST PUSH2 0xB05 ADDRESS PUSH2 0xA92 JUMP JUMPDEST BALANCE SWAP1 DUP3 DUP3 ISZERO PUSH2 0xB1C JUMPI JUMPDEST CALL ISZERO PUSH2 0xB17 JUMPI JUMP JUMPDEST PUSH2 0xA9E JUMP JUMPDEST POP PUSH2 0x8FC PUSH2 0xB0F JUMP JUMPDEST PUSH2 0xB2D PUSH2 0x8D6 JUMP JUMPDEST JUMP JUMPDEST PUSH2 0xB37 PUSH2 0x7C9 JUMP JUMPDEST POP PUSH2 0xB41 ADDRESS PUSH2 0xA92 JUMP JUMPDEST BALANCE SWAP1 JUMP JUMPDEST PUSH1 0x0 SWAP1 JUMP JUMPDEST PUSH1 0x0 PUSH32 0x537562736372697074696F6E206E6F7420656E64656400000000000000000000 SWAP2 ADD MSTORE JUMP JUMPDEST PUSH2 0xB7F PUSH1 0x16 PUSH1 0x20 SWAP3 PUSH2 0x849 JUMP JUMPDEST PUSH2 0xB88 DUP2 PUSH2 0xB4A JUMP JUMPDEST ADD SWAP1 JUMP JUMPDEST PUSH2 0xBA2 SWAP1 PUSH1 0x20 DUP2 ADD SWAP1 PUSH1 0x0 DUP2 DUP4 SUB SWAP2 ADD MSTORE PUSH2 0xB72 JUMP JUMPDEST SWAP1 JUMP JUMPDEST ISZERO PUSH2 0xBAC JUMPI JUMP JUMPDEST PUSH2 0xBB4 PUSH2 0x123 JUMP JUMPDEST PUSH3 0x461BCD PUSH1 0xE5 SHL DUP2 MSTORE DUP1 PUSH2 0xBCA PUSH1 0x4 DUP3 ADD PUSH2 0xB8C JUMP JUMPDEST SUB SWAP1 REVERT JUMPDEST SWAP1 JUMP JUMPDEST PUSH2 0xBE5 PUSH2 0xBE0 PUSH2 0xBEA SWAP3 PUSH2 0xBCE JUMP JUMPDEST PUSH2 0x4DC JUMP JUMPDEST PUSH2 0x143 JUMP JUMPDEST SWAP1 JUMP JUMPDEST PUSH1 0x1 PUSH2 0xBF9 SWAP2 ADD PUSH2 0x143 JUMP JUMPDEST SWAP1 JUMP JUMPDEST PUSH2 0xC04 PUSH2 0xB45 JUMP JUMPDEST POP PUSH2 0xC31 PUSH2 0xC12 PUSH1 0x5 PUSH2 0x7E8 JUMP JUMPDEST PUSH2 0xC2B PUSH2 0xC25 PUSH2 0xC20 PUSH2 0x777 JUMP JUMPDEST PUSH2 0x143 JUMP JUMPDEST SWAP2 PUSH2 0x143 JUMP JUMPDEST EQ PUSH2 0xBA5 JUMP JUMPDEST PUSH2 0xC47 PUSH2 0xC41 PUSH1 0x1 PUSH1 0x0 SWAP1 PUSH2 0x3D9 JUMP JUMPDEST SWAP1 PUSH2 0x1FE JUMP JUMPDEST PUSH2 0xC70 PUSH2 0xC6B PUSH1 0x3 PUSH2 0xC65 PUSH2 0xC5F PUSH1 0x1 PUSH1 0x0 SWAP1 PUSH2 0x3D9 JUMP JUMPDEST SWAP1 PUSH2 0x1FE JUMP JUMPDEST SWAP1 PUSH2 0x513 JUMP JUMPDEST PUSH2 0x7E8 JUMP JUMPDEST PUSH2 0xC7A PUSH1 0x1 PUSH2 0xBD1 JUMP JUMPDEST JUMPDEST DUP1 PUSH2 0xC97 PUSH2 0xC91 PUSH2 0xC8C PUSH1 0x1 PUSH2 0x3CA JUMP JUMPDEST PUSH2 0x143 JUMP JUMPDEST SWAP2 PUSH2 0x143 JUMP JUMPDEST LT ISZERO PUSH2 0xD10 JUMPI PUSH2 0xCB2 PUSH2 0xCAC PUSH1 0x1 DUP4 SWAP1 PUSH2 0x3D9 JUMP JUMPDEST SWAP1 PUSH2 0x1FE JUMP JUMPDEST PUSH2 0xCC6 PUSH2 0xCC1 PUSH1 0x3 DUP4 SWAP1 PUSH2 0x513 JUMP JUMPDEST PUSH2 0x7E8 JUMP JUMPDEST PUSH2 0xCD8 PUSH2 0xCD2 DUP6 PUSH2 0x143 JUMP JUMPDEST SWAP2 PUSH2 0x143 JUMP JUMPDEST GT PUSH2 0xCED JUMPI JUMPDEST POP PUSH2 0xCE8 SWAP1 PUSH2 0xBED JUMP JUMPDEST PUSH2 0xC7B JUMP JUMPDEST SWAP2 POP SWAP2 POP PUSH2 0xCE8 PUSH2 0xD08 PUSH2 0xD03 PUSH1 0x3 DUP5 SWAP1 PUSH2 0x513 JUMP JUMPDEST PUSH2 0x7E8 JUMP JUMPDEST SWAP2 SWAP3 SWAP1 PUSH2 0xCDE JUMP JUMPDEST POP POP SWAP1 JUMP JUMPDEST PUSH1 0x20 PUSH32 0x6F6E000000000000000000000000000000000000000000000000000000000000 SWAP2 PUSH32 0x4F6E6C79206F776E65722063616E20706572666F726D20746869732061637469 PUSH1 0x0 DUP3 ADD MSTORE ADD MSTORE JUMP JUMPDEST PUSH2 0xD70 PUSH1 0x22 PUSH1 0x40 SWAP3 PUSH2 0x849 JUMP JUMPDEST PUSH2 0xD79 DUP2 PUSH2 0xD15 JUMP JUMPDEST ADD SWAP1 JUMP JUMPDEST PUSH2 0xD93 SWAP1 PUSH1 0x20 DUP2 ADD SWAP1 PUSH1 0x0 DUP2 DUP4 SUB SWAP2 ADD MSTORE PUSH2 0xD63 JUMP JUMPDEST SWAP1 JUMP JUMPDEST ISZERO PUSH2 0xD9D JUMPI JUMP JUMPDEST PUSH2 0xDA5 PUSH2 0x123 JUMP JUMPDEST PUSH3 0x461BCD PUSH1 0xE5 SHL DUP2 MSTORE DUP1 PUSH2 0xDBB PUSH1 0x4 DUP3 ADD PUSH2 0xD7D JUMP JUMPDEST SUB SWAP1 REVERT JUMPDEST PUSH2 0xDFB CALLER PUSH2 0xDF5 PUSH2 0xDEF PUSH32 0x0 PUSH2 0x225 JUMP JUMPDEST SWAP2 PUSH2 0x225 JUMP JUMPDEST EQ PUSH2 0xD96 JUMP JUMPDEST PUSH2 0xE03 PUSH2 0xE80 JUMP JUMPDEST JUMP JUMPDEST SWAP1 JUMP JUMPDEST PUSH2 0xE1C PUSH2 0xE17 PUSH2 0xE21 SWAP3 PUSH2 0xE05 JUMP JUMPDEST PUSH2 0x4DC JUMP JUMPDEST PUSH2 0x143 JUMP JUMPDEST SWAP1 JUMP JUMPDEST PUSH1 0x0 SHL SWAP1 JUMP JUMPDEST SWAP1 PUSH2 0xE37 PUSH1 0x0 NOT SWAP2 PUSH2 0xE24 JUMP JUMPDEST SWAP2 DUP2 NOT AND SWAP2 AND OR SWAP1 JUMP JUMPDEST PUSH2 0xE55 PUSH2 0xE50 PUSH2 0xE5A SWAP3 PUSH2 0x143 JUMP JUMPDEST PUSH2 0x4DC JUMP JUMPDEST PUSH2 0x143 JUMP JUMPDEST SWAP1 JUMP JUMPDEST SWAP1 JUMP JUMPDEST SWAP1 PUSH2 0xE75 PUSH2 0xE70 PUSH2 0xE7C SWAP3 PUSH2 0xE41 JUMP JUMPDEST PUSH2 0xE5D JUMP JUMPDEST DUP3 SLOAD PUSH2 0xE2A JUMP JUMPDEST SWAP1 SSTORE JUMP JUMPDEST PUSH2 0xE94 PUSH2 0xE8D PUSH1 0x63 PUSH2 0xE08 JUMP JUMPDEST PUSH1 0x5 PUSH2 0xE60 JUMP JUMPDEST JUMP JUMPDEST PUSH2 0xE9E PUSH2 0xDBF JUMP JUMPDEST JUMP JUMPDEST PUSH2 0xEB4 PUSH2 0xEAF PUSH2 0xEB9 SWAP3 PUSH2 0x9BF JUMP JUMPDEST PUSH2 0x4DC JUMP JUMPDEST PUSH2 0x143 JUMP JUMPDEST SWAP1 JUMP JUMPDEST PUSH1 0x0 PUSH32 0x557365722068617320616C7265616479206465706F7369746564000000000000 SWAP2 ADD MSTORE JUMP JUMPDEST PUSH2 0xEF1 PUSH1 0x1A PUSH1 0x20 SWAP3 PUSH2 0x849 JUMP JUMPDEST PUSH2 0xEFA DUP2 PUSH2 0xEBC JUMP JUMPDEST ADD SWAP1 JUMP JUMPDEST PUSH2 0xF14 SWAP1 PUSH1 0x20 DUP2 ADD SWAP1 PUSH1 0x0 DUP2 DUP4 SUB SWAP2 ADD MSTORE PUSH2 0xEE4 JUMP JUMPDEST SWAP1 JUMP JUMPDEST ISZERO PUSH2 0xF1E JUMPI JUMP JUMPDEST PUSH2 0xF26 PUSH2 0x123 JUMP JUMPDEST PUSH3 0x461BCD PUSH1 0xE5 SHL DUP2 MSTORE DUP1 PUSH2 0xF3C PUSH1 0x4 DUP3 ADD PUSH2 0xEFE JUMP JUMPDEST SUB SWAP1 REVERT JUMPDEST PUSH1 0x0 PUSH32 0x496E76616C6964206465706F73697420616D6F756E7400000000000000000000 SWAP2 ADD MSTORE JUMP JUMPDEST PUSH2 0xF75 PUSH1 0x16 PUSH1 0x20 SWAP3 PUSH2 0x849 JUMP JUMPDEST PUSH2 0xF7E DUP2 PUSH2 0xF40 JUMP JUMPDEST ADD SWAP1 JUMP JUMPDEST PUSH2 0xF98 SWAP1 PUSH1 0x20 DUP2 ADD SWAP1 PUSH1 0x0 DUP2 DUP4 SUB SWAP2 ADD MSTORE PUSH2 0xF68 JUMP JUMPDEST SWAP1 JUMP JUMPDEST ISZERO PUSH2 0xFA2 JUMPI JUMP JUMPDEST PUSH2 0xFAA PUSH2 0x123 JUMP JUMPDEST PUSH3 0x461BCD PUSH1 0xE5 SHL DUP2 MSTORE DUP1 PUSH2 0xFC0 PUSH1 0x4 DUP3 ADD PUSH2 0xF82 JUMP JUMPDEST SUB SWAP1 REVERT JUMPDEST PUSH1 0x20 PUSH32 0x65206465706F7369747300000000000000000000000000000000000000000000 SWAP2 PUSH32 0x5661756C742069732066756C6C2C2063616E6E6F7420616363657074206D6F72 PUSH1 0x0 DUP3 ADD MSTORE ADD MSTORE JUMP JUMPDEST PUSH2 0x101F PUSH1 0x2A PUSH1 0x40 SWAP3 PUSH2 0x849 JUMP JUMPDEST PUSH2 0x1028 DUP2 PUSH2 0xFC4 JUMP JUMPDEST ADD SWAP1 JUMP JUMPDEST PUSH2 0x1042 SWAP1 PUSH1 0x20 DUP2 ADD SWAP1 PUSH1 0x0 DUP2 DUP4 SUB SWAP2 ADD MSTORE PUSH2 0x1012 JUMP JUMPDEST SWAP1 JUMP JUMPDEST ISZERO PUSH2 0x104C JUMPI JUMP JUMPDEST PUSH2 0x1054 PUSH2 0x123 JUMP JUMPDEST PUSH3 0x461BCD PUSH1 0xE5 SHL DUP2 MSTORE DUP1 PUSH2 0x106A PUSH1 0x4 DUP3 ADD PUSH2 0x102C JUMP JUMPDEST SUB SWAP1 REVERT JUMPDEST PUSH2 0x109E PUSH2 0x1085 PUSH2 0x1080 PUSH1 0x3 CALLER SWAP1 PUSH2 0x513 JUMP JUMPDEST PUSH2 0x7E8 JUMP JUMPDEST PUSH2 0x1098 PUSH2 0x1092 PUSH1 0x0 PUSH2 0xEA0 JUMP JUMPDEST SWAP2 PUSH2 0x143 JUMP JUMPDEST EQ PUSH2 0xF17 JUMP JUMPDEST CALLVALUE PUSH2 0x10B8 PUSH2 0x10B2 PUSH2 0x10AD PUSH2 0x705 JUMP JUMPDEST PUSH2 0x143 JUMP JUMPDEST SWAP2 PUSH2 0x143 JUMP JUMPDEST LT ISZERO DUP1 PUSH2 0x1102 JUMPI JUMPDEST PUSH2 0x10C9 SWAP1 PUSH2 0xF9B JUMP JUMPDEST PUSH2 0x10F6 PUSH2 0x10D6 PUSH1 0x5 PUSH2 0x7E8 JUMP JUMPDEST PUSH2 0x10EF PUSH2 0x10E9 PUSH2 0x10E4 PUSH2 0x777 JUMP JUMPDEST PUSH2 0x143 JUMP JUMPDEST SWAP2 PUSH2 0x143 JUMP JUMPDEST GT ISZERO PUSH2 0x1045 JUMP JUMPDEST PUSH2 0x1100 CALLVALUE CALLER PUSH2 0x1278 JUMP JUMPDEST JUMP JUMPDEST POP PUSH2 0x10C9 CALLVALUE PUSH2 0x1120 PUSH2 0x111A PUSH2 0x1115 PUSH2 0x693 JUMP JUMPDEST PUSH2 0x143 JUMP JUMPDEST SWAP2 PUSH2 0x143 JUMP JUMPDEST GT ISZERO SWAP1 POP PUSH2 0x10C0 JUMP JUMPDEST PUSH4 0x4E487B71 PUSH1 0xE0 SHL PUSH1 0x0 MSTORE PUSH1 0x11 PUSH1 0x4 MSTORE PUSH1 0x24 PUSH1 0x0 REVERT JUMPDEST PUSH2 0x114E PUSH2 0x1154 SWAP2 SWAP4 SWAP3 SWAP4 PUSH2 0x143 JUMP JUMPDEST SWAP3 PUSH2 0x143 JUMP JUMPDEST DUP3 ADD DUP1 SWAP3 GT PUSH2 0x115F JUMPI JUMP JUMPDEST PUSH2 0x1129 JUMP JUMPDEST SWAP1 JUMP JUMPDEST PUSH4 0x4E487B71 PUSH1 0xE0 SHL PUSH1 0x0 MSTORE PUSH1 0x41 PUSH1 0x4 MSTORE PUSH1 0x24 PUSH1 0x0 REVERT JUMPDEST PUSH1 0x0 MSTORE PUSH1 0x20 PUSH1 0x0 KECCAK256 SWAP1 JUMP JUMPDEST SLOAD SWAP1 JUMP JUMPDEST PUSH2 0x1195 DUP2 PUSH2 0x1188 JUMP JUMPDEST DUP3 LT ISZERO PUSH2 0x11B0 JUMPI PUSH2 0x11A7 PUSH1 0x1 SWAP2 PUSH2 0x117D JUMP JUMPDEST SWAP2 MUL ADD SWAP1 PUSH1 0x0 SWAP1 JUMP JUMPDEST PUSH2 0x3B4 JUMP JUMPDEST SHL SWAP1 JUMP JUMPDEST SWAP2 SWAP1 PUSH1 0x8 PUSH2 0x11D9 SWAP2 MUL SWAP2 PUSH2 0x11D3 PUSH1 0x1 DUP1 PUSH1 0xA0 SHL SUB DUP5 PUSH2 0x11B5 JUMP JUMPDEST SWAP3 PUSH2 0x11B5 JUMP JUMPDEST SWAP2 DUP2 NOT AND SWAP2 AND OR SWAP1 JUMP JUMPDEST SWAP1 JUMP JUMPDEST SWAP2 SWAP1 PUSH2 0x11FC PUSH2 0x11F7 PUSH2 0x1204 SWAP4 PUSH2 0x507 JUMP JUMPDEST PUSH2 0x11E3 JUMP JUMPDEST SWAP1 DUP4 SLOAD PUSH2 0x11B9 JUMP JUMPDEST SWAP1 SSTORE JUMP JUMPDEST SWAP1 DUP2 SLOAD SWAP2 PUSH9 0x10000000000000000 DUP4 LT ISZERO PUSH2 0x1238 JUMPI DUP3 PUSH2 0x1230 SWAP2 PUSH1 0x1 PUSH2 0x1236 SWAP6 ADD DUP2 SSTORE PUSH2 0x118C JUMP JUMPDEST SWAP1 PUSH2 0x11E6 JUMP JUMPDEST JUMP JUMPDEST PUSH2 0x1167 JUMP JUMPDEST SWAP1 PUSH2 0x124E PUSH1 0x1 DUP1 PUSH1 0xA0 SHL SUB SWAP2 PUSH2 0xE24 JUMP JUMPDEST SWAP2 DUP2 NOT AND SWAP2 AND OR SWAP1 JUMP JUMPDEST SWAP1 PUSH2 0x126D PUSH2 0x1268 PUSH2 0x1274 SWAP3 PUSH2 0x507 JUMP JUMPDEST PUSH2 0x11E3 JUMP JUMPDEST DUP3 SLOAD PUSH2 0x123D JUMP JUMPDEST SWAP1 SSTORE JUMP JUMPDEST PUSH2 0x12C0 PUSH2 0x12F5 SWAP3 PUSH2 0x129C PUSH2 0x1295 DUP3 PUSH2 0x1290 PUSH1 0x2 PUSH2 0x7E8 JUMP JUMPDEST PUSH2 0x113F JUMP JUMPDEST PUSH1 0x2 PUSH2 0xE60 JUMP JUMPDEST PUSH2 0x12BA PUSH2 0x12AB PUSH1 0x3 DUP6 SWAP1 PUSH2 0x513 JUMP JUMPDEST SWAP2 PUSH2 0x12B5 DUP4 PUSH2 0x7E8 JUMP JUMPDEST PUSH2 0x113F JUMP JUMPDEST SWAP1 PUSH2 0xE60 JUMP JUMPDEST PUSH2 0x12E6 PUSH2 0x12DF PUSH2 0x12D0 PUSH1 0x1 PUSH2 0xBD1 JUMP JUMPDEST PUSH2 0x12DA PUSH1 0x5 PUSH2 0x7E8 JUMP JUMPDEST PUSH2 0x113F JUMP JUMPDEST PUSH1 0x5 PUSH2 0xE60 JUMP JUMPDEST PUSH2 0x12F0 PUSH1 0x1 PUSH2 0x1164 JUMP JUMPDEST PUSH2 0x1208 JUMP JUMPDEST PUSH2 0x12FF PUSH1 0x5 PUSH2 0x7E8 JUMP JUMPDEST PUSH2 0x1318 PUSH2 0x1312 PUSH2 0x130D PUSH2 0x777 JUMP JUMPDEST PUSH2 0x143 JUMP JUMPDEST SWAP2 PUSH2 0x143 JUMP JUMPDEST EQ PUSH2 0x1320 JUMPI JUMPDEST JUMP JUMPDEST PUSH2 0x1332 PUSH2 0x132B PUSH2 0xBFC JUMP JUMPDEST PUSH1 0x4 PUSH2 0x1258 JUMP JUMPDEST PUSH2 0x131E JUMP INVALID LOG2 PUSH5 0x6970667358 0x22 SLT KECCAK256 0xB0 SWAP16 MUL 0xD2 PUSH5 0xDF3B7264C6 SWAP4 MSIZE BLOBBASEFEE 0xA9 SLT JUMPI 0xF9 0x2B 0xCE 0x23 0xB7 0xF6 SWAP3 0xD7 NUMBER 0xE6 0xB8 0x4E 0xE9 COINBASE 0xEE JUMP PUSH5 0x736F6C6343 STOP ADDMOD XOR STOP CALLER "},"methodIdentifiers":{"MAX_DEPOSIT()":"dd5967c3","MAX_PARTICIPANTS()":"f3baf070","MIN_DEPOSIT()":"e1e158a5","TOTAL_PARTICIPANTS()":"74244bc9","allowedToTransfer()":"19507d2c","balanceOf(address)":"70a08231","deposit()":"d0e30db0","getAddressWithHighestShare()":"42373e74","getBalance()":"12065fe0","getSecondUserShare()":"06dd74a5","launchpadContract()":"116136da","makeTotalParticipant99()":"7cda8ed5","owner()":"8da5cb5b","participants(uint256)":"35c1d349","totalSupply()":"18160ddd","transferToLaunchpad()":"0fec1959"}}}}}