{"contracts/Vault2.sol":{"Vault2":{"abi":[{"inputs":[{"internalType":"address","name":"_launchpadContract","type":"address"}],"stateMutability":"nonpayable","type":"constructor"},{"inputs":[],"name":"MAX_DEPOSIT","outputs":[{"internalType":"uint256","name":"","type":"uint256"}],"stateMutability":"view","type":"function"},{"inputs":[],"name":"MAX_PARTICIPANTS","outputs":[{"internalType":"uint256","name":"","type":"uint256"}],"stateMutability":"view","type":"function"},{"inputs":[],"name":"MIN_DEPOSIT","outputs":[{"internalType":"uint256","name":"","type":"uint256"}],"stateMutability":"view","type":"function"},{"inputs":[],"name":"TOTAL_PARTICIPANTS","outputs":[{"internalType":"uint256","name":"","type":"uint256"}],"stateMutability":"view","type":"function"},{"inputs":[],"name":"allowedToTransfer","outputs":[{"internalType":"address","name":"","type":"address"}],"stateMutability":"view","type":"function"},{"inputs":[{"internalType":"address","name":"","type":"address"}],"name":"balanceOf","outputs":[{"internalType":"uint256","name":"","type":"uint256"}],"stateMutability":"view","type":"function"},{"inputs":[],"name":"deposit","outputs":[],"stateMutability":"payable","type":"function"},{"inputs":[],"name":"getAddressWithHighestShare","outputs":[{"internalType":"address","name":"","type":"address"}],"stateMutability":"view","type":"function"},{"inputs":[],"name":"getBalance","outputs":[{"internalType":"uint256","name":"","type":"uint256"}],"stateMutability":"view","type":"function"},{"inputs":[],"name":"launchpadContract","outputs":[{"internalType":"address","name":"","type":"address"}],"stateMutability":"view","type":"function"},{"inputs":[],"name":"owner","outputs":[{"internalType":"address","name":"","type":"address"}],"stateMutability":"view","type":"function"},{"inputs":[{"internalType":"uint256","name":"","type":"uint256"}],"name":"participants","outputs":[{"internalType":"address","name":"","type":"address"}],"stateMutability":"view","type":"function"},{"inputs":[],"name":"totalSupply","outputs":[{"internalType":"uint256","name":"","type":"uint256"}],"stateMutability":"view","type":"function"},{"inputs":[],"name":"transferToLaunchpad","outputs":[],"stateMutability":"nonpayable","type":"function"}],"evm":{"bytecode":{"linkReferences":{},"object":"60a06040523462000040576200001e620000186200011f565b6200023c565b6200002862000046565b6111846200025e82396080518161056c015261118490f35b6200004c565b60405190565b600080fd5b601f801991011690565b634e487b7160e01b600052604160045260246000fd5b906200007d9062000051565b810190811060018060401b038211176200009657604052565b6200005b565b90620000b3620000ab62000046565b928362000071565b565b600080fd5b60018060a01b031690565b620000d090620000ba565b90565b620000de81620000c5565b03620000e657565b600080fd5b90505190620000fa82620000d3565b565b9060208282031262000119576200011691600001620000eb565b90565b620000b5565b62000142620013e28038038062000136816200009c565b928339810190620000fc565b90565b60001b90565b906200015a6000199162000145565b9181191691161790565b90565b90565b90565b62000186620001806200018c9262000164565b6200016a565b62000167565b90565b90565b90620001ac620001a6620001b4926200016d565b6200018f565b82546200014b565b9055565b90620001cb60018060a01b039162000145565b9181191691161790565b620001ee620001e8620001f492620000ba565b6200016a565b620000ba565b90565b6200020290620001d5565b90565b6200021090620001f7565b90565b90565b90620002306200022a620002389262000205565b62000213565b8254620001b8565b9055565b6200025b906200024f6000600562000192565b33608052600062000216565b56fe60806040526004361015610013575b61073d565b61001e6000356100fd565b80630fec1959146100f8578063116136da146100f357806312065fe0146100ee57806318160ddd146100e957806319507d2c146100e457806335c1d349146100df57806342373e74146100da57806370a08231146100d557806374244bc9146100d05780638da5cb5b146100cb578063d0e30db0146100c6578063dd5967c3146100c1578063e1e158a5146100bc5763f3baf0700361000e57610708565b61069c565b61062a565b6105c3565b61058e565b610535565b6104f0565b61040f565b6103da565b6102e7565b6102a2565b610234565b6101d9565b610129565b60e01c90565b60405190565b600080fd5b600080fd5b600091031261011e57565b61010e565b60000190565b3461015757610139366004610113565b610141610a66565b610149610103565b8061015381610123565b0390f35b610109565b1c90565b60018060a01b031690565b61017b906008610180930261015c565b610160565b90565b9061018e915461016b565b90565b61019c600080610183565b90565b60018060a01b031690565b6101b39061019f565b90565b6101bf906101aa565b9052565b91906101d7906000602085019401906101b6565b565b34610209576101e9366004610113565b6102056101f4610191565b6101fc610103565b918291826101c3565b0390f35b610109565b90565b61021a9061020e565b9052565b919061023290600060208501940190610211565b565b3461026457610244366004610113565b61026061024f610a75565b610257610103565b9182918261021e565b0390f35b610109565b90565b61027c906008610281930261015c565b610269565b90565b9061028f915461026c565b90565b61029f6002600090610284565b90565b346102d2576102b2366004610113565b6102ce6102bd610292565b6102c5610103565b9182918261021e565b0390f35b610109565b6102e46004600090610183565b90565b34610317576102f7366004610113565b6103136103026102d7565b61030a610103565b918291826101c3565b0390f35b610109565b6103258161020e565b0361032c57565b600080fd5b9050359061033e8261031c565b565b9060208282031261035a5761035791600001610331565b90565b61010e565b634e487b7160e01b600052603260045260246000fd5b5490565b600052602060002090565b61038d81610375565b8210156103a85761039f600191610379565b91020190600090565b61035f565b60016103b881610375565b8210156103d5576103d2916103cc91610384565b90610183565b90565b600080fd5b3461040a576104066103f56103f0366004610340565b6103ad565b6103fd610103565b918291826101c3565b0390f35b610109565b3461043f5761041f366004610113565b61043b61042a610b42565b610432610103565b918291826101c3565b0390f35b610109565b61044d816101aa565b0361045457565b600080fd5b9050359061046682610444565b565b906020828203126104825761047f91600001610459565b90565b61010e565b90565b61049e6104996104a39261019f565b610487565b61019f565b90565b6104af9061048a565b90565b6104bb906104a6565b90565b906104c8906104b2565b600052602052604060002090565b6104ed906104e86003916000926104be565b610284565b90565b346105205761051c61050b610506366004610468565b6104d6565b610513610103565b9182918261021e565b0390f35b610109565b6105326005600090610284565b90565b3461056557610545366004610113565b610561610550610525565b610558610103565b9182918261021e565b0390f35b610109565b7f000000000000000000000000000000000000000000000000000000000000000090565b346105be5761059e366004610113565b6105ba6105a961056a565b6105b1610103565b918291826101c3565b0390f35b610109565b6105ce366004610113565b6105d6610e29565b6105de610103565b806105e881610123565b0390f35b90565b6106036105fe610608926105ec565b610487565b61020e565b90565b61061c67011c37937e0800006105ef565b90565b61062761060b565b90565b3461065a5761063a366004610113565b61065661064561061f565b61064d610103565b9182918261021e565b0390f35b610109565b90565b61067661067161067b9261065f565b610487565b61020e565b90565b61068e668e1bc9bf040000610662565b90565b61069961067e565b90565b346106cc576106ac366004610113565b6106c86106b7610691565b6106bf610103565b9182918261021e565b0390f35b610109565b90565b6106e86106e36106ed926106d1565b610487565b61020e565b90565b6106fa60646106d4565b90565b6107056106f0565b90565b3461073857610718366004610113565b6107346107236106fd565b61072b610103565b9182918261021e565b0390f35b610109565b600080fd5b60001c90565b61075461075991610742565b610160565b90565b6107669054610748565b90565b60209181520190565b60007f4e6f7420616c6c6f77656420746f207472616e736665722066756e6473000000910152565b6107a7601d602092610769565b6107b081610772565b0190565b6107ca906020810190600081830391015261079a565b90565b156107d457565b6107dc610103565b62461bcd60e51b8152806107f2600482016107b4565b0390fd5b61081b610803600461075c565b61081561080f336101aa565b916101aa565b146107cd565b6108236108ca565b565b61083161083691610742565b610269565b90565b6108439054610825565b90565b60007f5661756c74206973206e6f742066756c6c207965740000000000000000000000910152565b61087b6015602092610769565b61088481610846565b0190565b61089e906020810190600081830391015261086e565b90565b156108a857565b6108b0610103565b62461bcd60e51b8152806108c660048201610888565b0390fd5b6108f66108d76005610839565b6108f06108ea6108e56106f0565b61020e565b9161020e565b146108a1565b6108fe6109f0565b565b90565b61091761091261091c92610900565b610487565b61019f565b90565b61092890610903565b90565b60007f4c61756e636870616420636f6e7472616374206e6f7420736574000000000000910152565b610960601a602092610769565b6109698161092b565b0190565b6109839060208101906000818303910152610953565b90565b1561098d57565b610995610103565b62461bcd60e51b8152806109ab6004820161096d565b0390fd5b6109b89061048a565b90565b6109c4906109af565b90565b6109d0906104a6565b90565b6109dc906104a6565b90565b6109e7610103565b3d6000823e3d90fd5b610a1f6109fd600061075c565b610a18610a12610a0d600061091f565b6101aa565b916101aa565b1415610986565b6000808080610a3d610a38610a338361075c565b6109bb565b6109c7565b610a46306109d3565b3190828215610a5d575bf115610a5857565b6109df565b506108fc610a50565b610a6e6107f6565b565b600090565b610a7d610a70565b50610a87306109d3565b3190565b600090565b60007f537562736372697074696f6e206e6f7420656e64656400000000000000000000910152565b610ac56016602092610769565b610ace81610a90565b0190565b610ae89060208101906000818303910152610ab8565b90565b15610af257565b610afa610103565b62461bcd60e51b815280610b1060048201610ad2565b0390fd5b90565b610b2b610b26610b3092610b14565b610487565b61020e565b90565b6001610b3f910161020e565b90565b610b4a610a8b565b50610b77610b586005610839565b610b71610b6b610b666106f0565b61020e565b9161020e565b14610aeb565b610b8d610b876001600090610384565b90610183565b610bb6610bb16003610bab610ba56001600090610384565b90610183565b906104be565b610839565b610bc06001610b17565b5b80610bdd610bd7610bd26001610375565b61020e565b9161020e565b1015610c5657610bf8610bf260018390610384565b90610183565b610c0c610c07600383906104be565b610839565b610c1e610c188561020e565b9161020e565b11610c33575b50610c2e90610b33565b610bc1565b91509150610c2e610c4e610c49600384906104be565b610839565b919290610c24565b505090565b610c6f610c6a610c7492610900565b610487565b61020e565b90565b60007f557365722068617320616c7265616479206465706f7369746564000000000000910152565b610cac601a602092610769565b610cb581610c77565b0190565b610ccf9060208101906000818303910152610c9f565b90565b15610cd957565b610ce1610103565b62461bcd60e51b815280610cf760048201610cb9565b0390fd5b60007f496e76616c6964206465706f73697420616d6f756e7400000000000000000000910152565b610d306016602092610769565b610d3981610cfb565b0190565b610d539060208101906000818303910152610d23565b90565b15610d5d57565b610d65610103565b62461bcd60e51b815280610d7b60048201610d3d565b0390fd5b60207f65206465706f7369747300000000000000000000000000000000000000000000917f5661756c742069732066756c6c2c2063616e6e6f7420616363657074206d6f7260008201520152565b610dda602a604092610769565b610de381610d7f565b0190565b610dfd9060208101906000818303910152610dcd565b90565b15610e0757565b610e0f610103565b62461bcd60e51b815280610e2560048201610de7565b0390fd5b610e59610e40610e3b600333906104be565b610839565b610e53610e4d6000610c5b565b9161020e565b14610cd2565b34610e73610e6d610e6861067e565b61020e565b9161020e565b101580610ebd575b610e8490610d56565b610eb1610e916005610839565b610eaa610ea4610e9f6106f0565b61020e565b9161020e565b1115610e00565b610ebb343361108f565b565b50610e8434610edb610ed5610ed061060b565b61020e565b9161020e565b11159050610e7b565b634e487b7160e01b600052601160045260246000fd5b610f09610f0f9193929361020e565b9261020e565b8201809211610f1a57565b610ee4565b60001b90565b90610f3260001991610f1f565b9181191691161790565b610f50610f4b610f559261020e565b610487565b61020e565b90565b90565b90610f70610f6b610f7792610f3c565b610f58565b8254610f25565b9055565b90565b634e487b7160e01b600052604160045260246000fd5b600052602060002090565b5490565b610fac81610f9f565b821015610fc757610fbe600191610f94565b91020190600090565b61035f565b1b90565b91906008610ff0910291610fea60018060a01b0384610fcc565b92610fcc565b9181191691161790565b90565b919061101361100e61101b936104b2565b610ffa565b908354610fd0565b9055565b908154916801000000000000000083101561104f578261104791600161104d95018155610fa3565b90610ffd565b565b610f7e565b9061106560018060a01b0391610f1f565b9181191691161790565b9061108461107f61108b926104b2565b610ffa565b8254611054565b9055565b6110d761110c926110b36110ac826110a76002610839565b610efa565b6002610f5b565b6110d16110c2600385906104be565b916110cc83610839565b610efa565b90610f5b565b6110fd6110f66110e76001610b17565b6110f16005610839565b610efa565b6005610f5b565b6111076001610f7b565b61101f565b6111166005610839565b61112f6111296111246106f0565b61020e565b9161020e565b14611137575b565b611149611142610b42565b600461106f565b61113556fea26469706673582212209e7a95a88229539cd61b24809120a3bca32e80ebd84e2f575b847c88e4d15b4164736f6c63430008180033","opcodes":"PUSH1 0xA0 PUSH1 0x40 MSTORE CALLVALUE PUSH3 0x40 JUMPI PUSH3 0x1E PUSH3 0x18 PUSH3 0x11F JUMP JUMPDEST PUSH3 0x23C JUMP JUMPDEST PUSH3 0x28 PUSH3 0x46 JUMP JUMPDEST PUSH2 0x1184 PUSH3 0x25E DUP3 CODECOPY PUSH1 0x80 MLOAD DUP2 PUSH2 0x56C ADD MSTORE PUSH2 0x1184 SWAP1 RETURN JUMPDEST PUSH3 0x4C JUMP JUMPDEST PUSH1 0x40 MLOAD SWAP1 JUMP JUMPDEST PUSH1 0x0 DUP1 REVERT JUMPDEST PUSH1 0x1F DUP1 NOT SWAP2 ADD AND SWAP1 JUMP JUMPDEST PUSH4 0x4E487B71 PUSH1 0xE0 SHL PUSH1 0x0 MSTORE PUSH1 0x41 PUSH1 0x4 MSTORE PUSH1 0x24 PUSH1 0x0 REVERT JUMPDEST SWAP1 PUSH3 0x7D SWAP1 PUSH3 0x51 JUMP JUMPDEST DUP2 ADD SWAP1 DUP2 LT PUSH1 0x1 DUP1 PUSH1 0x40 SHL SUB DUP3 GT OR PUSH3 0x96 JUMPI PUSH1 0x40 MSTORE JUMP JUMPDEST PUSH3 0x5B JUMP JUMPDEST SWAP1 PUSH3 0xB3 PUSH3 0xAB PUSH3 0x46 JUMP JUMPDEST SWAP3 DUP4 PUSH3 0x71 JUMP JUMPDEST JUMP JUMPDEST PUSH1 0x0 DUP1 REVERT JUMPDEST PUSH1 0x1 DUP1 PUSH1 0xA0 SHL SUB AND SWAP1 JUMP JUMPDEST PUSH3 0xD0 SWAP1 PUSH3 0xBA JUMP JUMPDEST SWAP1 JUMP JUMPDEST PUSH3 0xDE DUP2 PUSH3 0xC5 JUMP JUMPDEST SUB PUSH3 0xE6 JUMPI JUMP JUMPDEST PUSH1 0x0 DUP1 REVERT JUMPDEST SWAP1 POP MLOAD SWAP1 PUSH3 0xFA DUP3 PUSH3 0xD3 JUMP JUMPDEST JUMP JUMPDEST SWAP1 PUSH1 0x20 DUP3 DUP3 SUB SLT PUSH3 0x119 JUMPI PUSH3 0x116 SWAP2 PUSH1 0x0 ADD PUSH3 0xEB JUMP JUMPDEST SWAP1 JUMP JUMPDEST PUSH3 0xB5 JUMP JUMPDEST PUSH3 0x142 PUSH3 0x13E2 DUP1 CODESIZE SUB DUP1 PUSH3 0x136 DUP2 PUSH3 0x9C JUMP JUMPDEST SWAP3 DUP4 CODECOPY DUP2 ADD SWAP1 PUSH3 0xFC JUMP JUMPDEST SWAP1 JUMP JUMPDEST PUSH1 0x0 SHL SWAP1 JUMP JUMPDEST SWAP1 PUSH3 0x15A PUSH1 0x0 NOT SWAP2 PUSH3 0x145 JUMP JUMPDEST SWAP2 DUP2 NOT AND SWAP2 AND OR SWAP1 JUMP JUMPDEST SWAP1 JUMP JUMPDEST SWAP1 JUMP JUMPDEST SWAP1 JUMP JUMPDEST PUSH3 0x186 PUSH3 0x180 PUSH3 0x18C SWAP3 PUSH3 0x164 JUMP JUMPDEST PUSH3 0x16A JUMP JUMPDEST PUSH3 0x167 JUMP JUMPDEST SWAP1 JUMP JUMPDEST SWAP1 JUMP JUMPDEST SWAP1 PUSH3 0x1AC PUSH3 0x1A6 PUSH3 0x1B4 SWAP3 PUSH3 0x16D JUMP JUMPDEST PUSH3 0x18F JUMP JUMPDEST DUP3 SLOAD PUSH3 0x14B JUMP JUMPDEST SWAP1 SSTORE JUMP JUMPDEST SWAP1 PUSH3 0x1CB PUSH1 0x1 DUP1 PUSH1 0xA0 SHL SUB SWAP2 PUSH3 0x145 JUMP JUMPDEST SWAP2 DUP2 NOT AND SWAP2 AND OR SWAP1 JUMP JUMPDEST PUSH3 0x1EE PUSH3 0x1E8 PUSH3 0x1F4 SWAP3 PUSH3 0xBA JUMP JUMPDEST PUSH3 0x16A JUMP JUMPDEST PUSH3 0xBA JUMP JUMPDEST SWAP1 JUMP JUMPDEST PUSH3 0x202 SWAP1 PUSH3 0x1D5 JUMP JUMPDEST SWAP1 JUMP JUMPDEST PUSH3 0x210 SWAP1 PUSH3 0x1F7 JUMP JUMPDEST SWAP1 JUMP JUMPDEST SWAP1 JUMP JUMPDEST SWAP1 PUSH3 0x230 PUSH3 0x22A PUSH3 0x238 SWAP3 PUSH3 0x205 JUMP JUMPDEST PUSH3 0x213 JUMP JUMPDEST DUP3 SLOAD PUSH3 0x1B8 JUMP JUMPDEST SWAP1 SSTORE JUMP JUMPDEST PUSH3 0x25B SWAP1 PUSH3 0x24F PUSH1 0x0 PUSH1 0x5 PUSH3 0x192 JUMP JUMPDEST CALLER PUSH1 0x80 MSTORE PUSH1 0x0 PUSH3 0x216 JUMP JUMPDEST JUMP INVALID PUSH1 0x80 PUSH1 0x40 MSTORE PUSH1 0x4 CALLDATASIZE LT ISZERO PUSH2 0x13 JUMPI JUMPDEST PUSH2 0x73D JUMP JUMPDEST PUSH2 0x1E PUSH1 0x0 CALLDATALOAD PUSH2 0xFD JUMP JUMPDEST DUP1 PUSH4 0xFEC1959 EQ PUSH2 0xF8 JUMPI DUP1 PUSH4 0x116136DA EQ PUSH2 0xF3 JUMPI DUP1 PUSH4 0x12065FE0 EQ PUSH2 0xEE JUMPI DUP1 PUSH4 0x18160DDD EQ PUSH2 0xE9 JUMPI DUP1 PUSH4 0x19507D2C EQ PUSH2 0xE4 JUMPI DUP1 PUSH4 0x35C1D349 EQ PUSH2 0xDF JUMPI DUP1 PUSH4 0x42373E74 EQ PUSH2 0xDA JUMPI DUP1 PUSH4 0x70A08231 EQ PUSH2 0xD5 JUMPI DUP1 PUSH4 0x74244BC9 EQ PUSH2 0xD0 JUMPI DUP1 PUSH4 0x8DA5CB5B EQ PUSH2 0xCB JUMPI DUP1 PUSH4 0xD0E30DB0 EQ PUSH2 0xC6 JUMPI DUP1 PUSH4 0xDD5967C3 EQ PUSH2 0xC1 JUMPI DUP1 PUSH4 0xE1E158A5 EQ PUSH2 0xBC JUMPI PUSH4 0xF3BAF070 SUB PUSH2 0xE JUMPI PUSH2 0x708 JUMP JUMPDEST PUSH2 0x69C JUMP JUMPDEST PUSH2 0x62A JUMP JUMPDEST PUSH2 0x5C3 JUMP JUMPDEST PUSH2 0x58E JUMP JUMPDEST PUSH2 0x535 JUMP JUMPDEST PUSH2 0x4F0 JUMP JUMPDEST PUSH2 0x40F JUMP JUMPDEST PUSH2 0x3DA JUMP JUMPDEST PUSH2 0x2E7 JUMP JUMPDEST PUSH2 0x2A2 JUMP JUMPDEST PUSH2 0x234 JUMP JUMPDEST PUSH2 0x1D9 JUMP JUMPDEST PUSH2 0x129 JUMP JUMPDEST PUSH1 0xE0 SHR SWAP1 JUMP JUMPDEST PUSH1 0x40 MLOAD SWAP1 JUMP JUMPDEST PUSH1 0x0 DUP1 REVERT JUMPDEST PUSH1 0x0 DUP1 REVERT JUMPDEST PUSH1 0x0 SWAP2 SUB SLT PUSH2 0x11E JUMPI JUMP JUMPDEST PUSH2 0x10E JUMP JUMPDEST PUSH1 0x0 ADD SWAP1 JUMP JUMPDEST CALLVALUE PUSH2 0x157 JUMPI PUSH2 0x139 CALLDATASIZE PUSH1 0x4 PUSH2 0x113 JUMP JUMPDEST PUSH2 0x141 PUSH2 0xA66 JUMP JUMPDEST PUSH2 0x149 PUSH2 0x103 JUMP JUMPDEST DUP1 PUSH2 0x153 DUP2 PUSH2 0x123 JUMP JUMPDEST SUB SWAP1 RETURN JUMPDEST PUSH2 0x109 JUMP JUMPDEST SHR SWAP1 JUMP JUMPDEST PUSH1 0x1 DUP1 PUSH1 0xA0 SHL SUB AND SWAP1 JUMP JUMPDEST PUSH2 0x17B SWAP1 PUSH1 0x8 PUSH2 0x180 SWAP4 MUL PUSH2 0x15C JUMP JUMPDEST PUSH2 0x160 JUMP JUMPDEST SWAP1 JUMP JUMPDEST SWAP1 PUSH2 0x18E SWAP2 SLOAD PUSH2 0x16B JUMP JUMPDEST SWAP1 JUMP JUMPDEST PUSH2 0x19C PUSH1 0x0 DUP1 PUSH2 0x183 JUMP JUMPDEST SWAP1 JUMP JUMPDEST PUSH1 0x1 DUP1 PUSH1 0xA0 SHL SUB AND SWAP1 JUMP JUMPDEST PUSH2 0x1B3 SWAP1 PUSH2 0x19F JUMP JUMPDEST SWAP1 JUMP JUMPDEST PUSH2 0x1BF SWAP1 PUSH2 0x1AA JUMP JUMPDEST SWAP1 MSTORE JUMP JUMPDEST SWAP2 SWAP1 PUSH2 0x1D7 SWAP1 PUSH1 0x0 PUSH1 0x20 DUP6 ADD SWAP5 ADD SWAP1 PUSH2 0x1B6 JUMP JUMPDEST JUMP JUMPDEST CALLVALUE PUSH2 0x209 JUMPI PUSH2 0x1E9 CALLDATASIZE PUSH1 0x4 PUSH2 0x113 JUMP JUMPDEST PUSH2 0x205 PUSH2 0x1F4 PUSH2 0x191 JUMP JUMPDEST PUSH2 0x1FC PUSH2 0x103 JUMP JUMPDEST SWAP2 DUP3 SWAP2 DUP3 PUSH2 0x1C3 JUMP JUMPDEST SUB SWAP1 RETURN JUMPDEST PUSH2 0x109 JUMP JUMPDEST SWAP1 JUMP JUMPDEST PUSH2 0x21A SWAP1 PUSH2 0x20E JUMP JUMPDEST SWAP1 MSTORE JUMP JUMPDEST SWAP2 SWAP1 PUSH2 0x232 SWAP1 PUSH1 0x0 PUSH1 0x20 DUP6 ADD SWAP5 ADD SWAP1 PUSH2 0x211 JUMP JUMPDEST JUMP JUMPDEST CALLVALUE PUSH2 0x264 JUMPI PUSH2 0x244 CALLDATASIZE PUSH1 0x4 PUSH2 0x113 JUMP JUMPDEST PUSH2 0x260 PUSH2 0x24F PUSH2 0xA75 JUMP JUMPDEST PUSH2 0x257 PUSH2 0x103 JUMP JUMPDEST SWAP2 DUP3 SWAP2 DUP3 PUSH2 0x21E JUMP JUMPDEST SUB SWAP1 RETURN JUMPDEST PUSH2 0x109 JUMP JUMPDEST SWAP1 JUMP JUMPDEST PUSH2 0x27C SWAP1 PUSH1 0x8 PUSH2 0x281 SWAP4 MUL PUSH2 0x15C JUMP JUMPDEST PUSH2 0x269 JUMP JUMPDEST SWAP1 JUMP JUMPDEST SWAP1 PUSH2 0x28F SWAP2 SLOAD PUSH2 0x26C JUMP JUMPDEST SWAP1 JUMP JUMPDEST PUSH2 0x29F PUSH1 0x2 PUSH1 0x0 SWAP1 PUSH2 0x284 JUMP JUMPDEST SWAP1 JUMP JUMPDEST CALLVALUE PUSH2 0x2D2 JUMPI PUSH2 0x2B2 CALLDATASIZE PUSH1 0x4 PUSH2 0x113 JUMP JUMPDEST PUSH2 0x2CE PUSH2 0x2BD PUSH2 0x292 JUMP JUMPDEST PUSH2 0x2C5 PUSH2 0x103 JUMP JUMPDEST SWAP2 DUP3 SWAP2 DUP3 PUSH2 0x21E JUMP JUMPDEST SUB SWAP1 RETURN JUMPDEST PUSH2 0x109 JUMP JUMPDEST PUSH2 0x2E4 PUSH1 0x4 PUSH1 0x0 SWAP1 PUSH2 0x183 JUMP JUMPDEST SWAP1 JUMP JUMPDEST CALLVALUE PUSH2 0x317 JUMPI PUSH2 0x2F7 CALLDATASIZE PUSH1 0x4 PUSH2 0x113 JUMP JUMPDEST PUSH2 0x313 PUSH2 0x302 PUSH2 0x2D7 JUMP JUMPDEST PUSH2 0x30A PUSH2 0x103 JUMP JUMPDEST SWAP2 DUP3 SWAP2 DUP3 PUSH2 0x1C3 JUMP JUMPDEST SUB SWAP1 RETURN JUMPDEST PUSH2 0x109 JUMP JUMPDEST PUSH2 0x325 DUP2 PUSH2 0x20E JUMP JUMPDEST SUB PUSH2 0x32C JUMPI JUMP JUMPDEST PUSH1 0x0 DUP1 REVERT JUMPDEST SWAP1 POP CALLDATALOAD SWAP1 PUSH2 0x33E DUP3 PUSH2 0x31C JUMP JUMPDEST JUMP JUMPDEST SWAP1 PUSH1 0x20 DUP3 DUP3 SUB SLT PUSH2 0x35A JUMPI PUSH2 0x357 SWAP2 PUSH1 0x0 ADD PUSH2 0x331 JUMP JUMPDEST SWAP1 JUMP JUMPDEST PUSH2 0x10E JUMP JUMPDEST PUSH4 0x4E487B71 PUSH1 0xE0 SHL PUSH1 0x0 MSTORE PUSH1 0x32 PUSH1 0x4 MSTORE PUSH1 0x24 PUSH1 0x0 REVERT JUMPDEST SLOAD SWAP1 JUMP JUMPDEST PUSH1 0x0 MSTORE PUSH1 0x20 PUSH1 0x0 KECCAK256 SWAP1 JUMP JUMPDEST PUSH2 0x38D DUP2 PUSH2 0x375 JUMP JUMPDEST DUP3 LT ISZERO PUSH2 0x3A8 JUMPI PUSH2 0x39F PUSH1 0x1 SWAP2 PUSH2 0x379 JUMP JUMPDEST SWAP2 MUL ADD SWAP1 PUSH1 0x0 SWAP1 JUMP JUMPDEST PUSH2 0x35F JUMP JUMPDEST PUSH1 0x1 PUSH2 0x3B8 DUP2 PUSH2 0x375 JUMP JUMPDEST DUP3 LT ISZERO PUSH2 0x3D5 JUMPI PUSH2 0x3D2 SWAP2 PUSH2 0x3CC SWAP2 PUSH2 0x384 JUMP JUMPDEST SWAP1 PUSH2 0x183 JUMP JUMPDEST SWAP1 JUMP JUMPDEST PUSH1 0x0 DUP1 REVERT JUMPDEST CALLVALUE PUSH2 0x40A JUMPI PUSH2 0x406 PUSH2 0x3F5 PUSH2 0x3F0 CALLDATASIZE PUSH1 0x4 PUSH2 0x340 JUMP JUMPDEST PUSH2 0x3AD JUMP JUMPDEST PUSH2 0x3FD PUSH2 0x103 JUMP JUMPDEST SWAP2 DUP3 SWAP2 DUP3 PUSH2 0x1C3 JUMP JUMPDEST SUB SWAP1 RETURN JUMPDEST PUSH2 0x109 JUMP JUMPDEST CALLVALUE PUSH2 0x43F JUMPI PUSH2 0x41F CALLDATASIZE PUSH1 0x4 PUSH2 0x113 JUMP JUMPDEST PUSH2 0x43B PUSH2 0x42A PUSH2 0xB42 JUMP JUMPDEST PUSH2 0x432 PUSH2 0x103 JUMP JUMPDEST SWAP2 DUP3 SWAP2 DUP3 PUSH2 0x1C3 JUMP JUMPDEST SUB SWAP1 RETURN JUMPDEST PUSH2 0x109 JUMP JUMPDEST PUSH2 0x44D DUP2 PUSH2 0x1AA JUMP JUMPDEST SUB PUSH2 0x454 JUMPI JUMP JUMPDEST PUSH1 0x0 DUP1 REVERT JUMPDEST SWAP1 POP CALLDATALOAD SWAP1 PUSH2 0x466 DUP3 PUSH2 0x444 JUMP JUMPDEST JUMP JUMPDEST SWAP1 PUSH1 0x20 DUP3 DUP3 SUB SLT PUSH2 0x482 JUMPI PUSH2 0x47F SWAP2 PUSH1 0x0 ADD PUSH2 0x459 JUMP JUMPDEST SWAP1 JUMP JUMPDEST PUSH2 0x10E JUMP JUMPDEST SWAP1 JUMP JUMPDEST PUSH2 0x49E PUSH2 0x499 PUSH2 0x4A3 SWAP3 PUSH2 0x19F JUMP JUMPDEST PUSH2 0x487 JUMP JUMPDEST PUSH2 0x19F JUMP JUMPDEST SWAP1 JUMP JUMPDEST PUSH2 0x4AF SWAP1 PUSH2 0x48A JUMP JUMPDEST SWAP1 JUMP JUMPDEST PUSH2 0x4BB SWAP1 PUSH2 0x4A6 JUMP JUMPDEST SWAP1 JUMP JUMPDEST SWAP1 PUSH2 0x4C8 SWAP1 PUSH2 0x4B2 JUMP JUMPDEST PUSH1 0x0 MSTORE PUSH1 0x20 MSTORE PUSH1 0x40 PUSH1 0x0 KECCAK256 SWAP1 JUMP JUMPDEST PUSH2 0x4ED SWAP1 PUSH2 0x4E8 PUSH1 0x3 SWAP2 PUSH1 0x0 SWAP3 PUSH2 0x4BE JUMP JUMPDEST PUSH2 0x284 JUMP JUMPDEST SWAP1 JUMP JUMPDEST CALLVALUE PUSH2 0x520 JUMPI PUSH2 0x51C PUSH2 0x50B PUSH2 0x506 CALLDATASIZE PUSH1 0x4 PUSH2 0x468 JUMP JUMPDEST PUSH2 0x4D6 JUMP JUMPDEST PUSH2 0x513 PUSH2 0x103 JUMP JUMPDEST SWAP2 DUP3 SWAP2 DUP3 PUSH2 0x21E JUMP JUMPDEST SUB SWAP1 RETURN JUMPDEST PUSH2 0x109 JUMP JUMPDEST PUSH2 0x532 PUSH1 0x5 PUSH1 0x0 SWAP1 PUSH2 0x284 JUMP JUMPDEST SWAP1 JUMP JUMPDEST CALLVALUE PUSH2 0x565 JUMPI PUSH2 0x545 CALLDATASIZE PUSH1 0x4 PUSH2 0x113 JUMP JUMPDEST PUSH2 0x561 PUSH2 0x550 PUSH2 0x525 JUMP JUMPDEST PUSH2 0x558 PUSH2 0x103 JUMP JUMPDEST SWAP2 DUP3 SWAP2 DUP3 PUSH2 0x21E JUMP JUMPDEST SUB SWAP1 RETURN JUMPDEST PUSH2 0x109 JUMP JUMPDEST PUSH32 0x0 SWAP1 JUMP JUMPDEST CALLVALUE PUSH2 0x5BE JUMPI PUSH2 0x59E CALLDATASIZE PUSH1 0x4 PUSH2 0x113 JUMP JUMPDEST PUSH2 0x5BA PUSH2 0x5A9 PUSH2 0x56A JUMP JUMPDEST PUSH2 0x5B1 PUSH2 0x103 JUMP JUMPDEST SWAP2 DUP3 SWAP2 DUP3 PUSH2 0x1C3 JUMP JUMPDEST SUB SWAP1 RETURN JUMPDEST PUSH2 0x109 JUMP JUMPDEST PUSH2 0x5CE CALLDATASIZE PUSH1 0x4 PUSH2 0x113 JUMP JUMPDEST PUSH2 0x5D6 PUSH2 0xE29 JUMP JUMPDEST PUSH2 0x5DE PUSH2 0x103 JUMP JUMPDEST DUP1 PUSH2 0x5E8 DUP2 PUSH2 0x123 JUMP JUMPDEST SUB SWAP1 RETURN JUMPDEST SWAP1 JUMP JUMPDEST PUSH2 0x603 PUSH2 0x5FE PUSH2 0x608 SWAP3 PUSH2 0x5EC JUMP JUMPDEST PUSH2 0x487 JUMP JUMPDEST PUSH2 0x20E JUMP JUMPDEST SWAP1 JUMP JUMPDEST PUSH2 0x61C PUSH8 0x11C37937E080000 PUSH2 0x5EF JUMP JUMPDEST SWAP1 JUMP JUMPDEST PUSH2 0x627 PUSH2 0x60B JUMP JUMPDEST SWAP1 JUMP JUMPDEST CALLVALUE PUSH2 0x65A JUMPI PUSH2 0x63A CALLDATASIZE PUSH1 0x4 PUSH2 0x113 JUMP JUMPDEST PUSH2 0x656 PUSH2 0x645 PUSH2 0x61F JUMP JUMPDEST PUSH2 0x64D PUSH2 0x103 JUMP JUMPDEST SWAP2 DUP3 SWAP2 DUP3 PUSH2 0x21E JUMP JUMPDEST SUB SWAP1 RETURN JUMPDEST PUSH2 0x109 JUMP JUMPDEST SWAP1 JUMP JUMPDEST PUSH2 0x676 PUSH2 0x671 PUSH2 0x67B SWAP3 PUSH2 0x65F JUMP JUMPDEST PUSH2 0x487 JUMP JUMPDEST PUSH2 0x20E JUMP JUMPDEST SWAP1 JUMP JUMPDEST PUSH2 0x68E PUSH7 0x8E1BC9BF040000 PUSH2 0x662 JUMP JUMPDEST SWAP1 JUMP JUMPDEST PUSH2 0x699 PUSH2 0x67E JUMP JUMPDEST SWAP1 JUMP JUMPDEST CALLVALUE PUSH2 0x6CC JUMPI PUSH2 0x6AC CALLDATASIZE PUSH1 0x4 PUSH2 0x113 JUMP JUMPDEST PUSH2 0x6C8 PUSH2 0x6B7 PUSH2 0x691 JUMP JUMPDEST PUSH2 0x6BF PUSH2 0x103 JUMP JUMPDEST SWAP2 DUP3 SWAP2 DUP3 PUSH2 0x21E JUMP JUMPDEST SUB SWAP1 RETURN JUMPDEST PUSH2 0x109 JUMP JUMPDEST SWAP1 JUMP JUMPDEST PUSH2 0x6E8 PUSH2 0x6E3 PUSH2 0x6ED SWAP3 PUSH2 0x6D1 JUMP JUMPDEST PUSH2 0x487 JUMP JUMPDEST PUSH2 0x20E JUMP JUMPDEST SWAP1 JUMP JUMPDEST PUSH2 0x6FA PUSH1 0x64 PUSH2 0x6D4 JUMP JUMPDEST SWAP1 JUMP JUMPDEST PUSH2 0x705 PUSH2 0x6F0 JUMP JUMPDEST SWAP1 JUMP JUMPDEST CALLVALUE PUSH2 0x738 JUMPI PUSH2 0x718 CALLDATASIZE PUSH1 0x4 PUSH2 0x113 JUMP JUMPDEST PUSH2 0x734 PUSH2 0x723 PUSH2 0x6FD JUMP JUMPDEST PUSH2 0x72B PUSH2 0x103 JUMP JUMPDEST SWAP2 DUP3 SWAP2 DUP3 PUSH2 0x21E JUMP JUMPDEST SUB SWAP1 RETURN JUMPDEST PUSH2 0x109 JUMP JUMPDEST PUSH1 0x0 DUP1 REVERT JUMPDEST PUSH1 0x0 SHR SWAP1 JUMP JUMPDEST PUSH2 0x754 PUSH2 0x759 SWAP2 PUSH2 0x742 JUMP JUMPDEST PUSH2 0x160 JUMP JUMPDEST SWAP1 JUMP JUMPDEST PUSH2 0x766 SWAP1 SLOAD PUSH2 0x748 JUMP JUMPDEST SWAP1 JUMP JUMPDEST PUSH1 0x20 SWAP2 DUP2 MSTORE ADD SWAP1 JUMP JUMPDEST PUSH1 0x0 PUSH32 0x4E6F7420616C6C6F77656420746F207472616E736665722066756E6473000000 SWAP2 ADD MSTORE JUMP JUMPDEST PUSH2 0x7A7 PUSH1 0x1D PUSH1 0x20 SWAP3 PUSH2 0x769 JUMP JUMPDEST PUSH2 0x7B0 DUP2 PUSH2 0x772 JUMP JUMPDEST ADD SWAP1 JUMP JUMPDEST PUSH2 0x7CA SWAP1 PUSH1 0x20 DUP2 ADD SWAP1 PUSH1 0x0 DUP2 DUP4 SUB SWAP2 ADD MSTORE PUSH2 0x79A JUMP JUMPDEST SWAP1 JUMP JUMPDEST ISZERO PUSH2 0x7D4 JUMPI JUMP JUMPDEST PUSH2 0x7DC PUSH2 0x103 JUMP JUMPDEST PUSH3 0x461BCD PUSH1 0xE5 SHL DUP2 MSTORE DUP1 PUSH2 0x7F2 PUSH1 0x4 DUP3 ADD PUSH2 0x7B4 JUMP JUMPDEST SUB SWAP1 REVERT JUMPDEST PUSH2 0x81B PUSH2 0x803 PUSH1 0x4 PUSH2 0x75C JUMP JUMPDEST PUSH2 0x815 PUSH2 0x80F CALLER PUSH2 0x1AA JUMP JUMPDEST SWAP2 PUSH2 0x1AA JUMP JUMPDEST EQ PUSH2 0x7CD JUMP JUMPDEST PUSH2 0x823 PUSH2 0x8CA JUMP JUMPDEST JUMP JUMPDEST PUSH2 0x831 PUSH2 0x836 SWAP2 PUSH2 0x742 JUMP JUMPDEST PUSH2 0x269 JUMP JUMPDEST SWAP1 JUMP JUMPDEST PUSH2 0x843 SWAP1 SLOAD PUSH2 0x825 JUMP JUMPDEST SWAP1 JUMP JUMPDEST PUSH1 0x0 PUSH32 0x5661756C74206973206E6F742066756C6C207965740000000000000000000000 SWAP2 ADD MSTORE JUMP JUMPDEST PUSH2 0x87B PUSH1 0x15 PUSH1 0x20 SWAP3 PUSH2 0x769 JUMP JUMPDEST PUSH2 0x884 DUP2 PUSH2 0x846 JUMP JUMPDEST ADD SWAP1 JUMP JUMPDEST PUSH2 0x89E SWAP1 PUSH1 0x20 DUP2 ADD SWAP1 PUSH1 0x0 DUP2 DUP4 SUB SWAP2 ADD MSTORE PUSH2 0x86E JUMP JUMPDEST SWAP1 JUMP JUMPDEST ISZERO PUSH2 0x8A8 JUMPI JUMP JUMPDEST PUSH2 0x8B0 PUSH2 0x103 JUMP JUMPDEST PUSH3 0x461BCD PUSH1 0xE5 SHL DUP2 MSTORE DUP1 PUSH2 0x8C6 PUSH1 0x4 DUP3 ADD PUSH2 0x888 JUMP JUMPDEST SUB SWAP1 REVERT JUMPDEST PUSH2 0x8F6 PUSH2 0x8D7 PUSH1 0x5 PUSH2 0x839 JUMP JUMPDEST PUSH2 0x8F0 PUSH2 0x8EA PUSH2 0x8E5 PUSH2 0x6F0 JUMP JUMPDEST PUSH2 0x20E JUMP JUMPDEST SWAP2 PUSH2 0x20E JUMP JUMPDEST EQ PUSH2 0x8A1 JUMP JUMPDEST PUSH2 0x8FE PUSH2 0x9F0 JUMP JUMPDEST JUMP JUMPDEST SWAP1 JUMP JUMPDEST PUSH2 0x917 PUSH2 0x912 PUSH2 0x91C SWAP3 PUSH2 0x900 JUMP JUMPDEST PUSH2 0x487 JUMP JUMPDEST PUSH2 0x19F JUMP JUMPDEST SWAP1 JUMP JUMPDEST PUSH2 0x928 SWAP1 PUSH2 0x903 JUMP JUMPDEST SWAP1 JUMP JUMPDEST PUSH1 0x0 PUSH32 0x4C61756E636870616420636F6E7472616374206E6F7420736574000000000000 SWAP2 ADD MSTORE JUMP JUMPDEST PUSH2 0x960 PUSH1 0x1A PUSH1 0x20 SWAP3 PUSH2 0x769 JUMP JUMPDEST PUSH2 0x969 DUP2 PUSH2 0x92B JUMP JUMPDEST ADD SWAP1 JUMP JUMPDEST PUSH2 0x983 SWAP1 PUSH1 0x20 DUP2 ADD SWAP1 PUSH1 0x0 DUP2 DUP4 SUB SWAP2 ADD MSTORE PUSH2 0x953 JUMP JUMPDEST SWAP1 JUMP JUMPDEST ISZERO PUSH2 0x98D JUMPI JUMP JUMPDEST PUSH2 0x995 PUSH2 0x103 JUMP JUMPDEST PUSH3 0x461BCD PUSH1 0xE5 SHL DUP2 MSTORE DUP1 PUSH2 0x9AB PUSH1 0x4 DUP3 ADD PUSH2 0x96D JUMP JUMPDEST SUB SWAP1 REVERT JUMPDEST PUSH2 0x9B8 SWAP1 PUSH2 0x48A JUMP JUMPDEST SWAP1 JUMP JUMPDEST PUSH2 0x9C4 SWAP1 PUSH2 0x9AF JUMP JUMPDEST SWAP1 JUMP JUMPDEST PUSH2 0x9D0 SWAP1 PUSH2 0x4A6 JUMP JUMPDEST SWAP1 JUMP JUMPDEST PUSH2 0x9DC SWAP1 PUSH2 0x4A6 JUMP JUMPDEST SWAP1 JUMP JUMPDEST PUSH2 0x9E7 PUSH2 0x103 JUMP JUMPDEST RETURNDATASIZE PUSH1 0x0 DUP3 RETURNDATACOPY RETURNDATASIZE SWAP1 REVERT JUMPDEST PUSH2 0xA1F PUSH2 0x9FD PUSH1 0x0 PUSH2 0x75C JUMP JUMPDEST PUSH2 0xA18 PUSH2 0xA12 PUSH2 0xA0D PUSH1 0x0 PUSH2 0x91F JUMP JUMPDEST PUSH2 0x1AA JUMP JUMPDEST SWAP2 PUSH2 0x1AA JUMP JUMPDEST EQ ISZERO PUSH2 0x986 JUMP JUMPDEST PUSH1 0x0 DUP1 DUP1 DUP1 PUSH2 0xA3D PUSH2 0xA38 PUSH2 0xA33 DUP4 PUSH2 0x75C JUMP JUMPDEST PUSH2 0x9BB JUMP JUMPDEST PUSH2 0x9C7 JUMP JUMPDEST PUSH2 0xA46 ADDRESS PUSH2 0x9D3 JUMP JUMPDEST BALANCE SWAP1 DUP3 DUP3 ISZERO PUSH2 0xA5D JUMPI JUMPDEST CALL ISZERO PUSH2 0xA58 JUMPI JUMP JUMPDEST PUSH2 0x9DF JUMP JUMPDEST POP PUSH2 0x8FC PUSH2 0xA50 JUMP JUMPDEST PUSH2 0xA6E PUSH2 0x7F6 JUMP JUMPDEST JUMP JUMPDEST PUSH1 0x0 SWAP1 JUMP JUMPDEST PUSH2 0xA7D PUSH2 0xA70 JUMP JUMPDEST POP PUSH2 0xA87 ADDRESS PUSH2 0x9D3 JUMP JUMPDEST BALANCE SWAP1 JUMP JUMPDEST PUSH1 0x0 SWAP1 JUMP JUMPDEST PUSH1 0x0 PUSH32 0x537562736372697074696F6E206E6F7420656E64656400000000000000000000 SWAP2 ADD MSTORE JUMP JUMPDEST PUSH2 0xAC5 PUSH1 0x16 PUSH1 0x20 SWAP3 PUSH2 0x769 JUMP JUMPDEST PUSH2 0xACE DUP2 PUSH2 0xA90 JUMP JUMPDEST ADD SWAP1 JUMP JUMPDEST PUSH2 0xAE8 SWAP1 PUSH1 0x20 DUP2 ADD SWAP1 PUSH1 0x0 DUP2 DUP4 SUB SWAP2 ADD MSTORE PUSH2 0xAB8 JUMP JUMPDEST SWAP1 JUMP JUMPDEST ISZERO PUSH2 0xAF2 JUMPI JUMP JUMPDEST PUSH2 0xAFA PUSH2 0x103 JUMP JUMPDEST PUSH3 0x461BCD PUSH1 0xE5 SHL DUP2 MSTORE DUP1 PUSH2 0xB10 PUSH1 0x4 DUP3 ADD PUSH2 0xAD2 JUMP JUMPDEST SUB SWAP1 REVERT JUMPDEST SWAP1 JUMP JUMPDEST PUSH2 0xB2B PUSH2 0xB26 PUSH2 0xB30 SWAP3 PUSH2 0xB14 JUMP JUMPDEST PUSH2 0x487 JUMP JUMPDEST PUSH2 0x20E JUMP JUMPDEST SWAP1 JUMP JUMPDEST PUSH1 0x1 PUSH2 0xB3F SWAP2 ADD PUSH2 0x20E JUMP JUMPDEST SWAP1 JUMP JUMPDEST PUSH2 0xB4A PUSH2 0xA8B JUMP JUMPDEST POP PUSH2 0xB77 PUSH2 0xB58 PUSH1 0x5 PUSH2 0x839 JUMP JUMPDEST PUSH2 0xB71 PUSH2 0xB6B PUSH2 0xB66 PUSH2 0x6F0 JUMP JUMPDEST PUSH2 0x20E JUMP JUMPDEST SWAP2 PUSH2 0x20E JUMP JUMPDEST EQ PUSH2 0xAEB JUMP JUMPDEST PUSH2 0xB8D PUSH2 0xB87 PUSH1 0x1 PUSH1 0x0 SWAP1 PUSH2 0x384 JUMP JUMPDEST SWAP1 PUSH2 0x183 JUMP JUMPDEST PUSH2 0xBB6 PUSH2 0xBB1 PUSH1 0x3 PUSH2 0xBAB PUSH2 0xBA5 PUSH1 0x1 PUSH1 0x0 SWAP1 PUSH2 0x384 JUMP JUMPDEST SWAP1 PUSH2 0x183 JUMP JUMPDEST SWAP1 PUSH2 0x4BE JUMP JUMPDEST PUSH2 0x839 JUMP JUMPDEST PUSH2 0xBC0 PUSH1 0x1 PUSH2 0xB17 JUMP JUMPDEST JUMPDEST DUP1 PUSH2 0xBDD PUSH2 0xBD7 PUSH2 0xBD2 PUSH1 0x1 PUSH2 0x375 JUMP JUMPDEST PUSH2 0x20E JUMP JUMPDEST SWAP2 PUSH2 0x20E JUMP JUMPDEST LT ISZERO PUSH2 0xC56 JUMPI PUSH2 0xBF8 PUSH2 0xBF2 PUSH1 0x1 DUP4 SWAP1 PUSH2 0x384 JUMP JUMPDEST SWAP1 PUSH2 0x183 JUMP JUMPDEST PUSH2 0xC0C PUSH2 0xC07 PUSH1 0x3 DUP4 SWAP1 PUSH2 0x4BE JUMP JUMPDEST PUSH2 0x839 JUMP JUMPDEST PUSH2 0xC1E PUSH2 0xC18 DUP6 PUSH2 0x20E JUMP JUMPDEST SWAP2 PUSH2 0x20E JUMP JUMPDEST GT PUSH2 0xC33 JUMPI JUMPDEST POP PUSH2 0xC2E SWAP1 PUSH2 0xB33 JUMP JUMPDEST PUSH2 0xBC1 JUMP JUMPDEST SWAP2 POP SWAP2 POP PUSH2 0xC2E PUSH2 0xC4E PUSH2 0xC49 PUSH1 0x3 DUP5 SWAP1 PUSH2 0x4BE JUMP JUMPDEST PUSH2 0x839 JUMP JUMPDEST SWAP2 SWAP3 SWAP1 PUSH2 0xC24 JUMP JUMPDEST POP POP SWAP1 JUMP JUMPDEST PUSH2 0xC6F PUSH2 0xC6A PUSH2 0xC74 SWAP3 PUSH2 0x900 JUMP JUMPDEST PUSH2 0x487 JUMP JUMPDEST PUSH2 0x20E JUMP JUMPDEST SWAP1 JUMP JUMPDEST PUSH1 0x0 PUSH32 0x557365722068617320616C7265616479206465706F7369746564000000000000 SWAP2 ADD MSTORE JUMP JUMPDEST PUSH2 0xCAC PUSH1 0x1A PUSH1 0x20 SWAP3 PUSH2 0x769 JUMP JUMPDEST PUSH2 0xCB5 DUP2 PUSH2 0xC77 JUMP JUMPDEST ADD SWAP1 JUMP JUMPDEST PUSH2 0xCCF SWAP1 PUSH1 0x20 DUP2 ADD SWAP1 PUSH1 0x0 DUP2 DUP4 SUB SWAP2 ADD MSTORE PUSH2 0xC9F JUMP JUMPDEST SWAP1 JUMP JUMPDEST ISZERO PUSH2 0xCD9 JUMPI JUMP JUMPDEST PUSH2 0xCE1 PUSH2 0x103 JUMP JUMPDEST PUSH3 0x461BCD PUSH1 0xE5 SHL DUP2 MSTORE DUP1 PUSH2 0xCF7 PUSH1 0x4 DUP3 ADD PUSH2 0xCB9 JUMP JUMPDEST SUB SWAP1 REVERT JUMPDEST PUSH1 0x0 PUSH32 0x496E76616C6964206465706F73697420616D6F756E7400000000000000000000 SWAP2 ADD MSTORE JUMP JUMPDEST PUSH2 0xD30 PUSH1 0x16 PUSH1 0x20 SWAP3 PUSH2 0x769 JUMP JUMPDEST PUSH2 0xD39 DUP2 PUSH2 0xCFB JUMP JUMPDEST ADD SWAP1 JUMP JUMPDEST PUSH2 0xD53 SWAP1 PUSH1 0x20 DUP2 ADD SWAP1 PUSH1 0x0 DUP2 DUP4 SUB SWAP2 ADD MSTORE PUSH2 0xD23 JUMP JUMPDEST SWAP1 JUMP JUMPDEST ISZERO PUSH2 0xD5D JUMPI JUMP JUMPDEST PUSH2 0xD65 PUSH2 0x103 JUMP JUMPDEST PUSH3 0x461BCD PUSH1 0xE5 SHL DUP2 MSTORE DUP1 PUSH2 0xD7B PUSH1 0x4 DUP3 ADD PUSH2 0xD3D JUMP JUMPDEST SUB SWAP1 REVERT JUMPDEST PUSH1 0x20 PUSH32 0x65206465706F7369747300000000000000000000000000000000000000000000 SWAP2 PUSH32 0x5661756C742069732066756C6C2C2063616E6E6F7420616363657074206D6F72 PUSH1 0x0 DUP3 ADD MSTORE ADD MSTORE JUMP JUMPDEST PUSH2 0xDDA PUSH1 0x2A PUSH1 0x40 SWAP3 PUSH2 0x769 JUMP JUMPDEST PUSH2 0xDE3 DUP2 PUSH2 0xD7F JUMP JUMPDEST ADD SWAP1 JUMP JUMPDEST PUSH2 0xDFD SWAP1 PUSH1 0x20 DUP2 ADD SWAP1 PUSH1 0x0 DUP2 DUP4 SUB SWAP2 ADD MSTORE PUSH2 0xDCD JUMP JUMPDEST SWAP1 JUMP JUMPDEST ISZERO PUSH2 0xE07 JUMPI JUMP JUMPDEST PUSH2 0xE0F PUSH2 0x103 JUMP JUMPDEST PUSH3 0x461BCD PUSH1 0xE5 SHL DUP2 MSTORE DUP1 PUSH2 0xE25 PUSH1 0x4 DUP3 ADD PUSH2 0xDE7 JUMP JUMPDEST SUB SWAP1 REVERT JUMPDEST PUSH2 0xE59 PUSH2 0xE40 PUSH2 0xE3B PUSH1 0x3 CALLER SWAP1 PUSH2 0x4BE JUMP JUMPDEST PUSH2 0x839 JUMP JUMPDEST PUSH2 0xE53 PUSH2 0xE4D PUSH1 0x0 PUSH2 0xC5B JUMP JUMPDEST SWAP2 PUSH2 0x20E JUMP JUMPDEST EQ PUSH2 0xCD2 JUMP JUMPDEST CALLVALUE PUSH2 0xE73 PUSH2 0xE6D PUSH2 0xE68 PUSH2 0x67E JUMP JUMPDEST PUSH2 0x20E JUMP JUMPDEST SWAP2 PUSH2 0x20E JUMP JUMPDEST LT ISZERO DUP1 PUSH2 0xEBD JUMPI JUMPDEST PUSH2 0xE84 SWAP1 PUSH2 0xD56 JUMP JUMPDEST PUSH2 0xEB1 PUSH2 0xE91 PUSH1 0x5 PUSH2 0x839 JUMP JUMPDEST PUSH2 0xEAA PUSH2 0xEA4 PUSH2 0xE9F PUSH2 0x6F0 JUMP JUMPDEST PUSH2 0x20E JUMP JUMPDEST SWAP2 PUSH2 0x20E JUMP JUMPDEST GT ISZERO PUSH2 0xE00 JUMP JUMPDEST PUSH2 0xEBB CALLVALUE CALLER PUSH2 0x108F JUMP JUMPDEST JUMP JUMPDEST POP PUSH2 0xE84 CALLVALUE PUSH2 0xEDB PUSH2 0xED5 PUSH2 0xED0 PUSH2 0x60B JUMP JUMPDEST PUSH2 0x20E JUMP JUMPDEST SWAP2 PUSH2 0x20E JUMP JUMPDEST GT ISZERO SWAP1 POP PUSH2 0xE7B JUMP JUMPDEST PUSH4 0x4E487B71 PUSH1 0xE0 SHL PUSH1 0x0 MSTORE PUSH1 0x11 PUSH1 0x4 MSTORE PUSH1 0x24 PUSH1 0x0 REVERT JUMPDEST PUSH2 0xF09 PUSH2 0xF0F SWAP2 SWAP4 SWAP3 SWAP4 PUSH2 0x20E JUMP JUMPDEST SWAP3 PUSH2 0x20E JUMP JUMPDEST DUP3 ADD DUP1 SWAP3 GT PUSH2 0xF1A JUMPI JUMP JUMPDEST PUSH2 0xEE4 JUMP JUMPDEST PUSH1 0x0 SHL SWAP1 JUMP JUMPDEST SWAP1 PUSH2 0xF32 PUSH1 0x0 NOT SWAP2 PUSH2 0xF1F JUMP JUMPDEST SWAP2 DUP2 NOT AND SWAP2 AND OR SWAP1 JUMP JUMPDEST PUSH2 0xF50 PUSH2 0xF4B PUSH2 0xF55 SWAP3 PUSH2 0x20E JUMP JUMPDEST PUSH2 0x487 JUMP JUMPDEST PUSH2 0x20E JUMP JUMPDEST SWAP1 JUMP JUMPDEST SWAP1 JUMP JUMPDEST SWAP1 PUSH2 0xF70 PUSH2 0xF6B PUSH2 0xF77 SWAP3 PUSH2 0xF3C JUMP JUMPDEST PUSH2 0xF58 JUMP JUMPDEST DUP3 SLOAD PUSH2 0xF25 JUMP JUMPDEST SWAP1 SSTORE JUMP JUMPDEST SWAP1 JUMP JUMPDEST PUSH4 0x4E487B71 PUSH1 0xE0 SHL PUSH1 0x0 MSTORE PUSH1 0x41 PUSH1 0x4 MSTORE PUSH1 0x24 PUSH1 0x0 REVERT JUMPDEST PUSH1 0x0 MSTORE PUSH1 0x20 PUSH1 0x0 KECCAK256 SWAP1 JUMP JUMPDEST SLOAD SWAP1 JUMP JUMPDEST PUSH2 0xFAC DUP2 PUSH2 0xF9F JUMP JUMPDEST DUP3 LT ISZERO PUSH2 0xFC7 JUMPI PUSH2 0xFBE PUSH1 0x1 SWAP2 PUSH2 0xF94 JUMP JUMPDEST SWAP2 MUL ADD SWAP1 PUSH1 0x0 SWAP1 JUMP JUMPDEST PUSH2 0x35F JUMP JUMPDEST SHL SWAP1 JUMP JUMPDEST SWAP2 SWAP1 PUSH1 0x8 PUSH2 0xFF0 SWAP2 MUL SWAP2 PUSH2 0xFEA PUSH1 0x1 DUP1 PUSH1 0xA0 SHL SUB DUP5 PUSH2 0xFCC JUMP JUMPDEST SWAP3 PUSH2 0xFCC JUMP JUMPDEST SWAP2 DUP2 NOT AND SWAP2 AND OR SWAP1 JUMP JUMPDEST SWAP1 JUMP JUMPDEST SWAP2 SWAP1 PUSH2 0x1013 PUSH2 0x100E PUSH2 0x101B SWAP4 PUSH2 0x4B2 JUMP JUMPDEST PUSH2 0xFFA JUMP JUMPDEST SWAP1 DUP4 SLOAD PUSH2 0xFD0 JUMP JUMPDEST SWAP1 SSTORE JUMP JUMPDEST SWAP1 DUP2 SLOAD SWAP2 PUSH9 0x10000000000000000 DUP4 LT ISZERO PUSH2 0x104F JUMPI DUP3 PUSH2 0x1047 SWAP2 PUSH1 0x1 PUSH2 0x104D SWAP6 ADD DUP2 SSTORE PUSH2 0xFA3 JUMP JUMPDEST SWAP1 PUSH2 0xFFD JUMP JUMPDEST JUMP JUMPDEST PUSH2 0xF7E JUMP JUMPDEST SWAP1 PUSH2 0x1065 PUSH1 0x1 DUP1 PUSH1 0xA0 SHL SUB SWAP2 PUSH2 0xF1F JUMP JUMPDEST SWAP2 DUP2 NOT AND SWAP2 AND OR SWAP1 JUMP JUMPDEST SWAP1 PUSH2 0x1084 PUSH2 0x107F PUSH2 0x108B SWAP3 PUSH2 0x4B2 JUMP JUMPDEST PUSH2 0xFFA JUMP JUMPDEST DUP3 SLOAD PUSH2 0x1054 JUMP JUMPDEST SWAP1 SSTORE JUMP JUMPDEST PUSH2 0x10D7 PUSH2 0x110C SWAP3 PUSH2 0x10B3 PUSH2 0x10AC DUP3 PUSH2 0x10A7 PUSH1 0x2 PUSH2 0x839 JUMP JUMPDEST PUSH2 0xEFA JUMP JUMPDEST PUSH1 0x2 PUSH2 0xF5B JUMP JUMPDEST PUSH2 0x10D1 PUSH2 0x10C2 PUSH1 0x3 DUP6 SWAP1 PUSH2 0x4BE JUMP JUMPDEST SWAP2 PUSH2 0x10CC DUP4 PUSH2 0x839 JUMP JUMPDEST PUSH2 0xEFA JUMP JUMPDEST SWAP1 PUSH2 0xF5B JUMP JUMPDEST PUSH2 0x10FD PUSH2 0x10F6 PUSH2 0x10E7 PUSH1 0x1 PUSH2 0xB17 JUMP JUMPDEST PUSH2 0x10F1 PUSH1 0x5 PUSH2 0x839 JUMP JUMPDEST PUSH2 0xEFA JUMP JUMPDEST PUSH1 0x5 PUSH2 0xF5B JUMP JUMPDEST PUSH2 0x1107 PUSH1 0x1 PUSH2 0xF7B JUMP JUMPDEST PUSH2 0x101F JUMP JUMPDEST PUSH2 0x1116 PUSH1 0x5 PUSH2 0x839 JUMP JUMPDEST PUSH2 0x112F PUSH2 0x1129 PUSH2 0x1124 PUSH2 0x6F0 JUMP JUMPDEST PUSH2 0x20E JUMP JUMPDEST SWAP2 PUSH2 0x20E JUMP JUMPDEST EQ PUSH2 0x1137 JUMPI JUMPDEST JUMP JUMPDEST PUSH2 0x1149 PUSH2 0x1142 PUSH2 0xB42 JUMP JUMPDEST PUSH1 0x4 PUSH2 0x106F JUMP JUMPDEST PUSH2 0x1135 JUMP INVALID LOG2 PUSH5 0x6970667358 0x22 SLT KECCAK256 SWAP15 PUSH27 0x95A88229539CD61B24809120A3BCA32E80EBD84E2F575B847C88E4 0xD1 JUMPDEST COINBASE PUSH5 0x736F6C6343 STOP ADDMOD XOR STOP CALLER "},"methodIdentifiers":{"MAX_DEPOSIT()":"dd5967c3","MAX_PARTICIPANTS()":"f3baf070","MIN_DEPOSIT()":"e1e158a5","TOTAL_PARTICIPANTS()":"74244bc9","allowedToTransfer()":"19507d2c","balanceOf(address)":"70a08231","deposit()":"d0e30db0","getAddressWithHighestShare()":"42373e74","getBalance()":"12065fe0","launchpadContract()":"116136da","owner()":"8da5cb5b","participants(uint256)":"35c1d349","totalSupply()":"18160ddd","transferToLaunchpad()":"0fec1959"}}}}}