{"contracts/Vault3.sol":{"Vault3":{"abi":[{"inputs":[{"internalType":"address","name":"_launchpadContract","type":"address"}],"stateMutability":"nonpayable","type":"constructor"},{"inputs":[],"name":"MAX_DEPOSIT","outputs":[{"internalType":"uint256","name":"","type":"uint256"}],"stateMutability":"view","type":"function"},{"inputs":[],"name":"MAX_PARTICIPANTS","outputs":[{"internalType":"uint256","name":"","type":"uint256"}],"stateMutability":"view","type":"function"},{"inputs":[],"name":"MIN_DEPOSIT","outputs":[{"internalType":"uint256","name":"","type":"uint256"}],"stateMutability":"view","type":"function"},{"inputs":[],"name":"TOTAL_PARTICIPANTS","outputs":[{"internalType":"uint256","name":"","type":"uint256"}],"stateMutability":"view","type":"function"},{"inputs":[],"name":"allowedToTransfer","outputs":[{"internalType":"address","name":"","type":"address"}],"stateMutability":"view","type":"function"},{"inputs":[{"internalType":"address","name":"","type":"address"}],"name":"balanceOf","outputs":[{"internalType":"uint256","name":"","type":"uint256"}],"stateMutability":"view","type":"function"},{"inputs":[],"name":"deposit","outputs":[],"stateMutability":"payable","type":"function"},{"inputs":[],"name":"getAddressWithHighestShare","outputs":[{"internalType":"address","name":"","type":"address"}],"stateMutability":"view","type":"function"},{"inputs":[],"name":"getBalance","outputs":[{"internalType":"uint256","name":"","type":"uint256"}],"stateMutability":"view","type":"function"},{"inputs":[],"name":"launchpadContract","outputs":[{"internalType":"address","name":"","type":"address"}],"stateMutability":"view","type":"function"},{"inputs":[],"name":"owner","outputs":[{"internalType":"address","name":"","type":"address"}],"stateMutability":"view","type":"function"},{"inputs":[{"internalType":"uint256","name":"","type":"uint256"}],"name":"participants","outputs":[{"internalType":"address","name":"","type":"address"}],"stateMutability":"view","type":"function"},{"inputs":[],"name":"totalSupply","outputs":[{"internalType":"uint256","name":"","type":"uint256"}],"stateMutability":"view","type":"function"},{"inputs":[],"name":"transferToLaunchpad","outputs":[],"stateMutability":"nonpayable","type":"function"}],"evm":{"bytecode":{"linkReferences":{},"object":"60a06040523462000040576200001e620000186200011f565b6200023c565b6200002862000046565b6111856200025e82396080518161056c015261118590f35b6200004c565b60405190565b600080fd5b601f801991011690565b634e487b7160e01b600052604160045260246000fd5b906200007d9062000051565b810190811060018060401b038211176200009657604052565b6200005b565b90620000b3620000ab62000046565b928362000071565b565b600080fd5b60018060a01b031690565b620000d090620000ba565b90565b620000de81620000c5565b03620000e657565b600080fd5b90505190620000fa82620000d3565b565b9060208282031262000119576200011691600001620000eb565b90565b620000b5565b62000142620013e38038038062000136816200009c565b928339810190620000fc565b90565b60001b90565b906200015a6000199162000145565b9181191691161790565b90565b90565b90565b62000186620001806200018c9262000164565b6200016a565b62000167565b90565b90565b90620001ac620001a6620001b4926200016d565b6200018f565b82546200014b565b9055565b90620001cb60018060a01b039162000145565b9181191691161790565b620001ee620001e8620001f492620000ba565b6200016a565b620000ba565b90565b6200020290620001d5565b90565b6200021090620001f7565b90565b90565b90620002306200022a620002389262000205565b62000213565b8254620001b8565b9055565b6200025b906200024f6000600562000192565b33608052600062000216565b56fe60806040526004361015610013575b61073e565b61001e6000356100fd565b80630fec1959146100f8578063116136da146100f357806312065fe0146100ee57806318160ddd146100e957806319507d2c146100e457806335c1d349146100df57806342373e74146100da57806370a08231146100d557806374244bc9146100d05780638da5cb5b146100cb578063d0e30db0146100c6578063dd5967c3146100c1578063e1e158a5146100bc5763f3baf0700361000e57610709565b61069d565b61062a565b6105c3565b61058e565b610535565b6104f0565b61040f565b6103da565b6102e7565b6102a2565b610234565b6101d9565b610129565b60e01c90565b60405190565b600080fd5b600080fd5b600091031261011e57565b61010e565b60000190565b3461015757610139366004610113565b610141610a67565b610149610103565b8061015381610123565b0390f35b610109565b1c90565b60018060a01b031690565b61017b906008610180930261015c565b610160565b90565b9061018e915461016b565b90565b61019c600080610183565b90565b60018060a01b031690565b6101b39061019f565b90565b6101bf906101aa565b9052565b91906101d7906000602085019401906101b6565b565b34610209576101e9366004610113565b6102056101f4610191565b6101fc610103565b918291826101c3565b0390f35b610109565b90565b61021a9061020e565b9052565b919061023290600060208501940190610211565b565b3461026457610244366004610113565b61026061024f610a76565b610257610103565b9182918261021e565b0390f35b610109565b90565b61027c906008610281930261015c565b610269565b90565b9061028f915461026c565b90565b61029f6002600090610284565b90565b346102d2576102b2366004610113565b6102ce6102bd610292565b6102c5610103565b9182918261021e565b0390f35b610109565b6102e46004600090610183565b90565b34610317576102f7366004610113565b6103136103026102d7565b61030a610103565b918291826101c3565b0390f35b610109565b6103258161020e565b0361032c57565b600080fd5b9050359061033e8261031c565b565b9060208282031261035a5761035791600001610331565b90565b61010e565b634e487b7160e01b600052603260045260246000fd5b5490565b600052602060002090565b61038d81610375565b8210156103a85761039f600191610379565b91020190600090565b61035f565b60016103b881610375565b8210156103d5576103d2916103cc91610384565b90610183565b90565b600080fd5b3461040a576104066103f56103f0366004610340565b6103ad565b6103fd610103565b918291826101c3565b0390f35b610109565b3461043f5761041f366004610113565b61043b61042a610b43565b610432610103565b918291826101c3565b0390f35b610109565b61044d816101aa565b0361045457565b600080fd5b9050359061046682610444565b565b906020828203126104825761047f91600001610459565b90565b61010e565b90565b61049e6104996104a39261019f565b610487565b61019f565b90565b6104af9061048a565b90565b6104bb906104a6565b90565b906104c8906104b2565b600052602052604060002090565b6104ed906104e86003916000926104be565b610284565b90565b346105205761051c61050b610506366004610468565b6104d6565b610513610103565b9182918261021e565b0390f35b610109565b6105326005600090610284565b90565b3461056557610545366004610113565b610561610550610525565b610558610103565b9182918261021e565b0390f35b610109565b7f000000000000000000000000000000000000000000000000000000000000000090565b346105be5761059e366004610113565b6105ba6105a961056a565b6105b1610103565b918291826101c3565b0390f35b610109565b6105ce366004610113565b6105d6610e2a565b6105de610103565b806105e881610123565b0390f35b90565b6106036105fe610608926105ec565b610487565b61020e565b90565b61061c6701aa535d3d0c00006105ef565b90565b61062761060b565b90565b3461065a5761063a366004610113565b61065661064561061f565b61064d610103565b9182918261021e565b0390f35b610109565b90565b61067661067161067b9261065f565b610487565b61020e565b90565b61068f67011c37937e080000610662565b90565b61069a61067e565b90565b346106cd576106ad366004610113565b6106c96106b8610692565b6106c0610103565b9182918261021e565b0390f35b610109565b90565b6106e96106e46106ee926106d2565b610487565b61020e565b90565b6106fb60646106d5565b90565b6107066106f1565b90565b3461073957610719366004610113565b6107356107246106fe565b61072c610103565b9182918261021e565b0390f35b610109565b600080fd5b60001c90565b61075561075a91610743565b610160565b90565b6107679054610749565b90565b60209181520190565b60007f4e6f7420616c6c6f77656420746f207472616e736665722066756e6473000000910152565b6107a8601d60209261076a565b6107b181610773565b0190565b6107cb906020810190600081830391015261079b565b90565b156107d557565b6107dd610103565b62461bcd60e51b8152806107f3600482016107b5565b0390fd5b61081c610804600461075d565b610816610810336101aa565b916101aa565b146107ce565b6108246108cb565b565b61083261083791610743565b610269565b90565b6108449054610826565b90565b60007f5661756c74206973206e6f742066756c6c207965740000000000000000000000910152565b61087c601560209261076a565b61088581610847565b0190565b61089f906020810190600081830391015261086f565b90565b156108a957565b6108b1610103565b62461bcd60e51b8152806108c760048201610889565b0390fd5b6108f76108d8600561083a565b6108f16108eb6108e66106f1565b61020e565b9161020e565b146108a2565b6108ff6109f1565b565b90565b61091861091361091d92610901565b610487565b61019f565b90565b61092990610904565b90565b60007f4c61756e636870616420636f6e7472616374206e6f7420736574000000000000910152565b610961601a60209261076a565b61096a8161092c565b0190565b6109849060208101906000818303910152610954565b90565b1561098e57565b610996610103565b62461bcd60e51b8152806109ac6004820161096e565b0390fd5b6109b99061048a565b90565b6109c5906109b0565b90565b6109d1906104a6565b90565b6109dd906104a6565b90565b6109e8610103565b3d6000823e3d90fd5b610a206109fe600061075d565b610a19610a13610a0e6000610920565b6101aa565b916101aa565b1415610987565b6000808080610a3e610a39610a348361075d565b6109bc565b6109c8565b610a47306109d4565b3190828215610a5e575bf115610a5957565b6109e0565b506108fc610a51565b610a6f6107f7565b565b600090565b610a7e610a71565b50610a88306109d4565b3190565b600090565b60007f537562736372697074696f6e206e6f7420656e64656400000000000000000000910152565b610ac6601660209261076a565b610acf81610a91565b0190565b610ae99060208101906000818303910152610ab9565b90565b15610af357565b610afb610103565b62461bcd60e51b815280610b1160048201610ad3565b0390fd5b90565b610b2c610b27610b3192610b15565b610487565b61020e565b90565b6001610b40910161020e565b90565b610b4b610a8c565b50610b78610b59600561083a565b610b72610b6c610b676106f1565b61020e565b9161020e565b14610aec565b610b8e610b886001600090610384565b90610183565b610bb7610bb26003610bac610ba66001600090610384565b90610183565b906104be565b61083a565b610bc16001610b18565b5b80610bde610bd8610bd36001610375565b61020e565b9161020e565b1015610c5757610bf9610bf360018390610384565b90610183565b610c0d610c08600383906104be565b61083a565b610c1f610c198561020e565b9161020e565b11610c34575b50610c2f90610b34565b610bc2565b91509150610c2f610c4f610c4a600384906104be565b61083a565b919290610c25565b505090565b610c70610c6b610c7592610901565b610487565b61020e565b90565b60007f557365722068617320616c7265616479206465706f7369746564000000000000910152565b610cad601a60209261076a565b610cb681610c78565b0190565b610cd09060208101906000818303910152610ca0565b90565b15610cda57565b610ce2610103565b62461bcd60e51b815280610cf860048201610cba565b0390fd5b60007f496e76616c6964206465706f73697420616d6f756e7400000000000000000000910152565b610d31601660209261076a565b610d3a81610cfc565b0190565b610d549060208101906000818303910152610d24565b90565b15610d5e57565b610d66610103565b62461bcd60e51b815280610d7c60048201610d3e565b0390fd5b60207f65206465706f7369747300000000000000000000000000000000000000000000917f5661756c742069732066756c6c2c2063616e6e6f7420616363657074206d6f7260008201520152565b610ddb602a60409261076a565b610de481610d80565b0190565b610dfe9060208101906000818303910152610dce565b90565b15610e0857565b610e10610103565b62461bcd60e51b815280610e2660048201610de8565b0390fd5b610e5a610e41610e3c600333906104be565b61083a565b610e54610e4e6000610c5c565b9161020e565b14610cd3565b34610e74610e6e610e6961067e565b61020e565b9161020e565b101580610ebe575b610e8590610d57565b610eb2610e92600561083a565b610eab610ea5610ea06106f1565b61020e565b9161020e565b1115610e01565b610ebc3433611090565b565b50610e8534610edc610ed6610ed161060b565b61020e565b9161020e565b11159050610e7c565b634e487b7160e01b600052601160045260246000fd5b610f0a610f109193929361020e565b9261020e565b8201809211610f1b57565b610ee5565b60001b90565b90610f3360001991610f20565b9181191691161790565b610f51610f4c610f569261020e565b610487565b61020e565b90565b90565b90610f71610f6c610f7892610f3d565b610f59565b8254610f26565b9055565b90565b634e487b7160e01b600052604160045260246000fd5b600052602060002090565b5490565b610fad81610fa0565b821015610fc857610fbf600191610f95565b91020190600090565b61035f565b1b90565b91906008610ff1910291610feb60018060a01b0384610fcd565b92610fcd565b9181191691161790565b90565b919061101461100f61101c936104b2565b610ffb565b908354610fd1565b9055565b9081549168010000000000000000831015611050578261104891600161104e95018155610fa4565b90610ffe565b565b610f7f565b9061106660018060a01b0391610f20565b9181191691161790565b9061108561108061108c926104b2565b610ffb565b8254611055565b9055565b6110d861110d926110b46110ad826110a8600261083a565b610efb565b6002610f5c565b6110d26110c3600385906104be565b916110cd8361083a565b610efb565b90610f5c565b6110fe6110f76110e86001610b18565b6110f2600561083a565b610efb565b6005610f5c565b6111086001610f7c565b611020565b611117600561083a565b61113061112a6111256106f1565b61020e565b9161020e565b14611138575b565b61114a611143610b43565b6004611070565b61113656fea26469706673582212207542c551aadada004827f0e257c8f299b4be9b0e78d1dfe63401756bc40b344b64736f6c63430008180033","opcodes":"PUSH1 0xA0 PUSH1 0x40 MSTORE CALLVALUE PUSH3 0x40 JUMPI PUSH3 0x1E PUSH3 0x18 PUSH3 0x11F JUMP JUMPDEST PUSH3 0x23C JUMP JUMPDEST PUSH3 0x28 PUSH3 0x46 JUMP JUMPDEST PUSH2 0x1185 PUSH3 0x25E DUP3 CODECOPY PUSH1 0x80 MLOAD DUP2 PUSH2 0x56C ADD MSTORE PUSH2 0x1185 SWAP1 RETURN JUMPDEST PUSH3 0x4C JUMP JUMPDEST PUSH1 0x40 MLOAD SWAP1 JUMP JUMPDEST PUSH1 0x0 DUP1 REVERT JUMPDEST PUSH1 0x1F DUP1 NOT SWAP2 ADD AND SWAP1 JUMP JUMPDEST PUSH4 0x4E487B71 PUSH1 0xE0 SHL PUSH1 0x0 MSTORE PUSH1 0x41 PUSH1 0x4 MSTORE PUSH1 0x24 PUSH1 0x0 REVERT JUMPDEST SWAP1 PUSH3 0x7D SWAP1 PUSH3 0x51 JUMP JUMPDEST DUP2 ADD SWAP1 DUP2 LT PUSH1 0x1 DUP1 PUSH1 0x40 SHL SUB DUP3 GT OR PUSH3 0x96 JUMPI PUSH1 0x40 MSTORE JUMP JUMPDEST PUSH3 0x5B JUMP JUMPDEST SWAP1 PUSH3 0xB3 PUSH3 0xAB PUSH3 0x46 JUMP JUMPDEST SWAP3 DUP4 PUSH3 0x71 JUMP JUMPDEST JUMP JUMPDEST PUSH1 0x0 DUP1 REVERT JUMPDEST PUSH1 0x1 DUP1 PUSH1 0xA0 SHL SUB AND SWAP1 JUMP JUMPDEST PUSH3 0xD0 SWAP1 PUSH3 0xBA JUMP JUMPDEST SWAP1 JUMP JUMPDEST PUSH3 0xDE DUP2 PUSH3 0xC5 JUMP JUMPDEST SUB PUSH3 0xE6 JUMPI JUMP JUMPDEST PUSH1 0x0 DUP1 REVERT JUMPDEST SWAP1 POP MLOAD SWAP1 PUSH3 0xFA DUP3 PUSH3 0xD3 JUMP JUMPDEST JUMP JUMPDEST SWAP1 PUSH1 0x20 DUP3 DUP3 SUB SLT PUSH3 0x119 JUMPI PUSH3 0x116 SWAP2 PUSH1 0x0 ADD PUSH3 0xEB JUMP JUMPDEST SWAP1 JUMP JUMPDEST PUSH3 0xB5 JUMP JUMPDEST PUSH3 0x142 PUSH3 0x13E3 DUP1 CODESIZE SUB DUP1 PUSH3 0x136 DUP2 PUSH3 0x9C JUMP JUMPDEST SWAP3 DUP4 CODECOPY DUP2 ADD SWAP1 PUSH3 0xFC JUMP JUMPDEST SWAP1 JUMP JUMPDEST PUSH1 0x0 SHL SWAP1 JUMP JUMPDEST SWAP1 PUSH3 0x15A PUSH1 0x0 NOT SWAP2 PUSH3 0x145 JUMP JUMPDEST SWAP2 DUP2 NOT AND SWAP2 AND OR SWAP1 JUMP JUMPDEST SWAP1 JUMP JUMPDEST SWAP1 JUMP JUMPDEST SWAP1 JUMP JUMPDEST PUSH3 0x186 PUSH3 0x180 PUSH3 0x18C SWAP3 PUSH3 0x164 JUMP JUMPDEST PUSH3 0x16A JUMP JUMPDEST PUSH3 0x167 JUMP JUMPDEST SWAP1 JUMP JUMPDEST SWAP1 JUMP JUMPDEST SWAP1 PUSH3 0x1AC PUSH3 0x1A6 PUSH3 0x1B4 SWAP3 PUSH3 0x16D JUMP JUMPDEST PUSH3 0x18F JUMP JUMPDEST DUP3 SLOAD PUSH3 0x14B JUMP JUMPDEST SWAP1 SSTORE JUMP JUMPDEST SWAP1 PUSH3 0x1CB PUSH1 0x1 DUP1 PUSH1 0xA0 SHL SUB SWAP2 PUSH3 0x145 JUMP JUMPDEST SWAP2 DUP2 NOT AND SWAP2 AND OR SWAP1 JUMP JUMPDEST PUSH3 0x1EE PUSH3 0x1E8 PUSH3 0x1F4 SWAP3 PUSH3 0xBA JUMP JUMPDEST PUSH3 0x16A JUMP JUMPDEST PUSH3 0xBA JUMP JUMPDEST SWAP1 JUMP JUMPDEST PUSH3 0x202 SWAP1 PUSH3 0x1D5 JUMP JUMPDEST SWAP1 JUMP JUMPDEST PUSH3 0x210 SWAP1 PUSH3 0x1F7 JUMP JUMPDEST SWAP1 JUMP JUMPDEST SWAP1 JUMP JUMPDEST SWAP1 PUSH3 0x230 PUSH3 0x22A PUSH3 0x238 SWAP3 PUSH3 0x205 JUMP JUMPDEST PUSH3 0x213 JUMP JUMPDEST DUP3 SLOAD PUSH3 0x1B8 JUMP JUMPDEST SWAP1 SSTORE JUMP JUMPDEST PUSH3 0x25B SWAP1 PUSH3 0x24F PUSH1 0x0 PUSH1 0x5 PUSH3 0x192 JUMP JUMPDEST CALLER PUSH1 0x80 MSTORE PUSH1 0x0 PUSH3 0x216 JUMP JUMPDEST JUMP INVALID PUSH1 0x80 PUSH1 0x40 MSTORE PUSH1 0x4 CALLDATASIZE LT ISZERO PUSH2 0x13 JUMPI JUMPDEST PUSH2 0x73E JUMP JUMPDEST PUSH2 0x1E PUSH1 0x0 CALLDATALOAD PUSH2 0xFD JUMP JUMPDEST DUP1 PUSH4 0xFEC1959 EQ PUSH2 0xF8 JUMPI DUP1 PUSH4 0x116136DA EQ PUSH2 0xF3 JUMPI DUP1 PUSH4 0x12065FE0 EQ PUSH2 0xEE JUMPI DUP1 PUSH4 0x18160DDD EQ PUSH2 0xE9 JUMPI DUP1 PUSH4 0x19507D2C EQ PUSH2 0xE4 JUMPI DUP1 PUSH4 0x35C1D349 EQ PUSH2 0xDF JUMPI DUP1 PUSH4 0x42373E74 EQ PUSH2 0xDA JUMPI DUP1 PUSH4 0x70A08231 EQ PUSH2 0xD5 JUMPI DUP1 PUSH4 0x74244BC9 EQ PUSH2 0xD0 JUMPI DUP1 PUSH4 0x8DA5CB5B EQ PUSH2 0xCB JUMPI DUP1 PUSH4 0xD0E30DB0 EQ PUSH2 0xC6 JUMPI DUP1 PUSH4 0xDD5967C3 EQ PUSH2 0xC1 JUMPI DUP1 PUSH4 0xE1E158A5 EQ PUSH2 0xBC JUMPI PUSH4 0xF3BAF070 SUB PUSH2 0xE JUMPI PUSH2 0x709 JUMP JUMPDEST PUSH2 0x69D JUMP JUMPDEST PUSH2 0x62A JUMP JUMPDEST PUSH2 0x5C3 JUMP JUMPDEST PUSH2 0x58E JUMP JUMPDEST PUSH2 0x535 JUMP JUMPDEST PUSH2 0x4F0 JUMP JUMPDEST PUSH2 0x40F JUMP JUMPDEST PUSH2 0x3DA JUMP JUMPDEST PUSH2 0x2E7 JUMP JUMPDEST PUSH2 0x2A2 JUMP JUMPDEST PUSH2 0x234 JUMP JUMPDEST PUSH2 0x1D9 JUMP JUMPDEST PUSH2 0x129 JUMP JUMPDEST PUSH1 0xE0 SHR SWAP1 JUMP JUMPDEST PUSH1 0x40 MLOAD SWAP1 JUMP JUMPDEST PUSH1 0x0 DUP1 REVERT JUMPDEST PUSH1 0x0 DUP1 REVERT JUMPDEST PUSH1 0x0 SWAP2 SUB SLT PUSH2 0x11E JUMPI JUMP JUMPDEST PUSH2 0x10E JUMP JUMPDEST PUSH1 0x0 ADD SWAP1 JUMP JUMPDEST CALLVALUE PUSH2 0x157 JUMPI PUSH2 0x139 CALLDATASIZE PUSH1 0x4 PUSH2 0x113 JUMP JUMPDEST PUSH2 0x141 PUSH2 0xA67 JUMP JUMPDEST PUSH2 0x149 PUSH2 0x103 JUMP JUMPDEST DUP1 PUSH2 0x153 DUP2 PUSH2 0x123 JUMP JUMPDEST SUB SWAP1 RETURN JUMPDEST PUSH2 0x109 JUMP JUMPDEST SHR SWAP1 JUMP JUMPDEST PUSH1 0x1 DUP1 PUSH1 0xA0 SHL SUB AND SWAP1 JUMP JUMPDEST PUSH2 0x17B SWAP1 PUSH1 0x8 PUSH2 0x180 SWAP4 MUL PUSH2 0x15C JUMP JUMPDEST PUSH2 0x160 JUMP JUMPDEST SWAP1 JUMP JUMPDEST SWAP1 PUSH2 0x18E SWAP2 SLOAD PUSH2 0x16B JUMP JUMPDEST SWAP1 JUMP JUMPDEST PUSH2 0x19C PUSH1 0x0 DUP1 PUSH2 0x183 JUMP JUMPDEST SWAP1 JUMP JUMPDEST PUSH1 0x1 DUP1 PUSH1 0xA0 SHL SUB AND SWAP1 JUMP JUMPDEST PUSH2 0x1B3 SWAP1 PUSH2 0x19F JUMP JUMPDEST SWAP1 JUMP JUMPDEST PUSH2 0x1BF SWAP1 PUSH2 0x1AA JUMP JUMPDEST SWAP1 MSTORE JUMP JUMPDEST SWAP2 SWAP1 PUSH2 0x1D7 SWAP1 PUSH1 0x0 PUSH1 0x20 DUP6 ADD SWAP5 ADD SWAP1 PUSH2 0x1B6 JUMP JUMPDEST JUMP JUMPDEST CALLVALUE PUSH2 0x209 JUMPI PUSH2 0x1E9 CALLDATASIZE PUSH1 0x4 PUSH2 0x113 JUMP JUMPDEST PUSH2 0x205 PUSH2 0x1F4 PUSH2 0x191 JUMP JUMPDEST PUSH2 0x1FC PUSH2 0x103 JUMP JUMPDEST SWAP2 DUP3 SWAP2 DUP3 PUSH2 0x1C3 JUMP JUMPDEST SUB SWAP1 RETURN JUMPDEST PUSH2 0x109 JUMP JUMPDEST SWAP1 JUMP JUMPDEST PUSH2 0x21A SWAP1 PUSH2 0x20E JUMP JUMPDEST SWAP1 MSTORE JUMP JUMPDEST SWAP2 SWAP1 PUSH2 0x232 SWAP1 PUSH1 0x0 PUSH1 0x20 DUP6 ADD SWAP5 ADD SWAP1 PUSH2 0x211 JUMP JUMPDEST JUMP JUMPDEST CALLVALUE PUSH2 0x264 JUMPI PUSH2 0x244 CALLDATASIZE PUSH1 0x4 PUSH2 0x113 JUMP JUMPDEST PUSH2 0x260 PUSH2 0x24F PUSH2 0xA76 JUMP JUMPDEST PUSH2 0x257 PUSH2 0x103 JUMP JUMPDEST SWAP2 DUP3 SWAP2 DUP3 PUSH2 0x21E JUMP JUMPDEST SUB SWAP1 RETURN JUMPDEST PUSH2 0x109 JUMP JUMPDEST SWAP1 JUMP JUMPDEST PUSH2 0x27C SWAP1 PUSH1 0x8 PUSH2 0x281 SWAP4 MUL PUSH2 0x15C JUMP JUMPDEST PUSH2 0x269 JUMP JUMPDEST SWAP1 JUMP JUMPDEST SWAP1 PUSH2 0x28F SWAP2 SLOAD PUSH2 0x26C JUMP JUMPDEST SWAP1 JUMP JUMPDEST PUSH2 0x29F PUSH1 0x2 PUSH1 0x0 SWAP1 PUSH2 0x284 JUMP JUMPDEST SWAP1 JUMP JUMPDEST CALLVALUE PUSH2 0x2D2 JUMPI PUSH2 0x2B2 CALLDATASIZE PUSH1 0x4 PUSH2 0x113 JUMP JUMPDEST PUSH2 0x2CE PUSH2 0x2BD PUSH2 0x292 JUMP JUMPDEST PUSH2 0x2C5 PUSH2 0x103 JUMP JUMPDEST SWAP2 DUP3 SWAP2 DUP3 PUSH2 0x21E JUMP JUMPDEST SUB SWAP1 RETURN JUMPDEST PUSH2 0x109 JUMP JUMPDEST PUSH2 0x2E4 PUSH1 0x4 PUSH1 0x0 SWAP1 PUSH2 0x183 JUMP JUMPDEST SWAP1 JUMP JUMPDEST CALLVALUE PUSH2 0x317 JUMPI PUSH2 0x2F7 CALLDATASIZE PUSH1 0x4 PUSH2 0x113 JUMP JUMPDEST PUSH2 0x313 PUSH2 0x302 PUSH2 0x2D7 JUMP JUMPDEST PUSH2 0x30A PUSH2 0x103 JUMP JUMPDEST SWAP2 DUP3 SWAP2 DUP3 PUSH2 0x1C3 JUMP JUMPDEST SUB SWAP1 RETURN JUMPDEST PUSH2 0x109 JUMP JUMPDEST PUSH2 0x325 DUP2 PUSH2 0x20E JUMP JUMPDEST SUB PUSH2 0x32C JUMPI JUMP JUMPDEST PUSH1 0x0 DUP1 REVERT JUMPDEST SWAP1 POP CALLDATALOAD SWAP1 PUSH2 0x33E DUP3 PUSH2 0x31C JUMP JUMPDEST JUMP JUMPDEST SWAP1 PUSH1 0x20 DUP3 DUP3 SUB SLT PUSH2 0x35A JUMPI PUSH2 0x357 SWAP2 PUSH1 0x0 ADD PUSH2 0x331 JUMP JUMPDEST SWAP1 JUMP JUMPDEST PUSH2 0x10E JUMP JUMPDEST PUSH4 0x4E487B71 PUSH1 0xE0 SHL PUSH1 0x0 MSTORE PUSH1 0x32 PUSH1 0x4 MSTORE PUSH1 0x24 PUSH1 0x0 REVERT JUMPDEST SLOAD SWAP1 JUMP JUMPDEST PUSH1 0x0 MSTORE PUSH1 0x20 PUSH1 0x0 KECCAK256 SWAP1 JUMP JUMPDEST PUSH2 0x38D DUP2 PUSH2 0x375 JUMP JUMPDEST DUP3 LT ISZERO PUSH2 0x3A8 JUMPI PUSH2 0x39F PUSH1 0x1 SWAP2 PUSH2 0x379 JUMP JUMPDEST SWAP2 MUL ADD SWAP1 PUSH1 0x0 SWAP1 JUMP JUMPDEST PUSH2 0x35F JUMP JUMPDEST PUSH1 0x1 PUSH2 0x3B8 DUP2 PUSH2 0x375 JUMP JUMPDEST DUP3 LT ISZERO PUSH2 0x3D5 JUMPI PUSH2 0x3D2 SWAP2 PUSH2 0x3CC SWAP2 PUSH2 0x384 JUMP JUMPDEST SWAP1 PUSH2 0x183 JUMP JUMPDEST SWAP1 JUMP JUMPDEST PUSH1 0x0 DUP1 REVERT JUMPDEST CALLVALUE PUSH2 0x40A JUMPI PUSH2 0x406 PUSH2 0x3F5 PUSH2 0x3F0 CALLDATASIZE PUSH1 0x4 PUSH2 0x340 JUMP JUMPDEST PUSH2 0x3AD JUMP JUMPDEST PUSH2 0x3FD PUSH2 0x103 JUMP JUMPDEST SWAP2 DUP3 SWAP2 DUP3 PUSH2 0x1C3 JUMP JUMPDEST SUB SWAP1 RETURN JUMPDEST PUSH2 0x109 JUMP JUMPDEST CALLVALUE PUSH2 0x43F JUMPI PUSH2 0x41F CALLDATASIZE PUSH1 0x4 PUSH2 0x113 JUMP JUMPDEST PUSH2 0x43B PUSH2 0x42A PUSH2 0xB43 JUMP JUMPDEST PUSH2 0x432 PUSH2 0x103 JUMP JUMPDEST SWAP2 DUP3 SWAP2 DUP3 PUSH2 0x1C3 JUMP JUMPDEST SUB SWAP1 RETURN JUMPDEST PUSH2 0x109 JUMP JUMPDEST PUSH2 0x44D DUP2 PUSH2 0x1AA JUMP JUMPDEST SUB PUSH2 0x454 JUMPI JUMP JUMPDEST PUSH1 0x0 DUP1 REVERT JUMPDEST SWAP1 POP CALLDATALOAD SWAP1 PUSH2 0x466 DUP3 PUSH2 0x444 JUMP JUMPDEST JUMP JUMPDEST SWAP1 PUSH1 0x20 DUP3 DUP3 SUB SLT PUSH2 0x482 JUMPI PUSH2 0x47F SWAP2 PUSH1 0x0 ADD PUSH2 0x459 JUMP JUMPDEST SWAP1 JUMP JUMPDEST PUSH2 0x10E JUMP JUMPDEST SWAP1 JUMP JUMPDEST PUSH2 0x49E PUSH2 0x499 PUSH2 0x4A3 SWAP3 PUSH2 0x19F JUMP JUMPDEST PUSH2 0x487 JUMP JUMPDEST PUSH2 0x19F JUMP JUMPDEST SWAP1 JUMP JUMPDEST PUSH2 0x4AF SWAP1 PUSH2 0x48A JUMP JUMPDEST SWAP1 JUMP JUMPDEST PUSH2 0x4BB SWAP1 PUSH2 0x4A6 JUMP JUMPDEST SWAP1 JUMP JUMPDEST SWAP1 PUSH2 0x4C8 SWAP1 PUSH2 0x4B2 JUMP JUMPDEST PUSH1 0x0 MSTORE PUSH1 0x20 MSTORE PUSH1 0x40 PUSH1 0x0 KECCAK256 SWAP1 JUMP JUMPDEST PUSH2 0x4ED SWAP1 PUSH2 0x4E8 PUSH1 0x3 SWAP2 PUSH1 0x0 SWAP3 PUSH2 0x4BE JUMP JUMPDEST PUSH2 0x284 JUMP JUMPDEST SWAP1 JUMP JUMPDEST CALLVALUE PUSH2 0x520 JUMPI PUSH2 0x51C PUSH2 0x50B PUSH2 0x506 CALLDATASIZE PUSH1 0x4 PUSH2 0x468 JUMP JUMPDEST PUSH2 0x4D6 JUMP JUMPDEST PUSH2 0x513 PUSH2 0x103 JUMP JUMPDEST SWAP2 DUP3 SWAP2 DUP3 PUSH2 0x21E JUMP JUMPDEST SUB SWAP1 RETURN JUMPDEST PUSH2 0x109 JUMP JUMPDEST PUSH2 0x532 PUSH1 0x5 PUSH1 0x0 SWAP1 PUSH2 0x284 JUMP JUMPDEST SWAP1 JUMP JUMPDEST CALLVALUE PUSH2 0x565 JUMPI PUSH2 0x545 CALLDATASIZE PUSH1 0x4 PUSH2 0x113 JUMP JUMPDEST PUSH2 0x561 PUSH2 0x550 PUSH2 0x525 JUMP JUMPDEST PUSH2 0x558 PUSH2 0x103 JUMP JUMPDEST SWAP2 DUP3 SWAP2 DUP3 PUSH2 0x21E JUMP JUMPDEST SUB SWAP1 RETURN JUMPDEST PUSH2 0x109 JUMP JUMPDEST PUSH32 0x0 SWAP1 JUMP JUMPDEST CALLVALUE PUSH2 0x5BE JUMPI PUSH2 0x59E CALLDATASIZE PUSH1 0x4 PUSH2 0x113 JUMP JUMPDEST PUSH2 0x5BA PUSH2 0x5A9 PUSH2 0x56A JUMP JUMPDEST PUSH2 0x5B1 PUSH2 0x103 JUMP JUMPDEST SWAP2 DUP3 SWAP2 DUP3 PUSH2 0x1C3 JUMP JUMPDEST SUB SWAP1 RETURN JUMPDEST PUSH2 0x109 JUMP JUMPDEST PUSH2 0x5CE CALLDATASIZE PUSH1 0x4 PUSH2 0x113 JUMP JUMPDEST PUSH2 0x5D6 PUSH2 0xE2A JUMP JUMPDEST PUSH2 0x5DE PUSH2 0x103 JUMP JUMPDEST DUP1 PUSH2 0x5E8 DUP2 PUSH2 0x123 JUMP JUMPDEST SUB SWAP1 RETURN JUMPDEST SWAP1 JUMP JUMPDEST PUSH2 0x603 PUSH2 0x5FE PUSH2 0x608 SWAP3 PUSH2 0x5EC JUMP JUMPDEST PUSH2 0x487 JUMP JUMPDEST PUSH2 0x20E JUMP JUMPDEST SWAP1 JUMP JUMPDEST PUSH2 0x61C PUSH8 0x1AA535D3D0C0000 PUSH2 0x5EF JUMP JUMPDEST SWAP1 JUMP JUMPDEST PUSH2 0x627 PUSH2 0x60B JUMP JUMPDEST SWAP1 JUMP JUMPDEST CALLVALUE PUSH2 0x65A JUMPI PUSH2 0x63A CALLDATASIZE PUSH1 0x4 PUSH2 0x113 JUMP JUMPDEST PUSH2 0x656 PUSH2 0x645 PUSH2 0x61F JUMP JUMPDEST PUSH2 0x64D PUSH2 0x103 JUMP JUMPDEST SWAP2 DUP3 SWAP2 DUP3 PUSH2 0x21E JUMP JUMPDEST SUB SWAP1 RETURN JUMPDEST PUSH2 0x109 JUMP JUMPDEST SWAP1 JUMP JUMPDEST PUSH2 0x676 PUSH2 0x671 PUSH2 0x67B SWAP3 PUSH2 0x65F JUMP JUMPDEST PUSH2 0x487 JUMP JUMPDEST PUSH2 0x20E JUMP JUMPDEST SWAP1 JUMP JUMPDEST PUSH2 0x68F PUSH8 0x11C37937E080000 PUSH2 0x662 JUMP JUMPDEST SWAP1 JUMP JUMPDEST PUSH2 0x69A PUSH2 0x67E JUMP JUMPDEST SWAP1 JUMP JUMPDEST CALLVALUE PUSH2 0x6CD JUMPI PUSH2 0x6AD CALLDATASIZE PUSH1 0x4 PUSH2 0x113 JUMP JUMPDEST PUSH2 0x6C9 PUSH2 0x6B8 PUSH2 0x692 JUMP JUMPDEST PUSH2 0x6C0 PUSH2 0x103 JUMP JUMPDEST SWAP2 DUP3 SWAP2 DUP3 PUSH2 0x21E JUMP JUMPDEST SUB SWAP1 RETURN JUMPDEST PUSH2 0x109 JUMP JUMPDEST SWAP1 JUMP JUMPDEST PUSH2 0x6E9 PUSH2 0x6E4 PUSH2 0x6EE SWAP3 PUSH2 0x6D2 JUMP JUMPDEST PUSH2 0x487 JUMP JUMPDEST PUSH2 0x20E JUMP JUMPDEST SWAP1 JUMP JUMPDEST PUSH2 0x6FB PUSH1 0x64 PUSH2 0x6D5 JUMP JUMPDEST SWAP1 JUMP JUMPDEST PUSH2 0x706 PUSH2 0x6F1 JUMP JUMPDEST SWAP1 JUMP JUMPDEST CALLVALUE PUSH2 0x739 JUMPI PUSH2 0x719 CALLDATASIZE PUSH1 0x4 PUSH2 0x113 JUMP JUMPDEST PUSH2 0x735 PUSH2 0x724 PUSH2 0x6FE JUMP JUMPDEST PUSH2 0x72C PUSH2 0x103 JUMP JUMPDEST SWAP2 DUP3 SWAP2 DUP3 PUSH2 0x21E JUMP JUMPDEST SUB SWAP1 RETURN JUMPDEST PUSH2 0x109 JUMP JUMPDEST PUSH1 0x0 DUP1 REVERT JUMPDEST PUSH1 0x0 SHR SWAP1 JUMP JUMPDEST PUSH2 0x755 PUSH2 0x75A SWAP2 PUSH2 0x743 JUMP JUMPDEST PUSH2 0x160 JUMP JUMPDEST SWAP1 JUMP JUMPDEST PUSH2 0x767 SWAP1 SLOAD PUSH2 0x749 JUMP JUMPDEST SWAP1 JUMP JUMPDEST PUSH1 0x20 SWAP2 DUP2 MSTORE ADD SWAP1 JUMP JUMPDEST PUSH1 0x0 PUSH32 0x4E6F7420616C6C6F77656420746F207472616E736665722066756E6473000000 SWAP2 ADD MSTORE JUMP JUMPDEST PUSH2 0x7A8 PUSH1 0x1D PUSH1 0x20 SWAP3 PUSH2 0x76A JUMP JUMPDEST PUSH2 0x7B1 DUP2 PUSH2 0x773 JUMP JUMPDEST ADD SWAP1 JUMP JUMPDEST PUSH2 0x7CB SWAP1 PUSH1 0x20 DUP2 ADD SWAP1 PUSH1 0x0 DUP2 DUP4 SUB SWAP2 ADD MSTORE PUSH2 0x79B JUMP JUMPDEST SWAP1 JUMP JUMPDEST ISZERO PUSH2 0x7D5 JUMPI JUMP JUMPDEST PUSH2 0x7DD PUSH2 0x103 JUMP JUMPDEST PUSH3 0x461BCD PUSH1 0xE5 SHL DUP2 MSTORE DUP1 PUSH2 0x7F3 PUSH1 0x4 DUP3 ADD PUSH2 0x7B5 JUMP JUMPDEST SUB SWAP1 REVERT JUMPDEST PUSH2 0x81C PUSH2 0x804 PUSH1 0x4 PUSH2 0x75D JUMP JUMPDEST PUSH2 0x816 PUSH2 0x810 CALLER PUSH2 0x1AA JUMP JUMPDEST SWAP2 PUSH2 0x1AA JUMP JUMPDEST EQ PUSH2 0x7CE JUMP JUMPDEST PUSH2 0x824 PUSH2 0x8CB JUMP JUMPDEST JUMP JUMPDEST PUSH2 0x832 PUSH2 0x837 SWAP2 PUSH2 0x743 JUMP JUMPDEST PUSH2 0x269 JUMP JUMPDEST SWAP1 JUMP JUMPDEST PUSH2 0x844 SWAP1 SLOAD PUSH2 0x826 JUMP JUMPDEST SWAP1 JUMP JUMPDEST PUSH1 0x0 PUSH32 0x5661756C74206973206E6F742066756C6C207965740000000000000000000000 SWAP2 ADD MSTORE JUMP JUMPDEST PUSH2 0x87C PUSH1 0x15 PUSH1 0x20 SWAP3 PUSH2 0x76A JUMP JUMPDEST PUSH2 0x885 DUP2 PUSH2 0x847 JUMP JUMPDEST ADD SWAP1 JUMP JUMPDEST PUSH2 0x89F SWAP1 PUSH1 0x20 DUP2 ADD SWAP1 PUSH1 0x0 DUP2 DUP4 SUB SWAP2 ADD MSTORE PUSH2 0x86F JUMP JUMPDEST SWAP1 JUMP JUMPDEST ISZERO PUSH2 0x8A9 JUMPI JUMP JUMPDEST PUSH2 0x8B1 PUSH2 0x103 JUMP JUMPDEST PUSH3 0x461BCD PUSH1 0xE5 SHL DUP2 MSTORE DUP1 PUSH2 0x8C7 PUSH1 0x4 DUP3 ADD PUSH2 0x889 JUMP JUMPDEST SUB SWAP1 REVERT JUMPDEST PUSH2 0x8F7 PUSH2 0x8D8 PUSH1 0x5 PUSH2 0x83A JUMP JUMPDEST PUSH2 0x8F1 PUSH2 0x8EB PUSH2 0x8E6 PUSH2 0x6F1 JUMP JUMPDEST PUSH2 0x20E JUMP JUMPDEST SWAP2 PUSH2 0x20E JUMP JUMPDEST EQ PUSH2 0x8A2 JUMP JUMPDEST PUSH2 0x8FF PUSH2 0x9F1 JUMP JUMPDEST JUMP JUMPDEST SWAP1 JUMP JUMPDEST PUSH2 0x918 PUSH2 0x913 PUSH2 0x91D SWAP3 PUSH2 0x901 JUMP JUMPDEST PUSH2 0x487 JUMP JUMPDEST PUSH2 0x19F JUMP JUMPDEST SWAP1 JUMP JUMPDEST PUSH2 0x929 SWAP1 PUSH2 0x904 JUMP JUMPDEST SWAP1 JUMP JUMPDEST PUSH1 0x0 PUSH32 0x4C61756E636870616420636F6E7472616374206E6F7420736574000000000000 SWAP2 ADD MSTORE JUMP JUMPDEST PUSH2 0x961 PUSH1 0x1A PUSH1 0x20 SWAP3 PUSH2 0x76A JUMP JUMPDEST PUSH2 0x96A DUP2 PUSH2 0x92C JUMP JUMPDEST ADD SWAP1 JUMP JUMPDEST PUSH2 0x984 SWAP1 PUSH1 0x20 DUP2 ADD SWAP1 PUSH1 0x0 DUP2 DUP4 SUB SWAP2 ADD MSTORE PUSH2 0x954 JUMP JUMPDEST SWAP1 JUMP JUMPDEST ISZERO PUSH2 0x98E JUMPI JUMP JUMPDEST PUSH2 0x996 PUSH2 0x103 JUMP JUMPDEST PUSH3 0x461BCD PUSH1 0xE5 SHL DUP2 MSTORE DUP1 PUSH2 0x9AC PUSH1 0x4 DUP3 ADD PUSH2 0x96E JUMP JUMPDEST SUB SWAP1 REVERT JUMPDEST PUSH2 0x9B9 SWAP1 PUSH2 0x48A JUMP JUMPDEST SWAP1 JUMP JUMPDEST PUSH2 0x9C5 SWAP1 PUSH2 0x9B0 JUMP JUMPDEST SWAP1 JUMP JUMPDEST PUSH2 0x9D1 SWAP1 PUSH2 0x4A6 JUMP JUMPDEST SWAP1 JUMP JUMPDEST PUSH2 0x9DD SWAP1 PUSH2 0x4A6 JUMP JUMPDEST SWAP1 JUMP JUMPDEST PUSH2 0x9E8 PUSH2 0x103 JUMP JUMPDEST RETURNDATASIZE PUSH1 0x0 DUP3 RETURNDATACOPY RETURNDATASIZE SWAP1 REVERT JUMPDEST PUSH2 0xA20 PUSH2 0x9FE PUSH1 0x0 PUSH2 0x75D JUMP JUMPDEST PUSH2 0xA19 PUSH2 0xA13 PUSH2 0xA0E PUSH1 0x0 PUSH2 0x920 JUMP JUMPDEST PUSH2 0x1AA JUMP JUMPDEST SWAP2 PUSH2 0x1AA JUMP JUMPDEST EQ ISZERO PUSH2 0x987 JUMP JUMPDEST PUSH1 0x0 DUP1 DUP1 DUP1 PUSH2 0xA3E PUSH2 0xA39 PUSH2 0xA34 DUP4 PUSH2 0x75D JUMP JUMPDEST PUSH2 0x9BC JUMP JUMPDEST PUSH2 0x9C8 JUMP JUMPDEST PUSH2 0xA47 ADDRESS PUSH2 0x9D4 JUMP JUMPDEST BALANCE SWAP1 DUP3 DUP3 ISZERO PUSH2 0xA5E JUMPI JUMPDEST CALL ISZERO PUSH2 0xA59 JUMPI JUMP JUMPDEST PUSH2 0x9E0 JUMP JUMPDEST POP PUSH2 0x8FC PUSH2 0xA51 JUMP JUMPDEST PUSH2 0xA6F PUSH2 0x7F7 JUMP JUMPDEST JUMP JUMPDEST PUSH1 0x0 SWAP1 JUMP JUMPDEST PUSH2 0xA7E PUSH2 0xA71 JUMP JUMPDEST POP PUSH2 0xA88 ADDRESS PUSH2 0x9D4 JUMP JUMPDEST BALANCE SWAP1 JUMP JUMPDEST PUSH1 0x0 SWAP1 JUMP JUMPDEST PUSH1 0x0 PUSH32 0x537562736372697074696F6E206E6F7420656E64656400000000000000000000 SWAP2 ADD MSTORE JUMP JUMPDEST PUSH2 0xAC6 PUSH1 0x16 PUSH1 0x20 SWAP3 PUSH2 0x76A JUMP JUMPDEST PUSH2 0xACF DUP2 PUSH2 0xA91 JUMP JUMPDEST ADD SWAP1 JUMP JUMPDEST PUSH2 0xAE9 SWAP1 PUSH1 0x20 DUP2 ADD SWAP1 PUSH1 0x0 DUP2 DUP4 SUB SWAP2 ADD MSTORE PUSH2 0xAB9 JUMP JUMPDEST SWAP1 JUMP JUMPDEST ISZERO PUSH2 0xAF3 JUMPI JUMP JUMPDEST PUSH2 0xAFB PUSH2 0x103 JUMP JUMPDEST PUSH3 0x461BCD PUSH1 0xE5 SHL DUP2 MSTORE DUP1 PUSH2 0xB11 PUSH1 0x4 DUP3 ADD PUSH2 0xAD3 JUMP JUMPDEST SUB SWAP1 REVERT JUMPDEST SWAP1 JUMP JUMPDEST PUSH2 0xB2C PUSH2 0xB27 PUSH2 0xB31 SWAP3 PUSH2 0xB15 JUMP JUMPDEST PUSH2 0x487 JUMP JUMPDEST PUSH2 0x20E JUMP JUMPDEST SWAP1 JUMP JUMPDEST PUSH1 0x1 PUSH2 0xB40 SWAP2 ADD PUSH2 0x20E JUMP JUMPDEST SWAP1 JUMP JUMPDEST PUSH2 0xB4B PUSH2 0xA8C JUMP JUMPDEST POP PUSH2 0xB78 PUSH2 0xB59 PUSH1 0x5 PUSH2 0x83A JUMP JUMPDEST PUSH2 0xB72 PUSH2 0xB6C PUSH2 0xB67 PUSH2 0x6F1 JUMP JUMPDEST PUSH2 0x20E JUMP JUMPDEST SWAP2 PUSH2 0x20E JUMP JUMPDEST EQ PUSH2 0xAEC JUMP JUMPDEST PUSH2 0xB8E PUSH2 0xB88 PUSH1 0x1 PUSH1 0x0 SWAP1 PUSH2 0x384 JUMP JUMPDEST SWAP1 PUSH2 0x183 JUMP JUMPDEST PUSH2 0xBB7 PUSH2 0xBB2 PUSH1 0x3 PUSH2 0xBAC PUSH2 0xBA6 PUSH1 0x1 PUSH1 0x0 SWAP1 PUSH2 0x384 JUMP JUMPDEST SWAP1 PUSH2 0x183 JUMP JUMPDEST SWAP1 PUSH2 0x4BE JUMP JUMPDEST PUSH2 0x83A JUMP JUMPDEST PUSH2 0xBC1 PUSH1 0x1 PUSH2 0xB18 JUMP JUMPDEST JUMPDEST DUP1 PUSH2 0xBDE PUSH2 0xBD8 PUSH2 0xBD3 PUSH1 0x1 PUSH2 0x375 JUMP JUMPDEST PUSH2 0x20E JUMP JUMPDEST SWAP2 PUSH2 0x20E JUMP JUMPDEST LT ISZERO PUSH2 0xC57 JUMPI PUSH2 0xBF9 PUSH2 0xBF3 PUSH1 0x1 DUP4 SWAP1 PUSH2 0x384 JUMP JUMPDEST SWAP1 PUSH2 0x183 JUMP JUMPDEST PUSH2 0xC0D PUSH2 0xC08 PUSH1 0x3 DUP4 SWAP1 PUSH2 0x4BE JUMP JUMPDEST PUSH2 0x83A JUMP JUMPDEST PUSH2 0xC1F PUSH2 0xC19 DUP6 PUSH2 0x20E JUMP JUMPDEST SWAP2 PUSH2 0x20E JUMP JUMPDEST GT PUSH2 0xC34 JUMPI JUMPDEST POP PUSH2 0xC2F SWAP1 PUSH2 0xB34 JUMP JUMPDEST PUSH2 0xBC2 JUMP JUMPDEST SWAP2 POP SWAP2 POP PUSH2 0xC2F PUSH2 0xC4F PUSH2 0xC4A PUSH1 0x3 DUP5 SWAP1 PUSH2 0x4BE JUMP JUMPDEST PUSH2 0x83A JUMP JUMPDEST SWAP2 SWAP3 SWAP1 PUSH2 0xC25 JUMP JUMPDEST POP POP SWAP1 JUMP JUMPDEST PUSH2 0xC70 PUSH2 0xC6B PUSH2 0xC75 SWAP3 PUSH2 0x901 JUMP JUMPDEST PUSH2 0x487 JUMP JUMPDEST PUSH2 0x20E JUMP JUMPDEST SWAP1 JUMP JUMPDEST PUSH1 0x0 PUSH32 0x557365722068617320616C7265616479206465706F7369746564000000000000 SWAP2 ADD MSTORE JUMP JUMPDEST PUSH2 0xCAD PUSH1 0x1A PUSH1 0x20 SWAP3 PUSH2 0x76A JUMP JUMPDEST PUSH2 0xCB6 DUP2 PUSH2 0xC78 JUMP JUMPDEST ADD SWAP1 JUMP JUMPDEST PUSH2 0xCD0 SWAP1 PUSH1 0x20 DUP2 ADD SWAP1 PUSH1 0x0 DUP2 DUP4 SUB SWAP2 ADD MSTORE PUSH2 0xCA0 JUMP JUMPDEST SWAP1 JUMP JUMPDEST ISZERO PUSH2 0xCDA JUMPI JUMP JUMPDEST PUSH2 0xCE2 PUSH2 0x103 JUMP JUMPDEST PUSH3 0x461BCD PUSH1 0xE5 SHL DUP2 MSTORE DUP1 PUSH2 0xCF8 PUSH1 0x4 DUP3 ADD PUSH2 0xCBA JUMP JUMPDEST SUB SWAP1 REVERT JUMPDEST PUSH1 0x0 PUSH32 0x496E76616C6964206465706F73697420616D6F756E7400000000000000000000 SWAP2 ADD MSTORE JUMP JUMPDEST PUSH2 0xD31 PUSH1 0x16 PUSH1 0x20 SWAP3 PUSH2 0x76A JUMP JUMPDEST PUSH2 0xD3A DUP2 PUSH2 0xCFC JUMP JUMPDEST ADD SWAP1 JUMP JUMPDEST PUSH2 0xD54 SWAP1 PUSH1 0x20 DUP2 ADD SWAP1 PUSH1 0x0 DUP2 DUP4 SUB SWAP2 ADD MSTORE PUSH2 0xD24 JUMP JUMPDEST SWAP1 JUMP JUMPDEST ISZERO PUSH2 0xD5E JUMPI JUMP JUMPDEST PUSH2 0xD66 PUSH2 0x103 JUMP JUMPDEST PUSH3 0x461BCD PUSH1 0xE5 SHL DUP2 MSTORE DUP1 PUSH2 0xD7C PUSH1 0x4 DUP3 ADD PUSH2 0xD3E JUMP JUMPDEST SUB SWAP1 REVERT JUMPDEST PUSH1 0x20 PUSH32 0x65206465706F7369747300000000000000000000000000000000000000000000 SWAP2 PUSH32 0x5661756C742069732066756C6C2C2063616E6E6F7420616363657074206D6F72 PUSH1 0x0 DUP3 ADD MSTORE ADD MSTORE JUMP JUMPDEST PUSH2 0xDDB PUSH1 0x2A PUSH1 0x40 SWAP3 PUSH2 0x76A JUMP JUMPDEST PUSH2 0xDE4 DUP2 PUSH2 0xD80 JUMP JUMPDEST ADD SWAP1 JUMP JUMPDEST PUSH2 0xDFE SWAP1 PUSH1 0x20 DUP2 ADD SWAP1 PUSH1 0x0 DUP2 DUP4 SUB SWAP2 ADD MSTORE PUSH2 0xDCE JUMP JUMPDEST SWAP1 JUMP JUMPDEST ISZERO PUSH2 0xE08 JUMPI JUMP JUMPDEST PUSH2 0xE10 PUSH2 0x103 JUMP JUMPDEST PUSH3 0x461BCD PUSH1 0xE5 SHL DUP2 MSTORE DUP1 PUSH2 0xE26 PUSH1 0x4 DUP3 ADD PUSH2 0xDE8 JUMP JUMPDEST SUB SWAP1 REVERT JUMPDEST PUSH2 0xE5A PUSH2 0xE41 PUSH2 0xE3C PUSH1 0x3 CALLER SWAP1 PUSH2 0x4BE JUMP JUMPDEST PUSH2 0x83A JUMP JUMPDEST PUSH2 0xE54 PUSH2 0xE4E PUSH1 0x0 PUSH2 0xC5C JUMP JUMPDEST SWAP2 PUSH2 0x20E JUMP JUMPDEST EQ PUSH2 0xCD3 JUMP JUMPDEST CALLVALUE PUSH2 0xE74 PUSH2 0xE6E PUSH2 0xE69 PUSH2 0x67E JUMP JUMPDEST PUSH2 0x20E JUMP JUMPDEST SWAP2 PUSH2 0x20E JUMP JUMPDEST LT ISZERO DUP1 PUSH2 0xEBE JUMPI JUMPDEST PUSH2 0xE85 SWAP1 PUSH2 0xD57 JUMP JUMPDEST PUSH2 0xEB2 PUSH2 0xE92 PUSH1 0x5 PUSH2 0x83A JUMP JUMPDEST PUSH2 0xEAB PUSH2 0xEA5 PUSH2 0xEA0 PUSH2 0x6F1 JUMP JUMPDEST PUSH2 0x20E JUMP JUMPDEST SWAP2 PUSH2 0x20E JUMP JUMPDEST GT ISZERO PUSH2 0xE01 JUMP JUMPDEST PUSH2 0xEBC CALLVALUE CALLER PUSH2 0x1090 JUMP JUMPDEST JUMP JUMPDEST POP PUSH2 0xE85 CALLVALUE PUSH2 0xEDC PUSH2 0xED6 PUSH2 0xED1 PUSH2 0x60B JUMP JUMPDEST PUSH2 0x20E JUMP JUMPDEST SWAP2 PUSH2 0x20E JUMP JUMPDEST GT ISZERO SWAP1 POP PUSH2 0xE7C JUMP JUMPDEST PUSH4 0x4E487B71 PUSH1 0xE0 SHL PUSH1 0x0 MSTORE PUSH1 0x11 PUSH1 0x4 MSTORE PUSH1 0x24 PUSH1 0x0 REVERT JUMPDEST PUSH2 0xF0A PUSH2 0xF10 SWAP2 SWAP4 SWAP3 SWAP4 PUSH2 0x20E JUMP JUMPDEST SWAP3 PUSH2 0x20E JUMP JUMPDEST DUP3 ADD DUP1 SWAP3 GT PUSH2 0xF1B JUMPI JUMP JUMPDEST PUSH2 0xEE5 JUMP JUMPDEST PUSH1 0x0 SHL SWAP1 JUMP JUMPDEST SWAP1 PUSH2 0xF33 PUSH1 0x0 NOT SWAP2 PUSH2 0xF20 JUMP JUMPDEST SWAP2 DUP2 NOT AND SWAP2 AND OR SWAP1 JUMP JUMPDEST PUSH2 0xF51 PUSH2 0xF4C PUSH2 0xF56 SWAP3 PUSH2 0x20E JUMP JUMPDEST PUSH2 0x487 JUMP JUMPDEST PUSH2 0x20E JUMP JUMPDEST SWAP1 JUMP JUMPDEST SWAP1 JUMP JUMPDEST SWAP1 PUSH2 0xF71 PUSH2 0xF6C PUSH2 0xF78 SWAP3 PUSH2 0xF3D JUMP JUMPDEST PUSH2 0xF59 JUMP JUMPDEST DUP3 SLOAD PUSH2 0xF26 JUMP JUMPDEST SWAP1 SSTORE JUMP JUMPDEST SWAP1 JUMP JUMPDEST PUSH4 0x4E487B71 PUSH1 0xE0 SHL PUSH1 0x0 MSTORE PUSH1 0x41 PUSH1 0x4 MSTORE PUSH1 0x24 PUSH1 0x0 REVERT JUMPDEST PUSH1 0x0 MSTORE PUSH1 0x20 PUSH1 0x0 KECCAK256 SWAP1 JUMP JUMPDEST SLOAD SWAP1 JUMP JUMPDEST PUSH2 0xFAD DUP2 PUSH2 0xFA0 JUMP JUMPDEST DUP3 LT ISZERO PUSH2 0xFC8 JUMPI PUSH2 0xFBF PUSH1 0x1 SWAP2 PUSH2 0xF95 JUMP JUMPDEST SWAP2 MUL ADD SWAP1 PUSH1 0x0 SWAP1 JUMP JUMPDEST PUSH2 0x35F JUMP JUMPDEST SHL SWAP1 JUMP JUMPDEST SWAP2 SWAP1 PUSH1 0x8 PUSH2 0xFF1 SWAP2 MUL SWAP2 PUSH2 0xFEB PUSH1 0x1 DUP1 PUSH1 0xA0 SHL SUB DUP5 PUSH2 0xFCD JUMP JUMPDEST SWAP3 PUSH2 0xFCD JUMP JUMPDEST SWAP2 DUP2 NOT AND SWAP2 AND OR SWAP1 JUMP JUMPDEST SWAP1 JUMP JUMPDEST SWAP2 SWAP1 PUSH2 0x1014 PUSH2 0x100F PUSH2 0x101C SWAP4 PUSH2 0x4B2 JUMP JUMPDEST PUSH2 0xFFB JUMP JUMPDEST SWAP1 DUP4 SLOAD PUSH2 0xFD1 JUMP JUMPDEST SWAP1 SSTORE JUMP JUMPDEST SWAP1 DUP2 SLOAD SWAP2 PUSH9 0x10000000000000000 DUP4 LT ISZERO PUSH2 0x1050 JUMPI DUP3 PUSH2 0x1048 SWAP2 PUSH1 0x1 PUSH2 0x104E SWAP6 ADD DUP2 SSTORE PUSH2 0xFA4 JUMP JUMPDEST SWAP1 PUSH2 0xFFE JUMP JUMPDEST JUMP JUMPDEST PUSH2 0xF7F JUMP JUMPDEST SWAP1 PUSH2 0x1066 PUSH1 0x1 DUP1 PUSH1 0xA0 SHL SUB SWAP2 PUSH2 0xF20 JUMP JUMPDEST SWAP2 DUP2 NOT AND SWAP2 AND OR SWAP1 JUMP JUMPDEST SWAP1 PUSH2 0x1085 PUSH2 0x1080 PUSH2 0x108C SWAP3 PUSH2 0x4B2 JUMP JUMPDEST PUSH2 0xFFB JUMP JUMPDEST DUP3 SLOAD PUSH2 0x1055 JUMP JUMPDEST SWAP1 SSTORE JUMP JUMPDEST PUSH2 0x10D8 PUSH2 0x110D SWAP3 PUSH2 0x10B4 PUSH2 0x10AD DUP3 PUSH2 0x10A8 PUSH1 0x2 PUSH2 0x83A JUMP JUMPDEST PUSH2 0xEFB JUMP JUMPDEST PUSH1 0x2 PUSH2 0xF5C JUMP JUMPDEST PUSH2 0x10D2 PUSH2 0x10C3 PUSH1 0x3 DUP6 SWAP1 PUSH2 0x4BE JUMP JUMPDEST SWAP2 PUSH2 0x10CD DUP4 PUSH2 0x83A JUMP JUMPDEST PUSH2 0xEFB JUMP JUMPDEST SWAP1 PUSH2 0xF5C JUMP JUMPDEST PUSH2 0x10FE PUSH2 0x10F7 PUSH2 0x10E8 PUSH1 0x1 PUSH2 0xB18 JUMP JUMPDEST PUSH2 0x10F2 PUSH1 0x5 PUSH2 0x83A JUMP JUMPDEST PUSH2 0xEFB JUMP JUMPDEST PUSH1 0x5 PUSH2 0xF5C JUMP JUMPDEST PUSH2 0x1108 PUSH1 0x1 PUSH2 0xF7C JUMP JUMPDEST PUSH2 0x1020 JUMP JUMPDEST PUSH2 0x1117 PUSH1 0x5 PUSH2 0x83A JUMP JUMPDEST PUSH2 0x1130 PUSH2 0x112A PUSH2 0x1125 PUSH2 0x6F1 JUMP JUMPDEST PUSH2 0x20E JUMP JUMPDEST SWAP2 PUSH2 0x20E JUMP JUMPDEST EQ PUSH2 0x1138 JUMPI JUMPDEST JUMP JUMPDEST PUSH2 0x114A PUSH2 0x1143 PUSH2 0xB43 JUMP JUMPDEST PUSH1 0x4 PUSH2 0x1070 JUMP JUMPDEST PUSH2 0x1136 JUMP INVALID LOG2 PUSH5 0x6970667358 0x22 SLT KECCAK256 PUSH22 0x42C551AADADA004827F0E257C8F299B4BE9B0E78D1DF 0xE6 CALLVALUE ADD PUSH22 0x6BC40B344B64736F6C63430008180033000000000000 "},"methodIdentifiers":{"MAX_DEPOSIT()":"dd5967c3","MAX_PARTICIPANTS()":"f3baf070","MIN_DEPOSIT()":"e1e158a5","TOTAL_PARTICIPANTS()":"74244bc9","allowedToTransfer()":"19507d2c","balanceOf(address)":"70a08231","deposit()":"d0e30db0","getAddressWithHighestShare()":"42373e74","getBalance()":"12065fe0","launchpadContract()":"116136da","owner()":"8da5cb5b","participants(uint256)":"35c1d349","totalSupply()":"18160ddd","transferToLaunchpad()":"0fec1959"}}}}}