{"contracts/launchpad.sol":{"LaunchContract":{"abi":[{"inputs":[{"internalType":"uint256","name":"_maxCap","type":"uint256"},{"internalType":"uint256","name":"_saleStartTime","type":"uint256"},{"internalType":"uint256","name":"_saleEndTime","type":"uint256"},{"internalType":"address payable","name":"_projectOwner","type":"address"},{"internalType":"uint256","name":"_tierOneValue","type":"uint256"},{"internalType":"uint256","name":"_tierTwoValue","type":"uint256"},{"internalType":"uint256","name":"_tierThreeValue","type":"uint256"},{"internalType":"uint256","name":"_tierFourValue","type":"uint256"}],"stateMutability":"nonpayable","type":"constructor"},{"anonymous":false,"inputs":[{"indexed":true,"internalType":"address","name":"previousOwner","type":"address"},{"indexed":true,"internalType":"address","name":"newOwner","type":"address"}],"name":"OwnershipTransferred","type":"event"},{"inputs":[],"name":"NAME","outputs":[{"internalType":"string","name":"","type":"string"}],"stateMutability":"view","type":"function"},{"inputs":[{"internalType":"address","name":"_address","type":"address"}],"name":"addWhitelistFour","outputs":[],"stateMutability":"nonpayable","type":"function"},{"inputs":[{"internalType":"address","name":"_address","type":"address"}],"name":"addWhitelistOne","outputs":[],"stateMutability":"nonpayable","type":"function"},{"inputs":[{"internalType":"address","name":"_address","type":"address"}],"name":"addWhitelistThree","outputs":[],"stateMutability":"nonpayable","type":"function"},{"inputs":[{"internalType":"address","name":"_address","type":"address"}],"name":"addWhitelistTwo","outputs":[],"stateMutability":"nonpayable","type":"function"},{"inputs":[{"internalType":"address","name":"","type":"address"}],"name":"buyInFourTier","outputs":[{"internalType":"uint256","name":"","type":"uint256"}],"stateMutability":"view","type":"function"},{"inputs":[{"internalType":"address","name":"","type":"address"}],"name":"buyInOneTier","outputs":[{"internalType":"uint256","name":"","type":"uint256"}],"stateMutability":"view","type":"function"},{"inputs":[{"internalType":"address","name":"","type":"address"}],"name":"buyInThreeTier","outputs":[{"internalType":"uint256","name":"","type":"uint256"}],"stateMutability":"view","type":"function"},{"inputs":[{"internalType":"address","name":"","type":"address"}],"name":"buyInTwoTier","outputs":[{"internalType":"uint256","name":"","type":"uint256"}],"stateMutability":"view","type":"function"},{"inputs":[{"internalType":"address","name":"_address","type":"address"}],"name":"getWhitelistFour","outputs":[{"internalType":"bool","name":"","type":"bool"}],"stateMutability":"view","type":"function"},{"inputs":[{"internalType":"address","name":"_address","type":"address"}],"name":"getWhitelistOne","outputs":[{"internalType":"bool","name":"","type":"bool"}],"stateMutability":"view","type":"function"},{"inputs":[{"internalType":"address","name":"_address","type":"address"}],"name":"getWhitelistThree","outputs":[{"internalType":"bool","name":"","type":"bool"}],"stateMutability":"view","type":"function"},{"inputs":[{"internalType":"address","name":"_address","type":"address"}],"name":"getWhitelistTwo","outputs":[{"internalType":"bool","name":"","type":"bool"}],"stateMutability":"view","type":"function"},{"inputs":[],"name":"maxAllocaPerUserTierFour","outputs":[{"internalType":"uint256","name":"","type":"uint256"}],"stateMutability":"view","type":"function"},{"inputs":[],"name":"maxAllocaPerUserTierOne","outputs":[{"internalType":"uint256","name":"","type":"uint256"}],"stateMutability":"view","type":"function"},{"inputs":[],"name":"maxAllocaPerUserTierThree","outputs":[{"internalType":"uint256","name":"","type":"uint256"}],"stateMutability":"view","type":"function"},{"inputs":[],"name":"maxAllocaPerUserTierTwo","outputs":[{"internalType":"uint256","name":"","type":"uint256"}],"stateMutability":"view","type":"function"},{"inputs":[],"name":"maxCap","outputs":[{"internalType":"uint256","name":"","type":"uint256"}],"stateMutability":"view","type":"function"},{"inputs":[],"name":"minAllocaPerUserTierFour","outputs":[{"internalType":"uint256","name":"","type":"uint256"}],"stateMutability":"view","type":"function"},{"inputs":[],"name":"minAllocaPerUserTierOne","outputs":[{"internalType":"uint256","name":"","type":"uint256"}],"stateMutability":"view","type":"function"},{"inputs":[],"name":"minAllocaPerUserTierThree","outputs":[{"internalType":"uint256","name":"","type":"uint256"}],"stateMutability":"view","type":"function"},{"inputs":[],"name":"minAllocaPerUserTierTwo","outputs":[{"internalType":"uint256","name":"","type":"uint256"}],"stateMutability":"view","type":"function"},{"inputs":[{"internalType":"address","name":"","type":"address"}],"name":"minBuyInFourTier","outputs":[{"internalType":"uint256","name":"","type":"uint256"}],"stateMutability":"view","type":"function"},{"inputs":[{"internalType":"address","name":"","type":"address"}],"name":"minBuyInOneTier","outputs":[{"internalType":"uint256","name":"","type":"uint256"}],"stateMutability":"view","type":"function"},{"inputs":[{"internalType":"address","name":"","type":"address"}],"name":"minBuyInThreeTier","outputs":[{"internalType":"uint256","name":"","type":"uint256"}],"stateMutability":"view","type":"function"},{"inputs":[{"internalType":"address","name":"","type":"address"}],"name":"minBuyInTwoTier","outputs":[{"internalType":"uint256","name":"","type":"uint256"}],"stateMutability":"view","type":"function"},{"inputs":[],"name":"owner","outputs":[{"internalType":"address","name":"","type":"address"}],"stateMutability":"view","type":"function"},{"inputs":[],"name":"projectOwner","outputs":[{"internalType":"address payable","name":"","type":"address"}],"stateMutability":"view","type":"function"},{"inputs":[],"name":"saleEndTime","outputs":[{"internalType":"uint256","name":"","type":"uint256"}],"stateMutability":"view","type":"function"},{"inputs":[],"name":"saleStartTime","outputs":[{"internalType":"uint256","name":"","type":"uint256"}],"stateMutability":"view","type":"function"},{"inputs":[],"name":"tierFourMaxCap","outputs":[{"internalType":"uint256","name":"","type":"uint256"}],"stateMutability":"view","type":"function"},{"inputs":[],"name":"tierOneMaxCap","outputs":[{"internalType":"uint256","name":"","type":"uint256"}],"stateMutability":"view","type":"function"},{"inputs":[],"name":"tierThreeMaxCap","outputs":[{"internalType":"uint256","name":"","type":"uint256"}],"stateMutability":"view","type":"function"},{"inputs":[],"name":"tierTwoMaxCap","outputs":[{"internalType":"uint256","name":"","type":"uint256"}],"stateMutability":"view","type":"function"},{"inputs":[],"name":"totalEthInTierFour","outputs":[{"internalType":"uint256","name":"","type":"uint256"}],"stateMutability":"view","type":"function"},{"inputs":[],"name":"totalEthInTierOne","outputs":[{"internalType":"uint256","name":"","type":"uint256"}],"stateMutability":"view","type":"function"},{"inputs":[],"name":"totalEthInTierThree","outputs":[{"internalType":"uint256","name":"","type":"uint256"}],"stateMutability":"view","type":"function"},{"inputs":[],"name":"totalEthInTierTwo","outputs":[{"internalType":"uint256","name":"","type":"uint256"}],"stateMutability":"view","type":"function"},{"inputs":[],"name":"totalEthReceivedInAllTier","outputs":[{"internalType":"uint256","name":"","type":"uint256"}],"stateMutability":"view","type":"function"},{"inputs":[],"name":"totalUserInTierFour","outputs":[{"internalType":"uint256","name":"","type":"uint256"}],"stateMutability":"view","type":"function"},{"inputs":[],"name":"totalUserInTierOne","outputs":[{"internalType":"uint256","name":"","type":"uint256"}],"stateMutability":"view","type":"function"},{"inputs":[],"name":"totalUserInTierThree","outputs":[{"internalType":"uint256","name":"","type":"uint256"}],"stateMutability":"view","type":"function"},{"inputs":[],"name":"totalUserInTierTwo","outputs":[{"internalType":"uint256","name":"","type":"uint256"}],"stateMutability":"view","type":"function"},{"inputs":[],"name":"totalparticipants","outputs":[{"internalType":"uint256","name":"","type":"uint256"}],"stateMutability":"view","type":"function"},{"inputs":[{"internalType":"address","name":"newOwner","type":"address"}],"name":"transferOwnership","outputs":[],"stateMutability":"nonpayable","type":"function"},{"inputs":[{"internalType":"uint256","name":"_tierOneValue","type":"uint256"},{"internalType":"uint256","name":"_tierTwoValue","type":"uint256"},{"internalType":"uint256","name":"_tierThreeValue","type":"uint256"},{"internalType":"uint256","name":"_tierFourValue","type":"uint256"}],"name":"updateTierValues","outputs":[],"stateMutability":"nonpayable","type":"function"},{"stateMutability":"payable","type":"receive"}],"evm":{"bytecode":{"linkReferences":{},"object":"60e06040523462000071576200002862000018620001ed565b969590959491949392936200047e565b6200003262000077565b612cdb62000632823960805181818161064e0152612488015260a05181818161054901526123fb015260c0518181816111d101526124380152612cdb90f35b6200007d565b60405190565b600080fd5b601f801991011690565b634e487b7160e01b600052604160045260246000fd5b90620000ae9062000082565b810190811060018060401b03821117620000c757604052565b6200008c565b90620000e4620000dc62000077565b9283620000a2565b565b600080fd5b90565b620000f981620000eb565b036200010157565b600080fd5b905051906200011582620000ee565b565b60018060a01b031690565b6200012d9062000117565b90565b6200013b8162000122565b036200014357565b600080fd5b90505190620001578262000130565b565b919061010083820312620001e75762000176816000850162000106565b9262000186826020830162000106565b9262000196836040840162000106565b92620001a6816060850162000148565b92620001b6826080830162000106565b92620001e4620001ca8460a0850162000106565b93620001da8160c0860162000106565b9360e00162000106565b90565b620000e6565b620002106200330d803803806200020481620000cd565b92833981019062000159565b9091929394959697565b60001b90565b906200022f600019916200021a565b9181191691161790565b90565b90565b62000258620002526200025e9262000239565b6200023c565b620000eb565b90565b90565b906200027e6200027862000286926200023f565b62000261565b825462000220565b9055565b906200029d60018060a01b03916200021a565b9181191691161790565b620002c0620002ba620002c69262000117565b6200023c565b62000117565b90565b620002d490620002a7565b90565b620002e290620002c9565b90565b90565b9062000302620002fc6200030a92620002d7565b620002e5565b82546200028a565b9055565b62000327620003216200032d92620000eb565b6200023c565b620000eb565b90565b906200034a6200034462000352926200030e565b62000261565b825462000220565b9055565b90565b620003726200036c620003789262000356565b6200023c565b620000eb565b90565b90565b62000397620003916200039d926200037b565b6200023c565b620000eb565b90565b90565b620003bc620003b6620003c292620003a0565b6200023c565b620000eb565b90565b90565b620003e1620003db620003e792620003c5565b6200023c565b620000eb565b90565b90565b62000406620004006200040c92620003ea565b6200023c565b620000eb565b90565b90565b6200042b6200042562000431926200040f565b6200023c565b620000eb565b90565b90565b620004506200044a620004569262000434565b6200023c565b620000eb565b90565b90565b620004756200046f6200047b9262000459565b6200023c565b620000eb565b90565b93620004c3620004d394620004db9794620004cb94620004e39b9a98620004a462000622565b620004b26000600162000264565b60805260a05260c0526007620002e8565b600862000330565b600962000330565b600a62000330565b600b62000330565b62000501620004f9662386f26fc1000062000359565b601462000330565b620005206200051867016345785d8a00006200037e565b601562000330565b6200053f62000537670de0b6b3a7640000620003a3565b601662000330565b6200055e62000556674563918244f40000620003c8565b601762000330565b6200057d620005756706f05b59d3b20000620003ed565b601062000330565b6200059c62000594676f05b59d3b20000062000412565b601162000330565b620005bb620005b367de0b6b3a7640000062000437565b601262000330565b620005db620005d368014d1120d7b16000006200045c565b601362000330565b565b620005e890620002a7565b90565b620005f690620005dd565b90565b90565b9062000616620006106200061e92620005eb565b620005f9565b82546200028a565b9055565b6200062f336000620005fc565b56fe6080604052600436101561001d575b366113245761001b6123ef565b005b610028600035610307565b8063010998851461030257806303440f37146102fd5780630e3a02e2146102f85780631a8b43e4146102f35780631cbaee2d146102ee5780632146d7ff146102e957806322b15334146102e457806323548b8b146102df578063244c4f10146102da578063339855ff146102d55780633c6bb474146102d05780633ff2bbc6146102cb578063434800fc146102c65780634a4a91a8146102c15780634d9b4b4f146102bc5780634dce5168146102b75780634e6ac059146102b25780635e18c330146102ad578063602072fa146102a857806362ace63f146102a357806371b9510d1461029e57806374c6bd0d1461029957806376d8711f14610294578063823276c31461028f5780638da5cb5b1461028a5780638f78bdcf14610285578063902576441461028057806391ab87ea1461027b5780639d9db77d14610276578063a0ce460b14610271578063a390c97f1461026c578063a3f4df7e14610267578063a4475ce414610262578063ae4fdad91461025d578063b84536ae14610258578063b9ec0dde14610253578063becbb04b1461024e578063d529a56514610249578063e0daa8ba14610244578063e7f7814e1461023f578063e8891b7d1461023a578063ed338ff114610235578063f1e81e0714610230578063f2fde38b1461022b578063f8127958146102265763fe36f6c90361000e576112ef565b6112a0565b61126d565b611238565b6111f3565b61119a565b611155565b611106565b6110c1565b61107c565b611037565b611002565b610fbf565b610f8a565b610ee5565b610d3a565b610cf5565b610ca6565b610c61565b610c1c565b610bd7565b610b92565b610afb565b610ab6565b610a67565b610a22565b6109d5565b6109a0565b610951565b61090c565b6108c7565b610892565b61084b565b6107ab565b610768565b610735565b6106fa565b6106b5565b610670565b610617565b6105ba565b61056b565b610512565b6104cd565b6103d5565b610390565b60e01c90565b60405190565b600080fd5b600080fd5b600091031261032857565b610318565b1c90565b90565b610344906008610349930261032d565b610331565b90565b906103579154610334565b90565b610367600660009061034c565b90565b90565b6103769061036a565b9052565b919061038e9060006020850194019061036d565b565b346103c0576103a036600461031d565b6103bc6103ab61035a565b6103b361030d565b9182918261037a565b0390f35b610313565b6103d2600360009061034c565b90565b34610405576103e536600461031d565b6104016103f06103c5565b6103f861030d565b9182918261037a565b0390f35b610313565b60018060a01b031690565b61041e9061040a565b90565b61042a81610415565b0361043157565b600080fd5b9050359061044382610421565b565b9060208282031261045f5761045c91600001610436565b90565b610318565b90565b61047b6104766104809261040a565b610464565b61040a565b90565b61048c90610467565b90565b61049890610483565b90565b906104a59061048f565b600052602052604060002090565b6104ca906104c560209160009261049b565b61034c565b90565b346104fd576104f96104e86104e3366004610445565b6104b3565b6104f061030d565b9182918261037a565b0390f35b610313565b61050f601660009061034c565b90565b346105425761052236600461031d565b61053e61052d610502565b61053561030d565b9182918261037a565b0390f35b610313565b7f000000000000000000000000000000000000000000000000000000000000000090565b3461059b5761057b36600461031d565b610597610586610547565b61058e61030d565b9182918261037a565b0390f35b610313565b6105b7906105b260219160009261049b565b61034c565b90565b346105ea576105e66105d56105d0366004610445565b6105a0565b6105dd61030d565b9182918261037a565b0390f35b610313565b151590565b6105fd906105ef565b9052565b9190610615906000602085019401906105f4565b565b346106475761064361063261062d366004610445565b61140a565b61063a61030d565b91829182610601565b0390f35b610313565b7f000000000000000000000000000000000000000000000000000000000000000090565b346106a05761068036600461031d565b61069c61068b61064c565b61069361030d565b9182918261037a565b0390f35b610313565b6106b2600960009061034c565b90565b346106e5576106c536600461031d565b6106e16106d06106a5565b6106d861030d565b9182918261037a565b0390f35b610313565b6106f7600160009061034c565b90565b3461072a5761070a36600461031d565b6107266107156106ea565b61071d61030d565b9182918261037a565b0390f35b610313565b60000190565b346107635761074d610748366004610445565b6116bc565b61075561030d565b8061075f8161072f565b0390f35b610313565b346107965761078061077b366004610445565b611732565b61078861030d565b806107928161072f565b0390f35b610313565b6107a8601560009061034c565b90565b346107db576107bb36600461031d565b6107d76107c661079b565b6107ce61030d565b9182918261037a565b0390f35b610313565b6107e98161036a565b036107f057565b600080fd5b90503590610802826107e0565b565b6080818303126108465761081b82600083016107f5565b9261084361082c84602085016107f5565b9361083a81604086016107f5565b936060016107f5565b90565b610318565b3461087d5761086761085e366004610804565b929190916117fa565b61086f61030d565b806108798161072f565b0390f35b610313565b61088f601360009061034c565b90565b346108c2576108a236600461031d565b6108be6108ad610882565b6108b561030d565b9182918261037a565b0390f35b610313565b346108f7576108f36108e26108dd366004610445565b611808565b6108ea61030d565b91829182610601565b0390f35b610313565b610909601460009061034c565b90565b3461093c5761091c36600461031d565b6109386109276108fc565b61092f61030d565b9182918261037a565b0390f35b610313565b61094e600f60009061034c565b90565b346109815761096136600461031d565b61097d61096c610941565b61097461030d565b9182918261037a565b0390f35b610313565b61099d9061099860239160009261049b565b61034c565b90565b346109d0576109cc6109bb6109b6366004610445565b610986565b6109c361030d565b9182918261037a565b0390f35b610313565b34610a03576109ed6109e8366004610445565b611918565b6109f561030d565b806109ff8161072f565b0390f35b610313565b610a1f90610a1a601d9160009261049b565b61034c565b90565b34610a5257610a4e610a3d610a38366004610445565b610a08565b610a4561030d565b9182918261037a565b0390f35b610313565b610a64600e60009061034c565b90565b34610a9757610a7736600461031d565b610a93610a82610a57565b610a8a61030d565b9182918261037a565b0390f35b610313565b610ab390610aae60229160009261049b565b61034c565b90565b34610ae657610ae2610ad1610acc366004610445565b610a9c565b610ad961030d565b9182918261037a565b0390f35b610313565b610af8600860009061034c565b90565b34610b2b57610b0b36600461031d565b610b27610b16610aeb565b610b1e61030d565b9182918261037a565b0390f35b610313565b60018060a01b031690565b610b4b906008610b50930261032d565b610b30565b90565b90610b5e9154610b3b565b90565b610b6c600080610b53565b90565b610b7890610415565b9052565b9190610b9090600060208501940190610b6f565b565b34610bc257610ba236600461031d565b610bbe610bad610b61565b610bb561030d565b91829182610b7c565b0390f35b610313565b610bd4600260009061034c565b90565b34610c0757610be736600461031d565b610c03610bf2610bc7565b610bfa61030d565b9182918261037a565b0390f35b610313565b610c19601060009061034c565b90565b34610c4c57610c2c36600461031d565b610c48610c37610c0c565b610c3f61030d565b9182918261037a565b0390f35b610313565b610c5e600460009061034c565b90565b34610c9157610c7136600461031d565b610c8d610c7c610c51565b610c8461030d565b9182918261037a565b0390f35b610313565b610ca3600b60009061034c565b90565b34610cd657610cb636600461031d565b610cd2610cc1610c96565b610cc961030d565b9182918261037a565b0390f35b610313565b610cf290610ced601e9160009261049b565b61034c565b90565b34610d2557610d21610d10610d0b366004610445565b610cdb565b610d1861030d565b9182918261037a565b0390f35b610313565b610d37600a60009061034c565b90565b34610d6a57610d4a36600461031d565b610d66610d55610d2a565b610d5d61030d565b9182918261037a565b0390f35b610313565b601f801991011690565b634e487b7160e01b600052604160045260246000fd5b90610d9990610d6f565b810190811067ffffffffffffffff821117610db357604052565b610d79565b90610dcb610dc461030d565b9283610d8f565b565b67ffffffffffffffff8111610deb57610de7602091610d6f565b0190565b610d79565b90610e02610dfd83610dcd565b610db8565b918252565b60007f57654c61756e63682e66756e6473000000000000000000000000000000000000910152565b610e39600e610df0565b90610e4660208301610e07565b565b610e50610e2f565b90565b610e5b610e48565b90565b610e66610e53565b90565b5190565b60209181520190565b60005b838110610e8a575050906000910152565b806020918301518185015201610e79565b610eba610ec3602093610ec893610eb181610e69565b93848093610e6d565b95869101610e76565b610d6f565b0190565b610ee29160208201916000818403910152610e9b565b90565b34610f1557610ef536600461031d565b610f11610f00610e5e565b610f0861030d565b91829182610ecc565b0390f35b610313565b60018060a01b031690565b610f35906008610f3a930261032d565b610f1a565b90565b90610f489154610f25565b90565b610f586007600090610f3d565b90565b610f649061040a565b90565b610f7090610f5b565b9052565b9190610f8890600060208501940190610f67565b565b34610fba57610f9a36600461031d565b610fb6610fa5610f4b565b610fad61030d565b91829182610f74565b0390f35b610313565b34610fed57610fd7610fd2366004610445565b61198e565b610fdf61030d565b80610fe98161072f565b0390f35b610313565b610fff600560009061034c565b90565b346110325761101236600461031d565b61102e61101d610ff2565b61102561030d565b9182918261037a565b0390f35b610313565b346110675761106361105261104d366004610445565b611999565b61105a61030d565b91829182610601565b0390f35b610313565b611079601260009061034c565b90565b346110ac5761108c36600461031d565b6110a861109761106c565b61109f61030d565b9182918261037a565b0390f35b610313565b6110be601760009061034c565b90565b346110f1576110d136600461031d565b6110ed6110dc6110b1565b6110e461030d565b9182918261037a565b0390f35b610313565b611103600c60009061034c565b90565b346111365761111636600461031d565b6111326111216110f6565b61112961030d565b9182918261037a565b0390f35b610313565b6111529061114d601f9160009261049b565b61034c565b90565b346111855761118161117061116b366004610445565b61113b565b61117861030d565b9182918261037a565b0390f35b610313565b611197601160009061034c565b90565b346111ca576111aa36600461031d565b6111c66111b561118a565b6111bd61030d565b9182918261037a565b0390f35b610313565b7f000000000000000000000000000000000000000000000000000000000000000090565b346112235761120336600461031d565b61121f61120e6111cf565b61121661030d565b9182918261037a565b0390f35b610313565b611235600d60009061034c565b90565b346112685761124836600461031d565b611264611253611228565b61125b61030d565b9182918261037a565b0390f35b610313565b3461129b57611285611280366004610445565b611b30565b61128d61030d565b806112978161072f565b0390f35b610313565b346112d0576112cc6112bb6112b6366004610445565b611b3b565b6112c361030d565b91829182610601565b0390f35b610313565b6112ec906112e7601c9160009261049b565b61034c565b90565b3461131f5761131b61130a611305366004610445565b6112d5565b61131261030d565b9182918261037a565b0390f35b610313565b600080fd5b600090565b600090565b5490565b90565b61134e61134961135392611337565b610464565b61036a565b90565b6001611362910161036a565b90565b634e487b7160e01b600052603260045260246000fd5b600052602060002090565b61138f81611333565b8210156113aa576113a160019161137b565b91020190600090565b611365565b60007f41646472657373206e6f7420666f756e64000000000000000000000000000000910152565b6113e46011602092610e6d565b6113ed816113af565b0190565b61140790602081019060008183039101526113d7565b90565b611412611329565b5061141b61132e565b50611426601a611333565b90611431600061133a565b5b8061144561143f8561036a565b9161036a565b101561148d5761146061145a601a8390611386565b90610b53565b61147261146c84610415565b91610415565b146114855761148090611356565b611432565b505050600190565b61149561030d565b62461bcd60e51b8152806114ab600482016113f1565b0390fd5b60001c90565b6114c16114c6916114af565b610b30565b90565b6114d390546114b5565b90565b156114dd57565b600080fd5b6115109061150b336115056114ff6114fa60006114c9565b610415565b91610415565b146114d6565b611681565b565b61152661152161152b92611337565b610464565b61040a565b90565b61153790611512565b90565b60007f496e76616c696420616464726573730000000000000000000000000000000000910152565b61156f600f602092610e6d565b6115788161153a565b0190565b6115929060208101906000818303910152611562565b90565b1561159c57565b6115a461030d565b62461bcd60e51b8152806115ba6004820161157c565b0390fd5b90565b600052602060002090565b5490565b6115d9816115cc565b8210156115f4576115eb6001916115c1565b91020190600090565b611365565b1b90565b9190600861161d91029161161760018060a01b03846115f9565b926115f9565b9181191691161790565b90565b919061164061163b6116489361048f565b611627565b9083546115fd565b9055565b908154916801000000000000000083101561167c578261167491600161167a950181556115d0565b9061162a565b565b610d79565b6116ba906116ab816116a461169e611699600061152e565b610415565b91610415565b1415611595565b6116b5601a6115be565b61164c565b565b6116c5906114e2565b565b6116f5906116f0336116ea6116e46116df60006114c9565b610415565b91610415565b146114d6565b6116f7565b565b611730906117218161171a61171461170f600061152e565b610415565b91610415565b1415611595565b61172b601b6115be565b61164c565b565b61173b906116c7565b565b9061176e9392916117693361176361175d61175860006114c9565b610415565b91610415565b146114d6565b6117cc565b565b60001b90565b9061178360001991611770565b9181191691161790565b6117a161179c6117a69261036a565b610464565b61036a565b90565b90565b906117c16117bc6117c89261178d565b6117a9565b8254611776565b9055565b916117ea6117f1926117e36117f8969560086117ac565b60096117ac565b600a6117ac565b600b6117ac565b565b9061180693929161173d565b565b611810611329565b5061181961132e565b506118246018611333565b9061182f600061133a565b5b8061184361183d8561036a565b9161036a565b101561188b5761185e61185860188390611386565b90610b53565b61187061186a84610415565b91610415565b146118835761187e90611356565b611830565b505050600190565b61189361030d565b62461bcd60e51b8152806118a9600482016113f1565b0390fd5b6118db906118d6336118d06118ca6118c560006114c9565b610415565b91610415565b146114d6565b6118dd565b565b61191690611907816119006118fa6118f5600061152e565b610415565b91610415565b1415611595565b61191160186115be565b61164c565b565b611921906118ad565b565b6119519061194c3361194661194061193b60006114c9565b610415565b91610415565b146114d6565b611953565b565b61198c9061197d8161197661197061196b600061152e565b610415565b91610415565b1415611595565b61198760196115be565b61164c565b565b61199790611923565b565b6119a1611329565b506119aa61132e565b506119b56019611333565b906119c0600061133a565b5b806119d46119ce8561036a565b9161036a565b1015611a1c576119ef6119e960198390611386565b90610b53565b611a016119fb84610415565b91610415565b14611a1457611a0f90611356565b6119c1565b505050600190565b611a2461030d565b62461bcd60e51b815280611a3a600482016113f1565b0390fd5b611a6c90611a6733611a61611a5b611a5660006114c9565b610415565b91610415565b146114d6565b611aa9565b565b90611a7f60018060a01b0391611770565b9181191691161790565b90611a9e611a99611aa59261048f565b611627565b8254611a6e565b9055565b611b2e90611ad381611acc611ac6611ac1600061152e565b610415565b91610415565b14156114d6565b611add60006114c9565b81611b11611b0b7f8be0079c531659141344cd1fd0a4f28419497f9722a3daafe3b4186f6b6457e09361048f565b9161048f565b91611b1a61030d565b80611b248161072f565b0390a36000611a89565b565b611b3990611a3e565b565b611b43611329565b50611b4c61132e565b50611b57601b611333565b90611b62600061133a565b5b80611b76611b708561036a565b9161036a565b1015611bbe57611b91611b8b601b8390611386565b90610b53565b611ba3611b9d84610415565b91610415565b14611bb657611bb190611356565b611b63565b505050600190565b611bc661030d565b62461bcd60e51b815280611bdc600482016113f1565b0390fd5b60007f5468652073616c65206973206e6f742073746172746564207965742000000000910152565b611c15601c602092610e6d565b611c1e81611be0565b0190565b611c389060208101906000818303910152611c08565b90565b15611c4257565b611c4a61030d565b62461bcd60e51b815280611c6060048201611c22565b0390fd5b60007f5468652073616c6520697320636c6f7365640000000000000000000000000000910152565b611c996012602092610e6d565b611ca281611c64565b0190565b611cbc9060208101906000818303910152611c8c565b90565b15611cc657565b611cce61030d565b62461bcd60e51b815280611ce460048201611ca6565b0390fd5b611cf4611cf9916114af565b610331565b90565b611d069054611ce8565b90565b634e487b7160e01b600052601160045260246000fd5b611d2e611d349193929361036a565b9261036a565b8201809211611d3f57565b611d09565b60207f206d617820636170000000000000000000000000000000000000000000000000917f627579546f6b656e733a20707572636861736520776f756c642065786365656460008201520152565b611d9f6028604092610e6d565b611da881611d44565b0190565b611dc29060208101906000818303910152611d92565b90565b15611dcc57565b611dd461030d565b62461bcd60e51b815280611dea60048201611dac565b0390fd5b60007f796f75722070757263686173696e6720506f77657220697320736f204c6f7700910152565b611e23601f602092610e6d565b611e2c81611dee565b0190565b611e469060208101906000818303910152611e16565b90565b15611e5057565b611e5861030d565b62461bcd60e51b815280611e6e60048201611e30565b0390fd5b60207f205469657220466f7572206d6178206361700000000000000000000000000000917f627579546f6b656e733a20707572636861736520776f756c642065786365656460008201520152565b611ecd6032604092610e6d565b611ed681611e72565b0190565b611ef09060208101906000818303910152611ec0565b90565b15611efa57565b611f0261030d565b62461bcd60e51b815280611f1860048201611eda565b0390fd5b60207f207468616e20796f757220746965722d34206c696d6974210000000000000000917f627579546f6b656e733a596f752061726520696e76657374696e67206d6f726560008201520152565b611f776038604092610e6d565b611f8081611f1c565b0190565b611f9a9060208101906000818303910152611f6a565b90565b15611fa457565b611fac61030d565b62461bcd60e51b815280611fc260048201611f84565b0390fd5b611fd2611fd7916114af565b610f1a565b90565b611fe49054611fc6565b90565b611ff090610483565b90565b60207f207468616e20796f757220746965722d33206c696d6974210000000000000000917f627579546f6b656e733a596f752061726520696e76657374696e67206d6f726560008201520152565b61204e6038604092610e6d565b61205781611ff3565b0190565b6120719060208101906000818303910152612041565b90565b1561207b57565b61208361030d565b62461bcd60e51b8152806120996004820161205b565b0390fd5b60207f2054696572207468726565206d61782063617000000000000000000000000000917f627579546f6b656e733a20707572636861736520776f756c642065786365656460008201520152565b6120f86033604092610e6d565b6121018161209d565b0190565b61211b90602081019060008183039101526120eb565b90565b1561212557565b61212d61030d565b62461bcd60e51b81528061214360048201612105565b0390fd5b60207f20546965722074776f206d617820636170000000000000000000000000000000917f627579546f6b656e733a20707572636861736520776f756c642065786365656460008201520152565b6121a26031604092610e6d565b6121ab81612147565b0190565b6121c59060208101906000818303910152612195565b90565b156121cf57565b6121d761030d565b62461bcd60e51b8152806121ed600482016121af565b0390fd5b60207f207468616e20796f757220746965722d32206c696d6974210000000000000000917f627579546f6b656e733a596f752061726520696e76657374696e67206d6f726560008201520152565b61224c6038604092610e6d565b612255816121f1565b0190565b61226f906020810190600081830391015261223f565b90565b1561227957565b61228161030d565b62461bcd60e51b81528061229760048201612259565b0390fd5b60207f2054696572206f6e65206d617820636170000000000000000000000000000000917f627579546f6b656e733a20707572636861736520776f756c642065786365656460008201520152565b6122f66031604092610e6d565b6122ff8161229b565b0190565b61231990602081019060008183039101526122e9565b90565b1561232357565b61232b61030d565b62461bcd60e51b81528061234160048201612303565b0390fd5b60207f207468616e20796f757220746965722d31206c696d6974210000000000000000917f627579546f6b656e733a596f752061726520696e76657374696e67206d6f726560008201520152565b6123a06038604092610e6d565b6123a981612345565b0190565b6123c39060208101906000818303910152612393565b90565b156123cd57565b6123d561030d565b62461bcd60e51b8152806123eb600482016123ad565b0390fd5b61242c4261242561241f7f000000000000000000000000000000000000000000000000000000000000000061036a565b9161036a565b1015611c3b565b6124694261246261245c7f000000000000000000000000000000000000000000000000000000000000000061036a565b9161036a565b1115611cbf565b6124b96124806124796001611cfc565b3490611d1f565b6124b26124ac7f000000000000000000000000000000000000000000000000000000000000000061036a565b9161036a565b1115611dc5565b6124c233611808565b600014612628576124f1346124eb6124dc6020339061049b565b916124e683611cfc565b611d1f565b906117ac565b61252a6125086125036020339061049b565b611cfc565b61252361251d6125186014611cfc565b61036a565b9161036a565b1015611e49565b61256361254161253a6002611cfc565b3490611d1f565b61255c6125566125516008611cfc565b61036a565b9161036a565b111561231c565b6125a661258461257d612578601c339061049b565b611cfc565b3490611d1f565b61259f6125996125946010611cfc565b61036a565b9161036a565b11156123c6565b6125ce346125c86125b9601c339061049b565b916125c383611cfc565b611d1f565b906117ac565b6125eb6125e4346125df6001611cfc565b611d1f565b60016117ac565b612608612601346125fc6002611cfc565b611d1f565b60026117ac565b6126256126156007611fda565b61261e30611fe7565b3190612c47565b5b565b61263133611999565b60001461279a576126603461265a61264b6021339061049b565b9161265583611cfc565b611d1f565b906117ac565b6126996126776126726021339061049b565b611cfc565b61269261268c6126876015611cfc565b61036a565b9161036a565b1015611e49565b6126d26126b06126a96003611cfc565b3490611d1f565b6126cb6126c56126c06009611cfc565b61036a565b9161036a565b11156121c8565b6127156126f36126ec6126e7601d339061049b565b611cfc565b3490611d1f565b61270e6127086127036011611cfc565b61036a565b9161036a565b1115612272565b61273d34612737612728601d339061049b565b9161273283611cfc565b611d1f565b906117ac565b61275a6127533461274e6001611cfc565b611d1f565b60016117ac565b6127776127703461276b6003611cfc565b611d1f565b60036117ac565b6127946127846007611fda565b61278d30611fe7565b3190612c47565b5b612626565b6127a33361140a565b60001461290c576127d2346127cc6127bd6022339061049b565b916127c783611cfc565b611d1f565b906117ac565b61280b6127e96127e46022339061049b565b611cfc565b6128046127fe6127f96016611cfc565b61036a565b9161036a565b1015611e49565b61284e61282c612825612820601e339061049b565b611cfc565b3490611d1f565b61284761284161283c6012611cfc565b61036a565b9161036a565b1115612074565b61288761286561285e6004611cfc565b3490611d1f565b61288061287a612875600a611cfc565b61036a565b9161036a565b111561211e565b6128af346128a961289a601e339061049b565b916128a483611cfc565b611d1f565b906117ac565b6128cc6128c5346128c06001611cfc565b611d1f565b60016117ac565b6128e96128e2346128dd6004611cfc565b611d1f565b60046117ac565b6129066128f66007611fda565b6128ff30611fe7565b3190612c47565b5b612795565b61291533611b3b565b600014612a7d576129443461293e61292f6023339061049b565b9161293983611cfc565b611d1f565b906117ac565b61297d61295b6129566023339061049b565b611cfc565b61297661297061296b6017611cfc565b61036a565b9161036a565b1015611e49565b6129b661299461298d6005611cfc565b3490611d1f565b6129af6129a96129a4600b611cfc565b61036a565b9161036a565b1115611ef3565b6129f96129d76129d06129cb601f339061049b565b611cfc565b3490611d1f565b6129f26129ec6129e76013611cfc565b61036a565b9161036a565b1115611f9d565b612a2134612a1b612a0c601f339061049b565b91612a1683611cfc565b611d1f565b906117ac565b612a3e612a3734612a326001611cfc565b611d1f565b60016117ac565b612a5b612a5434612a4f6005611cfc565b611d1f565b60056117ac565b612a78612a686007611fda565b612a7130611fe7565b3190612c47565b612907565b600080fd5b60007f416464726573733a20696e73756666696369656e742062616c616e6365000000910152565b612ab7601d602092610e6d565b612ac081612a82565b0190565b612ada9060208101906000818303910152612aaa565b90565b15612ae457565b612aec61030d565b62461bcd60e51b815280612b0260048201612ac4565b0390fd5b612b0f90610483565b90565b905090565b612b2360008092612b12565b0190565b612b3090612b17565b90565b67ffffffffffffffff8111612b5157612b4d602091610d6f565b0190565b610d79565b90612b68612b6383612b33565b610db8565b918252565b606090565b3d600014612b8f57612b833d612b56565b903d6000602084013e5b565b612b97612b6d565b90612b8d565b60207f6563697069656e74206d61792068617665207265766572746564000000000000917f416464726573733a20756e61626c6520746f2073656e642076616c75652c207260008201520152565b612bf8603a604092610e6d565b612c0181612b9d565b0190565b612c1b9060208101906000818303910152612beb565b90565b15612c2557565b612c2d61030d565b62461bcd60e51b815280612c4360048201612c05565b0390fd5b6000612ca392612c7d8293612c78612c5e30611fe7565b31612c71612c6b8661036a565b9161036a565b1015612add565b612b06565b90612c8661030d565b9081612c9181612b27565b03925af1612c9d612b72565b50612c1e565b56fea2646970667358221220dd354027952cff93307f5b3a5e3b1ba7fcf0c94afefd81a553f74d4fed93a90364736f6c63430008180033","opcodes":"PUSH1 0xE0 PUSH1 0x40 MSTORE CALLVALUE PUSH3 0x71 JUMPI PUSH3 0x28 PUSH3 0x18 PUSH3 0x1ED JUMP JUMPDEST SWAP7 SWAP6 SWAP1 SWAP6 SWAP5 SWAP2 SWAP5 SWAP4 SWAP3 SWAP4 PUSH3 0x47E JUMP JUMPDEST PUSH3 0x32 PUSH3 0x77 JUMP JUMPDEST PUSH2 0x2CDB PUSH3 0x632 DUP3 CODECOPY PUSH1 0x80 MLOAD DUP2 DUP2 DUP2 PUSH2 0x64E ADD MSTORE PUSH2 0x2488 ADD MSTORE PUSH1 0xA0 MLOAD DUP2 DUP2 DUP2 PUSH2 0x549 ADD MSTORE PUSH2 0x23FB ADD MSTORE PUSH1 0xC0 MLOAD DUP2 DUP2 DUP2 PUSH2 0x11D1 ADD MSTORE PUSH2 0x2438 ADD MSTORE PUSH2 0x2CDB SWAP1 RETURN JUMPDEST PUSH3 0x7D JUMP JUMPDEST PUSH1 0x40 MLOAD SWAP1 JUMP JUMPDEST PUSH1 0x0 DUP1 REVERT JUMPDEST PUSH1 0x1F DUP1 NOT SWAP2 ADD AND SWAP1 JUMP JUMPDEST PUSH4 0x4E487B71 PUSH1 0xE0 SHL PUSH1 0x0 MSTORE PUSH1 0x41 PUSH1 0x4 MSTORE PUSH1 0x24 PUSH1 0x0 REVERT JUMPDEST SWAP1 PUSH3 0xAE SWAP1 PUSH3 0x82 JUMP JUMPDEST DUP2 ADD SWAP1 DUP2 LT PUSH1 0x1 DUP1 PUSH1 0x40 SHL SUB DUP3 GT OR PUSH3 0xC7 JUMPI PUSH1 0x40 MSTORE JUMP JUMPDEST PUSH3 0x8C JUMP JUMPDEST SWAP1 PUSH3 0xE4 PUSH3 0xDC PUSH3 0x77 JUMP JUMPDEST SWAP3 DUP4 PUSH3 0xA2 JUMP JUMPDEST JUMP JUMPDEST PUSH1 0x0 DUP1 REVERT JUMPDEST SWAP1 JUMP JUMPDEST PUSH3 0xF9 DUP2 PUSH3 0xEB JUMP JUMPDEST SUB PUSH3 0x101 JUMPI JUMP JUMPDEST PUSH1 0x0 DUP1 REVERT JUMPDEST SWAP1 POP MLOAD SWAP1 PUSH3 0x115 DUP3 PUSH3 0xEE JUMP JUMPDEST JUMP JUMPDEST PUSH1 0x1 DUP1 PUSH1 0xA0 SHL SUB AND SWAP1 JUMP JUMPDEST PUSH3 0x12D SWAP1 PUSH3 0x117 JUMP JUMPDEST SWAP1 JUMP JUMPDEST PUSH3 0x13B DUP2 PUSH3 0x122 JUMP JUMPDEST SUB PUSH3 0x143 JUMPI JUMP JUMPDEST PUSH1 0x0 DUP1 REVERT JUMPDEST SWAP1 POP MLOAD SWAP1 PUSH3 0x157 DUP3 PUSH3 0x130 JUMP JUMPDEST JUMP JUMPDEST SWAP2 SWAP1 PUSH2 0x100 DUP4 DUP3 SUB SLT PUSH3 0x1E7 JUMPI PUSH3 0x176 DUP2 PUSH1 0x0 DUP6 ADD PUSH3 0x106 JUMP JUMPDEST SWAP3 PUSH3 0x186 DUP3 PUSH1 0x20 DUP4 ADD PUSH3 0x106 JUMP JUMPDEST SWAP3 PUSH3 0x196 DUP4 PUSH1 0x40 DUP5 ADD PUSH3 0x106 JUMP JUMPDEST SWAP3 PUSH3 0x1A6 DUP2 PUSH1 0x60 DUP6 ADD PUSH3 0x148 JUMP JUMPDEST SWAP3 PUSH3 0x1B6 DUP3 PUSH1 0x80 DUP4 ADD PUSH3 0x106 JUMP JUMPDEST SWAP3 PUSH3 0x1E4 PUSH3 0x1CA DUP5 PUSH1 0xA0 DUP6 ADD PUSH3 0x106 JUMP JUMPDEST SWAP4 PUSH3 0x1DA DUP2 PUSH1 0xC0 DUP7 ADD PUSH3 0x106 JUMP JUMPDEST SWAP4 PUSH1 0xE0 ADD PUSH3 0x106 JUMP JUMPDEST SWAP1 JUMP JUMPDEST PUSH3 0xE6 JUMP JUMPDEST PUSH3 0x210 PUSH3 0x330D DUP1 CODESIZE SUB DUP1 PUSH3 0x204 DUP2 PUSH3 0xCD JUMP JUMPDEST SWAP3 DUP4 CODECOPY DUP2 ADD SWAP1 PUSH3 0x159 JUMP JUMPDEST SWAP1 SWAP2 SWAP3 SWAP4 SWAP5 SWAP6 SWAP7 SWAP8 JUMP JUMPDEST PUSH1 0x0 SHL SWAP1 JUMP JUMPDEST SWAP1 PUSH3 0x22F PUSH1 0x0 NOT SWAP2 PUSH3 0x21A JUMP JUMPDEST SWAP2 DUP2 NOT AND SWAP2 AND OR SWAP1 JUMP JUMPDEST SWAP1 JUMP JUMPDEST SWAP1 JUMP JUMPDEST PUSH3 0x258 PUSH3 0x252 PUSH3 0x25E SWAP3 PUSH3 0x239 JUMP JUMPDEST PUSH3 0x23C JUMP JUMPDEST PUSH3 0xEB JUMP JUMPDEST SWAP1 JUMP JUMPDEST SWAP1 JUMP JUMPDEST SWAP1 PUSH3 0x27E PUSH3 0x278 PUSH3 0x286 SWAP3 PUSH3 0x23F JUMP JUMPDEST PUSH3 0x261 JUMP JUMPDEST DUP3 SLOAD PUSH3 0x220 JUMP JUMPDEST SWAP1 SSTORE JUMP JUMPDEST SWAP1 PUSH3 0x29D PUSH1 0x1 DUP1 PUSH1 0xA0 SHL SUB SWAP2 PUSH3 0x21A JUMP JUMPDEST SWAP2 DUP2 NOT AND SWAP2 AND OR SWAP1 JUMP JUMPDEST PUSH3 0x2C0 PUSH3 0x2BA PUSH3 0x2C6 SWAP3 PUSH3 0x117 JUMP JUMPDEST PUSH3 0x23C JUMP JUMPDEST PUSH3 0x117 JUMP JUMPDEST SWAP1 JUMP JUMPDEST PUSH3 0x2D4 SWAP1 PUSH3 0x2A7 JUMP JUMPDEST SWAP1 JUMP JUMPDEST PUSH3 0x2E2 SWAP1 PUSH3 0x2C9 JUMP JUMPDEST SWAP1 JUMP JUMPDEST SWAP1 JUMP JUMPDEST SWAP1 PUSH3 0x302 PUSH3 0x2FC PUSH3 0x30A SWAP3 PUSH3 0x2D7 JUMP JUMPDEST PUSH3 0x2E5 JUMP JUMPDEST DUP3 SLOAD PUSH3 0x28A JUMP JUMPDEST SWAP1 SSTORE JUMP JUMPDEST PUSH3 0x327 PUSH3 0x321 PUSH3 0x32D SWAP3 PUSH3 0xEB JUMP JUMPDEST PUSH3 0x23C JUMP JUMPDEST PUSH3 0xEB JUMP JUMPDEST SWAP1 JUMP JUMPDEST SWAP1 PUSH3 0x34A PUSH3 0x344 PUSH3 0x352 SWAP3 PUSH3 0x30E JUMP JUMPDEST PUSH3 0x261 JUMP JUMPDEST DUP3 SLOAD PUSH3 0x220 JUMP JUMPDEST SWAP1 SSTORE JUMP JUMPDEST SWAP1 JUMP JUMPDEST PUSH3 0x372 PUSH3 0x36C PUSH3 0x378 SWAP3 PUSH3 0x356 JUMP JUMPDEST PUSH3 0x23C JUMP JUMPDEST PUSH3 0xEB JUMP JUMPDEST SWAP1 JUMP JUMPDEST SWAP1 JUMP JUMPDEST PUSH3 0x397 PUSH3 0x391 PUSH3 0x39D SWAP3 PUSH3 0x37B JUMP JUMPDEST PUSH3 0x23C JUMP JUMPDEST PUSH3 0xEB JUMP JUMPDEST SWAP1 JUMP JUMPDEST SWAP1 JUMP JUMPDEST PUSH3 0x3BC PUSH3 0x3B6 PUSH3 0x3C2 SWAP3 PUSH3 0x3A0 JUMP JUMPDEST PUSH3 0x23C JUMP JUMPDEST PUSH3 0xEB JUMP JUMPDEST SWAP1 JUMP JUMPDEST SWAP1 JUMP JUMPDEST PUSH3 0x3E1 PUSH3 0x3DB PUSH3 0x3E7 SWAP3 PUSH3 0x3C5 JUMP JUMPDEST PUSH3 0x23C JUMP JUMPDEST PUSH3 0xEB JUMP JUMPDEST SWAP1 JUMP JUMPDEST SWAP1 JUMP JUMPDEST PUSH3 0x406 PUSH3 0x400 PUSH3 0x40C SWAP3 PUSH3 0x3EA JUMP JUMPDEST PUSH3 0x23C JUMP JUMPDEST PUSH3 0xEB JUMP JUMPDEST SWAP1 JUMP JUMPDEST SWAP1 JUMP JUMPDEST PUSH3 0x42B PUSH3 0x425 PUSH3 0x431 SWAP3 PUSH3 0x40F JUMP JUMPDEST PUSH3 0x23C JUMP JUMPDEST PUSH3 0xEB JUMP JUMPDEST SWAP1 JUMP JUMPDEST SWAP1 JUMP JUMPDEST PUSH3 0x450 PUSH3 0x44A PUSH3 0x456 SWAP3 PUSH3 0x434 JUMP JUMPDEST PUSH3 0x23C JUMP JUMPDEST PUSH3 0xEB JUMP JUMPDEST SWAP1 JUMP JUMPDEST SWAP1 JUMP JUMPDEST PUSH3 0x475 PUSH3 0x46F PUSH3 0x47B SWAP3 PUSH3 0x459 JUMP JUMPDEST PUSH3 0x23C JUMP JUMPDEST PUSH3 0xEB JUMP JUMPDEST SWAP1 JUMP JUMPDEST SWAP4 PUSH3 0x4C3 PUSH3 0x4D3 SWAP5 PUSH3 0x4DB SWAP8 SWAP5 PUSH3 0x4CB SWAP5 PUSH3 0x4E3 SWAP12 SWAP11 SWAP9 PUSH3 0x4A4 PUSH3 0x622 JUMP JUMPDEST PUSH3 0x4B2 PUSH1 0x0 PUSH1 0x1 PUSH3 0x264 JUMP JUMPDEST PUSH1 0x80 MSTORE PUSH1 0xA0 MSTORE PUSH1 0xC0 MSTORE PUSH1 0x7 PUSH3 0x2E8 JUMP JUMPDEST PUSH1 0x8 PUSH3 0x330 JUMP JUMPDEST PUSH1 0x9 PUSH3 0x330 JUMP JUMPDEST PUSH1 0xA PUSH3 0x330 JUMP JUMPDEST PUSH1 0xB PUSH3 0x330 JUMP JUMPDEST PUSH3 0x501 PUSH3 0x4F9 PUSH7 0x2386F26FC10000 PUSH3 0x359 JUMP JUMPDEST PUSH1 0x14 PUSH3 0x330 JUMP JUMPDEST PUSH3 0x520 PUSH3 0x518 PUSH8 0x16345785D8A0000 PUSH3 0x37E JUMP JUMPDEST PUSH1 0x15 PUSH3 0x330 JUMP JUMPDEST PUSH3 0x53F PUSH3 0x537 PUSH8 0xDE0B6B3A7640000 PUSH3 0x3A3 JUMP JUMPDEST PUSH1 0x16 PUSH3 0x330 JUMP JUMPDEST PUSH3 0x55E PUSH3 0x556 PUSH8 0x4563918244F40000 PUSH3 0x3C8 JUMP JUMPDEST PUSH1 0x17 PUSH3 0x330 JUMP JUMPDEST PUSH3 0x57D PUSH3 0x575 PUSH8 0x6F05B59D3B20000 PUSH3 0x3ED JUMP JUMPDEST PUSH1 0x10 PUSH3 0x330 JUMP JUMPDEST PUSH3 0x59C PUSH3 0x594 PUSH8 0x6F05B59D3B200000 PUSH3 0x412 JUMP JUMPDEST PUSH1 0x11 PUSH3 0x330 JUMP JUMPDEST PUSH3 0x5BB PUSH3 0x5B3 PUSH8 0xDE0B6B3A76400000 PUSH3 0x437 JUMP JUMPDEST PUSH1 0x12 PUSH3 0x330 JUMP JUMPDEST PUSH3 0x5DB PUSH3 0x5D3 PUSH9 0x14D1120D7B1600000 PUSH3 0x45C JUMP JUMPDEST PUSH1 0x13 PUSH3 0x330 JUMP JUMPDEST JUMP JUMPDEST PUSH3 0x5E8 SWAP1 PUSH3 0x2A7 JUMP JUMPDEST SWAP1 JUMP JUMPDEST PUSH3 0x5F6 SWAP1 PUSH3 0x5DD JUMP JUMPDEST SWAP1 JUMP JUMPDEST SWAP1 JUMP JUMPDEST SWAP1 PUSH3 0x616 PUSH3 0x610 PUSH3 0x61E SWAP3 PUSH3 0x5EB JUMP JUMPDEST PUSH3 0x5F9 JUMP JUMPDEST DUP3 SLOAD PUSH3 0x28A JUMP JUMPDEST SWAP1 SSTORE JUMP JUMPDEST PUSH3 0x62F CALLER PUSH1 0x0 PUSH3 0x5FC JUMP JUMPDEST JUMP INVALID PUSH1 0x80 PUSH1 0x40 MSTORE PUSH1 0x4 CALLDATASIZE LT ISZERO PUSH2 0x1D JUMPI JUMPDEST CALLDATASIZE PUSH2 0x1324 JUMPI PUSH2 0x1B PUSH2 0x23EF JUMP JUMPDEST STOP JUMPDEST PUSH2 0x28 PUSH1 0x0 CALLDATALOAD PUSH2 0x307 JUMP JUMPDEST DUP1 PUSH4 0x1099885 EQ PUSH2 0x302 JUMPI DUP1 PUSH4 0x3440F37 EQ PUSH2 0x2FD JUMPI DUP1 PUSH4 0xE3A02E2 EQ PUSH2 0x2F8 JUMPI DUP1 PUSH4 0x1A8B43E4 EQ PUSH2 0x2F3 JUMPI DUP1 PUSH4 0x1CBAEE2D EQ PUSH2 0x2EE JUMPI DUP1 PUSH4 0x2146D7FF EQ PUSH2 0x2E9 JUMPI DUP1 PUSH4 0x22B15334 EQ PUSH2 0x2E4 JUMPI DUP1 PUSH4 0x23548B8B EQ PUSH2 0x2DF JUMPI DUP1 PUSH4 0x244C4F10 EQ PUSH2 0x2DA JUMPI DUP1 PUSH4 0x339855FF EQ PUSH2 0x2D5 JUMPI DUP1 PUSH4 0x3C6BB474 EQ PUSH2 0x2D0 JUMPI DUP1 PUSH4 0x3FF2BBC6 EQ PUSH2 0x2CB JUMPI DUP1 PUSH4 0x434800FC EQ PUSH2 0x2C6 JUMPI DUP1 PUSH4 0x4A4A91A8 EQ PUSH2 0x2C1 JUMPI DUP1 PUSH4 0x4D9B4B4F EQ PUSH2 0x2BC JUMPI DUP1 PUSH4 0x4DCE5168 EQ PUSH2 0x2B7 JUMPI DUP1 PUSH4 0x4E6AC059 EQ PUSH2 0x2B2 JUMPI DUP1 PUSH4 0x5E18C330 EQ PUSH2 0x2AD JUMPI DUP1 PUSH4 0x602072FA EQ PUSH2 0x2A8 JUMPI DUP1 PUSH4 0x62ACE63F EQ PUSH2 0x2A3 JUMPI DUP1 PUSH4 0x71B9510D EQ PUSH2 0x29E JUMPI DUP1 PUSH4 0x74C6BD0D EQ PUSH2 0x299 JUMPI DUP1 PUSH4 0x76D8711F EQ PUSH2 0x294 JUMPI DUP1 PUSH4 0x823276C3 EQ PUSH2 0x28F JUMPI DUP1 PUSH4 0x8DA5CB5B EQ PUSH2 0x28A JUMPI DUP1 PUSH4 0x8F78BDCF EQ PUSH2 0x285 JUMPI DUP1 PUSH4 0x90257644 EQ PUSH2 0x280 JUMPI DUP1 PUSH4 0x91AB87EA EQ PUSH2 0x27B JUMPI DUP1 PUSH4 0x9D9DB77D EQ PUSH2 0x276 JUMPI DUP1 PUSH4 0xA0CE460B EQ PUSH2 0x271 JUMPI DUP1 PUSH4 0xA390C97F EQ PUSH2 0x26C JUMPI DUP1 PUSH4 0xA3F4DF7E EQ PUSH2 0x267 JUMPI DUP1 PUSH4 0xA4475CE4 EQ PUSH2 0x262 JUMPI DUP1 PUSH4 0xAE4FDAD9 EQ PUSH2 0x25D JUMPI DUP1 PUSH4 0xB84536AE EQ PUSH2 0x258 JUMPI DUP1 PUSH4 0xB9EC0DDE EQ PUSH2 0x253 JUMPI DUP1 PUSH4 0xBECBB04B EQ PUSH2 0x24E JUMPI DUP1 PUSH4 0xD529A565 EQ PUSH2 0x249 JUMPI DUP1 PUSH4 0xE0DAA8BA EQ PUSH2 0x244 JUMPI DUP1 PUSH4 0xE7F7814E EQ PUSH2 0x23F JUMPI DUP1 PUSH4 0xE8891B7D EQ PUSH2 0x23A JUMPI DUP1 PUSH4 0xED338FF1 EQ PUSH2 0x235 JUMPI DUP1 PUSH4 0xF1E81E07 EQ PUSH2 0x230 JUMPI DUP1 PUSH4 0xF2FDE38B EQ PUSH2 0x22B JUMPI DUP1 PUSH4 0xF8127958 EQ PUSH2 0x226 JUMPI PUSH4 0xFE36F6C9 SUB PUSH2 0xE JUMPI PUSH2 0x12EF JUMP JUMPDEST PUSH2 0x12A0 JUMP JUMPDEST PUSH2 0x126D JUMP JUMPDEST PUSH2 0x1238 JUMP JUMPDEST PUSH2 0x11F3 JUMP JUMPDEST PUSH2 0x119A JUMP JUMPDEST PUSH2 0x1155 JUMP JUMPDEST PUSH2 0x1106 JUMP JUMPDEST PUSH2 0x10C1 JUMP JUMPDEST PUSH2 0x107C JUMP JUMPDEST PUSH2 0x1037 JUMP JUMPDEST PUSH2 0x1002 JUMP JUMPDEST PUSH2 0xFBF JUMP JUMPDEST PUSH2 0xF8A JUMP JUMPDEST PUSH2 0xEE5 JUMP JUMPDEST PUSH2 0xD3A JUMP JUMPDEST PUSH2 0xCF5 JUMP JUMPDEST PUSH2 0xCA6 JUMP JUMPDEST PUSH2 0xC61 JUMP JUMPDEST PUSH2 0xC1C JUMP JUMPDEST PUSH2 0xBD7 JUMP JUMPDEST PUSH2 0xB92 JUMP JUMPDEST PUSH2 0xAFB JUMP JUMPDEST PUSH2 0xAB6 JUMP JUMPDEST PUSH2 0xA67 JUMP JUMPDEST PUSH2 0xA22 JUMP JUMPDEST PUSH2 0x9D5 JUMP JUMPDEST PUSH2 0x9A0 JUMP JUMPDEST PUSH2 0x951 JUMP JUMPDEST PUSH2 0x90C JUMP JUMPDEST PUSH2 0x8C7 JUMP JUMPDEST PUSH2 0x892 JUMP JUMPDEST PUSH2 0x84B JUMP JUMPDEST PUSH2 0x7AB JUMP JUMPDEST PUSH2 0x768 JUMP JUMPDEST PUSH2 0x735 JUMP JUMPDEST PUSH2 0x6FA JUMP JUMPDEST PUSH2 0x6B5 JUMP JUMPDEST PUSH2 0x670 JUMP JUMPDEST PUSH2 0x617 JUMP JUMPDEST PUSH2 0x5BA JUMP JUMPDEST PUSH2 0x56B JUMP JUMPDEST PUSH2 0x512 JUMP JUMPDEST PUSH2 0x4CD JUMP JUMPDEST PUSH2 0x3D5 JUMP JUMPDEST PUSH2 0x390 JUMP JUMPDEST PUSH1 0xE0 SHR SWAP1 JUMP JUMPDEST PUSH1 0x40 MLOAD SWAP1 JUMP JUMPDEST PUSH1 0x0 DUP1 REVERT JUMPDEST PUSH1 0x0 DUP1 REVERT JUMPDEST PUSH1 0x0 SWAP2 SUB SLT PUSH2 0x328 JUMPI JUMP JUMPDEST PUSH2 0x318 JUMP JUMPDEST SHR SWAP1 JUMP JUMPDEST SWAP1 JUMP JUMPDEST PUSH2 0x344 SWAP1 PUSH1 0x8 PUSH2 0x349 SWAP4 MUL PUSH2 0x32D JUMP JUMPDEST PUSH2 0x331 JUMP JUMPDEST SWAP1 JUMP JUMPDEST SWAP1 PUSH2 0x357 SWAP2 SLOAD PUSH2 0x334 JUMP JUMPDEST SWAP1 JUMP JUMPDEST PUSH2 0x367 PUSH1 0x6 PUSH1 0x0 SWAP1 PUSH2 0x34C JUMP JUMPDEST SWAP1 JUMP JUMPDEST SWAP1 JUMP JUMPDEST PUSH2 0x376 SWAP1 PUSH2 0x36A JUMP JUMPDEST SWAP1 MSTORE JUMP JUMPDEST SWAP2 SWAP1 PUSH2 0x38E SWAP1 PUSH1 0x0 PUSH1 0x20 DUP6 ADD SWAP5 ADD SWAP1 PUSH2 0x36D JUMP JUMPDEST JUMP JUMPDEST CALLVALUE PUSH2 0x3C0 JUMPI PUSH2 0x3A0 CALLDATASIZE PUSH1 0x4 PUSH2 0x31D JUMP JUMPDEST PUSH2 0x3BC PUSH2 0x3AB PUSH2 0x35A JUMP JUMPDEST PUSH2 0x3B3 PUSH2 0x30D JUMP JUMPDEST SWAP2 DUP3 SWAP2 DUP3 PUSH2 0x37A JUMP JUMPDEST SUB SWAP1 RETURN JUMPDEST PUSH2 0x313 JUMP JUMPDEST PUSH2 0x3D2 PUSH1 0x3 PUSH1 0x0 SWAP1 PUSH2 0x34C JUMP JUMPDEST SWAP1 JUMP JUMPDEST CALLVALUE PUSH2 0x405 JUMPI PUSH2 0x3E5 CALLDATASIZE PUSH1 0x4 PUSH2 0x31D JUMP JUMPDEST PUSH2 0x401 PUSH2 0x3F0 PUSH2 0x3C5 JUMP JUMPDEST PUSH2 0x3F8 PUSH2 0x30D JUMP JUMPDEST SWAP2 DUP3 SWAP2 DUP3 PUSH2 0x37A JUMP JUMPDEST SUB SWAP1 RETURN JUMPDEST PUSH2 0x313 JUMP JUMPDEST PUSH1 0x1 DUP1 PUSH1 0xA0 SHL SUB AND SWAP1 JUMP JUMPDEST PUSH2 0x41E SWAP1 PUSH2 0x40A JUMP JUMPDEST SWAP1 JUMP JUMPDEST PUSH2 0x42A DUP2 PUSH2 0x415 JUMP JUMPDEST SUB PUSH2 0x431 JUMPI JUMP JUMPDEST PUSH1 0x0 DUP1 REVERT JUMPDEST SWAP1 POP CALLDATALOAD SWAP1 PUSH2 0x443 DUP3 PUSH2 0x421 JUMP JUMPDEST JUMP JUMPDEST SWAP1 PUSH1 0x20 DUP3 DUP3 SUB SLT PUSH2 0x45F JUMPI PUSH2 0x45C SWAP2 PUSH1 0x0 ADD PUSH2 0x436 JUMP JUMPDEST SWAP1 JUMP JUMPDEST PUSH2 0x318 JUMP JUMPDEST SWAP1 JUMP JUMPDEST PUSH2 0x47B PUSH2 0x476 PUSH2 0x480 SWAP3 PUSH2 0x40A JUMP JUMPDEST PUSH2 0x464 JUMP JUMPDEST PUSH2 0x40A JUMP JUMPDEST SWAP1 JUMP JUMPDEST PUSH2 0x48C SWAP1 PUSH2 0x467 JUMP JUMPDEST SWAP1 JUMP JUMPDEST PUSH2 0x498 SWAP1 PUSH2 0x483 JUMP JUMPDEST SWAP1 JUMP JUMPDEST SWAP1 PUSH2 0x4A5 SWAP1 PUSH2 0x48F JUMP JUMPDEST PUSH1 0x0 MSTORE PUSH1 0x20 MSTORE PUSH1 0x40 PUSH1 0x0 KECCAK256 SWAP1 JUMP JUMPDEST PUSH2 0x4CA SWAP1 PUSH2 0x4C5 PUSH1 0x20 SWAP2 PUSH1 0x0 SWAP3 PUSH2 0x49B JUMP JUMPDEST PUSH2 0x34C JUMP JUMPDEST SWAP1 JUMP JUMPDEST CALLVALUE PUSH2 0x4FD JUMPI PUSH2 0x4F9 PUSH2 0x4E8 PUSH2 0x4E3 CALLDATASIZE PUSH1 0x4 PUSH2 0x445 JUMP JUMPDEST PUSH2 0x4B3 JUMP JUMPDEST PUSH2 0x4F0 PUSH2 0x30D JUMP JUMPDEST SWAP2 DUP3 SWAP2 DUP3 PUSH2 0x37A JUMP JUMPDEST SUB SWAP1 RETURN JUMPDEST PUSH2 0x313 JUMP JUMPDEST PUSH2 0x50F PUSH1 0x16 PUSH1 0x0 SWAP1 PUSH2 0x34C JUMP JUMPDEST SWAP1 JUMP JUMPDEST CALLVALUE PUSH2 0x542 JUMPI PUSH2 0x522 CALLDATASIZE PUSH1 0x4 PUSH2 0x31D JUMP JUMPDEST PUSH2 0x53E PUSH2 0x52D PUSH2 0x502 JUMP JUMPDEST PUSH2 0x535 PUSH2 0x30D JUMP JUMPDEST SWAP2 DUP3 SWAP2 DUP3 PUSH2 0x37A JUMP JUMPDEST SUB SWAP1 RETURN JUMPDEST PUSH2 0x313 JUMP JUMPDEST PUSH32 0x0 SWAP1 JUMP JUMPDEST CALLVALUE PUSH2 0x59B JUMPI PUSH2 0x57B CALLDATASIZE PUSH1 0x4 PUSH2 0x31D JUMP JUMPDEST PUSH2 0x597 PUSH2 0x586 PUSH2 0x547 JUMP JUMPDEST PUSH2 0x58E PUSH2 0x30D JUMP JUMPDEST SWAP2 DUP3 SWAP2 DUP3 PUSH2 0x37A JUMP JUMPDEST SUB SWAP1 RETURN JUMPDEST PUSH2 0x313 JUMP JUMPDEST PUSH2 0x5B7 SWAP1 PUSH2 0x5B2 PUSH1 0x21 SWAP2 PUSH1 0x0 SWAP3 PUSH2 0x49B JUMP JUMPDEST PUSH2 0x34C JUMP JUMPDEST SWAP1 JUMP JUMPDEST CALLVALUE PUSH2 0x5EA JUMPI PUSH2 0x5E6 PUSH2 0x5D5 PUSH2 0x5D0 CALLDATASIZE PUSH1 0x4 PUSH2 0x445 JUMP JUMPDEST PUSH2 0x5A0 JUMP JUMPDEST PUSH2 0x5DD PUSH2 0x30D JUMP JUMPDEST SWAP2 DUP3 SWAP2 DUP3 PUSH2 0x37A JUMP JUMPDEST SUB SWAP1 RETURN JUMPDEST PUSH2 0x313 JUMP JUMPDEST ISZERO ISZERO SWAP1 JUMP JUMPDEST PUSH2 0x5FD SWAP1 PUSH2 0x5EF JUMP JUMPDEST SWAP1 MSTORE JUMP JUMPDEST SWAP2 SWAP1 PUSH2 0x615 SWAP1 PUSH1 0x0 PUSH1 0x20 DUP6 ADD SWAP5 ADD SWAP1 PUSH2 0x5F4 JUMP JUMPDEST JUMP JUMPDEST CALLVALUE PUSH2 0x647 JUMPI PUSH2 0x643 PUSH2 0x632 PUSH2 0x62D CALLDATASIZE PUSH1 0x4 PUSH2 0x445 JUMP JUMPDEST PUSH2 0x140A JUMP JUMPDEST PUSH2 0x63A PUSH2 0x30D JUMP JUMPDEST SWAP2 DUP3 SWAP2 DUP3 PUSH2 0x601 JUMP JUMPDEST SUB SWAP1 RETURN JUMPDEST PUSH2 0x313 JUMP JUMPDEST PUSH32 0x0 SWAP1 JUMP JUMPDEST CALLVALUE PUSH2 0x6A0 JUMPI PUSH2 0x680 CALLDATASIZE PUSH1 0x4 PUSH2 0x31D JUMP JUMPDEST PUSH2 0x69C PUSH2 0x68B PUSH2 0x64C JUMP JUMPDEST PUSH2 0x693 PUSH2 0x30D JUMP JUMPDEST SWAP2 DUP3 SWAP2 DUP3 PUSH2 0x37A JUMP JUMPDEST SUB SWAP1 RETURN JUMPDEST PUSH2 0x313 JUMP JUMPDEST PUSH2 0x6B2 PUSH1 0x9 PUSH1 0x0 SWAP1 PUSH2 0x34C JUMP JUMPDEST SWAP1 JUMP JUMPDEST CALLVALUE PUSH2 0x6E5 JUMPI PUSH2 0x6C5 CALLDATASIZE PUSH1 0x4 PUSH2 0x31D JUMP JUMPDEST PUSH2 0x6E1 PUSH2 0x6D0 PUSH2 0x6A5 JUMP JUMPDEST PUSH2 0x6D8 PUSH2 0x30D JUMP JUMPDEST SWAP2 DUP3 SWAP2 DUP3 PUSH2 0x37A JUMP JUMPDEST SUB SWAP1 RETURN JUMPDEST PUSH2 0x313 JUMP JUMPDEST PUSH2 0x6F7 PUSH1 0x1 PUSH1 0x0 SWAP1 PUSH2 0x34C JUMP JUMPDEST SWAP1 JUMP JUMPDEST CALLVALUE PUSH2 0x72A JUMPI PUSH2 0x70A CALLDATASIZE PUSH1 0x4 PUSH2 0x31D JUMP JUMPDEST PUSH2 0x726 PUSH2 0x715 PUSH2 0x6EA JUMP JUMPDEST PUSH2 0x71D PUSH2 0x30D JUMP JUMPDEST SWAP2 DUP3 SWAP2 DUP3 PUSH2 0x37A JUMP JUMPDEST SUB SWAP1 RETURN JUMPDEST PUSH2 0x313 JUMP JUMPDEST PUSH1 0x0 ADD SWAP1 JUMP JUMPDEST CALLVALUE PUSH2 0x763 JUMPI PUSH2 0x74D PUSH2 0x748 CALLDATASIZE PUSH1 0x4 PUSH2 0x445 JUMP JUMPDEST PUSH2 0x16BC JUMP JUMPDEST PUSH2 0x755 PUSH2 0x30D JUMP JUMPDEST DUP1 PUSH2 0x75F DUP2 PUSH2 0x72F JUMP JUMPDEST SUB SWAP1 RETURN JUMPDEST PUSH2 0x313 JUMP JUMPDEST CALLVALUE PUSH2 0x796 JUMPI PUSH2 0x780 PUSH2 0x77B CALLDATASIZE PUSH1 0x4 PUSH2 0x445 JUMP JUMPDEST PUSH2 0x1732 JUMP JUMPDEST PUSH2 0x788 PUSH2 0x30D JUMP JUMPDEST DUP1 PUSH2 0x792 DUP2 PUSH2 0x72F JUMP JUMPDEST SUB SWAP1 RETURN JUMPDEST PUSH2 0x313 JUMP JUMPDEST PUSH2 0x7A8 PUSH1 0x15 PUSH1 0x0 SWAP1 PUSH2 0x34C JUMP JUMPDEST SWAP1 JUMP JUMPDEST CALLVALUE PUSH2 0x7DB JUMPI PUSH2 0x7BB CALLDATASIZE PUSH1 0x4 PUSH2 0x31D JUMP JUMPDEST PUSH2 0x7D7 PUSH2 0x7C6 PUSH2 0x79B JUMP JUMPDEST PUSH2 0x7CE PUSH2 0x30D JUMP JUMPDEST SWAP2 DUP3 SWAP2 DUP3 PUSH2 0x37A JUMP JUMPDEST SUB SWAP1 RETURN JUMPDEST PUSH2 0x313 JUMP JUMPDEST PUSH2 0x7E9 DUP2 PUSH2 0x36A JUMP JUMPDEST SUB PUSH2 0x7F0 JUMPI JUMP JUMPDEST PUSH1 0x0 DUP1 REVERT JUMPDEST SWAP1 POP CALLDATALOAD SWAP1 PUSH2 0x802 DUP3 PUSH2 0x7E0 JUMP JUMPDEST JUMP JUMPDEST PUSH1 0x80 DUP2 DUP4 SUB SLT PUSH2 0x846 JUMPI PUSH2 0x81B DUP3 PUSH1 0x0 DUP4 ADD PUSH2 0x7F5 JUMP JUMPDEST SWAP3 PUSH2 0x843 PUSH2 0x82C DUP5 PUSH1 0x20 DUP6 ADD PUSH2 0x7F5 JUMP JUMPDEST SWAP4 PUSH2 0x83A DUP2 PUSH1 0x40 DUP7 ADD PUSH2 0x7F5 JUMP JUMPDEST SWAP4 PUSH1 0x60 ADD PUSH2 0x7F5 JUMP JUMPDEST SWAP1 JUMP JUMPDEST PUSH2 0x318 JUMP JUMPDEST CALLVALUE PUSH2 0x87D JUMPI PUSH2 0x867 PUSH2 0x85E CALLDATASIZE PUSH1 0x4 PUSH2 0x804 JUMP JUMPDEST SWAP3 SWAP2 SWAP1 SWAP2 PUSH2 0x17FA JUMP JUMPDEST PUSH2 0x86F PUSH2 0x30D JUMP JUMPDEST DUP1 PUSH2 0x879 DUP2 PUSH2 0x72F JUMP JUMPDEST SUB SWAP1 RETURN JUMPDEST PUSH2 0x313 JUMP JUMPDEST PUSH2 0x88F PUSH1 0x13 PUSH1 0x0 SWAP1 PUSH2 0x34C JUMP JUMPDEST SWAP1 JUMP JUMPDEST CALLVALUE PUSH2 0x8C2 JUMPI PUSH2 0x8A2 CALLDATASIZE PUSH1 0x4 PUSH2 0x31D JUMP JUMPDEST PUSH2 0x8BE PUSH2 0x8AD PUSH2 0x882 JUMP JUMPDEST PUSH2 0x8B5 PUSH2 0x30D JUMP JUMPDEST SWAP2 DUP3 SWAP2 DUP3 PUSH2 0x37A JUMP JUMPDEST SUB SWAP1 RETURN JUMPDEST PUSH2 0x313 JUMP JUMPDEST CALLVALUE PUSH2 0x8F7 JUMPI PUSH2 0x8F3 PUSH2 0x8E2 PUSH2 0x8DD CALLDATASIZE PUSH1 0x4 PUSH2 0x445 JUMP JUMPDEST PUSH2 0x1808 JUMP JUMPDEST PUSH2 0x8EA PUSH2 0x30D JUMP JUMPDEST SWAP2 DUP3 SWAP2 DUP3 PUSH2 0x601 JUMP JUMPDEST SUB SWAP1 RETURN JUMPDEST PUSH2 0x313 JUMP JUMPDEST PUSH2 0x909 PUSH1 0x14 PUSH1 0x0 SWAP1 PUSH2 0x34C JUMP JUMPDEST SWAP1 JUMP JUMPDEST CALLVALUE PUSH2 0x93C JUMPI PUSH2 0x91C CALLDATASIZE PUSH1 0x4 PUSH2 0x31D JUMP JUMPDEST PUSH2 0x938 PUSH2 0x927 PUSH2 0x8FC JUMP JUMPDEST PUSH2 0x92F PUSH2 0x30D JUMP JUMPDEST SWAP2 DUP3 SWAP2 DUP3 PUSH2 0x37A JUMP JUMPDEST SUB SWAP1 RETURN JUMPDEST PUSH2 0x313 JUMP JUMPDEST PUSH2 0x94E PUSH1 0xF PUSH1 0x0 SWAP1 PUSH2 0x34C JUMP JUMPDEST SWAP1 JUMP JUMPDEST CALLVALUE PUSH2 0x981 JUMPI PUSH2 0x961 CALLDATASIZE PUSH1 0x4 PUSH2 0x31D JUMP JUMPDEST PUSH2 0x97D PUSH2 0x96C PUSH2 0x941 JUMP JUMPDEST PUSH2 0x974 PUSH2 0x30D JUMP JUMPDEST SWAP2 DUP3 SWAP2 DUP3 PUSH2 0x37A JUMP JUMPDEST SUB SWAP1 RETURN JUMPDEST PUSH2 0x313 JUMP JUMPDEST PUSH2 0x99D SWAP1 PUSH2 0x998 PUSH1 0x23 SWAP2 PUSH1 0x0 SWAP3 PUSH2 0x49B JUMP JUMPDEST PUSH2 0x34C JUMP JUMPDEST SWAP1 JUMP JUMPDEST CALLVALUE PUSH2 0x9D0 JUMPI PUSH2 0x9CC PUSH2 0x9BB PUSH2 0x9B6 CALLDATASIZE PUSH1 0x4 PUSH2 0x445 JUMP JUMPDEST PUSH2 0x986 JUMP JUMPDEST PUSH2 0x9C3 PUSH2 0x30D JUMP JUMPDEST SWAP2 DUP3 SWAP2 DUP3 PUSH2 0x37A JUMP JUMPDEST SUB SWAP1 RETURN JUMPDEST PUSH2 0x313 JUMP JUMPDEST CALLVALUE PUSH2 0xA03 JUMPI PUSH2 0x9ED PUSH2 0x9E8 CALLDATASIZE PUSH1 0x4 PUSH2 0x445 JUMP JUMPDEST PUSH2 0x1918 JUMP JUMPDEST PUSH2 0x9F5 PUSH2 0x30D JUMP JUMPDEST DUP1 PUSH2 0x9FF DUP2 PUSH2 0x72F JUMP JUMPDEST SUB SWAP1 RETURN JUMPDEST PUSH2 0x313 JUMP JUMPDEST PUSH2 0xA1F SWAP1 PUSH2 0xA1A PUSH1 0x1D SWAP2 PUSH1 0x0 SWAP3 PUSH2 0x49B JUMP JUMPDEST PUSH2 0x34C JUMP JUMPDEST SWAP1 JUMP JUMPDEST CALLVALUE PUSH2 0xA52 JUMPI PUSH2 0xA4E PUSH2 0xA3D PUSH2 0xA38 CALLDATASIZE PUSH1 0x4 PUSH2 0x445 JUMP JUMPDEST PUSH2 0xA08 JUMP JUMPDEST PUSH2 0xA45 PUSH2 0x30D JUMP JUMPDEST SWAP2 DUP3 SWAP2 DUP3 PUSH2 0x37A JUMP JUMPDEST SUB SWAP1 RETURN JUMPDEST PUSH2 0x313 JUMP JUMPDEST PUSH2 0xA64 PUSH1 0xE PUSH1 0x0 SWAP1 PUSH2 0x34C JUMP JUMPDEST SWAP1 JUMP JUMPDEST CALLVALUE PUSH2 0xA97 JUMPI PUSH2 0xA77 CALLDATASIZE PUSH1 0x4 PUSH2 0x31D JUMP JUMPDEST PUSH2 0xA93 PUSH2 0xA82 PUSH2 0xA57 JUMP JUMPDEST PUSH2 0xA8A PUSH2 0x30D JUMP JUMPDEST SWAP2 DUP3 SWAP2 DUP3 PUSH2 0x37A JUMP JUMPDEST SUB SWAP1 RETURN JUMPDEST PUSH2 0x313 JUMP JUMPDEST PUSH2 0xAB3 SWAP1 PUSH2 0xAAE PUSH1 0x22 SWAP2 PUSH1 0x0 SWAP3 PUSH2 0x49B JUMP JUMPDEST PUSH2 0x34C JUMP JUMPDEST SWAP1 JUMP JUMPDEST CALLVALUE PUSH2 0xAE6 JUMPI PUSH2 0xAE2 PUSH2 0xAD1 PUSH2 0xACC CALLDATASIZE PUSH1 0x4 PUSH2 0x445 JUMP JUMPDEST PUSH2 0xA9C JUMP JUMPDEST PUSH2 0xAD9 PUSH2 0x30D JUMP JUMPDEST SWAP2 DUP3 SWAP2 DUP3 PUSH2 0x37A JUMP JUMPDEST SUB SWAP1 RETURN JUMPDEST PUSH2 0x313 JUMP JUMPDEST PUSH2 0xAF8 PUSH1 0x8 PUSH1 0x0 SWAP1 PUSH2 0x34C JUMP JUMPDEST SWAP1 JUMP JUMPDEST CALLVALUE PUSH2 0xB2B JUMPI PUSH2 0xB0B CALLDATASIZE PUSH1 0x4 PUSH2 0x31D JUMP JUMPDEST PUSH2 0xB27 PUSH2 0xB16 PUSH2 0xAEB JUMP JUMPDEST PUSH2 0xB1E PUSH2 0x30D JUMP JUMPDEST SWAP2 DUP3 SWAP2 DUP3 PUSH2 0x37A JUMP JUMPDEST SUB SWAP1 RETURN JUMPDEST PUSH2 0x313 JUMP JUMPDEST PUSH1 0x1 DUP1 PUSH1 0xA0 SHL SUB AND SWAP1 JUMP JUMPDEST PUSH2 0xB4B SWAP1 PUSH1 0x8 PUSH2 0xB50 SWAP4 MUL PUSH2 0x32D JUMP JUMPDEST PUSH2 0xB30 JUMP JUMPDEST SWAP1 JUMP JUMPDEST SWAP1 PUSH2 0xB5E SWAP2 SLOAD PUSH2 0xB3B JUMP JUMPDEST SWAP1 JUMP JUMPDEST PUSH2 0xB6C PUSH1 0x0 DUP1 PUSH2 0xB53 JUMP JUMPDEST SWAP1 JUMP JUMPDEST PUSH2 0xB78 SWAP1 PUSH2 0x415 JUMP JUMPDEST SWAP1 MSTORE JUMP JUMPDEST SWAP2 SWAP1 PUSH2 0xB90 SWAP1 PUSH1 0x0 PUSH1 0x20 DUP6 ADD SWAP5 ADD SWAP1 PUSH2 0xB6F JUMP JUMPDEST JUMP JUMPDEST CALLVALUE PUSH2 0xBC2 JUMPI PUSH2 0xBA2 CALLDATASIZE PUSH1 0x4 PUSH2 0x31D JUMP JUMPDEST PUSH2 0xBBE PUSH2 0xBAD PUSH2 0xB61 JUMP JUMPDEST PUSH2 0xBB5 PUSH2 0x30D JUMP JUMPDEST SWAP2 DUP3 SWAP2 DUP3 PUSH2 0xB7C JUMP JUMPDEST SUB SWAP1 RETURN JUMPDEST PUSH2 0x313 JUMP JUMPDEST PUSH2 0xBD4 PUSH1 0x2 PUSH1 0x0 SWAP1 PUSH2 0x34C JUMP JUMPDEST SWAP1 JUMP JUMPDEST CALLVALUE PUSH2 0xC07 JUMPI PUSH2 0xBE7 CALLDATASIZE PUSH1 0x4 PUSH2 0x31D JUMP JUMPDEST PUSH2 0xC03 PUSH2 0xBF2 PUSH2 0xBC7 JUMP JUMPDEST PUSH2 0xBFA PUSH2 0x30D JUMP JUMPDEST SWAP2 DUP3 SWAP2 DUP3 PUSH2 0x37A JUMP JUMPDEST SUB SWAP1 RETURN JUMPDEST PUSH2 0x313 JUMP JUMPDEST PUSH2 0xC19 PUSH1 0x10 PUSH1 0x0 SWAP1 PUSH2 0x34C JUMP JUMPDEST SWAP1 JUMP JUMPDEST CALLVALUE PUSH2 0xC4C JUMPI PUSH2 0xC2C CALLDATASIZE PUSH1 0x4 PUSH2 0x31D JUMP JUMPDEST PUSH2 0xC48 PUSH2 0xC37 PUSH2 0xC0C JUMP JUMPDEST PUSH2 0xC3F PUSH2 0x30D JUMP JUMPDEST SWAP2 DUP3 SWAP2 DUP3 PUSH2 0x37A JUMP JUMPDEST SUB SWAP1 RETURN JUMPDEST PUSH2 0x313 JUMP JUMPDEST PUSH2 0xC5E PUSH1 0x4 PUSH1 0x0 SWAP1 PUSH2 0x34C JUMP JUMPDEST SWAP1 JUMP JUMPDEST CALLVALUE PUSH2 0xC91 JUMPI PUSH2 0xC71 CALLDATASIZE PUSH1 0x4 PUSH2 0x31D JUMP JUMPDEST PUSH2 0xC8D PUSH2 0xC7C PUSH2 0xC51 JUMP JUMPDEST PUSH2 0xC84 PUSH2 0x30D JUMP JUMPDEST SWAP2 DUP3 SWAP2 DUP3 PUSH2 0x37A JUMP JUMPDEST SUB SWAP1 RETURN JUMPDEST PUSH2 0x313 JUMP JUMPDEST PUSH2 0xCA3 PUSH1 0xB PUSH1 0x0 SWAP1 PUSH2 0x34C JUMP JUMPDEST SWAP1 JUMP JUMPDEST CALLVALUE PUSH2 0xCD6 JUMPI PUSH2 0xCB6 CALLDATASIZE PUSH1 0x4 PUSH2 0x31D JUMP JUMPDEST PUSH2 0xCD2 PUSH2 0xCC1 PUSH2 0xC96 JUMP JUMPDEST PUSH2 0xCC9 PUSH2 0x30D JUMP JUMPDEST SWAP2 DUP3 SWAP2 DUP3 PUSH2 0x37A JUMP JUMPDEST SUB SWAP1 RETURN JUMPDEST PUSH2 0x313 JUMP JUMPDEST PUSH2 0xCF2 SWAP1 PUSH2 0xCED PUSH1 0x1E SWAP2 PUSH1 0x0 SWAP3 PUSH2 0x49B JUMP JUMPDEST PUSH2 0x34C JUMP JUMPDEST SWAP1 JUMP JUMPDEST CALLVALUE PUSH2 0xD25 JUMPI PUSH2 0xD21 PUSH2 0xD10 PUSH2 0xD0B CALLDATASIZE PUSH1 0x4 PUSH2 0x445 JUMP JUMPDEST PUSH2 0xCDB JUMP JUMPDEST PUSH2 0xD18 PUSH2 0x30D JUMP JUMPDEST SWAP2 DUP3 SWAP2 DUP3 PUSH2 0x37A JUMP JUMPDEST SUB SWAP1 RETURN JUMPDEST PUSH2 0x313 JUMP JUMPDEST PUSH2 0xD37 PUSH1 0xA PUSH1 0x0 SWAP1 PUSH2 0x34C JUMP JUMPDEST SWAP1 JUMP JUMPDEST CALLVALUE PUSH2 0xD6A JUMPI PUSH2 0xD4A CALLDATASIZE PUSH1 0x4 PUSH2 0x31D JUMP JUMPDEST PUSH2 0xD66 PUSH2 0xD55 PUSH2 0xD2A JUMP JUMPDEST PUSH2 0xD5D PUSH2 0x30D JUMP JUMPDEST SWAP2 DUP3 SWAP2 DUP3 PUSH2 0x37A JUMP JUMPDEST SUB SWAP1 RETURN JUMPDEST PUSH2 0x313 JUMP JUMPDEST PUSH1 0x1F DUP1 NOT SWAP2 ADD AND SWAP1 JUMP JUMPDEST PUSH4 0x4E487B71 PUSH1 0xE0 SHL PUSH1 0x0 MSTORE PUSH1 0x41 PUSH1 0x4 MSTORE PUSH1 0x24 PUSH1 0x0 REVERT JUMPDEST SWAP1 PUSH2 0xD99 SWAP1 PUSH2 0xD6F JUMP JUMPDEST DUP2 ADD SWAP1 DUP2 LT PUSH8 0xFFFFFFFFFFFFFFFF DUP3 GT OR PUSH2 0xDB3 JUMPI PUSH1 0x40 MSTORE JUMP JUMPDEST PUSH2 0xD79 JUMP JUMPDEST SWAP1 PUSH2 0xDCB PUSH2 0xDC4 PUSH2 0x30D JUMP JUMPDEST SWAP3 DUP4 PUSH2 0xD8F JUMP JUMPDEST JUMP JUMPDEST PUSH8 0xFFFFFFFFFFFFFFFF DUP2 GT PUSH2 0xDEB JUMPI PUSH2 0xDE7 PUSH1 0x20 SWAP2 PUSH2 0xD6F JUMP JUMPDEST ADD SWAP1 JUMP JUMPDEST PUSH2 0xD79 JUMP JUMPDEST SWAP1 PUSH2 0xE02 PUSH2 0xDFD DUP4 PUSH2 0xDCD JUMP JUMPDEST PUSH2 0xDB8 JUMP JUMPDEST SWAP2 DUP3 MSTORE JUMP JUMPDEST PUSH1 0x0 PUSH32 0x57654C61756E63682E66756E6473000000000000000000000000000000000000 SWAP2 ADD MSTORE JUMP JUMPDEST PUSH2 0xE39 PUSH1 0xE PUSH2 0xDF0 JUMP JUMPDEST SWAP1 PUSH2 0xE46 PUSH1 0x20 DUP4 ADD PUSH2 0xE07 JUMP JUMPDEST JUMP JUMPDEST PUSH2 0xE50 PUSH2 0xE2F JUMP JUMPDEST SWAP1 JUMP JUMPDEST PUSH2 0xE5B PUSH2 0xE48 JUMP JUMPDEST SWAP1 JUMP JUMPDEST PUSH2 0xE66 PUSH2 0xE53 JUMP JUMPDEST SWAP1 JUMP JUMPDEST MLOAD SWAP1 JUMP JUMPDEST PUSH1 0x20 SWAP2 DUP2 MSTORE ADD SWAP1 JUMP JUMPDEST PUSH1 0x0 JUMPDEST DUP4 DUP2 LT PUSH2 0xE8A JUMPI POP POP SWAP1 PUSH1 0x0 SWAP2 ADD MSTORE JUMP JUMPDEST DUP1 PUSH1 0x20 SWAP2 DUP4 ADD MLOAD DUP2 DUP6 ADD MSTORE ADD PUSH2 0xE79 JUMP JUMPDEST PUSH2 0xEBA PUSH2 0xEC3 PUSH1 0x20 SWAP4 PUSH2 0xEC8 SWAP4 PUSH2 0xEB1 DUP2 PUSH2 0xE69 JUMP JUMPDEST SWAP4 DUP5 DUP1 SWAP4 PUSH2 0xE6D JUMP JUMPDEST SWAP6 DUP7 SWAP2 ADD PUSH2 0xE76 JUMP JUMPDEST PUSH2 0xD6F JUMP JUMPDEST ADD SWAP1 JUMP JUMPDEST PUSH2 0xEE2 SWAP2 PUSH1 0x20 DUP3 ADD SWAP2 PUSH1 0x0 DUP2 DUP5 SUB SWAP2 ADD MSTORE PUSH2 0xE9B JUMP JUMPDEST SWAP1 JUMP JUMPDEST CALLVALUE PUSH2 0xF15 JUMPI PUSH2 0xEF5 CALLDATASIZE PUSH1 0x4 PUSH2 0x31D JUMP JUMPDEST PUSH2 0xF11 PUSH2 0xF00 PUSH2 0xE5E JUMP JUMPDEST PUSH2 0xF08 PUSH2 0x30D JUMP JUMPDEST SWAP2 DUP3 SWAP2 DUP3 PUSH2 0xECC JUMP JUMPDEST SUB SWAP1 RETURN JUMPDEST PUSH2 0x313 JUMP JUMPDEST PUSH1 0x1 DUP1 PUSH1 0xA0 SHL SUB AND SWAP1 JUMP JUMPDEST PUSH2 0xF35 SWAP1 PUSH1 0x8 PUSH2 0xF3A SWAP4 MUL PUSH2 0x32D JUMP JUMPDEST PUSH2 0xF1A JUMP JUMPDEST SWAP1 JUMP JUMPDEST SWAP1 PUSH2 0xF48 SWAP2 SLOAD PUSH2 0xF25 JUMP JUMPDEST SWAP1 JUMP JUMPDEST PUSH2 0xF58 PUSH1 0x7 PUSH1 0x0 SWAP1 PUSH2 0xF3D JUMP JUMPDEST SWAP1 JUMP JUMPDEST PUSH2 0xF64 SWAP1 PUSH2 0x40A JUMP JUMPDEST SWAP1 JUMP JUMPDEST PUSH2 0xF70 SWAP1 PUSH2 0xF5B JUMP JUMPDEST SWAP1 MSTORE JUMP JUMPDEST SWAP2 SWAP1 PUSH2 0xF88 SWAP1 PUSH1 0x0 PUSH1 0x20 DUP6 ADD SWAP5 ADD SWAP1 PUSH2 0xF67 JUMP JUMPDEST JUMP JUMPDEST CALLVALUE PUSH2 0xFBA JUMPI PUSH2 0xF9A CALLDATASIZE PUSH1 0x4 PUSH2 0x31D JUMP JUMPDEST PUSH2 0xFB6 PUSH2 0xFA5 PUSH2 0xF4B JUMP JUMPDEST PUSH2 0xFAD PUSH2 0x30D JUMP JUMPDEST SWAP2 DUP3 SWAP2 DUP3 PUSH2 0xF74 JUMP JUMPDEST SUB SWAP1 RETURN JUMPDEST PUSH2 0x313 JUMP JUMPDEST CALLVALUE PUSH2 0xFED JUMPI PUSH2 0xFD7 PUSH2 0xFD2 CALLDATASIZE PUSH1 0x4 PUSH2 0x445 JUMP JUMPDEST PUSH2 0x198E JUMP JUMPDEST PUSH2 0xFDF PUSH2 0x30D JUMP JUMPDEST DUP1 PUSH2 0xFE9 DUP2 PUSH2 0x72F JUMP JUMPDEST SUB SWAP1 RETURN JUMPDEST PUSH2 0x313 JUMP JUMPDEST PUSH2 0xFFF PUSH1 0x5 PUSH1 0x0 SWAP1 PUSH2 0x34C JUMP JUMPDEST SWAP1 JUMP JUMPDEST CALLVALUE PUSH2 0x1032 JUMPI PUSH2 0x1012 CALLDATASIZE PUSH1 0x4 PUSH2 0x31D JUMP JUMPDEST PUSH2 0x102E PUSH2 0x101D PUSH2 0xFF2 JUMP JUMPDEST PUSH2 0x1025 PUSH2 0x30D JUMP JUMPDEST SWAP2 DUP3 SWAP2 DUP3 PUSH2 0x37A JUMP JUMPDEST SUB SWAP1 RETURN JUMPDEST PUSH2 0x313 JUMP JUMPDEST CALLVALUE PUSH2 0x1067 JUMPI PUSH2 0x1063 PUSH2 0x1052 PUSH2 0x104D CALLDATASIZE PUSH1 0x4 PUSH2 0x445 JUMP JUMPDEST PUSH2 0x1999 JUMP JUMPDEST PUSH2 0x105A PUSH2 0x30D JUMP JUMPDEST SWAP2 DUP3 SWAP2 DUP3 PUSH2 0x601 JUMP JUMPDEST SUB SWAP1 RETURN JUMPDEST PUSH2 0x313 JUMP JUMPDEST PUSH2 0x1079 PUSH1 0x12 PUSH1 0x0 SWAP1 PUSH2 0x34C JUMP JUMPDEST SWAP1 JUMP JUMPDEST CALLVALUE PUSH2 0x10AC JUMPI PUSH2 0x108C CALLDATASIZE PUSH1 0x4 PUSH2 0x31D JUMP JUMPDEST PUSH2 0x10A8 PUSH2 0x1097 PUSH2 0x106C JUMP JUMPDEST PUSH2 0x109F PUSH2 0x30D JUMP JUMPDEST SWAP2 DUP3 SWAP2 DUP3 PUSH2 0x37A JUMP JUMPDEST SUB SWAP1 RETURN JUMPDEST PUSH2 0x313 JUMP JUMPDEST PUSH2 0x10BE PUSH1 0x17 PUSH1 0x0 SWAP1 PUSH2 0x34C JUMP JUMPDEST SWAP1 JUMP JUMPDEST CALLVALUE PUSH2 0x10F1 JUMPI PUSH2 0x10D1 CALLDATASIZE PUSH1 0x4 PUSH2 0x31D JUMP JUMPDEST PUSH2 0x10ED PUSH2 0x10DC PUSH2 0x10B1 JUMP JUMPDEST PUSH2 0x10E4 PUSH2 0x30D JUMP JUMPDEST SWAP2 DUP3 SWAP2 DUP3 PUSH2 0x37A JUMP JUMPDEST SUB SWAP1 RETURN JUMPDEST PUSH2 0x313 JUMP JUMPDEST PUSH2 0x1103 PUSH1 0xC PUSH1 0x0 SWAP1 PUSH2 0x34C JUMP JUMPDEST SWAP1 JUMP JUMPDEST CALLVALUE PUSH2 0x1136 JUMPI PUSH2 0x1116 CALLDATASIZE PUSH1 0x4 PUSH2 0x31D JUMP JUMPDEST PUSH2 0x1132 PUSH2 0x1121 PUSH2 0x10F6 JUMP JUMPDEST PUSH2 0x1129 PUSH2 0x30D JUMP JUMPDEST SWAP2 DUP3 SWAP2 DUP3 PUSH2 0x37A JUMP JUMPDEST SUB SWAP1 RETURN JUMPDEST PUSH2 0x313 JUMP JUMPDEST PUSH2 0x1152 SWAP1 PUSH2 0x114D PUSH1 0x1F SWAP2 PUSH1 0x0 SWAP3 PUSH2 0x49B JUMP JUMPDEST PUSH2 0x34C JUMP JUMPDEST SWAP1 JUMP JUMPDEST CALLVALUE PUSH2 0x1185 JUMPI PUSH2 0x1181 PUSH2 0x1170 PUSH2 0x116B CALLDATASIZE PUSH1 0x4 PUSH2 0x445 JUMP JUMPDEST PUSH2 0x113B JUMP JUMPDEST PUSH2 0x1178 PUSH2 0x30D JUMP JUMPDEST SWAP2 DUP3 SWAP2 DUP3 PUSH2 0x37A JUMP JUMPDEST SUB SWAP1 RETURN JUMPDEST PUSH2 0x313 JUMP JUMPDEST PUSH2 0x1197 PUSH1 0x11 PUSH1 0x0 SWAP1 PUSH2 0x34C JUMP JUMPDEST SWAP1 JUMP JUMPDEST CALLVALUE PUSH2 0x11CA JUMPI PUSH2 0x11AA CALLDATASIZE PUSH1 0x4 PUSH2 0x31D JUMP JUMPDEST PUSH2 0x11C6 PUSH2 0x11B5 PUSH2 0x118A JUMP JUMPDEST PUSH2 0x11BD PUSH2 0x30D JUMP JUMPDEST SWAP2 DUP3 SWAP2 DUP3 PUSH2 0x37A JUMP JUMPDEST SUB SWAP1 RETURN JUMPDEST PUSH2 0x313 JUMP JUMPDEST PUSH32 0x0 SWAP1 JUMP JUMPDEST CALLVALUE PUSH2 0x1223 JUMPI PUSH2 0x1203 CALLDATASIZE PUSH1 0x4 PUSH2 0x31D JUMP JUMPDEST PUSH2 0x121F PUSH2 0x120E PUSH2 0x11CF JUMP JUMPDEST PUSH2 0x1216 PUSH2 0x30D JUMP JUMPDEST SWAP2 DUP3 SWAP2 DUP3 PUSH2 0x37A JUMP JUMPDEST SUB SWAP1 RETURN JUMPDEST PUSH2 0x313 JUMP JUMPDEST PUSH2 0x1235 PUSH1 0xD PUSH1 0x0 SWAP1 PUSH2 0x34C JUMP JUMPDEST SWAP1 JUMP JUMPDEST CALLVALUE PUSH2 0x1268 JUMPI PUSH2 0x1248 CALLDATASIZE PUSH1 0x4 PUSH2 0x31D JUMP JUMPDEST PUSH2 0x1264 PUSH2 0x1253 PUSH2 0x1228 JUMP JUMPDEST PUSH2 0x125B PUSH2 0x30D JUMP JUMPDEST SWAP2 DUP3 SWAP2 DUP3 PUSH2 0x37A JUMP JUMPDEST SUB SWAP1 RETURN JUMPDEST PUSH2 0x313 JUMP JUMPDEST CALLVALUE PUSH2 0x129B JUMPI PUSH2 0x1285 PUSH2 0x1280 CALLDATASIZE PUSH1 0x4 PUSH2 0x445 JUMP JUMPDEST PUSH2 0x1B30 JUMP JUMPDEST PUSH2 0x128D PUSH2 0x30D JUMP JUMPDEST DUP1 PUSH2 0x1297 DUP2 PUSH2 0x72F JUMP JUMPDEST SUB SWAP1 RETURN JUMPDEST PUSH2 0x313 JUMP JUMPDEST CALLVALUE PUSH2 0x12D0 JUMPI PUSH2 0x12CC PUSH2 0x12BB PUSH2 0x12B6 CALLDATASIZE PUSH1 0x4 PUSH2 0x445 JUMP JUMPDEST PUSH2 0x1B3B JUMP JUMPDEST PUSH2 0x12C3 PUSH2 0x30D JUMP JUMPDEST SWAP2 DUP3 SWAP2 DUP3 PUSH2 0x601 JUMP JUMPDEST SUB SWAP1 RETURN JUMPDEST PUSH2 0x313 JUMP JUMPDEST PUSH2 0x12EC SWAP1 PUSH2 0x12E7 PUSH1 0x1C SWAP2 PUSH1 0x0 SWAP3 PUSH2 0x49B JUMP JUMPDEST PUSH2 0x34C JUMP JUMPDEST SWAP1 JUMP JUMPDEST CALLVALUE PUSH2 0x131F JUMPI PUSH2 0x131B PUSH2 0x130A PUSH2 0x1305 CALLDATASIZE PUSH1 0x4 PUSH2 0x445 JUMP JUMPDEST PUSH2 0x12D5 JUMP JUMPDEST PUSH2 0x1312 PUSH2 0x30D JUMP JUMPDEST SWAP2 DUP3 SWAP2 DUP3 PUSH2 0x37A JUMP JUMPDEST SUB SWAP1 RETURN JUMPDEST PUSH2 0x313 JUMP JUMPDEST PUSH1 0x0 DUP1 REVERT JUMPDEST PUSH1 0x0 SWAP1 JUMP JUMPDEST PUSH1 0x0 SWAP1 JUMP JUMPDEST SLOAD SWAP1 JUMP JUMPDEST SWAP1 JUMP JUMPDEST PUSH2 0x134E PUSH2 0x1349 PUSH2 0x1353 SWAP3 PUSH2 0x1337 JUMP JUMPDEST PUSH2 0x464 JUMP JUMPDEST PUSH2 0x36A JUMP JUMPDEST SWAP1 JUMP JUMPDEST PUSH1 0x1 PUSH2 0x1362 SWAP2 ADD PUSH2 0x36A JUMP JUMPDEST SWAP1 JUMP JUMPDEST PUSH4 0x4E487B71 PUSH1 0xE0 SHL PUSH1 0x0 MSTORE PUSH1 0x32 PUSH1 0x4 MSTORE PUSH1 0x24 PUSH1 0x0 REVERT JUMPDEST PUSH1 0x0 MSTORE PUSH1 0x20 PUSH1 0x0 KECCAK256 SWAP1 JUMP JUMPDEST PUSH2 0x138F DUP2 PUSH2 0x1333 JUMP JUMPDEST DUP3 LT ISZERO PUSH2 0x13AA JUMPI PUSH2 0x13A1 PUSH1 0x1 SWAP2 PUSH2 0x137B JUMP JUMPDEST SWAP2 MUL ADD SWAP1 PUSH1 0x0 SWAP1 JUMP JUMPDEST PUSH2 0x1365 JUMP JUMPDEST PUSH1 0x0 PUSH32 0x41646472657373206E6F7420666F756E64000000000000000000000000000000 SWAP2 ADD MSTORE JUMP JUMPDEST PUSH2 0x13E4 PUSH1 0x11 PUSH1 0x20 SWAP3 PUSH2 0xE6D JUMP JUMPDEST PUSH2 0x13ED DUP2 PUSH2 0x13AF JUMP JUMPDEST ADD SWAP1 JUMP JUMPDEST PUSH2 0x1407 SWAP1 PUSH1 0x20 DUP2 ADD SWAP1 PUSH1 0x0 DUP2 DUP4 SUB SWAP2 ADD MSTORE PUSH2 0x13D7 JUMP JUMPDEST SWAP1 JUMP JUMPDEST PUSH2 0x1412 PUSH2 0x1329 JUMP JUMPDEST POP PUSH2 0x141B PUSH2 0x132E JUMP JUMPDEST POP PUSH2 0x1426 PUSH1 0x1A PUSH2 0x1333 JUMP JUMPDEST SWAP1 PUSH2 0x1431 PUSH1 0x0 PUSH2 0x133A JUMP JUMPDEST JUMPDEST DUP1 PUSH2 0x1445 PUSH2 0x143F DUP6 PUSH2 0x36A JUMP JUMPDEST SWAP2 PUSH2 0x36A JUMP JUMPDEST LT ISZERO PUSH2 0x148D JUMPI PUSH2 0x1460 PUSH2 0x145A PUSH1 0x1A DUP4 SWAP1 PUSH2 0x1386 JUMP JUMPDEST SWAP1 PUSH2 0xB53 JUMP JUMPDEST PUSH2 0x1472 PUSH2 0x146C DUP5 PUSH2 0x415 JUMP JUMPDEST SWAP2 PUSH2 0x415 JUMP JUMPDEST EQ PUSH2 0x1485 JUMPI PUSH2 0x1480 SWAP1 PUSH2 0x1356 JUMP JUMPDEST PUSH2 0x1432 JUMP JUMPDEST POP POP POP PUSH1 0x1 SWAP1 JUMP JUMPDEST PUSH2 0x1495 PUSH2 0x30D JUMP JUMPDEST PUSH3 0x461BCD PUSH1 0xE5 SHL DUP2 MSTORE DUP1 PUSH2 0x14AB PUSH1 0x4 DUP3 ADD PUSH2 0x13F1 JUMP JUMPDEST SUB SWAP1 REVERT JUMPDEST PUSH1 0x0 SHR SWAP1 JUMP JUMPDEST PUSH2 0x14C1 PUSH2 0x14C6 SWAP2 PUSH2 0x14AF JUMP JUMPDEST PUSH2 0xB30 JUMP JUMPDEST SWAP1 JUMP JUMPDEST PUSH2 0x14D3 SWAP1 SLOAD PUSH2 0x14B5 JUMP JUMPDEST SWAP1 JUMP JUMPDEST ISZERO PUSH2 0x14DD JUMPI JUMP JUMPDEST PUSH1 0x0 DUP1 REVERT JUMPDEST PUSH2 0x1510 SWAP1 PUSH2 0x150B CALLER PUSH2 0x1505 PUSH2 0x14FF PUSH2 0x14FA PUSH1 0x0 PUSH2 0x14C9 JUMP JUMPDEST PUSH2 0x415 JUMP JUMPDEST SWAP2 PUSH2 0x415 JUMP JUMPDEST EQ PUSH2 0x14D6 JUMP JUMPDEST PUSH2 0x1681 JUMP JUMPDEST JUMP JUMPDEST PUSH2 0x1526 PUSH2 0x1521 PUSH2 0x152B SWAP3 PUSH2 0x1337 JUMP JUMPDEST PUSH2 0x464 JUMP JUMPDEST PUSH2 0x40A JUMP JUMPDEST SWAP1 JUMP JUMPDEST PUSH2 0x1537 SWAP1 PUSH2 0x1512 JUMP JUMPDEST SWAP1 JUMP JUMPDEST PUSH1 0x0 PUSH32 0x496E76616C696420616464726573730000000000000000000000000000000000 SWAP2 ADD MSTORE JUMP JUMPDEST PUSH2 0x156F PUSH1 0xF PUSH1 0x20 SWAP3 PUSH2 0xE6D JUMP JUMPDEST PUSH2 0x1578 DUP2 PUSH2 0x153A JUMP JUMPDEST ADD SWAP1 JUMP JUMPDEST PUSH2 0x1592 SWAP1 PUSH1 0x20 DUP2 ADD SWAP1 PUSH1 0x0 DUP2 DUP4 SUB SWAP2 ADD MSTORE PUSH2 0x1562 JUMP JUMPDEST SWAP1 JUMP JUMPDEST ISZERO PUSH2 0x159C JUMPI JUMP JUMPDEST PUSH2 0x15A4 PUSH2 0x30D JUMP JUMPDEST PUSH3 0x461BCD PUSH1 0xE5 SHL DUP2 MSTORE DUP1 PUSH2 0x15BA PUSH1 0x4 DUP3 ADD PUSH2 0x157C JUMP JUMPDEST SUB SWAP1 REVERT JUMPDEST SWAP1 JUMP JUMPDEST PUSH1 0x0 MSTORE PUSH1 0x20 PUSH1 0x0 KECCAK256 SWAP1 JUMP JUMPDEST SLOAD SWAP1 JUMP JUMPDEST PUSH2 0x15D9 DUP2 PUSH2 0x15CC JUMP JUMPDEST DUP3 LT ISZERO PUSH2 0x15F4 JUMPI PUSH2 0x15EB PUSH1 0x1 SWAP2 PUSH2 0x15C1 JUMP JUMPDEST SWAP2 MUL ADD SWAP1 PUSH1 0x0 SWAP1 JUMP JUMPDEST PUSH2 0x1365 JUMP JUMPDEST SHL SWAP1 JUMP JUMPDEST SWAP2 SWAP1 PUSH1 0x8 PUSH2 0x161D SWAP2 MUL SWAP2 PUSH2 0x1617 PUSH1 0x1 DUP1 PUSH1 0xA0 SHL SUB DUP5 PUSH2 0x15F9 JUMP JUMPDEST SWAP3 PUSH2 0x15F9 JUMP JUMPDEST SWAP2 DUP2 NOT AND SWAP2 AND OR SWAP1 JUMP JUMPDEST SWAP1 JUMP JUMPDEST SWAP2 SWAP1 PUSH2 0x1640 PUSH2 0x163B PUSH2 0x1648 SWAP4 PUSH2 0x48F JUMP JUMPDEST PUSH2 0x1627 JUMP JUMPDEST SWAP1 DUP4 SLOAD PUSH2 0x15FD JUMP JUMPDEST SWAP1 SSTORE JUMP JUMPDEST SWAP1 DUP2 SLOAD SWAP2 PUSH9 0x10000000000000000 DUP4 LT ISZERO PUSH2 0x167C JUMPI DUP3 PUSH2 0x1674 SWAP2 PUSH1 0x1 PUSH2 0x167A SWAP6 ADD DUP2 SSTORE PUSH2 0x15D0 JUMP JUMPDEST SWAP1 PUSH2 0x162A JUMP JUMPDEST JUMP JUMPDEST PUSH2 0xD79 JUMP JUMPDEST PUSH2 0x16BA SWAP1 PUSH2 0x16AB DUP2 PUSH2 0x16A4 PUSH2 0x169E PUSH2 0x1699 PUSH1 0x0 PUSH2 0x152E JUMP JUMPDEST PUSH2 0x415 JUMP JUMPDEST SWAP2 PUSH2 0x415 JUMP JUMPDEST EQ ISZERO PUSH2 0x1595 JUMP JUMPDEST PUSH2 0x16B5 PUSH1 0x1A PUSH2 0x15BE JUMP JUMPDEST PUSH2 0x164C JUMP JUMPDEST JUMP JUMPDEST PUSH2 0x16C5 SWAP1 PUSH2 0x14E2 JUMP JUMPDEST JUMP JUMPDEST PUSH2 0x16F5 SWAP1 PUSH2 0x16F0 CALLER PUSH2 0x16EA PUSH2 0x16E4 PUSH2 0x16DF PUSH1 0x0 PUSH2 0x14C9 JUMP JUMPDEST PUSH2 0x415 JUMP JUMPDEST SWAP2 PUSH2 0x415 JUMP JUMPDEST EQ PUSH2 0x14D6 JUMP JUMPDEST PUSH2 0x16F7 JUMP JUMPDEST JUMP JUMPDEST PUSH2 0x1730 SWAP1 PUSH2 0x1721 DUP2 PUSH2 0x171A PUSH2 0x1714 PUSH2 0x170F PUSH1 0x0 PUSH2 0x152E JUMP JUMPDEST PUSH2 0x415 JUMP JUMPDEST SWAP2 PUSH2 0x415 JUMP JUMPDEST EQ ISZERO PUSH2 0x1595 JUMP JUMPDEST PUSH2 0x172B PUSH1 0x1B PUSH2 0x15BE JUMP JUMPDEST PUSH2 0x164C JUMP JUMPDEST JUMP JUMPDEST PUSH2 0x173B SWAP1 PUSH2 0x16C7 JUMP JUMPDEST JUMP JUMPDEST SWAP1 PUSH2 0x176E SWAP4 SWAP3 SWAP2 PUSH2 0x1769 CALLER PUSH2 0x1763 PUSH2 0x175D PUSH2 0x1758 PUSH1 0x0 PUSH2 0x14C9 JUMP JUMPDEST PUSH2 0x415 JUMP JUMPDEST SWAP2 PUSH2 0x415 JUMP JUMPDEST EQ PUSH2 0x14D6 JUMP JUMPDEST PUSH2 0x17CC JUMP JUMPDEST JUMP JUMPDEST PUSH1 0x0 SHL SWAP1 JUMP JUMPDEST SWAP1 PUSH2 0x1783 PUSH1 0x0 NOT SWAP2 PUSH2 0x1770 JUMP JUMPDEST SWAP2 DUP2 NOT AND SWAP2 AND OR SWAP1 JUMP JUMPDEST PUSH2 0x17A1 PUSH2 0x179C PUSH2 0x17A6 SWAP3 PUSH2 0x36A JUMP JUMPDEST PUSH2 0x464 JUMP JUMPDEST PUSH2 0x36A JUMP JUMPDEST SWAP1 JUMP JUMPDEST SWAP1 JUMP JUMPDEST SWAP1 PUSH2 0x17C1 PUSH2 0x17BC PUSH2 0x17C8 SWAP3 PUSH2 0x178D JUMP JUMPDEST PUSH2 0x17A9 JUMP JUMPDEST DUP3 SLOAD PUSH2 0x1776 JUMP JUMPDEST SWAP1 SSTORE JUMP JUMPDEST SWAP2 PUSH2 0x17EA PUSH2 0x17F1 SWAP3 PUSH2 0x17E3 PUSH2 0x17F8 SWAP7 SWAP6 PUSH1 0x8 PUSH2 0x17AC JUMP JUMPDEST PUSH1 0x9 PUSH2 0x17AC JUMP JUMPDEST PUSH1 0xA PUSH2 0x17AC JUMP JUMPDEST PUSH1 0xB PUSH2 0x17AC JUMP JUMPDEST JUMP JUMPDEST SWAP1 PUSH2 0x1806 SWAP4 SWAP3 SWAP2 PUSH2 0x173D JUMP JUMPDEST JUMP JUMPDEST PUSH2 0x1810 PUSH2 0x1329 JUMP JUMPDEST POP PUSH2 0x1819 PUSH2 0x132E JUMP JUMPDEST POP PUSH2 0x1824 PUSH1 0x18 PUSH2 0x1333 JUMP JUMPDEST SWAP1 PUSH2 0x182F PUSH1 0x0 PUSH2 0x133A JUMP JUMPDEST JUMPDEST DUP1 PUSH2 0x1843 PUSH2 0x183D DUP6 PUSH2 0x36A JUMP JUMPDEST SWAP2 PUSH2 0x36A JUMP JUMPDEST LT ISZERO PUSH2 0x188B JUMPI PUSH2 0x185E PUSH2 0x1858 PUSH1 0x18 DUP4 SWAP1 PUSH2 0x1386 JUMP JUMPDEST SWAP1 PUSH2 0xB53 JUMP JUMPDEST PUSH2 0x1870 PUSH2 0x186A DUP5 PUSH2 0x415 JUMP JUMPDEST SWAP2 PUSH2 0x415 JUMP JUMPDEST EQ PUSH2 0x1883 JUMPI PUSH2 0x187E SWAP1 PUSH2 0x1356 JUMP JUMPDEST PUSH2 0x1830 JUMP JUMPDEST POP POP POP PUSH1 0x1 SWAP1 JUMP JUMPDEST PUSH2 0x1893 PUSH2 0x30D JUMP JUMPDEST PUSH3 0x461BCD PUSH1 0xE5 SHL DUP2 MSTORE DUP1 PUSH2 0x18A9 PUSH1 0x4 DUP3 ADD PUSH2 0x13F1 JUMP JUMPDEST SUB SWAP1 REVERT JUMPDEST PUSH2 0x18DB SWAP1 PUSH2 0x18D6 CALLER PUSH2 0x18D0 PUSH2 0x18CA PUSH2 0x18C5 PUSH1 0x0 PUSH2 0x14C9 JUMP JUMPDEST PUSH2 0x415 JUMP JUMPDEST SWAP2 PUSH2 0x415 JUMP JUMPDEST EQ PUSH2 0x14D6 JUMP JUMPDEST PUSH2 0x18DD JUMP JUMPDEST JUMP JUMPDEST PUSH2 0x1916 SWAP1 PUSH2 0x1907 DUP2 PUSH2 0x1900 PUSH2 0x18FA PUSH2 0x18F5 PUSH1 0x0 PUSH2 0x152E JUMP JUMPDEST PUSH2 0x415 JUMP JUMPDEST SWAP2 PUSH2 0x415 JUMP JUMPDEST EQ ISZERO PUSH2 0x1595 JUMP JUMPDEST PUSH2 0x1911 PUSH1 0x18 PUSH2 0x15BE JUMP JUMPDEST PUSH2 0x164C JUMP JUMPDEST JUMP JUMPDEST PUSH2 0x1921 SWAP1 PUSH2 0x18AD JUMP JUMPDEST JUMP JUMPDEST PUSH2 0x1951 SWAP1 PUSH2 0x194C CALLER PUSH2 0x1946 PUSH2 0x1940 PUSH2 0x193B PUSH1 0x0 PUSH2 0x14C9 JUMP JUMPDEST PUSH2 0x415 JUMP JUMPDEST SWAP2 PUSH2 0x415 JUMP JUMPDEST EQ PUSH2 0x14D6 JUMP JUMPDEST PUSH2 0x1953 JUMP JUMPDEST JUMP JUMPDEST PUSH2 0x198C SWAP1 PUSH2 0x197D DUP2 PUSH2 0x1976 PUSH2 0x1970 PUSH2 0x196B PUSH1 0x0 PUSH2 0x152E JUMP JUMPDEST PUSH2 0x415 JUMP JUMPDEST SWAP2 PUSH2 0x415 JUMP JUMPDEST EQ ISZERO PUSH2 0x1595 JUMP JUMPDEST PUSH2 0x1987 PUSH1 0x19 PUSH2 0x15BE JUMP JUMPDEST PUSH2 0x164C JUMP JUMPDEST JUMP JUMPDEST PUSH2 0x1997 SWAP1 PUSH2 0x1923 JUMP JUMPDEST JUMP JUMPDEST PUSH2 0x19A1 PUSH2 0x1329 JUMP JUMPDEST POP PUSH2 0x19AA PUSH2 0x132E JUMP JUMPDEST POP PUSH2 0x19B5 PUSH1 0x19 PUSH2 0x1333 JUMP JUMPDEST SWAP1 PUSH2 0x19C0 PUSH1 0x0 PUSH2 0x133A JUMP JUMPDEST JUMPDEST DUP1 PUSH2 0x19D4 PUSH2 0x19CE DUP6 PUSH2 0x36A JUMP JUMPDEST SWAP2 PUSH2 0x36A JUMP JUMPDEST LT ISZERO PUSH2 0x1A1C JUMPI PUSH2 0x19EF PUSH2 0x19E9 PUSH1 0x19 DUP4 SWAP1 PUSH2 0x1386 JUMP JUMPDEST SWAP1 PUSH2 0xB53 JUMP JUMPDEST PUSH2 0x1A01 PUSH2 0x19FB DUP5 PUSH2 0x415 JUMP JUMPDEST SWAP2 PUSH2 0x415 JUMP JUMPDEST EQ PUSH2 0x1A14 JUMPI PUSH2 0x1A0F SWAP1 PUSH2 0x1356 JUMP JUMPDEST PUSH2 0x19C1 JUMP JUMPDEST POP POP POP PUSH1 0x1 SWAP1 JUMP JUMPDEST PUSH2 0x1A24 PUSH2 0x30D JUMP JUMPDEST PUSH3 0x461BCD PUSH1 0xE5 SHL DUP2 MSTORE DUP1 PUSH2 0x1A3A PUSH1 0x4 DUP3 ADD PUSH2 0x13F1 JUMP JUMPDEST SUB SWAP1 REVERT JUMPDEST PUSH2 0x1A6C SWAP1 PUSH2 0x1A67 CALLER PUSH2 0x1A61 PUSH2 0x1A5B PUSH2 0x1A56 PUSH1 0x0 PUSH2 0x14C9 JUMP JUMPDEST PUSH2 0x415 JUMP JUMPDEST SWAP2 PUSH2 0x415 JUMP JUMPDEST EQ PUSH2 0x14D6 JUMP JUMPDEST PUSH2 0x1AA9 JUMP JUMPDEST JUMP JUMPDEST SWAP1 PUSH2 0x1A7F PUSH1 0x1 DUP1 PUSH1 0xA0 SHL SUB SWAP2 PUSH2 0x1770 JUMP JUMPDEST SWAP2 DUP2 NOT AND SWAP2 AND OR SWAP1 JUMP JUMPDEST SWAP1 PUSH2 0x1A9E PUSH2 0x1A99 PUSH2 0x1AA5 SWAP3 PUSH2 0x48F JUMP JUMPDEST PUSH2 0x1627 JUMP JUMPDEST DUP3 SLOAD PUSH2 0x1A6E JUMP JUMPDEST SWAP1 SSTORE JUMP JUMPDEST PUSH2 0x1B2E SWAP1 PUSH2 0x1AD3 DUP2 PUSH2 0x1ACC PUSH2 0x1AC6 PUSH2 0x1AC1 PUSH1 0x0 PUSH2 0x152E JUMP JUMPDEST PUSH2 0x415 JUMP JUMPDEST SWAP2 PUSH2 0x415 JUMP JUMPDEST EQ ISZERO PUSH2 0x14D6 JUMP JUMPDEST PUSH2 0x1ADD PUSH1 0x0 PUSH2 0x14C9 JUMP JUMPDEST DUP2 PUSH2 0x1B11 PUSH2 0x1B0B PUSH32 0x8BE0079C531659141344CD1FD0A4F28419497F9722A3DAAFE3B4186F6B6457E0 SWAP4 PUSH2 0x48F JUMP JUMPDEST SWAP2 PUSH2 0x48F JUMP JUMPDEST SWAP2 PUSH2 0x1B1A PUSH2 0x30D JUMP JUMPDEST DUP1 PUSH2 0x1B24 DUP2 PUSH2 0x72F JUMP JUMPDEST SUB SWAP1 LOG3 PUSH1 0x0 PUSH2 0x1A89 JUMP JUMPDEST JUMP JUMPDEST PUSH2 0x1B39 SWAP1 PUSH2 0x1A3E JUMP JUMPDEST JUMP JUMPDEST PUSH2 0x1B43 PUSH2 0x1329 JUMP JUMPDEST POP PUSH2 0x1B4C PUSH2 0x132E JUMP JUMPDEST POP PUSH2 0x1B57 PUSH1 0x1B PUSH2 0x1333 JUMP JUMPDEST SWAP1 PUSH2 0x1B62 PUSH1 0x0 PUSH2 0x133A JUMP JUMPDEST JUMPDEST DUP1 PUSH2 0x1B76 PUSH2 0x1B70 DUP6 PUSH2 0x36A JUMP JUMPDEST SWAP2 PUSH2 0x36A JUMP JUMPDEST LT ISZERO PUSH2 0x1BBE JUMPI PUSH2 0x1B91 PUSH2 0x1B8B PUSH1 0x1B DUP4 SWAP1 PUSH2 0x1386 JUMP JUMPDEST SWAP1 PUSH2 0xB53 JUMP JUMPDEST PUSH2 0x1BA3 PUSH2 0x1B9D DUP5 PUSH2 0x415 JUMP JUMPDEST SWAP2 PUSH2 0x415 JUMP JUMPDEST EQ PUSH2 0x1BB6 JUMPI PUSH2 0x1BB1 SWAP1 PUSH2 0x1356 JUMP JUMPDEST PUSH2 0x1B63 JUMP JUMPDEST POP POP POP PUSH1 0x1 SWAP1 JUMP JUMPDEST PUSH2 0x1BC6 PUSH2 0x30D JUMP JUMPDEST PUSH3 0x461BCD PUSH1 0xE5 SHL DUP2 MSTORE DUP1 PUSH2 0x1BDC PUSH1 0x4 DUP3 ADD PUSH2 0x13F1 JUMP JUMPDEST SUB SWAP1 REVERT JUMPDEST PUSH1 0x0 PUSH32 0x5468652073616C65206973206E6F742073746172746564207965742000000000 SWAP2 ADD MSTORE JUMP JUMPDEST PUSH2 0x1C15 PUSH1 0x1C PUSH1 0x20 SWAP3 PUSH2 0xE6D JUMP JUMPDEST PUSH2 0x1C1E DUP2 PUSH2 0x1BE0 JUMP JUMPDEST ADD SWAP1 JUMP JUMPDEST PUSH2 0x1C38 SWAP1 PUSH1 0x20 DUP2 ADD SWAP1 PUSH1 0x0 DUP2 DUP4 SUB SWAP2 ADD MSTORE PUSH2 0x1C08 JUMP JUMPDEST SWAP1 JUMP JUMPDEST ISZERO PUSH2 0x1C42 JUMPI JUMP JUMPDEST PUSH2 0x1C4A PUSH2 0x30D JUMP JUMPDEST PUSH3 0x461BCD PUSH1 0xE5 SHL DUP2 MSTORE DUP1 PUSH2 0x1C60 PUSH1 0x4 DUP3 ADD PUSH2 0x1C22 JUMP JUMPDEST SUB SWAP1 REVERT JUMPDEST PUSH1 0x0 PUSH32 0x5468652073616C6520697320636C6F7365640000000000000000000000000000 SWAP2 ADD MSTORE JUMP JUMPDEST PUSH2 0x1C99 PUSH1 0x12 PUSH1 0x20 SWAP3 PUSH2 0xE6D JUMP JUMPDEST PUSH2 0x1CA2 DUP2 PUSH2 0x1C64 JUMP JUMPDEST ADD SWAP1 JUMP JUMPDEST PUSH2 0x1CBC SWAP1 PUSH1 0x20 DUP2 ADD SWAP1 PUSH1 0x0 DUP2 DUP4 SUB SWAP2 ADD MSTORE PUSH2 0x1C8C JUMP JUMPDEST SWAP1 JUMP JUMPDEST ISZERO PUSH2 0x1CC6 JUMPI JUMP JUMPDEST PUSH2 0x1CCE PUSH2 0x30D JUMP JUMPDEST PUSH3 0x461BCD PUSH1 0xE5 SHL DUP2 MSTORE DUP1 PUSH2 0x1CE4 PUSH1 0x4 DUP3 ADD PUSH2 0x1CA6 JUMP JUMPDEST SUB SWAP1 REVERT JUMPDEST PUSH2 0x1CF4 PUSH2 0x1CF9 SWAP2 PUSH2 0x14AF JUMP JUMPDEST PUSH2 0x331 JUMP JUMPDEST SWAP1 JUMP JUMPDEST PUSH2 0x1D06 SWAP1 SLOAD PUSH2 0x1CE8 JUMP JUMPDEST SWAP1 JUMP JUMPDEST PUSH4 0x4E487B71 PUSH1 0xE0 SHL PUSH1 0x0 MSTORE PUSH1 0x11 PUSH1 0x4 MSTORE PUSH1 0x24 PUSH1 0x0 REVERT JUMPDEST PUSH2 0x1D2E PUSH2 0x1D34 SWAP2 SWAP4 SWAP3 SWAP4 PUSH2 0x36A JUMP JUMPDEST SWAP3 PUSH2 0x36A JUMP JUMPDEST DUP3 ADD DUP1 SWAP3 GT PUSH2 0x1D3F JUMPI JUMP JUMPDEST PUSH2 0x1D09 JUMP JUMPDEST PUSH1 0x20 PUSH32 0x206D617820636170000000000000000000000000000000000000000000000000 SWAP2 PUSH32 0x627579546F6B656E733A20707572636861736520776F756C6420657863656564 PUSH1 0x0 DUP3 ADD MSTORE ADD MSTORE JUMP JUMPDEST PUSH2 0x1D9F PUSH1 0x28 PUSH1 0x40 SWAP3 PUSH2 0xE6D JUMP JUMPDEST PUSH2 0x1DA8 DUP2 PUSH2 0x1D44 JUMP JUMPDEST ADD SWAP1 JUMP JUMPDEST PUSH2 0x1DC2 SWAP1 PUSH1 0x20 DUP2 ADD SWAP1 PUSH1 0x0 DUP2 DUP4 SUB SWAP2 ADD MSTORE PUSH2 0x1D92 JUMP JUMPDEST SWAP1 JUMP JUMPDEST ISZERO PUSH2 0x1DCC JUMPI JUMP JUMPDEST PUSH2 0x1DD4 PUSH2 0x30D JUMP JUMPDEST PUSH3 0x461BCD PUSH1 0xE5 SHL DUP2 MSTORE DUP1 PUSH2 0x1DEA PUSH1 0x4 DUP3 ADD PUSH2 0x1DAC JUMP JUMPDEST SUB SWAP1 REVERT JUMPDEST PUSH1 0x0 PUSH32 0x796F75722070757263686173696E6720506F77657220697320736F204C6F7700 SWAP2 ADD MSTORE JUMP JUMPDEST PUSH2 0x1E23 PUSH1 0x1F PUSH1 0x20 SWAP3 PUSH2 0xE6D JUMP JUMPDEST PUSH2 0x1E2C DUP2 PUSH2 0x1DEE JUMP JUMPDEST ADD SWAP1 JUMP JUMPDEST PUSH2 0x1E46 SWAP1 PUSH1 0x20 DUP2 ADD SWAP1 PUSH1 0x0 DUP2 DUP4 SUB SWAP2 ADD MSTORE PUSH2 0x1E16 JUMP JUMPDEST SWAP1 JUMP JUMPDEST ISZERO PUSH2 0x1E50 JUMPI JUMP JUMPDEST PUSH2 0x1E58 PUSH2 0x30D JUMP JUMPDEST PUSH3 0x461BCD PUSH1 0xE5 SHL DUP2 MSTORE DUP1 PUSH2 0x1E6E PUSH1 0x4 DUP3 ADD PUSH2 0x1E30 JUMP JUMPDEST SUB SWAP1 REVERT JUMPDEST PUSH1 0x20 PUSH32 0x205469657220466F7572206D6178206361700000000000000000000000000000 SWAP2 PUSH32 0x627579546F6B656E733A20707572636861736520776F756C6420657863656564 PUSH1 0x0 DUP3 ADD MSTORE ADD MSTORE JUMP JUMPDEST PUSH2 0x1ECD PUSH1 0x32 PUSH1 0x40 SWAP3 PUSH2 0xE6D JUMP JUMPDEST PUSH2 0x1ED6 DUP2 PUSH2 0x1E72 JUMP JUMPDEST ADD SWAP1 JUMP JUMPDEST PUSH2 0x1EF0 SWAP1 PUSH1 0x20 DUP2 ADD SWAP1 PUSH1 0x0 DUP2 DUP4 SUB SWAP2 ADD MSTORE PUSH2 0x1EC0 JUMP JUMPDEST SWAP1 JUMP JUMPDEST ISZERO PUSH2 0x1EFA JUMPI JUMP JUMPDEST PUSH2 0x1F02 PUSH2 0x30D JUMP JUMPDEST PUSH3 0x461BCD PUSH1 0xE5 SHL DUP2 MSTORE DUP1 PUSH2 0x1F18 PUSH1 0x4 DUP3 ADD PUSH2 0x1EDA JUMP JUMPDEST SUB SWAP1 REVERT JUMPDEST PUSH1 0x20 PUSH32 0x207468616E20796F757220746965722D34206C696D6974210000000000000000 SWAP2 PUSH32 0x627579546F6B656E733A596F752061726520696E76657374696E67206D6F7265 PUSH1 0x0 DUP3 ADD MSTORE ADD MSTORE JUMP JUMPDEST PUSH2 0x1F77 PUSH1 0x38 PUSH1 0x40 SWAP3 PUSH2 0xE6D JUMP JUMPDEST PUSH2 0x1F80 DUP2 PUSH2 0x1F1C JUMP JUMPDEST ADD SWAP1 JUMP JUMPDEST PUSH2 0x1F9A SWAP1 PUSH1 0x20 DUP2 ADD SWAP1 PUSH1 0x0 DUP2 DUP4 SUB SWAP2 ADD MSTORE PUSH2 0x1F6A JUMP JUMPDEST SWAP1 JUMP JUMPDEST ISZERO PUSH2 0x1FA4 JUMPI JUMP JUMPDEST PUSH2 0x1FAC PUSH2 0x30D JUMP JUMPDEST PUSH3 0x461BCD PUSH1 0xE5 SHL DUP2 MSTORE DUP1 PUSH2 0x1FC2 PUSH1 0x4 DUP3 ADD PUSH2 0x1F84 JUMP JUMPDEST SUB SWAP1 REVERT JUMPDEST PUSH2 0x1FD2 PUSH2 0x1FD7 SWAP2 PUSH2 0x14AF JUMP JUMPDEST PUSH2 0xF1A JUMP JUMPDEST SWAP1 JUMP JUMPDEST PUSH2 0x1FE4 SWAP1 SLOAD PUSH2 0x1FC6 JUMP JUMPDEST SWAP1 JUMP JUMPDEST PUSH2 0x1FF0 SWAP1 PUSH2 0x483 JUMP JUMPDEST SWAP1 JUMP JUMPDEST PUSH1 0x20 PUSH32 0x207468616E20796F757220746965722D33206C696D6974210000000000000000 SWAP2 PUSH32 0x627579546F6B656E733A596F752061726520696E76657374696E67206D6F7265 PUSH1 0x0 DUP3 ADD MSTORE ADD MSTORE JUMP JUMPDEST PUSH2 0x204E PUSH1 0x38 PUSH1 0x40 SWAP3 PUSH2 0xE6D JUMP JUMPDEST PUSH2 0x2057 DUP2 PUSH2 0x1FF3 JUMP JUMPDEST ADD SWAP1 JUMP JUMPDEST PUSH2 0x2071 SWAP1 PUSH1 0x20 DUP2 ADD SWAP1 PUSH1 0x0 DUP2 DUP4 SUB SWAP2 ADD MSTORE PUSH2 0x2041 JUMP JUMPDEST SWAP1 JUMP JUMPDEST ISZERO PUSH2 0x207B JUMPI JUMP JUMPDEST PUSH2 0x2083 PUSH2 0x30D JUMP JUMPDEST PUSH3 0x461BCD PUSH1 0xE5 SHL DUP2 MSTORE DUP1 PUSH2 0x2099 PUSH1 0x4 DUP3 ADD PUSH2 0x205B JUMP JUMPDEST SUB SWAP1 REVERT JUMPDEST PUSH1 0x20 PUSH32 0x2054696572207468726565206D61782063617000000000000000000000000000 SWAP2 PUSH32 0x627579546F6B656E733A20707572636861736520776F756C6420657863656564 PUSH1 0x0 DUP3 ADD MSTORE ADD MSTORE JUMP JUMPDEST PUSH2 0x20F8 PUSH1 0x33 PUSH1 0x40 SWAP3 PUSH2 0xE6D JUMP JUMPDEST PUSH2 0x2101 DUP2 PUSH2 0x209D JUMP JUMPDEST ADD SWAP1 JUMP JUMPDEST PUSH2 0x211B SWAP1 PUSH1 0x20 DUP2 ADD SWAP1 PUSH1 0x0 DUP2 DUP4 SUB SWAP2 ADD MSTORE PUSH2 0x20EB JUMP JUMPDEST SWAP1 JUMP JUMPDEST ISZERO PUSH2 0x2125 JUMPI JUMP JUMPDEST PUSH2 0x212D PUSH2 0x30D JUMP JUMPDEST PUSH3 0x461BCD PUSH1 0xE5 SHL DUP2 MSTORE DUP1 PUSH2 0x2143 PUSH1 0x4 DUP3 ADD PUSH2 0x2105 JUMP JUMPDEST SUB SWAP1 REVERT JUMPDEST PUSH1 0x20 PUSH32 0x20546965722074776F206D617820636170000000000000000000000000000000 SWAP2 PUSH32 0x627579546F6B656E733A20707572636861736520776F756C6420657863656564 PUSH1 0x0 DUP3 ADD MSTORE ADD MSTORE JUMP JUMPDEST PUSH2 0x21A2 PUSH1 0x31 PUSH1 0x40 SWAP3 PUSH2 0xE6D JUMP JUMPDEST PUSH2 0x21AB DUP2 PUSH2 0x2147 JUMP JUMPDEST ADD SWAP1 JUMP JUMPDEST PUSH2 0x21C5 SWAP1 PUSH1 0x20 DUP2 ADD SWAP1 PUSH1 0x0 DUP2 DUP4 SUB SWAP2 ADD MSTORE PUSH2 0x2195 JUMP JUMPDEST SWAP1 JUMP JUMPDEST ISZERO PUSH2 0x21CF JUMPI JUMP JUMPDEST PUSH2 0x21D7 PUSH2 0x30D JUMP JUMPDEST PUSH3 0x461BCD PUSH1 0xE5 SHL DUP2 MSTORE DUP1 PUSH2 0x21ED PUSH1 0x4 DUP3 ADD PUSH2 0x21AF JUMP JUMPDEST SUB SWAP1 REVERT JUMPDEST PUSH1 0x20 PUSH32 0x207468616E20796F757220746965722D32206C696D6974210000000000000000 SWAP2 PUSH32 0x627579546F6B656E733A596F752061726520696E76657374696E67206D6F7265 PUSH1 0x0 DUP3 ADD MSTORE ADD MSTORE JUMP JUMPDEST PUSH2 0x224C PUSH1 0x38 PUSH1 0x40 SWAP3 PUSH2 0xE6D JUMP JUMPDEST PUSH2 0x2255 DUP2 PUSH2 0x21F1 JUMP JUMPDEST ADD SWAP1 JUMP JUMPDEST PUSH2 0x226F SWAP1 PUSH1 0x20 DUP2 ADD SWAP1 PUSH1 0x0 DUP2 DUP4 SUB SWAP2 ADD MSTORE PUSH2 0x223F JUMP JUMPDEST SWAP1 JUMP JUMPDEST ISZERO PUSH2 0x2279 JUMPI JUMP JUMPDEST PUSH2 0x2281 PUSH2 0x30D JUMP JUMPDEST PUSH3 0x461BCD PUSH1 0xE5 SHL DUP2 MSTORE DUP1 PUSH2 0x2297 PUSH1 0x4 DUP3 ADD PUSH2 0x2259 JUMP JUMPDEST SUB SWAP1 REVERT JUMPDEST PUSH1 0x20 PUSH32 0x2054696572206F6E65206D617820636170000000000000000000000000000000 SWAP2 PUSH32 0x627579546F6B656E733A20707572636861736520776F756C6420657863656564 PUSH1 0x0 DUP3 ADD MSTORE ADD MSTORE JUMP JUMPDEST PUSH2 0x22F6 PUSH1 0x31 PUSH1 0x40 SWAP3 PUSH2 0xE6D JUMP JUMPDEST PUSH2 0x22FF DUP2 PUSH2 0x229B JUMP JUMPDEST ADD SWAP1 JUMP JUMPDEST PUSH2 0x2319 SWAP1 PUSH1 0x20 DUP2 ADD SWAP1 PUSH1 0x0 DUP2 DUP4 SUB SWAP2 ADD MSTORE PUSH2 0x22E9 JUMP JUMPDEST SWAP1 JUMP JUMPDEST ISZERO PUSH2 0x2323 JUMPI JUMP JUMPDEST PUSH2 0x232B PUSH2 0x30D JUMP JUMPDEST PUSH3 0x461BCD PUSH1 0xE5 SHL DUP2 MSTORE DUP1 PUSH2 0x2341 PUSH1 0x4 DUP3 ADD PUSH2 0x2303 JUMP JUMPDEST SUB SWAP1 REVERT JUMPDEST PUSH1 0x20 PUSH32 0x207468616E20796F757220746965722D31206C696D6974210000000000000000 SWAP2 PUSH32 0x627579546F6B656E733A596F752061726520696E76657374696E67206D6F7265 PUSH1 0x0 DUP3 ADD MSTORE ADD MSTORE JUMP JUMPDEST PUSH2 0x23A0 PUSH1 0x38 PUSH1 0x40 SWAP3 PUSH2 0xE6D JUMP JUMPDEST PUSH2 0x23A9 DUP2 PUSH2 0x2345 JUMP JUMPDEST ADD SWAP1 JUMP JUMPDEST PUSH2 0x23C3 SWAP1 PUSH1 0x20 DUP2 ADD SWAP1 PUSH1 0x0 DUP2 DUP4 SUB SWAP2 ADD MSTORE PUSH2 0x2393 JUMP JUMPDEST SWAP1 JUMP JUMPDEST ISZERO PUSH2 0x23CD JUMPI JUMP JUMPDEST PUSH2 0x23D5 PUSH2 0x30D JUMP JUMPDEST PUSH3 0x461BCD PUSH1 0xE5 SHL DUP2 MSTORE DUP1 PUSH2 0x23EB PUSH1 0x4 DUP3 ADD PUSH2 0x23AD JUMP JUMPDEST SUB SWAP1 REVERT JUMPDEST PUSH2 0x242C TIMESTAMP PUSH2 0x2425 PUSH2 0x241F PUSH32 0x0 PUSH2 0x36A JUMP JUMPDEST SWAP2 PUSH2 0x36A JUMP JUMPDEST LT ISZERO PUSH2 0x1C3B JUMP JUMPDEST PUSH2 0x2469 TIMESTAMP PUSH2 0x2462 PUSH2 0x245C PUSH32 0x0 PUSH2 0x36A JUMP JUMPDEST SWAP2 PUSH2 0x36A JUMP JUMPDEST GT ISZERO PUSH2 0x1CBF JUMP JUMPDEST PUSH2 0x24B9 PUSH2 0x2480 PUSH2 0x2479 PUSH1 0x1 PUSH2 0x1CFC JUMP JUMPDEST CALLVALUE SWAP1 PUSH2 0x1D1F JUMP JUMPDEST PUSH2 0x24B2 PUSH2 0x24AC PUSH32 0x0 PUSH2 0x36A JUMP JUMPDEST SWAP2 PUSH2 0x36A JUMP JUMPDEST GT ISZERO PUSH2 0x1DC5 JUMP JUMPDEST PUSH2 0x24C2 CALLER PUSH2 0x1808 JUMP JUMPDEST PUSH1 0x0 EQ PUSH2 0x2628 JUMPI PUSH2 0x24F1 CALLVALUE PUSH2 0x24EB PUSH2 0x24DC PUSH1 0x20 CALLER SWAP1 PUSH2 0x49B JUMP JUMPDEST SWAP2 PUSH2 0x24E6 DUP4 PUSH2 0x1CFC JUMP JUMPDEST PUSH2 0x1D1F JUMP JUMPDEST SWAP1 PUSH2 0x17AC JUMP JUMPDEST PUSH2 0x252A PUSH2 0x2508 PUSH2 0x2503 PUSH1 0x20 CALLER SWAP1 PUSH2 0x49B JUMP JUMPDEST PUSH2 0x1CFC JUMP JUMPDEST PUSH2 0x2523 PUSH2 0x251D PUSH2 0x2518 PUSH1 0x14 PUSH2 0x1CFC JUMP JUMPDEST PUSH2 0x36A JUMP JUMPDEST SWAP2 PUSH2 0x36A JUMP JUMPDEST LT ISZERO PUSH2 0x1E49 JUMP JUMPDEST PUSH2 0x2563 PUSH2 0x2541 PUSH2 0x253A PUSH1 0x2 PUSH2 0x1CFC JUMP JUMPDEST CALLVALUE SWAP1 PUSH2 0x1D1F JUMP JUMPDEST PUSH2 0x255C PUSH2 0x2556 PUSH2 0x2551 PUSH1 0x8 PUSH2 0x1CFC JUMP JUMPDEST PUSH2 0x36A JUMP JUMPDEST SWAP2 PUSH2 0x36A JUMP JUMPDEST GT ISZERO PUSH2 0x231C JUMP JUMPDEST PUSH2 0x25A6 PUSH2 0x2584 PUSH2 0x257D PUSH2 0x2578 PUSH1 0x1C CALLER SWAP1 PUSH2 0x49B JUMP JUMPDEST PUSH2 0x1CFC JUMP JUMPDEST CALLVALUE SWAP1 PUSH2 0x1D1F JUMP JUMPDEST PUSH2 0x259F PUSH2 0x2599 PUSH2 0x2594 PUSH1 0x10 PUSH2 0x1CFC JUMP JUMPDEST PUSH2 0x36A JUMP JUMPDEST SWAP2 PUSH2 0x36A JUMP JUMPDEST GT ISZERO PUSH2 0x23C6 JUMP JUMPDEST PUSH2 0x25CE CALLVALUE PUSH2 0x25C8 PUSH2 0x25B9 PUSH1 0x1C CALLER SWAP1 PUSH2 0x49B JUMP JUMPDEST SWAP2 PUSH2 0x25C3 DUP4 PUSH2 0x1CFC JUMP JUMPDEST PUSH2 0x1D1F JUMP JUMPDEST SWAP1 PUSH2 0x17AC JUMP JUMPDEST PUSH2 0x25EB PUSH2 0x25E4 CALLVALUE PUSH2 0x25DF PUSH1 0x1 PUSH2 0x1CFC JUMP JUMPDEST PUSH2 0x1D1F JUMP JUMPDEST PUSH1 0x1 PUSH2 0x17AC JUMP JUMPDEST PUSH2 0x2608 PUSH2 0x2601 CALLVALUE PUSH2 0x25FC PUSH1 0x2 PUSH2 0x1CFC JUMP JUMPDEST PUSH2 0x1D1F JUMP JUMPDEST PUSH1 0x2 PUSH2 0x17AC JUMP JUMPDEST PUSH2 0x2625 PUSH2 0x2615 PUSH1 0x7 PUSH2 0x1FDA JUMP JUMPDEST PUSH2 0x261E ADDRESS PUSH2 0x1FE7 JUMP JUMPDEST BALANCE SWAP1 PUSH2 0x2C47 JUMP JUMPDEST JUMPDEST JUMP JUMPDEST PUSH2 0x2631 CALLER PUSH2 0x1999 JUMP JUMPDEST PUSH1 0x0 EQ PUSH2 0x279A JUMPI PUSH2 0x2660 CALLVALUE PUSH2 0x265A PUSH2 0x264B PUSH1 0x21 CALLER SWAP1 PUSH2 0x49B JUMP JUMPDEST SWAP2 PUSH2 0x2655 DUP4 PUSH2 0x1CFC JUMP JUMPDEST PUSH2 0x1D1F JUMP JUMPDEST SWAP1 PUSH2 0x17AC JUMP JUMPDEST PUSH2 0x2699 PUSH2 0x2677 PUSH2 0x2672 PUSH1 0x21 CALLER SWAP1 PUSH2 0x49B JUMP JUMPDEST PUSH2 0x1CFC JUMP JUMPDEST PUSH2 0x2692 PUSH2 0x268C PUSH2 0x2687 PUSH1 0x15 PUSH2 0x1CFC JUMP JUMPDEST PUSH2 0x36A JUMP JUMPDEST SWAP2 PUSH2 0x36A JUMP JUMPDEST LT ISZERO PUSH2 0x1E49 JUMP JUMPDEST PUSH2 0x26D2 PUSH2 0x26B0 PUSH2 0x26A9 PUSH1 0x3 PUSH2 0x1CFC JUMP JUMPDEST CALLVALUE SWAP1 PUSH2 0x1D1F JUMP JUMPDEST PUSH2 0x26CB PUSH2 0x26C5 PUSH2 0x26C0 PUSH1 0x9 PUSH2 0x1CFC JUMP JUMPDEST PUSH2 0x36A JUMP JUMPDEST SWAP2 PUSH2 0x36A JUMP JUMPDEST GT ISZERO PUSH2 0x21C8 JUMP JUMPDEST PUSH2 0x2715 PUSH2 0x26F3 PUSH2 0x26EC PUSH2 0x26E7 PUSH1 0x1D CALLER SWAP1 PUSH2 0x49B JUMP JUMPDEST PUSH2 0x1CFC JUMP JUMPDEST CALLVALUE SWAP1 PUSH2 0x1D1F JUMP JUMPDEST PUSH2 0x270E PUSH2 0x2708 PUSH2 0x2703 PUSH1 0x11 PUSH2 0x1CFC JUMP JUMPDEST PUSH2 0x36A JUMP JUMPDEST SWAP2 PUSH2 0x36A JUMP JUMPDEST GT ISZERO PUSH2 0x2272 JUMP JUMPDEST PUSH2 0x273D CALLVALUE PUSH2 0x2737 PUSH2 0x2728 PUSH1 0x1D CALLER SWAP1 PUSH2 0x49B JUMP JUMPDEST SWAP2 PUSH2 0x2732 DUP4 PUSH2 0x1CFC JUMP JUMPDEST PUSH2 0x1D1F JUMP JUMPDEST SWAP1 PUSH2 0x17AC JUMP JUMPDEST PUSH2 0x275A PUSH2 0x2753 CALLVALUE PUSH2 0x274E PUSH1 0x1 PUSH2 0x1CFC JUMP JUMPDEST PUSH2 0x1D1F JUMP JUMPDEST PUSH1 0x1 PUSH2 0x17AC JUMP JUMPDEST PUSH2 0x2777 PUSH2 0x2770 CALLVALUE PUSH2 0x276B PUSH1 0x3 PUSH2 0x1CFC JUMP JUMPDEST PUSH2 0x1D1F JUMP JUMPDEST PUSH1 0x3 PUSH2 0x17AC JUMP JUMPDEST PUSH2 0x2794 PUSH2 0x2784 PUSH1 0x7 PUSH2 0x1FDA JUMP JUMPDEST PUSH2 0x278D ADDRESS PUSH2 0x1FE7 JUMP JUMPDEST BALANCE SWAP1 PUSH2 0x2C47 JUMP JUMPDEST JUMPDEST PUSH2 0x2626 JUMP JUMPDEST PUSH2 0x27A3 CALLER PUSH2 0x140A JUMP JUMPDEST PUSH1 0x0 EQ PUSH2 0x290C JUMPI PUSH2 0x27D2 CALLVALUE PUSH2 0x27CC PUSH2 0x27BD PUSH1 0x22 CALLER SWAP1 PUSH2 0x49B JUMP JUMPDEST SWAP2 PUSH2 0x27C7 DUP4 PUSH2 0x1CFC JUMP JUMPDEST PUSH2 0x1D1F JUMP JUMPDEST SWAP1 PUSH2 0x17AC JUMP JUMPDEST PUSH2 0x280B PUSH2 0x27E9 PUSH2 0x27E4 PUSH1 0x22 CALLER SWAP1 PUSH2 0x49B JUMP JUMPDEST PUSH2 0x1CFC JUMP JUMPDEST PUSH2 0x2804 PUSH2 0x27FE PUSH2 0x27F9 PUSH1 0x16 PUSH2 0x1CFC JUMP JUMPDEST PUSH2 0x36A JUMP JUMPDEST SWAP2 PUSH2 0x36A JUMP JUMPDEST LT ISZERO PUSH2 0x1E49 JUMP JUMPDEST PUSH2 0x284E PUSH2 0x282C PUSH2 0x2825 PUSH2 0x2820 PUSH1 0x1E CALLER SWAP1 PUSH2 0x49B JUMP JUMPDEST PUSH2 0x1CFC JUMP JUMPDEST CALLVALUE SWAP1 PUSH2 0x1D1F JUMP JUMPDEST PUSH2 0x2847 PUSH2 0x2841 PUSH2 0x283C PUSH1 0x12 PUSH2 0x1CFC JUMP JUMPDEST PUSH2 0x36A JUMP JUMPDEST SWAP2 PUSH2 0x36A JUMP JUMPDEST GT ISZERO PUSH2 0x2074 JUMP JUMPDEST PUSH2 0x2887 PUSH2 0x2865 PUSH2 0x285E PUSH1 0x4 PUSH2 0x1CFC JUMP JUMPDEST CALLVALUE SWAP1 PUSH2 0x1D1F JUMP JUMPDEST PUSH2 0x2880 PUSH2 0x287A PUSH2 0x2875 PUSH1 0xA PUSH2 0x1CFC JUMP JUMPDEST PUSH2 0x36A JUMP JUMPDEST SWAP2 PUSH2 0x36A JUMP JUMPDEST GT ISZERO PUSH2 0x211E JUMP JUMPDEST PUSH2 0x28AF CALLVALUE PUSH2 0x28A9 PUSH2 0x289A PUSH1 0x1E CALLER SWAP1 PUSH2 0x49B JUMP JUMPDEST SWAP2 PUSH2 0x28A4 DUP4 PUSH2 0x1CFC JUMP JUMPDEST PUSH2 0x1D1F JUMP JUMPDEST SWAP1 PUSH2 0x17AC JUMP JUMPDEST PUSH2 0x28CC PUSH2 0x28C5 CALLVALUE PUSH2 0x28C0 PUSH1 0x1 PUSH2 0x1CFC JUMP JUMPDEST PUSH2 0x1D1F JUMP JUMPDEST PUSH1 0x1 PUSH2 0x17AC JUMP JUMPDEST PUSH2 0x28E9 PUSH2 0x28E2 CALLVALUE PUSH2 0x28DD PUSH1 0x4 PUSH2 0x1CFC JUMP JUMPDEST PUSH2 0x1D1F JUMP JUMPDEST PUSH1 0x4 PUSH2 0x17AC JUMP JUMPDEST PUSH2 0x2906 PUSH2 0x28F6 PUSH1 0x7 PUSH2 0x1FDA JUMP JUMPDEST PUSH2 0x28FF ADDRESS PUSH2 0x1FE7 JUMP JUMPDEST BALANCE SWAP1 PUSH2 0x2C47 JUMP JUMPDEST JUMPDEST PUSH2 0x2795 JUMP JUMPDEST PUSH2 0x2915 CALLER PUSH2 0x1B3B JUMP JUMPDEST PUSH1 0x0 EQ PUSH2 0x2A7D JUMPI PUSH2 0x2944 CALLVALUE PUSH2 0x293E PUSH2 0x292F PUSH1 0x23 CALLER SWAP1 PUSH2 0x49B JUMP JUMPDEST SWAP2 PUSH2 0x2939 DUP4 PUSH2 0x1CFC JUMP JUMPDEST PUSH2 0x1D1F JUMP JUMPDEST SWAP1 PUSH2 0x17AC JUMP JUMPDEST PUSH2 0x297D PUSH2 0x295B PUSH2 0x2956 PUSH1 0x23 CALLER SWAP1 PUSH2 0x49B JUMP JUMPDEST PUSH2 0x1CFC JUMP JUMPDEST PUSH2 0x2976 PUSH2 0x2970 PUSH2 0x296B PUSH1 0x17 PUSH2 0x1CFC JUMP JUMPDEST PUSH2 0x36A JUMP JUMPDEST SWAP2 PUSH2 0x36A JUMP JUMPDEST LT ISZERO PUSH2 0x1E49 JUMP JUMPDEST PUSH2 0x29B6 PUSH2 0x2994 PUSH2 0x298D PUSH1 0x5 PUSH2 0x1CFC JUMP JUMPDEST CALLVALUE SWAP1 PUSH2 0x1D1F JUMP JUMPDEST PUSH2 0x29AF PUSH2 0x29A9 PUSH2 0x29A4 PUSH1 0xB PUSH2 0x1CFC JUMP JUMPDEST PUSH2 0x36A JUMP JUMPDEST SWAP2 PUSH2 0x36A JUMP JUMPDEST GT ISZERO PUSH2 0x1EF3 JUMP JUMPDEST PUSH2 0x29F9 PUSH2 0x29D7 PUSH2 0x29D0 PUSH2 0x29CB PUSH1 0x1F CALLER SWAP1 PUSH2 0x49B JUMP JUMPDEST PUSH2 0x1CFC JUMP JUMPDEST CALLVALUE SWAP1 PUSH2 0x1D1F JUMP JUMPDEST PUSH2 0x29F2 PUSH2 0x29EC PUSH2 0x29E7 PUSH1 0x13 PUSH2 0x1CFC JUMP JUMPDEST PUSH2 0x36A JUMP JUMPDEST SWAP2 PUSH2 0x36A JUMP JUMPDEST GT ISZERO PUSH2 0x1F9D JUMP JUMPDEST PUSH2 0x2A21 CALLVALUE PUSH2 0x2A1B PUSH2 0x2A0C PUSH1 0x1F CALLER SWAP1 PUSH2 0x49B JUMP JUMPDEST SWAP2 PUSH2 0x2A16 DUP4 PUSH2 0x1CFC JUMP JUMPDEST PUSH2 0x1D1F JUMP JUMPDEST SWAP1 PUSH2 0x17AC JUMP JUMPDEST PUSH2 0x2A3E PUSH2 0x2A37 CALLVALUE PUSH2 0x2A32 PUSH1 0x1 PUSH2 0x1CFC JUMP JUMPDEST PUSH2 0x1D1F JUMP JUMPDEST PUSH1 0x1 PUSH2 0x17AC JUMP JUMPDEST PUSH2 0x2A5B PUSH2 0x2A54 CALLVALUE PUSH2 0x2A4F PUSH1 0x5 PUSH2 0x1CFC JUMP JUMPDEST PUSH2 0x1D1F JUMP JUMPDEST PUSH1 0x5 PUSH2 0x17AC JUMP JUMPDEST PUSH2 0x2A78 PUSH2 0x2A68 PUSH1 0x7 PUSH2 0x1FDA JUMP JUMPDEST PUSH2 0x2A71 ADDRESS PUSH2 0x1FE7 JUMP JUMPDEST BALANCE SWAP1 PUSH2 0x2C47 JUMP JUMPDEST PUSH2 0x2907 JUMP JUMPDEST PUSH1 0x0 DUP1 REVERT JUMPDEST PUSH1 0x0 PUSH32 0x416464726573733A20696E73756666696369656E742062616C616E6365000000 SWAP2 ADD MSTORE JUMP JUMPDEST PUSH2 0x2AB7 PUSH1 0x1D PUSH1 0x20 SWAP3 PUSH2 0xE6D JUMP JUMPDEST PUSH2 0x2AC0 DUP2 PUSH2 0x2A82 JUMP JUMPDEST ADD SWAP1 JUMP JUMPDEST PUSH2 0x2ADA SWAP1 PUSH1 0x20 DUP2 ADD SWAP1 PUSH1 0x0 DUP2 DUP4 SUB SWAP2 ADD MSTORE PUSH2 0x2AAA JUMP JUMPDEST SWAP1 JUMP JUMPDEST ISZERO PUSH2 0x2AE4 JUMPI JUMP JUMPDEST PUSH2 0x2AEC PUSH2 0x30D JUMP JUMPDEST PUSH3 0x461BCD PUSH1 0xE5 SHL DUP2 MSTORE DUP1 PUSH2 0x2B02 PUSH1 0x4 DUP3 ADD PUSH2 0x2AC4 JUMP JUMPDEST SUB SWAP1 REVERT JUMPDEST PUSH2 0x2B0F SWAP1 PUSH2 0x483 JUMP JUMPDEST SWAP1 JUMP JUMPDEST SWAP1 POP SWAP1 JUMP JUMPDEST PUSH2 0x2B23 PUSH1 0x0 DUP1 SWAP3 PUSH2 0x2B12 JUMP JUMPDEST ADD SWAP1 JUMP JUMPDEST PUSH2 0x2B30 SWAP1 PUSH2 0x2B17 JUMP JUMPDEST SWAP1 JUMP JUMPDEST PUSH8 0xFFFFFFFFFFFFFFFF DUP2 GT PUSH2 0x2B51 JUMPI PUSH2 0x2B4D PUSH1 0x20 SWAP2 PUSH2 0xD6F JUMP JUMPDEST ADD SWAP1 JUMP JUMPDEST PUSH2 0xD79 JUMP JUMPDEST SWAP1 PUSH2 0x2B68 PUSH2 0x2B63 DUP4 PUSH2 0x2B33 JUMP JUMPDEST PUSH2 0xDB8 JUMP JUMPDEST SWAP2 DUP3 MSTORE JUMP JUMPDEST PUSH1 0x60 SWAP1 JUMP JUMPDEST RETURNDATASIZE PUSH1 0x0 EQ PUSH2 0x2B8F JUMPI PUSH2 0x2B83 RETURNDATASIZE PUSH2 0x2B56 JUMP JUMPDEST SWAP1 RETURNDATASIZE PUSH1 0x0 PUSH1 0x20 DUP5 ADD RETURNDATACOPY JUMPDEST JUMP JUMPDEST PUSH2 0x2B97 PUSH2 0x2B6D JUMP JUMPDEST SWAP1 PUSH2 0x2B8D JUMP JUMPDEST PUSH1 0x20 PUSH32 0x6563697069656E74206D61792068617665207265766572746564000000000000 SWAP2 PUSH32 0x416464726573733A20756E61626C6520746F2073656E642076616C75652C2072 PUSH1 0x0 DUP3 ADD MSTORE ADD MSTORE JUMP JUMPDEST PUSH2 0x2BF8 PUSH1 0x3A PUSH1 0x40 SWAP3 PUSH2 0xE6D JUMP JUMPDEST PUSH2 0x2C01 DUP2 PUSH2 0x2B9D JUMP JUMPDEST ADD SWAP1 JUMP JUMPDEST PUSH2 0x2C1B SWAP1 PUSH1 0x20 DUP2 ADD SWAP1 PUSH1 0x0 DUP2 DUP4 SUB SWAP2 ADD MSTORE PUSH2 0x2BEB JUMP JUMPDEST SWAP1 JUMP JUMPDEST ISZERO PUSH2 0x2C25 JUMPI JUMP JUMPDEST PUSH2 0x2C2D PUSH2 0x30D JUMP JUMPDEST PUSH3 0x461BCD PUSH1 0xE5 SHL DUP2 MSTORE DUP1 PUSH2 0x2C43 PUSH1 0x4 DUP3 ADD PUSH2 0x2C05 JUMP JUMPDEST SUB SWAP1 REVERT JUMPDEST PUSH1 0x0 PUSH2 0x2CA3 SWAP3 PUSH2 0x2C7D DUP3 SWAP4 PUSH2 0x2C78 PUSH2 0x2C5E ADDRESS PUSH2 0x1FE7 JUMP JUMPDEST BALANCE PUSH2 0x2C71 PUSH2 0x2C6B DUP7 PUSH2 0x36A JUMP JUMPDEST SWAP2 PUSH2 0x36A JUMP JUMPDEST LT ISZERO PUSH2 0x2ADD JUMP JUMPDEST PUSH2 0x2B06 JUMP JUMPDEST SWAP1 PUSH2 0x2C86 PUSH2 0x30D JUMP JUMPDEST SWAP1 DUP2 PUSH2 0x2C91 DUP2 PUSH2 0x2B27 JUMP JUMPDEST SUB SWAP3 GAS CALL PUSH2 0x2C9D PUSH2 0x2B72 JUMP JUMPDEST POP PUSH2 0x2C1E JUMP JUMPDEST JUMP INVALID LOG2 PUSH5 0x6970667358 0x22 SLT KECCAK256 0xDD CALLDATALOAD BLOCKHASH 0x27 SWAP6 0x2C SELFDESTRUCT SWAP4 ADDRESS PUSH32 0x5B3A5E3B1BA7FCF0C94AFEFD81A553F74D4FED93A90364736F6C634300081800 CALLER "},"methodIdentifiers":{"NAME()":"a3f4df7e","addWhitelistFour(address)":"3ff2bbc6","addWhitelistOne(address)":"62ace63f","addWhitelistThree(address)":"3c6bb474","addWhitelistTwo(address)":"ae4fdad9","buyInFourTier(address)":"e7f7814e","buyInOneTier(address)":"fe36f6c9","buyInThreeTier(address)":"a0ce460b","buyInTwoTier(address)":"71b9510d","getWhitelistFour(address)":"f8127958","getWhitelistOne(address)":"4dce5168","getWhitelistThree(address)":"22b15334","getWhitelistTwo(address)":"b9ec0dde","maxAllocaPerUserTierFour()":"4d9b4b4f","maxAllocaPerUserTierOne()":"90257644","maxAllocaPerUserTierThree()":"becbb04b","maxAllocaPerUserTierTwo()":"e8891b7d","maxCap()":"23548b8b","minAllocaPerUserTierFour()":"d529a565","minAllocaPerUserTierOne()":"4e6ac059","minAllocaPerUserTierThree()":"1a8b43e4","minAllocaPerUserTierTwo()":"434800fc","minBuyInFourTier(address)":"602072fa","minBuyInOneTier(address)":"0e3a02e2","minBuyInThreeTier(address)":"76d8711f","minBuyInTwoTier(address)":"2146d7ff","owner()":"8da5cb5b","projectOwner()":"a4475ce4","saleEndTime()":"ed338ff1","saleStartTime()":"1cbaee2d","tierFourMaxCap()":"9d9db77d","tierOneMaxCap()":"823276c3","tierThreeMaxCap()":"a390c97f","tierTwoMaxCap()":"244c4f10","totalEthInTierFour()":"b84536ae","totalEthInTierOne()":"8f78bdcf","totalEthInTierThree()":"91ab87ea","totalEthInTierTwo()":"03440f37","totalEthReceivedInAllTier()":"339855ff","totalUserInTierFour()":"5e18c330","totalUserInTierOne()":"e0daa8ba","totalUserInTierThree()":"74c6bd0d","totalUserInTierTwo()":"f1e81e07","totalparticipants()":"01099885","transferOwnership(address)":"f2fde38b","updateTierValues(uint256,uint256,uint256,uint256)":"4a4a91a8"}}}}}