{
  "_format": "hh-sol-artifact-1",
  "contractName": "LaunchContract",
  "sourceName": "contracts/launchpad.sol",
  "abi": [
    {
      "inputs": [
        {
          "internalType": "uint256",
          "name": "_maxCap",
          "type": "uint256"
        },
        {
          "internalType": "uint256",
          "name": "_saleStartTime",
          "type": "uint256"
        },
        {
          "internalType": "uint256",
          "name": "_saleEndTime",
          "type": "uint256"
        },
        {
          "internalType": "address payable",
          "name": "_projectOwner",
          "type": "address"
        },
        {
          "internalType": "uint256",
          "name": "_tierOneValue",
          "type": "uint256"
        },
        {
          "internalType": "uint256",
          "name": "_tierTwoValue",
          "type": "uint256"
        },
        {
          "internalType": "uint256",
          "name": "_tierThreeValue",
          "type": "uint256"
        },
        {
          "internalType": "uint256",
          "name": "_tierFourValue",
          "type": "uint256"
        }
      ],
      "stateMutability": "nonpayable",
      "type": "constructor"
    },
    {
      "anonymous": false,
      "inputs": [
        {
          "indexed": true,
          "internalType": "address",
          "name": "previousOwner",
          "type": "address"
        },
        {
          "indexed": true,
          "internalType": "address",
          "name": "newOwner",
          "type": "address"
        }
      ],
      "name": "OwnershipTransferred",
      "type": "event"
    },
    {
      "inputs": [],
      "name": "NAME",
      "outputs": [
        {
          "internalType": "string",
          "name": "",
          "type": "string"
        }
      ],
      "stateMutability": "view",
      "type": "function"
    },
    {
      "inputs": [
        {
          "internalType": "address",
          "name": "_address",
          "type": "address"
        }
      ],
      "name": "addWhitelistFour",
      "outputs": [],
      "stateMutability": "nonpayable",
      "type": "function"
    },
    {
      "inputs": [
        {
          "internalType": "address",
          "name": "_address",
          "type": "address"
        }
      ],
      "name": "addWhitelistOne",
      "outputs": [],
      "stateMutability": "nonpayable",
      "type": "function"
    },
    {
      "inputs": [
        {
          "internalType": "address",
          "name": "_address",
          "type": "address"
        }
      ],
      "name": "addWhitelistThree",
      "outputs": [],
      "stateMutability": "nonpayable",
      "type": "function"
    },
    {
      "inputs": [
        {
          "internalType": "address",
          "name": "_address",
          "type": "address"
        }
      ],
      "name": "addWhitelistTwo",
      "outputs": [],
      "stateMutability": "nonpayable",
      "type": "function"
    },
    {
      "inputs": [
        {
          "internalType": "address",
          "name": "",
          "type": "address"
        }
      ],
      "name": "buyInFourTier",
      "outputs": [
        {
          "internalType": "uint256",
          "name": "",
          "type": "uint256"
        }
      ],
      "stateMutability": "view",
      "type": "function"
    },
    {
      "inputs": [
        {
          "internalType": "address",
          "name": "",
          "type": "address"
        }
      ],
      "name": "buyInOneTier",
      "outputs": [
        {
          "internalType": "uint256",
          "name": "",
          "type": "uint256"
        }
      ],
      "stateMutability": "view",
      "type": "function"
    },
    {
      "inputs": [
        {
          "internalType": "address",
          "name": "",
          "type": "address"
        }
      ],
      "name": "buyInThreeTier",
      "outputs": [
        {
          "internalType": "uint256",
          "name": "",
          "type": "uint256"
        }
      ],
      "stateMutability": "view",
      "type": "function"
    },
    {
      "inputs": [
        {
          "internalType": "address",
          "name": "",
          "type": "address"
        }
      ],
      "name": "buyInTwoTier",
      "outputs": [
        {
          "internalType": "uint256",
          "name": "",
          "type": "uint256"
        }
      ],
      "stateMutability": "view",
      "type": "function"
    },
    {
      "inputs": [
        {
          "internalType": "address",
          "name": "_address",
          "type": "address"
        }
      ],
      "name": "getWhitelistFour",
      "outputs": [
        {
          "internalType": "bool",
          "name": "",
          "type": "bool"
        }
      ],
      "stateMutability": "view",
      "type": "function"
    },
    {
      "inputs": [
        {
          "internalType": "address",
          "name": "_address",
          "type": "address"
        }
      ],
      "name": "getWhitelistOne",
      "outputs": [
        {
          "internalType": "bool",
          "name": "",
          "type": "bool"
        }
      ],
      "stateMutability": "view",
      "type": "function"
    },
    {
      "inputs": [
        {
          "internalType": "address",
          "name": "_address",
          "type": "address"
        }
      ],
      "name": "getWhitelistThree",
      "outputs": [
        {
          "internalType": "bool",
          "name": "",
          "type": "bool"
        }
      ],
      "stateMutability": "view",
      "type": "function"
    },
    {
      "inputs": [
        {
          "internalType": "address",
          "name": "_address",
          "type": "address"
        }
      ],
      "name": "getWhitelistTwo",
      "outputs": [
        {
          "internalType": "bool",
          "name": "",
          "type": "bool"
        }
      ],
      "stateMutability": "view",
      "type": "function"
    },
    {
      "inputs": [],
      "name": "maxAllocaPerUserTierFour",
      "outputs": [
        {
          "internalType": "uint256",
          "name": "",
          "type": "uint256"
        }
      ],
      "stateMutability": "view",
      "type": "function"
    },
    {
      "inputs": [],
      "name": "maxAllocaPerUserTierOne",
      "outputs": [
        {
          "internalType": "uint256",
          "name": "",
          "type": "uint256"
        }
      ],
      "stateMutability": "view",
      "type": "function"
    },
    {
      "inputs": [],
      "name": "maxAllocaPerUserTierThree",
      "outputs": [
        {
          "internalType": "uint256",
          "name": "",
          "type": "uint256"
        }
      ],
      "stateMutability": "view",
      "type": "function"
    },
    {
      "inputs": [],
      "name": "maxAllocaPerUserTierTwo",
      "outputs": [
        {
          "internalType": "uint256",
          "name": "",
          "type": "uint256"
        }
      ],
      "stateMutability": "view",
      "type": "function"
    },
    {
      "inputs": [],
      "name": "maxCap",
      "outputs": [
        {
          "internalType": "uint256",
          "name": "",
          "type": "uint256"
        }
      ],
      "stateMutability": "view",
      "type": "function"
    },
    {
      "inputs": [],
      "name": "minAllocaPerUserTierFour",
      "outputs": [
        {
          "internalType": "uint256",
          "name": "",
          "type": "uint256"
        }
      ],
      "stateMutability": "view",
      "type": "function"
    },
    {
      "inputs": [],
      "name": "minAllocaPerUserTierOne",
      "outputs": [
        {
          "internalType": "uint256",
          "name": "",
          "type": "uint256"
        }
      ],
      "stateMutability": "view",
      "type": "function"
    },
    {
      "inputs": [],
      "name": "minAllocaPerUserTierThree",
      "outputs": [
        {
          "internalType": "uint256",
          "name": "",
          "type": "uint256"
        }
      ],
      "stateMutability": "view",
      "type": "function"
    },
    {
      "inputs": [],
      "name": "minAllocaPerUserTierTwo",
      "outputs": [
        {
          "internalType": "uint256",
          "name": "",
          "type": "uint256"
        }
      ],
      "stateMutability": "view",
      "type": "function"
    },
    {
      "inputs": [
        {
          "internalType": "address",
          "name": "",
          "type": "address"
        }
      ],
      "name": "minBuyInFourTier",
      "outputs": [
        {
          "internalType": "uint256",
          "name": "",
          "type": "uint256"
        }
      ],
      "stateMutability": "view",
      "type": "function"
    },
    {
      "inputs": [
        {
          "internalType": "address",
          "name": "",
          "type": "address"
        }
      ],
      "name": "minBuyInOneTier",
      "outputs": [
        {
          "internalType": "uint256",
          "name": "",
          "type": "uint256"
        }
      ],
      "stateMutability": "view",
      "type": "function"
    },
    {
      "inputs": [
        {
          "internalType": "address",
          "name": "",
          "type": "address"
        }
      ],
      "name": "minBuyInThreeTier",
      "outputs": [
        {
          "internalType": "uint256",
          "name": "",
          "type": "uint256"
        }
      ],
      "stateMutability": "view",
      "type": "function"
    },
    {
      "inputs": [
        {
          "internalType": "address",
          "name": "",
          "type": "address"
        }
      ],
      "name": "minBuyInTwoTier",
      "outputs": [
        {
          "internalType": "uint256",
          "name": "",
          "type": "uint256"
        }
      ],
      "stateMutability": "view",
      "type": "function"
    },
    {
      "inputs": [],
      "name": "owner",
      "outputs": [
        {
          "internalType": "address",
          "name": "",
          "type": "address"
        }
      ],
      "stateMutability": "view",
      "type": "function"
    },
    {
      "inputs": [],
      "name": "projectOwner",
      "outputs": [
        {
          "internalType": "address payable",
          "name": "",
          "type": "address"
        }
      ],
      "stateMutability": "view",
      "type": "function"
    },
    {
      "inputs": [],
      "name": "saleEndTime",
      "outputs": [
        {
          "internalType": "uint256",
          "name": "",
          "type": "uint256"
        }
      ],
      "stateMutability": "view",
      "type": "function"
    },
    {
      "inputs": [],
      "name": "saleStartTime",
      "outputs": [
        {
          "internalType": "uint256",
          "name": "",
          "type": "uint256"
        }
      ],
      "stateMutability": "view",
      "type": "function"
    },
    {
      "inputs": [],
      "name": "tierFourMaxCap",
      "outputs": [
        {
          "internalType": "uint256",
          "name": "",
          "type": "uint256"
        }
      ],
      "stateMutability": "view",
      "type": "function"
    },
    {
      "inputs": [],
      "name": "tierOneMaxCap",
      "outputs": [
        {
          "internalType": "uint256",
          "name": "",
          "type": "uint256"
        }
      ],
      "stateMutability": "view",
      "type": "function"
    },
    {
      "inputs": [],
      "name": "tierThreeMaxCap",
      "outputs": [
        {
          "internalType": "uint256",
          "name": "",
          "type": "uint256"
        }
      ],
      "stateMutability": "view",
      "type": "function"
    },
    {
      "inputs": [],
      "name": "tierTwoMaxCap",
      "outputs": [
        {
          "internalType": "uint256",
          "name": "",
          "type": "uint256"
        }
      ],
      "stateMutability": "view",
      "type": "function"
    },
    {
      "inputs": [],
      "name": "totalEthInTierFour",
      "outputs": [
        {
          "internalType": "uint256",
          "name": "",
          "type": "uint256"
        }
      ],
      "stateMutability": "view",
      "type": "function"
    },
    {
      "inputs": [],
      "name": "totalEthInTierOne",
      "outputs": [
        {
          "internalType": "uint256",
          "name": "",
          "type": "uint256"
        }
      ],
      "stateMutability": "view",
      "type": "function"
    },
    {
      "inputs": [],
      "name": "totalEthInTierThree",
      "outputs": [
        {
          "internalType": "uint256",
          "name": "",
          "type": "uint256"
        }
      ],
      "stateMutability": "view",
      "type": "function"
    },
    {
      "inputs": [],
      "name": "totalEthInTierTwo",
      "outputs": [
        {
          "internalType": "uint256",
          "name": "",
          "type": "uint256"
        }
      ],
      "stateMutability": "view",
      "type": "function"
    },
    {
      "inputs": [],
      "name": "totalEthReceivedInAllTier",
      "outputs": [
        {
          "internalType": "uint256",
          "name": "",
          "type": "uint256"
        }
      ],
      "stateMutability": "view",
      "type": "function"
    },
    {
      "inputs": [],
      "name": "totalUserInTierFour",
      "outputs": [
        {
          "internalType": "uint256",
          "name": "",
          "type": "uint256"
        }
      ],
      "stateMutability": "view",
      "type": "function"
    },
    {
      "inputs": [],
      "name": "totalUserInTierOne",
      "outputs": [
        {
          "internalType": "uint256",
          "name": "",
          "type": "uint256"
        }
      ],
      "stateMutability": "view",
      "type": "function"
    },
    {
      "inputs": [],
      "name": "totalUserInTierThree",
      "outputs": [
        {
          "internalType": "uint256",
          "name": "",
          "type": "uint256"
        }
      ],
      "stateMutability": "view",
      "type": "function"
    },
    {
      "inputs": [],
      "name": "totalUserInTierTwo",
      "outputs": [
        {
          "internalType": "uint256",
          "name": "",
          "type": "uint256"
        }
      ],
      "stateMutability": "view",
      "type": "function"
    },
    {
      "inputs": [],
      "name": "totalparticipants",
      "outputs": [
        {
          "internalType": "uint256",
          "name": "",
          "type": "uint256"
        }
      ],
      "stateMutability": "view",
      "type": "function"
    },
    {
      "inputs": [
        {
          "internalType": "address",
          "name": "newOwner",
          "type": "address"
        }
      ],
      "name": "transferOwnership",
      "outputs": [],
      "stateMutability": "nonpayable",
      "type": "function"
    },
    {
      "inputs": [
        {
          "internalType": "uint256",
          "name": "_tierOneValue",
          "type": "uint256"
        },
        {
          "internalType": "uint256",
          "name": "_tierTwoValue",
          "type": "uint256"
        },
        {
          "internalType": "uint256",
          "name": "_tierThreeValue",
          "type": "uint256"
        },
        {
          "internalType": "uint256",
          "name": "_tierFourValue",
          "type": "uint256"
        }
      ],
      "name": "updateTierValues",
      "outputs": [],
      "stateMutability": "nonpayable",
      "type": "function"
    },
    {
      "stateMutability": "payable",
      "type": "receive"
    }
  ],
  "bytecode": "0x60e06040523462000071576200002862000018620001ed565b969590959491949392936200047e565b6200003262000077565b612cdb62000632823960805181818161064e0152612488015260a05181818161054901526123fb015260c0518181816111d101526124380152612cdb90f35b6200007d565b60405190565b600080fd5b601f801991011690565b634e487b7160e01b600052604160045260246000fd5b90620000ae9062000082565b810190811060018060401b03821117620000c757604052565b6200008c565b90620000e4620000dc62000077565b9283620000a2565b565b600080fd5b90565b620000f981620000eb565b036200010157565b600080fd5b905051906200011582620000ee565b565b60018060a01b031690565b6200012d9062000117565b90565b6200013b8162000122565b036200014357565b600080fd5b90505190620001578262000130565b565b919061010083820312620001e75762000176816000850162000106565b9262000186826020830162000106565b9262000196836040840162000106565b92620001a6816060850162000148565b92620001b6826080830162000106565b92620001e4620001ca8460a0850162000106565b93620001da8160c0860162000106565b9360e00162000106565b90565b620000e6565b620002106200330d803803806200020481620000cd565b92833981019062000159565b9091929394959697565b60001b90565b906200022f600019916200021a565b9181191691161790565b90565b90565b62000258620002526200025e9262000239565b6200023c565b620000eb565b90565b90565b906200027e6200027862000286926200023f565b62000261565b825462000220565b9055565b906200029d60018060a01b03916200021a565b9181191691161790565b620002c0620002ba620002c69262000117565b6200023c565b62000117565b90565b620002d490620002a7565b90565b620002e290620002c9565b90565b90565b9062000302620002fc6200030a92620002d7565b620002e5565b82546200028a565b9055565b62000327620003216200032d92620000eb565b6200023c565b620000eb565b90565b906200034a6200034462000352926200030e565b62000261565b825462000220565b9055565b90565b620003726200036c620003789262000356565b6200023c565b620000eb565b90565b90565b62000397620003916200039d926200037b565b6200023c565b620000eb565b90565b90565b620003bc620003b6620003c292620003a0565b6200023c565b620000eb565b90565b90565b620003e1620003db620003e792620003c5565b6200023c565b620000eb565b90565b90565b62000406620004006200040c92620003ea565b6200023c565b620000eb565b90565b90565b6200042b6200042562000431926200040f565b6200023c565b620000eb565b90565b90565b620004506200044a620004569262000434565b6200023c565b620000eb565b90565b90565b620004756200046f6200047b9262000459565b6200023c565b620000eb565b90565b93620004c3620004d394620004db9794620004cb94620004e39b9a98620004a462000622565b620004b26000600162000264565b60805260a05260c0526007620002e8565b600862000330565b600962000330565b600a62000330565b600b62000330565b62000501620004f9662386f26fc1000062000359565b601462000330565b620005206200051867016345785d8a00006200037e565b601562000330565b6200053f62000537670de0b6b3a7640000620003a3565b601662000330565b6200055e62000556674563918244f40000620003c8565b601762000330565b6200057d620005756706f05b59d3b20000620003ed565b601062000330565b6200059c62000594676f05b59d3b20000062000412565b601162000330565b620005bb620005b367de0b6b3a7640000062000437565b601262000330565b620005db620005d368014d1120d7b16000006200045c565b601362000330565b565b620005e890620002a7565b90565b620005f690620005dd565b90565b90565b9062000616620006106200061e92620005eb565b620005f9565b82546200028a565b9055565b6200062f336000620005fc565b56fe6080604052600436101561001d575b366113245761001b6123ef565b005b610028600035610307565b8063010998851461030257806303440f37146102fd5780630e3a02e2146102f85780631a8b43e4146102f35780631cbaee2d146102ee5780632146d7ff146102e957806322b15334146102e457806323548b8b146102df578063244c4f10146102da578063339855ff146102d55780633c6bb474146102d05780633ff2bbc6146102cb578063434800fc146102c65780634a4a91a8146102c15780634d9b4b4f146102bc5780634dce5168146102b75780634e6ac059146102b25780635e18c330146102ad578063602072fa146102a857806362ace63f146102a357806371b9510d1461029e57806374c6bd0d1461029957806376d8711f14610294578063823276c31461028f5780638da5cb5b1461028a5780638f78bdcf14610285578063902576441461028057806391ab87ea1461027b5780639d9db77d14610276578063a0ce460b14610271578063a390c97f1461026c578063a3f4df7e14610267578063a4475ce414610262578063ae4fdad91461025d578063b84536ae14610258578063b9ec0dde14610253578063becbb04b1461024e578063d529a56514610249578063e0daa8ba14610244578063e7f7814e1461023f578063e8891b7d1461023a578063ed338ff114610235578063f1e81e0714610230578063f2fde38b1461022b578063f8127958146102265763fe36f6c90361000e576112ef565b6112a0565b61126d565b611238565b6111f3565b61119a565b611155565b611106565b6110c1565b61107c565b611037565b611002565b610fbf565b610f8a565b610ee5565b610d3a565b610cf5565b610ca6565b610c61565b610c1c565b610bd7565b610b92565b610afb565b610ab6565b610a67565b610a22565b6109d5565b6109a0565b610951565b61090c565b6108c7565b610892565b61084b565b6107ab565b610768565b610735565b6106fa565b6106b5565b610670565b610617565b6105ba565b61056b565b610512565b6104cd565b6103d5565b610390565b60e01c90565b60405190565b600080fd5b600080fd5b600091031261032857565b610318565b1c90565b90565b610344906008610349930261032d565b610331565b90565b906103579154610334565b90565b610367600660009061034c565b90565b90565b6103769061036a565b9052565b919061038e9060006020850194019061036d565b565b346103c0576103a036600461031d565b6103bc6103ab61035a565b6103b361030d565b9182918261037a565b0390f35b610313565b6103d2600360009061034c565b90565b34610405576103e536600461031d565b6104016103f06103c5565b6103f861030d565b9182918261037a565b0390f35b610313565b60018060a01b031690565b61041e9061040a565b90565b61042a81610415565b0361043157565b600080fd5b9050359061044382610421565b565b9060208282031261045f5761045c91600001610436565b90565b610318565b90565b61047b6104766104809261040a565b610464565b61040a565b90565b61048c90610467565b90565b61049890610483565b90565b906104a59061048f565b600052602052604060002090565b6104ca906104c560209160009261049b565b61034c565b90565b346104fd576104f96104e86104e3366004610445565b6104b3565b6104f061030d565b9182918261037a565b0390f35b610313565b61050f601660009061034c565b90565b346105425761052236600461031d565b61053e61052d610502565b61053561030d565b9182918261037a565b0390f35b610313565b7f000000000000000000000000000000000000000000000000000000000000000090565b3461059b5761057b36600461031d565b610597610586610547565b61058e61030d565b9182918261037a565b0390f35b610313565b6105b7906105b260219160009261049b565b61034c565b90565b346105ea576105e66105d56105d0366004610445565b6105a0565b6105dd61030d565b9182918261037a565b0390f35b610313565b151590565b6105fd906105ef565b9052565b9190610615906000602085019401906105f4565b565b346106475761064361063261062d366004610445565b61140a565b61063a61030d565b91829182610601565b0390f35b610313565b7f000000000000000000000000000000000000000000000000000000000000000090565b346106a05761068036600461031d565b61069c61068b61064c565b61069361030d565b9182918261037a565b0390f35b610313565b6106b2600960009061034c565b90565b346106e5576106c536600461031d565b6106e16106d06106a5565b6106d861030d565b9182918261037a565b0390f35b610313565b6106f7600160009061034c565b90565b3461072a5761070a36600461031d565b6107266107156106ea565b61071d61030d565b9182918261037a565b0390f35b610313565b60000190565b346107635761074d610748366004610445565b6116bc565b61075561030d565b8061075f8161072f565b0390f35b610313565b346107965761078061077b366004610445565b611732565b61078861030d565b806107928161072f565b0390f35b610313565b6107a8601560009061034c565b90565b346107db576107bb36600461031d565b6107d76107c661079b565b6107ce61030d565b9182918261037a565b0390f35b610313565b6107e98161036a565b036107f057565b600080fd5b90503590610802826107e0565b565b6080818303126108465761081b82600083016107f5565b9261084361082c84602085016107f5565b9361083a81604086016107f5565b936060016107f5565b90565b610318565b3461087d5761086761085e366004610804565b929190916117fa565b61086f61030d565b806108798161072f565b0390f35b610313565b61088f601360009061034c565b90565b346108c2576108a236600461031d565b6108be6108ad610882565b6108b561030d565b9182918261037a565b0390f35b610313565b346108f7576108f36108e26108dd366004610445565b611808565b6108ea61030d565b91829182610601565b0390f35b610313565b610909601460009061034c565b90565b3461093c5761091c36600461031d565b6109386109276108fc565b61092f61030d565b9182918261037a565b0390f35b610313565b61094e600f60009061034c565b90565b346109815761096136600461031d565b61097d61096c610941565b61097461030d565b9182918261037a565b0390f35b610313565b61099d9061099860239160009261049b565b61034c565b90565b346109d0576109cc6109bb6109b6366004610445565b610986565b6109c361030d565b9182918261037a565b0390f35b610313565b34610a03576109ed6109e8366004610445565b611918565b6109f561030d565b806109ff8161072f565b0390f35b610313565b610a1f90610a1a601d9160009261049b565b61034c565b90565b34610a5257610a4e610a3d610a38366004610445565b610a08565b610a4561030d565b9182918261037a565b0390f35b610313565b610a64600e60009061034c565b90565b34610a9757610a7736600461031d565b610a93610a82610a57565b610a8a61030d565b9182918261037a565b0390f35b610313565b610ab390610aae60229160009261049b565b61034c565b90565b34610ae657610ae2610ad1610acc366004610445565b610a9c565b610ad961030d565b9182918261037a565b0390f35b610313565b610af8600860009061034c565b90565b34610b2b57610b0b36600461031d565b610b27610b16610aeb565b610b1e61030d565b9182918261037a565b0390f35b610313565b60018060a01b031690565b610b4b906008610b50930261032d565b610b30565b90565b90610b5e9154610b3b565b90565b610b6c600080610b53565b90565b610b7890610415565b9052565b9190610b9090600060208501940190610b6f565b565b34610bc257610ba236600461031d565b610bbe610bad610b61565b610bb561030d565b91829182610b7c565b0390f35b610313565b610bd4600260009061034c565b90565b34610c0757610be736600461031d565b610c03610bf2610bc7565b610bfa61030d565b9182918261037a565b0390f35b610313565b610c19601060009061034c565b90565b34610c4c57610c2c36600461031d565b610c48610c37610c0c565b610c3f61030d565b9182918261037a565b0390f35b610313565b610c5e600460009061034c565b90565b34610c9157610c7136600461031d565b610c8d610c7c610c51565b610c8461030d565b9182918261037a565b0390f35b610313565b610ca3600b60009061034c565b90565b34610cd657610cb636600461031d565b610cd2610cc1610c96565b610cc961030d565b9182918261037a565b0390f35b610313565b610cf290610ced601e9160009261049b565b61034c565b90565b34610d2557610d21610d10610d0b366004610445565b610cdb565b610d1861030d565b9182918261037a565b0390f35b610313565b610d37600a60009061034c565b90565b34610d6a57610d4a36600461031d565b610d66610d55610d2a565b610d5d61030d565b9182918261037a565b0390f35b610313565b601f801991011690565b634e487b7160e01b600052604160045260246000fd5b90610d9990610d6f565b810190811067ffffffffffffffff821117610db357604052565b610d79565b90610dcb610dc461030d565b9283610d8f565b565b67ffffffffffffffff8111610deb57610de7602091610d6f565b0190565b610d79565b90610e02610dfd83610dcd565b610db8565b918252565b60007f57654c61756e63682e66756e6473000000000000000000000000000000000000910152565b610e39600e610df0565b90610e4660208301610e07565b565b610e50610e2f565b90565b610e5b610e48565b90565b610e66610e53565b90565b5190565b60209181520190565b60005b838110610e8a575050906000910152565b806020918301518185015201610e79565b610eba610ec3602093610ec893610eb181610e69565b93848093610e6d565b95869101610e76565b610d6f565b0190565b610ee29160208201916000818403910152610e9b565b90565b34610f1557610ef536600461031d565b610f11610f00610e5e565b610f0861030d565b91829182610ecc565b0390f35b610313565b60018060a01b031690565b610f35906008610f3a930261032d565b610f1a565b90565b90610f489154610f25565b90565b610f586007600090610f3d565b90565b610f649061040a565b90565b610f7090610f5b565b9052565b9190610f8890600060208501940190610f67565b565b34610fba57610f9a36600461031d565b610fb6610fa5610f4b565b610fad61030d565b91829182610f74565b0390f35b610313565b34610fed57610fd7610fd2366004610445565b61198e565b610fdf61030d565b80610fe98161072f565b0390f35b610313565b610fff600560009061034c565b90565b346110325761101236600461031d565b61102e61101d610ff2565b61102561030d565b9182918261037a565b0390f35b610313565b346110675761106361105261104d366004610445565b611999565b61105a61030d565b91829182610601565b0390f35b610313565b611079601260009061034c565b90565b346110ac5761108c36600461031d565b6110a861109761106c565b61109f61030d565b9182918261037a565b0390f35b610313565b6110be601760009061034c565b90565b346110f1576110d136600461031d565b6110ed6110dc6110b1565b6110e461030d565b9182918261037a565b0390f35b610313565b611103600c60009061034c565b90565b346111365761111636600461031d565b6111326111216110f6565b61112961030d565b9182918261037a565b0390f35b610313565b6111529061114d601f9160009261049b565b61034c565b90565b346111855761118161117061116b366004610445565b61113b565b61117861030d565b9182918261037a565b0390f35b610313565b611197601160009061034c565b90565b346111ca576111aa36600461031d565b6111c66111b561118a565b6111bd61030d565b9182918261037a565b0390f35b610313565b7f000000000000000000000000000000000000000000000000000000000000000090565b346112235761120336600461031d565b61121f61120e6111cf565b61121661030d565b9182918261037a565b0390f35b610313565b611235600d60009061034c565b90565b346112685761124836600461031d565b611264611253611228565b61125b61030d565b9182918261037a565b0390f35b610313565b3461129b57611285611280366004610445565b611b30565b61128d61030d565b806112978161072f565b0390f35b610313565b346112d0576112cc6112bb6112b6366004610445565b611b3b565b6112c361030d565b91829182610601565b0390f35b610313565b6112ec906112e7601c9160009261049b565b61034c565b90565b3461131f5761131b61130a611305366004610445565b6112d5565b61131261030d565b9182918261037a565b0390f35b610313565b600080fd5b600090565b600090565b5490565b90565b61134e61134961135392611337565b610464565b61036a565b90565b6001611362910161036a565b90565b634e487b7160e01b600052603260045260246000fd5b600052602060002090565b61138f81611333565b8210156113aa576113a160019161137b565b91020190600090565b611365565b60007f41646472657373206e6f7420666f756e64000000000000000000000000000000910152565b6113e46011602092610e6d565b6113ed816113af565b0190565b61140790602081019060008183039101526113d7565b90565b611412611329565b5061141b61132e565b50611426601a611333565b90611431600061133a565b5b8061144561143f8561036a565b9161036a565b101561148d5761146061145a601a8390611386565b90610b53565b61147261146c84610415565b91610415565b146114855761148090611356565b611432565b505050600190565b61149561030d565b62461bcd60e51b8152806114ab600482016113f1565b0390fd5b60001c90565b6114c16114c6916114af565b610b30565b90565b6114d390546114b5565b90565b156114dd57565b600080fd5b6115109061150b336115056114ff6114fa60006114c9565b610415565b91610415565b146114d6565b611681565b565b61152661152161152b92611337565b610464565b61040a565b90565b61153790611512565b90565b60007f496e76616c696420616464726573730000000000000000000000000000000000910152565b61156f600f602092610e6d565b6115788161153a565b0190565b6115929060208101906000818303910152611562565b90565b1561159c57565b6115a461030d565b62461bcd60e51b8152806115ba6004820161157c565b0390fd5b90565b600052602060002090565b5490565b6115d9816115cc565b8210156115f4576115eb6001916115c1565b91020190600090565b611365565b1b90565b9190600861161d91029161161760018060a01b03846115f9565b926115f9565b9181191691161790565b90565b919061164061163b6116489361048f565b611627565b9083546115fd565b9055565b908154916801000000000000000083101561167c578261167491600161167a950181556115d0565b9061162a565b565b610d79565b6116ba906116ab816116a461169e611699600061152e565b610415565b91610415565b1415611595565b6116b5601a6115be565b61164c565b565b6116c5906114e2565b565b6116f5906116f0336116ea6116e46116df60006114c9565b610415565b91610415565b146114d6565b6116f7565b565b611730906117218161171a61171461170f600061152e565b610415565b91610415565b1415611595565b61172b601b6115be565b61164c565b565b61173b906116c7565b565b9061176e9392916117693361176361175d61175860006114c9565b610415565b91610415565b146114d6565b6117cc565b565b60001b90565b9061178360001991611770565b9181191691161790565b6117a161179c6117a69261036a565b610464565b61036a565b90565b90565b906117c16117bc6117c89261178d565b6117a9565b8254611776565b9055565b916117ea6117f1926117e36117f8969560086117ac565b60096117ac565b600a6117ac565b600b6117ac565b565b9061180693929161173d565b565b611810611329565b5061181961132e565b506118246018611333565b9061182f600061133a565b5b8061184361183d8561036a565b9161036a565b101561188b5761185e61185860188390611386565b90610b53565b61187061186a84610415565b91610415565b146118835761187e90611356565b611830565b505050600190565b61189361030d565b62461bcd60e51b8152806118a9600482016113f1565b0390fd5b6118db906118d6336118d06118ca6118c560006114c9565b610415565b91610415565b146114d6565b6118dd565b565b61191690611907816119006118fa6118f5600061152e565b610415565b91610415565b1415611595565b61191160186115be565b61164c565b565b611921906118ad565b565b6119519061194c3361194661194061193b60006114c9565b610415565b91610415565b146114d6565b611953565b565b61198c9061197d8161197661197061196b600061152e565b610415565b91610415565b1415611595565b61198760196115be565b61164c565b565b61199790611923565b565b6119a1611329565b506119aa61132e565b506119b56019611333565b906119c0600061133a565b5b806119d46119ce8561036a565b9161036a565b1015611a1c576119ef6119e960198390611386565b90610b53565b611a016119fb84610415565b91610415565b14611a1457611a0f90611356565b6119c1565b505050600190565b611a2461030d565b62461bcd60e51b815280611a3a600482016113f1565b0390fd5b611a6c90611a6733611a61611a5b611a5660006114c9565b610415565b91610415565b146114d6565b611aa9565b565b90611a7f60018060a01b0391611770565b9181191691161790565b90611a9e611a99611aa59261048f565b611627565b8254611a6e565b9055565b611b2e90611ad381611acc611ac6611ac1600061152e565b610415565b91610415565b14156114d6565b611add60006114c9565b81611b11611b0b7f8be0079c531659141344cd1fd0a4f28419497f9722a3daafe3b4186f6b6457e09361048f565b9161048f565b91611b1a61030d565b80611b248161072f565b0390a36000611a89565b565b611b3990611a3e565b565b611b43611329565b50611b4c61132e565b50611b57601b611333565b90611b62600061133a565b5b80611b76611b708561036a565b9161036a565b1015611bbe57611b91611b8b601b8390611386565b90610b53565b611ba3611b9d84610415565b91610415565b14611bb657611bb190611356565b611b63565b505050600190565b611bc661030d565b62461bcd60e51b815280611bdc600482016113f1565b0390fd5b60007f5468652073616c65206973206e6f742073746172746564207965742000000000910152565b611c15601c602092610e6d565b611c1e81611be0565b0190565b611c389060208101906000818303910152611c08565b90565b15611c4257565b611c4a61030d565b62461bcd60e51b815280611c6060048201611c22565b0390fd5b60007f5468652073616c6520697320636c6f7365640000000000000000000000000000910152565b611c996012602092610e6d565b611ca281611c64565b0190565b611cbc9060208101906000818303910152611c8c565b90565b15611cc657565b611cce61030d565b62461bcd60e51b815280611ce460048201611ca6565b0390fd5b611cf4611cf9916114af565b610331565b90565b611d069054611ce8565b90565b634e487b7160e01b600052601160045260246000fd5b611d2e611d349193929361036a565b9261036a565b8201809211611d3f57565b611d09565b60207f206d617820636170000000000000000000000000000000000000000000000000917f627579546f6b656e733a20707572636861736520776f756c642065786365656460008201520152565b611d9f6028604092610e6d565b611da881611d44565b0190565b611dc29060208101906000818303910152611d92565b90565b15611dcc57565b611dd461030d565b62461bcd60e51b815280611dea60048201611dac565b0390fd5b60007f796f75722070757263686173696e6720506f77657220697320736f204c6f7700910152565b611e23601f602092610e6d565b611e2c81611dee565b0190565b611e469060208101906000818303910152611e16565b90565b15611e5057565b611e5861030d565b62461bcd60e51b815280611e6e60048201611e30565b0390fd5b60207f205469657220466f7572206d6178206361700000000000000000000000000000917f627579546f6b656e733a20707572636861736520776f756c642065786365656460008201520152565b611ecd6032604092610e6d565b611ed681611e72565b0190565b611ef09060208101906000818303910152611ec0565b90565b15611efa57565b611f0261030d565b62461bcd60e51b815280611f1860048201611eda565b0390fd5b60207f207468616e20796f757220746965722d34206c696d6974210000000000000000917f627579546f6b656e733a596f752061726520696e76657374696e67206d6f726560008201520152565b611f776038604092610e6d565b611f8081611f1c565b0190565b611f9a9060208101906000818303910152611f6a565b90565b15611fa457565b611fac61030d565b62461bcd60e51b815280611fc260048201611f84565b0390fd5b611fd2611fd7916114af565b610f1a565b90565b611fe49054611fc6565b90565b611ff090610483565b90565b60207f207468616e20796f757220746965722d33206c696d6974210000000000000000917f627579546f6b656e733a596f752061726520696e76657374696e67206d6f726560008201520152565b61204e6038604092610e6d565b61205781611ff3565b0190565b6120719060208101906000818303910152612041565b90565b1561207b57565b61208361030d565b62461bcd60e51b8152806120996004820161205b565b0390fd5b60207f2054696572207468726565206d61782063617000000000000000000000000000917f627579546f6b656e733a20707572636861736520776f756c642065786365656460008201520152565b6120f86033604092610e6d565b6121018161209d565b0190565b61211b90602081019060008183039101526120eb565b90565b1561212557565b61212d61030d565b62461bcd60e51b81528061214360048201612105565b0390fd5b60207f20546965722074776f206d617820636170000000000000000000000000000000917f627579546f6b656e733a20707572636861736520776f756c642065786365656460008201520152565b6121a26031604092610e6d565b6121ab81612147565b0190565b6121c59060208101906000818303910152612195565b90565b156121cf57565b6121d761030d565b62461bcd60e51b8152806121ed600482016121af565b0390fd5b60207f207468616e20796f757220746965722d32206c696d6974210000000000000000917f627579546f6b656e733a596f752061726520696e76657374696e67206d6f726560008201520152565b61224c6038604092610e6d565b612255816121f1565b0190565b61226f906020810190600081830391015261223f565b90565b1561227957565b61228161030d565b62461bcd60e51b81528061229760048201612259565b0390fd5b60207f2054696572206f6e65206d617820636170000000000000000000000000000000917f627579546f6b656e733a20707572636861736520776f756c642065786365656460008201520152565b6122f66031604092610e6d565b6122ff8161229b565b0190565b61231990602081019060008183039101526122e9565b90565b1561232357565b61232b61030d565b62461bcd60e51b81528061234160048201612303565b0390fd5b60207f207468616e20796f757220746965722d31206c696d6974210000000000000000917f627579546f6b656e733a596f752061726520696e76657374696e67206d6f726560008201520152565b6123a06038604092610e6d565b6123a981612345565b0190565b6123c39060208101906000818303910152612393565b90565b156123cd57565b6123d561030d565b62461bcd60e51b8152806123eb600482016123ad565b0390fd5b61242c4261242561241f7f000000000000000000000000000000000000000000000000000000000000000061036a565b9161036a565b1015611c3b565b6124694261246261245c7f000000000000000000000000000000000000000000000000000000000000000061036a565b9161036a565b1115611cbf565b6124b96124806124796001611cfc565b3490611d1f565b6124b26124ac7f000000000000000000000000000000000000000000000000000000000000000061036a565b9161036a565b1115611dc5565b6124c233611808565b600014612628576124f1346124eb6124dc6020339061049b565b916124e683611cfc565b611d1f565b906117ac565b61252a6125086125036020339061049b565b611cfc565b61252361251d6125186014611cfc565b61036a565b9161036a565b1015611e49565b61256361254161253a6002611cfc565b3490611d1f565b61255c6125566125516008611cfc565b61036a565b9161036a565b111561231c565b6125a661258461257d612578601c339061049b565b611cfc565b3490611d1f565b61259f6125996125946010611cfc565b61036a565b9161036a565b11156123c6565b6125ce346125c86125b9601c339061049b565b916125c383611cfc565b611d1f565b906117ac565b6125eb6125e4346125df6001611cfc565b611d1f565b60016117ac565b612608612601346125fc6002611cfc565b611d1f565b60026117ac565b6126256126156007611fda565b61261e30611fe7565b3190612c47565b5b565b61263133611999565b60001461279a576126603461265a61264b6021339061049b565b9161265583611cfc565b611d1f565b906117ac565b6126996126776126726021339061049b565b611cfc565b61269261268c6126876015611cfc565b61036a565b9161036a565b1015611e49565b6126d26126b06126a96003611cfc565b3490611d1f565b6126cb6126c56126c06009611cfc565b61036a565b9161036a565b11156121c8565b6127156126f36126ec6126e7601d339061049b565b611cfc565b3490611d1f565b61270e6127086127036011611cfc565b61036a565b9161036a565b1115612272565b61273d34612737612728601d339061049b565b9161273283611cfc565b611d1f565b906117ac565b61275a6127533461274e6001611cfc565b611d1f565b60016117ac565b6127776127703461276b6003611cfc565b611d1f565b60036117ac565b6127946127846007611fda565b61278d30611fe7565b3190612c47565b5b612626565b6127a33361140a565b60001461290c576127d2346127cc6127bd6022339061049b565b916127c783611cfc565b611d1f565b906117ac565b61280b6127e96127e46022339061049b565b611cfc565b6128046127fe6127f96016611cfc565b61036a565b9161036a565b1015611e49565b61284e61282c612825612820601e339061049b565b611cfc565b3490611d1f565b61284761284161283c6012611cfc565b61036a565b9161036a565b1115612074565b61288761286561285e6004611cfc565b3490611d1f565b61288061287a612875600a611cfc565b61036a565b9161036a565b111561211e565b6128af346128a961289a601e339061049b565b916128a483611cfc565b611d1f565b906117ac565b6128cc6128c5346128c06001611cfc565b611d1f565b60016117ac565b6128e96128e2346128dd6004611cfc565b611d1f565b60046117ac565b6129066128f66007611fda565b6128ff30611fe7565b3190612c47565b5b612795565b61291533611b3b565b600014612a7d576129443461293e61292f6023339061049b565b9161293983611cfc565b611d1f565b906117ac565b61297d61295b6129566023339061049b565b611cfc565b61297661297061296b6017611cfc565b61036a565b9161036a565b1015611e49565b6129b661299461298d6005611cfc565b3490611d1f565b6129af6129a96129a4600b611cfc565b61036a565b9161036a565b1115611ef3565b6129f96129d76129d06129cb601f339061049b565b611cfc565b3490611d1f565b6129f26129ec6129e76013611cfc565b61036a565b9161036a565b1115611f9d565b612a2134612a1b612a0c601f339061049b565b91612a1683611cfc565b611d1f565b906117ac565b612a3e612a3734612a326001611cfc565b611d1f565b60016117ac565b612a5b612a5434612a4f6005611cfc565b611d1f565b60056117ac565b612a78612a686007611fda565b612a7130611fe7565b3190612c47565b612907565b600080fd5b60007f416464726573733a20696e73756666696369656e742062616c616e6365000000910152565b612ab7601d602092610e6d565b612ac081612a82565b0190565b612ada9060208101906000818303910152612aaa565b90565b15612ae457565b612aec61030d565b62461bcd60e51b815280612b0260048201612ac4565b0390fd5b612b0f90610483565b90565b905090565b612b2360008092612b12565b0190565b612b3090612b17565b90565b67ffffffffffffffff8111612b5157612b4d602091610d6f565b0190565b610d79565b90612b68612b6383612b33565b610db8565b918252565b606090565b3d600014612b8f57612b833d612b56565b903d6000602084013e5b565b612b97612b6d565b90612b8d565b60207f6563697069656e74206d61792068617665207265766572746564000000000000917f416464726573733a20756e61626c6520746f2073656e642076616c75652c207260008201520152565b612bf8603a604092610e6d565b612c0181612b9d565b0190565b612c1b9060208101906000818303910152612beb565b90565b15612c2557565b612c2d61030d565b62461bcd60e51b815280612c4360048201612c05565b0390fd5b6000612ca392612c7d8293612c78612c5e30611fe7565b31612c71612c6b8661036a565b9161036a565b1015612add565b612b06565b90612c8661030d565b9081612c9181612b27565b03925af1612c9d612b72565b50612c1e565b56fea2646970667358221220dd354027952cff93307f5b3a5e3b1ba7fcf0c94afefd81a553f74d4fed93a90364736f6c63430008180033",
  "linkReferences": {},
  "deployedLinkReferences": {}
}