{"contracts/Vault1.sol":{"Vault1":{"abi":[{"inputs":[],"stateMutability":"nonpayable","type":"constructor"},{"inputs":[],"name":"MAX_DEPOSIT","outputs":[{"internalType":"uint256","name":"","type":"uint256"}],"stateMutability":"view","type":"function"},{"inputs":[],"name":"MAX_PARTICIPANTS","outputs":[{"internalType":"uint256","name":"","type":"uint256"}],"stateMutability":"view","type":"function"},{"inputs":[],"name":"MIN_DEPOSIT","outputs":[{"internalType":"uint256","name":"","type":"uint256"}],"stateMutability":"view","type":"function"},{"inputs":[],"name":"TOTAL_PARTICIPANTS","outputs":[{"internalType":"uint256","name":"","type":"uint256"}],"stateMutability":"view","type":"function"},{"inputs":[],"name":"allowedToTransfer","outputs":[{"internalType":"address","name":"","type":"address"}],"stateMutability":"view","type":"function"},{"inputs":[{"internalType":"address","name":"","type":"address"}],"name":"balanceOf","outputs":[{"internalType":"uint256","name":"","type":"uint256"}],"stateMutability":"view","type":"function"},{"inputs":[],"name":"deposit","outputs":[],"stateMutability":"payable","type":"function"},{"inputs":[],"name":"getAddressAllowedToTransfer","outputs":[{"internalType":"address","name":"","type":"address"}],"stateMutability":"view","type":"function"},{"inputs":[],"name":"getAddressWithHighestShare","outputs":[{"internalType":"address","name":"","type":"address"}],"stateMutability":"view","type":"function"},{"inputs":[],"name":"getBalance","outputs":[{"internalType":"uint256","name":"","type":"uint256"}],"stateMutability":"view","type":"function"},{"inputs":[],"name":"getSecondUserShare","outputs":[{"internalType":"uint256","name":"","type":"uint256"}],"stateMutability":"view","type":"function"},{"inputs":[],"name":"launchpadContract","outputs":[{"internalType":"address payable","name":"","type":"address"}],"stateMutability":"view","type":"function"},{"inputs":[],"name":"makeTotalParticipant99","outputs":[],"stateMutability":"nonpayable","type":"function"},{"inputs":[],"name":"owner","outputs":[{"internalType":"address","name":"","type":"address"}],"stateMutability":"view","type":"function"},{"inputs":[{"internalType":"uint256","name":"","type":"uint256"}],"name":"participants","outputs":[{"internalType":"address","name":"","type":"address"}],"stateMutability":"view","type":"function"},{"inputs":[{"internalType":"address payable","name":"_launchpadContract","type":"address"}],"name":"setLaunchpadContractAddress","outputs":[],"stateMutability":"nonpayable","type":"function"},{"inputs":[],"name":"totalSupply","outputs":[{"internalType":"uint256","name":"","type":"uint256"}],"stateMutability":"view","type":"function"},{"inputs":[],"name":"transferToLaunchpad","outputs":[],"stateMutability":"nonpayable","type":"function"}],"evm":{"bytecode":{"linkReferences":{},"object":"60a0604052346200003d5762000014620000c1565b6200001e62000043565b611725620000d682396080518181816106a90152610edc015261172590f35b62000049565b60405190565b600080fd5b60001b90565b9062000063600019916200004e565b9181191691161790565b90565b90565b90565b6200008f6200008962000095926200006d565b62000073565b62000070565b90565b90565b90620000b5620000af620000bd9262000076565b62000098565b825462000054565b9055565b620000cf600060056200009b565b3360805256fe60806040526004361015610013575b6108ef565b61001e60003561013d565b806304c4fd901461013857806306dd74a5146101335780630fec19591461012e578063116136da1461012957806312065fe01461012457806318160ddd1461011f57806319507d2c1461011a57806335c1d3491461011557806342373e741461011057806370a082311461010b57806374244bc9146101065780637cda8ed5146101015780638da5cb5b146100fc5780638eaaf2d3146100f7578063d0e30db0146100f2578063dd5967c3146100ed578063e1e158a5146100e85763f3baf0700361000e576108ba565b61084e565b6107dc565b610776565b610743565b6106cb565b610674565b61063f565b6105fa565b610519565b6104e4565b6103f1565b61037b565b61030d565b6102d8565b610233565b6101f8565b61019d565b60e01c90565b60405190565b600080fd5b600080fd5b600091031261015e57565b61014e565b60018060a01b031690565b61017790610163565b90565b6101839061016e565b9052565b919061019b9060006020850194019061017a565b565b346101cd576101ad366004610153565b6101c96101b8610920565b6101c0610143565b91829182610187565b0390f35b610149565b90565b6101de906101d2565b9052565b91906101f6906000602085019401906101d5565b565b3461022857610208366004610153565b61022461021361095c565b61021b610143565b918291826101e2565b0390f35b610149565b60000190565b3461026157610243366004610153565b61024b610c3b565b610253610143565b8061025d8161022d565b0390f35b610149565b1c90565b60018060a01b031690565b61028590600861028a9302610266565b61026a565b90565b906102989154610275565b90565b6102a660008061028d565b90565b6102b290610163565b90565b6102be906102a9565b9052565b91906102d6906000602085019401906102b5565b565b34610308576102e8366004610153565b6103046102f361029b565b6102fb610143565b918291826102c2565b0390f35b610149565b3461033d5761031d366004610153565b610339610328610c45565b610330610143565b918291826101e2565b0390f35b610149565b90565b61035590600861035a9302610266565b610342565b90565b906103689154610345565b90565b610378600260009061035d565b90565b346103ab5761038b366004610153565b6103a761039661036b565b61039e610143565b918291826101e2565b0390f35b610149565b60018060a01b031690565b6103cb9060086103d09302610266565b6103b0565b90565b906103de91546103bb565b90565b6103ee60046000906103d3565b90565b3461042157610401366004610153565b61041d61040c6103e1565b610414610143565b91829182610187565b0390f35b610149565b61042f816101d2565b0361043657565b600080fd5b9050359061044882610426565b565b90602082820312610464576104619160000161043b565b90565b61014e565b634e487b7160e01b600052603260045260246000fd5b5490565b600052602060002090565b6104978161047f565b8210156104b2576104a9600191610483565b91020190600090565b610469565b60016104c28161047f565b8210156104df576104dc916104d69161048e565b906103d3565b90565b600080fd5b34610514576105106104ff6104fa36600461044a565b6104b7565b610507610143565b91829182610187565b0390f35b610149565b3461054957610529366004610153565b610545610534610d0d565b61053c610143565b91829182610187565b0390f35b610149565b6105578161016e565b0361055e57565b600080fd5b905035906105708261054e565b565b9060208282031261058c5761058991600001610563565b90565b61014e565b90565b6105a86105a36105ad92610163565b610591565b610163565b90565b6105b990610594565b90565b6105c5906105b0565b90565b906105d2906105bc565b600052602052604060002090565b6105f7906105f26003916000926105c8565b61035d565b90565b3461062a57610626610615610610366004610572565b6105e0565b61061d610143565b918291826101e2565b0390f35b610149565b61063c600560009061035d565b90565b3461066f5761064f366004610153565b61066b61065a61062f565b610662610143565b918291826101e2565b0390f35b610149565b346106a257610684366004610153565b61068c610fa7565b610694610143565b8061069e8161022d565b0390f35b610149565b7f000000000000000000000000000000000000000000000000000000000000000090565b346106fb576106db366004610153565b6106f76106e66106a7565b6106ee610143565b91829182610187565b0390f35b610149565b610709816102a9565b0361071057565b600080fd5b9050359061072282610700565b565b9060208282031261073e5761073b91600001610715565b90565b61014e565b346107715761075b610756366004610724565b611007565b610763610143565b8061076d8161022d565b0390f35b610149565b610781366004610153565b6107896111e2565b610791610143565b8061079b8161022d565b0390f35b90565b6107b66107b16107bb9261079f565b610591565b6101d2565b90565b6107ce668e1bc9bf0400006107a2565b90565b6107d96107be565b90565b3461080c576107ec366004610153565b6108086107f76107d1565b6107ff610143565b918291826101e2565b0390f35b610149565b90565b61082861082361082d92610811565b610591565b6101d2565b90565b61084066470de4df820000610814565b90565b61084b610830565b90565b3461087e5761085e366004610153565b61087a610869610843565b610871610143565b918291826101e2565b0390f35b610149565b90565b61089a61089561089f92610883565b610591565b6101d2565b90565b6108ac6064610886565b90565b6108b76108a2565b90565b346108ea576108ca366004610153565b6108e66108d56108af565b6108dd610143565b918291826101e2565b0390f35b610149565b600080fd5b600090565b60001c90565b61090b610910916108f9565b6103b0565b90565b61091d90546108ff565b90565b6109286108f4565b506109336004610913565b90565b600090565b61094761094c916108f9565b610342565b90565b610959905461093b565b90565b610964610936565b5061098c610987600361098161097b60018061048e565b906103d3565b906105c8565b61094f565b90565b60209181520190565b60007f4e6f7420616c6c6f77656420746f207472616e736665722066756e6473000000910152565b6109cd601d60209261098f565b6109d681610998565b0190565b6109f090602081019060008183039101526109c0565b90565b156109fa57565b610a02610143565b62461bcd60e51b815280610a18600482016109da565b0390fd5b610a41610a296004610913565b610a3b610a353361016e565b9161016e565b146109f3565b610a49610acf565b565b60007f5661756c74206973206e6f742066756c6c207965740000000000000000000000910152565b610a80601560209261098f565b610a8981610a4b565b0190565b610aa39060208101906000818303910152610a73565b90565b15610aad57565b610ab5610143565b62461bcd60e51b815280610acb60048201610a8d565b0390fd5b610afb610adc600561094f565b610af5610aef610aea6108a2565b6101d2565b916101d2565b14610aa6565b610b03610bed565b565b610b11610b16916108f9565b61026a565b90565b610b239054610b05565b90565b90565b610b3d610b38610b4292610b26565b610591565b610163565b90565b610b4e90610b29565b90565b610b5a906105b0565b90565b60007f4c61756e636870616420636f6e7472616374206e6f7420736574000000000000910152565b610b92601a60209261098f565b610b9b81610b5d565b0190565b610bb59060208101906000818303910152610b85565b90565b15610bbf57565b610bc7610143565b62461bcd60e51b815280610bdd60048201610b9f565b0390fd5b610bea906105b0565b90565b610c1c610bfa6000610b19565b610c15610c0f610c0a6000610b45565b61016e565b91610b51565b1415610bb8565b610c39610c296000610b19565b610c3230610be1565b31906114b4565b565b610c43610a1c565b565b610c4d610936565b50610c5730610be1565b3190565b60007f537562736372697074696f6e206e6f7420656e64656400000000000000000000910152565b610c90601660209261098f565b610c9981610c5b565b0190565b610cb39060208101906000818303910152610c83565b90565b15610cbd57565b610cc5610143565b62461bcd60e51b815280610cdb60048201610c9d565b0390fd5b90565b610cf6610cf1610cfb92610cdf565b610591565b6101d2565b90565b6001610d0a91016101d2565b90565b610d156108f4565b50610d42610d23600561094f565b610d3c610d36610d316108a2565b6101d2565b916101d2565b14610cb6565b610d58610d52600160009061048e565b906103d3565b610d81610d7c6003610d76610d70600160009061048e565b906103d3565b906105c8565b61094f565b610d8b6001610ce2565b5b80610da8610da2610d9d600161047f565b6101d2565b916101d2565b1015610e2157610dc3610dbd6001839061048e565b906103d3565b610dd7610dd2600383906105c8565b61094f565b610de9610de3856101d2565b916101d2565b11610dfe575b50610df990610cfe565b610d8c565b91509150610df9610e19610e14600384906105c8565b61094f565b919290610def565b505090565b60207f6f6e000000000000000000000000000000000000000000000000000000000000917f4f6e6c79206f776e65722063616e20706572666f726d2074686973206163746960008201520152565b610e81602260409261098f565b610e8a81610e26565b0190565b610ea49060208101906000818303910152610e74565b90565b15610eae57565b610eb6610143565b62461bcd60e51b815280610ecc60048201610e8e565b0390fd5b610f0c33610f06610f007f000000000000000000000000000000000000000000000000000000000000000061016e565b9161016e565b14610ea7565b610f14610f91565b565b90565b610f2d610f28610f3292610f16565b610591565b6101d2565b90565b60001b90565b90610f4860001991610f35565b9181191691161790565b610f66610f61610f6b926101d2565b610591565b6101d2565b90565b90565b90610f86610f81610f8d92610f52565b610f6e565b8254610f3b565b9055565b610fa5610f9e6063610f19565b6005610f71565b565b610faf610ed0565b565b90610fc260018060a01b0391610f35565b9181191691161790565b610fd590610594565b90565b610fe190610fcc565b90565b90565b90610ffc610ff761100392610fd8565b610fe4565b8254610fb1565b9055565b611012906000610fe7565b565b61102861102361102d92610b26565b610591565b6101d2565b90565b60007f557365722068617320616c7265616479206465706f7369746564000000000000910152565b611065601a60209261098f565b61106e81611030565b0190565b6110889060208101906000818303910152611058565b90565b1561109257565b61109a610143565b62461bcd60e51b8152806110b060048201611072565b0390fd5b60007f496e76616c6964206465706f73697420616d6f756e7400000000000000000000910152565b6110e9601660209261098f565b6110f2816110b4565b0190565b61110c90602081019060008183039101526110dc565b90565b1561111657565b61111e610143565b62461bcd60e51b815280611134600482016110f6565b0390fd5b60207f65206465706f7369747300000000000000000000000000000000000000000000917f5661756c742069732066756c6c2c2063616e6e6f7420616363657074206d6f7260008201520152565b611193602a60409261098f565b61119c81611138565b0190565b6111b69060208101906000818303910152611186565b90565b156111c057565b6111c8610143565b62461bcd60e51b8152806111de600482016111a0565b0390fd5b6112126111f96111f4600333906105c8565b61094f565b61120c6112066000611014565b916101d2565b1461108b565b3461122c611226611221610830565b6101d2565b916101d2565b101580611276575b61123d9061110f565b61126a61124a600561094f565b61126361125d6112586108a2565b6101d2565b916101d2565b11156111b9565b6112743433611630565b565b5061123d3461129461128e6112896107be565b6101d2565b916101d2565b11159050611234565b60007f416464726573733a20696e73756666696369656e742062616c616e6365000000910152565b6112d2601d60209261098f565b6112db8161129d565b0190565b6112f590602081019060008183039101526112c5565b90565b156112ff57565b611307610143565b62461bcd60e51b81528061131d600482016112df565b0390fd5b905090565b61133260008092611321565b0190565b61133f90611326565b90565b601f801991011690565b634e487b7160e01b600052604160045260246000fd5b9061136c90611342565b810190811067ffffffffffffffff82111761138657604052565b61134c565b9061139e611397610143565b9283611362565b565b67ffffffffffffffff81116113be576113ba602091611342565b0190565b61134c565b906113d56113d0836113a0565b61138b565b918252565b606090565b3d6000146113fc576113f03d6113c3565b903d6000602084013e5b565b6114046113da565b906113fa565b60207f6563697069656e74206d61792068617665207265766572746564000000000000917f416464726573733a20756e61626c6520746f2073656e642076616c75652c207260008201520152565b611465603a60409261098f565b61146e8161140a565b0190565b6114889060208101906000818303910152611458565b90565b1561149257565b61149a610143565b62461bcd60e51b8152806114b060048201611472565b0390fd5b6000611510926114ea82936114e56114cb30610be1565b316114de6114d8866101d2565b916101d2565b10156112f8565b610b51565b906114f3610143565b90816114fe81611336565b03925af161150a6113df565b5061148b565b565b634e487b7160e01b600052601160045260246000fd5b61153761153d919392936101d2565b926101d2565b820180921161154857565b611512565b90565b600052602060002090565b5490565b6115688161155b565b8210156115835761157a600191611550565b91020190600090565b610469565b1b90565b919060086115ac9102916115a660018060a01b0384611588565b92611588565b9181191691161790565b90565b91906115cf6115ca6115d7936105bc565b6115b6565b90835461158c565b9055565b908154916801000000000000000083101561160b57826116039160016116099501815561155f565b906115b9565b565b61134c565b9061162561162061162c926105bc565b6115b6565b8254610fb1565b9055565b6116786116ad9261165461164d82611648600261094f565b611528565b6002610f71565b611672611663600385906105c8565b9161166d8361094f565b611528565b90610f71565b61169e6116976116886001610ce2565b611692600561094f565b611528565b6005610f71565b6116a8600161154d565b6115db565b6116b7600561094f565b6116d06116ca6116c56108a2565b6101d2565b916101d2565b146116d8575b565b6116ea6116e3610d0d565b6004611610565b6116d656fea26469706673582212200660741ab8442433aa5b12fc64821ee8873f47b7525a24e6e28f25e45500178a64736f6c63430008180033","opcodes":"PUSH1 0xA0 PUSH1 0x40 MSTORE CALLVALUE PUSH3 0x3D JUMPI PUSH3 0x14 PUSH3 0xC1 JUMP JUMPDEST PUSH3 0x1E PUSH3 0x43 JUMP JUMPDEST PUSH2 0x1725 PUSH3 0xD6 DUP3 CODECOPY PUSH1 0x80 MLOAD DUP2 DUP2 DUP2 PUSH2 0x6A9 ADD MSTORE PUSH2 0xEDC ADD MSTORE PUSH2 0x1725 SWAP1 RETURN JUMPDEST PUSH3 0x49 JUMP JUMPDEST PUSH1 0x40 MLOAD SWAP1 JUMP JUMPDEST PUSH1 0x0 DUP1 REVERT JUMPDEST PUSH1 0x0 SHL SWAP1 JUMP JUMPDEST SWAP1 PUSH3 0x63 PUSH1 0x0 NOT SWAP2 PUSH3 0x4E JUMP JUMPDEST SWAP2 DUP2 NOT AND SWAP2 AND OR SWAP1 JUMP JUMPDEST SWAP1 JUMP JUMPDEST SWAP1 JUMP JUMPDEST SWAP1 JUMP JUMPDEST PUSH3 0x8F PUSH3 0x89 PUSH3 0x95 SWAP3 PUSH3 0x6D JUMP JUMPDEST PUSH3 0x73 JUMP JUMPDEST PUSH3 0x70 JUMP JUMPDEST SWAP1 JUMP JUMPDEST SWAP1 JUMP JUMPDEST SWAP1 PUSH3 0xB5 PUSH3 0xAF PUSH3 0xBD SWAP3 PUSH3 0x76 JUMP JUMPDEST PUSH3 0x98 JUMP JUMPDEST DUP3 SLOAD PUSH3 0x54 JUMP JUMPDEST SWAP1 SSTORE JUMP JUMPDEST PUSH3 0xCF PUSH1 0x0 PUSH1 0x5 PUSH3 0x9B JUMP JUMPDEST CALLER PUSH1 0x80 MSTORE JUMP INVALID PUSH1 0x80 PUSH1 0x40 MSTORE PUSH1 0x4 CALLDATASIZE LT ISZERO PUSH2 0x13 JUMPI JUMPDEST PUSH2 0x8EF JUMP JUMPDEST PUSH2 0x1E PUSH1 0x0 CALLDATALOAD PUSH2 0x13D JUMP JUMPDEST DUP1 PUSH4 0x4C4FD90 EQ PUSH2 0x138 JUMPI DUP1 PUSH4 0x6DD74A5 EQ PUSH2 0x133 JUMPI DUP1 PUSH4 0xFEC1959 EQ PUSH2 0x12E JUMPI DUP1 PUSH4 0x116136DA EQ PUSH2 0x129 JUMPI DUP1 PUSH4 0x12065FE0 EQ PUSH2 0x124 JUMPI DUP1 PUSH4 0x18160DDD EQ PUSH2 0x11F JUMPI DUP1 PUSH4 0x19507D2C EQ PUSH2 0x11A JUMPI DUP1 PUSH4 0x35C1D349 EQ PUSH2 0x115 JUMPI DUP1 PUSH4 0x42373E74 EQ PUSH2 0x110 JUMPI DUP1 PUSH4 0x70A08231 EQ PUSH2 0x10B JUMPI DUP1 PUSH4 0x74244BC9 EQ PUSH2 0x106 JUMPI DUP1 PUSH4 0x7CDA8ED5 EQ PUSH2 0x101 JUMPI DUP1 PUSH4 0x8DA5CB5B EQ PUSH2 0xFC JUMPI DUP1 PUSH4 0x8EAAF2D3 EQ PUSH2 0xF7 JUMPI DUP1 PUSH4 0xD0E30DB0 EQ PUSH2 0xF2 JUMPI DUP1 PUSH4 0xDD5967C3 EQ PUSH2 0xED JUMPI DUP1 PUSH4 0xE1E158A5 EQ PUSH2 0xE8 JUMPI PUSH4 0xF3BAF070 SUB PUSH2 0xE JUMPI PUSH2 0x8BA JUMP JUMPDEST PUSH2 0x84E JUMP JUMPDEST PUSH2 0x7DC JUMP JUMPDEST PUSH2 0x776 JUMP JUMPDEST PUSH2 0x743 JUMP JUMPDEST PUSH2 0x6CB JUMP JUMPDEST PUSH2 0x674 JUMP JUMPDEST PUSH2 0x63F JUMP JUMPDEST PUSH2 0x5FA JUMP JUMPDEST PUSH2 0x519 JUMP JUMPDEST PUSH2 0x4E4 JUMP JUMPDEST PUSH2 0x3F1 JUMP JUMPDEST PUSH2 0x37B JUMP JUMPDEST PUSH2 0x30D JUMP JUMPDEST PUSH2 0x2D8 JUMP JUMPDEST PUSH2 0x233 JUMP JUMPDEST PUSH2 0x1F8 JUMP JUMPDEST PUSH2 0x19D JUMP JUMPDEST PUSH1 0xE0 SHR SWAP1 JUMP JUMPDEST PUSH1 0x40 MLOAD SWAP1 JUMP JUMPDEST PUSH1 0x0 DUP1 REVERT JUMPDEST PUSH1 0x0 DUP1 REVERT JUMPDEST PUSH1 0x0 SWAP2 SUB SLT PUSH2 0x15E JUMPI JUMP JUMPDEST PUSH2 0x14E JUMP JUMPDEST PUSH1 0x1 DUP1 PUSH1 0xA0 SHL SUB AND SWAP1 JUMP JUMPDEST PUSH2 0x177 SWAP1 PUSH2 0x163 JUMP JUMPDEST SWAP1 JUMP JUMPDEST PUSH2 0x183 SWAP1 PUSH2 0x16E JUMP JUMPDEST SWAP1 MSTORE JUMP JUMPDEST SWAP2 SWAP1 PUSH2 0x19B SWAP1 PUSH1 0x0 PUSH1 0x20 DUP6 ADD SWAP5 ADD SWAP1 PUSH2 0x17A JUMP JUMPDEST JUMP JUMPDEST CALLVALUE PUSH2 0x1CD JUMPI PUSH2 0x1AD CALLDATASIZE PUSH1 0x4 PUSH2 0x153 JUMP JUMPDEST PUSH2 0x1C9 PUSH2 0x1B8 PUSH2 0x920 JUMP JUMPDEST PUSH2 0x1C0 PUSH2 0x143 JUMP JUMPDEST SWAP2 DUP3 SWAP2 DUP3 PUSH2 0x187 JUMP JUMPDEST SUB SWAP1 RETURN JUMPDEST PUSH2 0x149 JUMP JUMPDEST SWAP1 JUMP JUMPDEST PUSH2 0x1DE SWAP1 PUSH2 0x1D2 JUMP JUMPDEST SWAP1 MSTORE JUMP JUMPDEST SWAP2 SWAP1 PUSH2 0x1F6 SWAP1 PUSH1 0x0 PUSH1 0x20 DUP6 ADD SWAP5 ADD SWAP1 PUSH2 0x1D5 JUMP JUMPDEST JUMP JUMPDEST CALLVALUE PUSH2 0x228 JUMPI PUSH2 0x208 CALLDATASIZE PUSH1 0x4 PUSH2 0x153 JUMP JUMPDEST PUSH2 0x224 PUSH2 0x213 PUSH2 0x95C JUMP JUMPDEST PUSH2 0x21B PUSH2 0x143 JUMP JUMPDEST SWAP2 DUP3 SWAP2 DUP3 PUSH2 0x1E2 JUMP JUMPDEST SUB SWAP1 RETURN JUMPDEST PUSH2 0x149 JUMP JUMPDEST PUSH1 0x0 ADD SWAP1 JUMP JUMPDEST CALLVALUE PUSH2 0x261 JUMPI PUSH2 0x243 CALLDATASIZE PUSH1 0x4 PUSH2 0x153 JUMP JUMPDEST PUSH2 0x24B PUSH2 0xC3B JUMP JUMPDEST PUSH2 0x253 PUSH2 0x143 JUMP JUMPDEST DUP1 PUSH2 0x25D DUP2 PUSH2 0x22D JUMP JUMPDEST SUB SWAP1 RETURN JUMPDEST PUSH2 0x149 JUMP JUMPDEST SHR SWAP1 JUMP JUMPDEST PUSH1 0x1 DUP1 PUSH1 0xA0 SHL SUB AND SWAP1 JUMP JUMPDEST PUSH2 0x285 SWAP1 PUSH1 0x8 PUSH2 0x28A SWAP4 MUL PUSH2 0x266 JUMP JUMPDEST PUSH2 0x26A JUMP JUMPDEST SWAP1 JUMP JUMPDEST SWAP1 PUSH2 0x298 SWAP2 SLOAD PUSH2 0x275 JUMP JUMPDEST SWAP1 JUMP JUMPDEST PUSH2 0x2A6 PUSH1 0x0 DUP1 PUSH2 0x28D JUMP JUMPDEST SWAP1 JUMP JUMPDEST PUSH2 0x2B2 SWAP1 PUSH2 0x163 JUMP JUMPDEST SWAP1 JUMP JUMPDEST PUSH2 0x2BE SWAP1 PUSH2 0x2A9 JUMP JUMPDEST SWAP1 MSTORE JUMP JUMPDEST SWAP2 SWAP1 PUSH2 0x2D6 SWAP1 PUSH1 0x0 PUSH1 0x20 DUP6 ADD SWAP5 ADD SWAP1 PUSH2 0x2B5 JUMP JUMPDEST JUMP JUMPDEST CALLVALUE PUSH2 0x308 JUMPI PUSH2 0x2E8 CALLDATASIZE PUSH1 0x4 PUSH2 0x153 JUMP JUMPDEST PUSH2 0x304 PUSH2 0x2F3 PUSH2 0x29B JUMP JUMPDEST PUSH2 0x2FB PUSH2 0x143 JUMP JUMPDEST SWAP2 DUP3 SWAP2 DUP3 PUSH2 0x2C2 JUMP JUMPDEST SUB SWAP1 RETURN JUMPDEST PUSH2 0x149 JUMP JUMPDEST CALLVALUE PUSH2 0x33D JUMPI PUSH2 0x31D CALLDATASIZE PUSH1 0x4 PUSH2 0x153 JUMP JUMPDEST PUSH2 0x339 PUSH2 0x328 PUSH2 0xC45 JUMP JUMPDEST PUSH2 0x330 PUSH2 0x143 JUMP JUMPDEST SWAP2 DUP3 SWAP2 DUP3 PUSH2 0x1E2 JUMP JUMPDEST SUB SWAP1 RETURN JUMPDEST PUSH2 0x149 JUMP JUMPDEST SWAP1 JUMP JUMPDEST PUSH2 0x355 SWAP1 PUSH1 0x8 PUSH2 0x35A SWAP4 MUL PUSH2 0x266 JUMP JUMPDEST PUSH2 0x342 JUMP JUMPDEST SWAP1 JUMP JUMPDEST SWAP1 PUSH2 0x368 SWAP2 SLOAD PUSH2 0x345 JUMP JUMPDEST SWAP1 JUMP JUMPDEST PUSH2 0x378 PUSH1 0x2 PUSH1 0x0 SWAP1 PUSH2 0x35D JUMP JUMPDEST SWAP1 JUMP JUMPDEST CALLVALUE PUSH2 0x3AB JUMPI PUSH2 0x38B CALLDATASIZE PUSH1 0x4 PUSH2 0x153 JUMP JUMPDEST PUSH2 0x3A7 PUSH2 0x396 PUSH2 0x36B JUMP JUMPDEST PUSH2 0x39E PUSH2 0x143 JUMP JUMPDEST SWAP2 DUP3 SWAP2 DUP3 PUSH2 0x1E2 JUMP JUMPDEST SUB SWAP1 RETURN JUMPDEST PUSH2 0x149 JUMP JUMPDEST PUSH1 0x1 DUP1 PUSH1 0xA0 SHL SUB AND SWAP1 JUMP JUMPDEST PUSH2 0x3CB SWAP1 PUSH1 0x8 PUSH2 0x3D0 SWAP4 MUL PUSH2 0x266 JUMP JUMPDEST PUSH2 0x3B0 JUMP JUMPDEST SWAP1 JUMP JUMPDEST SWAP1 PUSH2 0x3DE SWAP2 SLOAD PUSH2 0x3BB JUMP JUMPDEST SWAP1 JUMP JUMPDEST PUSH2 0x3EE PUSH1 0x4 PUSH1 0x0 SWAP1 PUSH2 0x3D3 JUMP JUMPDEST SWAP1 JUMP JUMPDEST CALLVALUE PUSH2 0x421 JUMPI PUSH2 0x401 CALLDATASIZE PUSH1 0x4 PUSH2 0x153 JUMP JUMPDEST PUSH2 0x41D PUSH2 0x40C PUSH2 0x3E1 JUMP JUMPDEST PUSH2 0x414 PUSH2 0x143 JUMP JUMPDEST SWAP2 DUP3 SWAP2 DUP3 PUSH2 0x187 JUMP JUMPDEST SUB SWAP1 RETURN JUMPDEST PUSH2 0x149 JUMP JUMPDEST PUSH2 0x42F DUP2 PUSH2 0x1D2 JUMP JUMPDEST SUB PUSH2 0x436 JUMPI JUMP JUMPDEST PUSH1 0x0 DUP1 REVERT JUMPDEST SWAP1 POP CALLDATALOAD SWAP1 PUSH2 0x448 DUP3 PUSH2 0x426 JUMP JUMPDEST JUMP JUMPDEST SWAP1 PUSH1 0x20 DUP3 DUP3 SUB SLT PUSH2 0x464 JUMPI PUSH2 0x461 SWAP2 PUSH1 0x0 ADD PUSH2 0x43B JUMP JUMPDEST SWAP1 JUMP JUMPDEST PUSH2 0x14E JUMP JUMPDEST PUSH4 0x4E487B71 PUSH1 0xE0 SHL PUSH1 0x0 MSTORE PUSH1 0x32 PUSH1 0x4 MSTORE PUSH1 0x24 PUSH1 0x0 REVERT JUMPDEST SLOAD SWAP1 JUMP JUMPDEST PUSH1 0x0 MSTORE PUSH1 0x20 PUSH1 0x0 KECCAK256 SWAP1 JUMP JUMPDEST PUSH2 0x497 DUP2 PUSH2 0x47F JUMP JUMPDEST DUP3 LT ISZERO PUSH2 0x4B2 JUMPI PUSH2 0x4A9 PUSH1 0x1 SWAP2 PUSH2 0x483 JUMP JUMPDEST SWAP2 MUL ADD SWAP1 PUSH1 0x0 SWAP1 JUMP JUMPDEST PUSH2 0x469 JUMP JUMPDEST PUSH1 0x1 PUSH2 0x4C2 DUP2 PUSH2 0x47F JUMP JUMPDEST DUP3 LT ISZERO PUSH2 0x4DF JUMPI PUSH2 0x4DC SWAP2 PUSH2 0x4D6 SWAP2 PUSH2 0x48E JUMP JUMPDEST SWAP1 PUSH2 0x3D3 JUMP JUMPDEST SWAP1 JUMP JUMPDEST PUSH1 0x0 DUP1 REVERT JUMPDEST CALLVALUE PUSH2 0x514 JUMPI PUSH2 0x510 PUSH2 0x4FF PUSH2 0x4FA CALLDATASIZE PUSH1 0x4 PUSH2 0x44A JUMP JUMPDEST PUSH2 0x4B7 JUMP JUMPDEST PUSH2 0x507 PUSH2 0x143 JUMP JUMPDEST SWAP2 DUP3 SWAP2 DUP3 PUSH2 0x187 JUMP JUMPDEST SUB SWAP1 RETURN JUMPDEST PUSH2 0x149 JUMP JUMPDEST CALLVALUE PUSH2 0x549 JUMPI PUSH2 0x529 CALLDATASIZE PUSH1 0x4 PUSH2 0x153 JUMP JUMPDEST PUSH2 0x545 PUSH2 0x534 PUSH2 0xD0D JUMP JUMPDEST PUSH2 0x53C PUSH2 0x143 JUMP JUMPDEST SWAP2 DUP3 SWAP2 DUP3 PUSH2 0x187 JUMP JUMPDEST SUB SWAP1 RETURN JUMPDEST PUSH2 0x149 JUMP JUMPDEST PUSH2 0x557 DUP2 PUSH2 0x16E JUMP JUMPDEST SUB PUSH2 0x55E JUMPI JUMP JUMPDEST PUSH1 0x0 DUP1 REVERT JUMPDEST SWAP1 POP CALLDATALOAD SWAP1 PUSH2 0x570 DUP3 PUSH2 0x54E JUMP JUMPDEST JUMP JUMPDEST SWAP1 PUSH1 0x20 DUP3 DUP3 SUB SLT PUSH2 0x58C JUMPI PUSH2 0x589 SWAP2 PUSH1 0x0 ADD PUSH2 0x563 JUMP JUMPDEST SWAP1 JUMP JUMPDEST PUSH2 0x14E JUMP JUMPDEST SWAP1 JUMP JUMPDEST PUSH2 0x5A8 PUSH2 0x5A3 PUSH2 0x5AD SWAP3 PUSH2 0x163 JUMP JUMPDEST PUSH2 0x591 JUMP JUMPDEST PUSH2 0x163 JUMP JUMPDEST SWAP1 JUMP JUMPDEST PUSH2 0x5B9 SWAP1 PUSH2 0x594 JUMP JUMPDEST SWAP1 JUMP JUMPDEST PUSH2 0x5C5 SWAP1 PUSH2 0x5B0 JUMP JUMPDEST SWAP1 JUMP JUMPDEST SWAP1 PUSH2 0x5D2 SWAP1 PUSH2 0x5BC JUMP JUMPDEST PUSH1 0x0 MSTORE PUSH1 0x20 MSTORE PUSH1 0x40 PUSH1 0x0 KECCAK256 SWAP1 JUMP JUMPDEST PUSH2 0x5F7 SWAP1 PUSH2 0x5F2 PUSH1 0x3 SWAP2 PUSH1 0x0 SWAP3 PUSH2 0x5C8 JUMP JUMPDEST PUSH2 0x35D JUMP JUMPDEST SWAP1 JUMP JUMPDEST CALLVALUE PUSH2 0x62A JUMPI PUSH2 0x626 PUSH2 0x615 PUSH2 0x610 CALLDATASIZE PUSH1 0x4 PUSH2 0x572 JUMP JUMPDEST PUSH2 0x5E0 JUMP JUMPDEST PUSH2 0x61D PUSH2 0x143 JUMP JUMPDEST SWAP2 DUP3 SWAP2 DUP3 PUSH2 0x1E2 JUMP JUMPDEST SUB SWAP1 RETURN JUMPDEST PUSH2 0x149 JUMP JUMPDEST PUSH2 0x63C PUSH1 0x5 PUSH1 0x0 SWAP1 PUSH2 0x35D JUMP JUMPDEST SWAP1 JUMP JUMPDEST CALLVALUE PUSH2 0x66F JUMPI PUSH2 0x64F CALLDATASIZE PUSH1 0x4 PUSH2 0x153 JUMP JUMPDEST PUSH2 0x66B PUSH2 0x65A PUSH2 0x62F JUMP JUMPDEST PUSH2 0x662 PUSH2 0x143 JUMP JUMPDEST SWAP2 DUP3 SWAP2 DUP3 PUSH2 0x1E2 JUMP JUMPDEST SUB SWAP1 RETURN JUMPDEST PUSH2 0x149 JUMP JUMPDEST CALLVALUE PUSH2 0x6A2 JUMPI PUSH2 0x684 CALLDATASIZE PUSH1 0x4 PUSH2 0x153 JUMP JUMPDEST PUSH2 0x68C PUSH2 0xFA7 JUMP JUMPDEST PUSH2 0x694 PUSH2 0x143 JUMP JUMPDEST DUP1 PUSH2 0x69E DUP2 PUSH2 0x22D JUMP JUMPDEST SUB SWAP1 RETURN JUMPDEST PUSH2 0x149 JUMP JUMPDEST PUSH32 0x0 SWAP1 JUMP JUMPDEST CALLVALUE PUSH2 0x6FB JUMPI PUSH2 0x6DB CALLDATASIZE PUSH1 0x4 PUSH2 0x153 JUMP JUMPDEST PUSH2 0x6F7 PUSH2 0x6E6 PUSH2 0x6A7 JUMP JUMPDEST PUSH2 0x6EE PUSH2 0x143 JUMP JUMPDEST SWAP2 DUP3 SWAP2 DUP3 PUSH2 0x187 JUMP JUMPDEST SUB SWAP1 RETURN JUMPDEST PUSH2 0x149 JUMP JUMPDEST PUSH2 0x709 DUP2 PUSH2 0x2A9 JUMP JUMPDEST SUB PUSH2 0x710 JUMPI JUMP JUMPDEST PUSH1 0x0 DUP1 REVERT JUMPDEST SWAP1 POP CALLDATALOAD SWAP1 PUSH2 0x722 DUP3 PUSH2 0x700 JUMP JUMPDEST JUMP JUMPDEST SWAP1 PUSH1 0x20 DUP3 DUP3 SUB SLT PUSH2 0x73E JUMPI PUSH2 0x73B SWAP2 PUSH1 0x0 ADD PUSH2 0x715 JUMP JUMPDEST SWAP1 JUMP JUMPDEST PUSH2 0x14E JUMP JUMPDEST CALLVALUE PUSH2 0x771 JUMPI PUSH2 0x75B PUSH2 0x756 CALLDATASIZE PUSH1 0x4 PUSH2 0x724 JUMP JUMPDEST PUSH2 0x1007 JUMP JUMPDEST PUSH2 0x763 PUSH2 0x143 JUMP JUMPDEST DUP1 PUSH2 0x76D DUP2 PUSH2 0x22D JUMP JUMPDEST SUB SWAP1 RETURN JUMPDEST PUSH2 0x149 JUMP JUMPDEST PUSH2 0x781 CALLDATASIZE PUSH1 0x4 PUSH2 0x153 JUMP JUMPDEST PUSH2 0x789 PUSH2 0x11E2 JUMP JUMPDEST PUSH2 0x791 PUSH2 0x143 JUMP JUMPDEST DUP1 PUSH2 0x79B DUP2 PUSH2 0x22D JUMP JUMPDEST SUB SWAP1 RETURN JUMPDEST SWAP1 JUMP JUMPDEST PUSH2 0x7B6 PUSH2 0x7B1 PUSH2 0x7BB SWAP3 PUSH2 0x79F JUMP JUMPDEST PUSH2 0x591 JUMP JUMPDEST PUSH2 0x1D2 JUMP JUMPDEST SWAP1 JUMP JUMPDEST PUSH2 0x7CE PUSH7 0x8E1BC9BF040000 PUSH2 0x7A2 JUMP JUMPDEST SWAP1 JUMP JUMPDEST PUSH2 0x7D9 PUSH2 0x7BE JUMP JUMPDEST SWAP1 JUMP JUMPDEST CALLVALUE PUSH2 0x80C JUMPI PUSH2 0x7EC CALLDATASIZE PUSH1 0x4 PUSH2 0x153 JUMP JUMPDEST PUSH2 0x808 PUSH2 0x7F7 PUSH2 0x7D1 JUMP JUMPDEST PUSH2 0x7FF PUSH2 0x143 JUMP JUMPDEST SWAP2 DUP3 SWAP2 DUP3 PUSH2 0x1E2 JUMP JUMPDEST SUB SWAP1 RETURN JUMPDEST PUSH2 0x149 JUMP JUMPDEST SWAP1 JUMP JUMPDEST PUSH2 0x828 PUSH2 0x823 PUSH2 0x82D SWAP3 PUSH2 0x811 JUMP JUMPDEST PUSH2 0x591 JUMP JUMPDEST PUSH2 0x1D2 JUMP JUMPDEST SWAP1 JUMP JUMPDEST PUSH2 0x840 PUSH7 0x470DE4DF820000 PUSH2 0x814 JUMP JUMPDEST SWAP1 JUMP JUMPDEST PUSH2 0x84B PUSH2 0x830 JUMP JUMPDEST SWAP1 JUMP JUMPDEST CALLVALUE PUSH2 0x87E JUMPI PUSH2 0x85E CALLDATASIZE PUSH1 0x4 PUSH2 0x153 JUMP JUMPDEST PUSH2 0x87A PUSH2 0x869 PUSH2 0x843 JUMP JUMPDEST PUSH2 0x871 PUSH2 0x143 JUMP JUMPDEST SWAP2 DUP3 SWAP2 DUP3 PUSH2 0x1E2 JUMP JUMPDEST SUB SWAP1 RETURN JUMPDEST PUSH2 0x149 JUMP JUMPDEST SWAP1 JUMP JUMPDEST PUSH2 0x89A PUSH2 0x895 PUSH2 0x89F SWAP3 PUSH2 0x883 JUMP JUMPDEST PUSH2 0x591 JUMP JUMPDEST PUSH2 0x1D2 JUMP JUMPDEST SWAP1 JUMP JUMPDEST PUSH2 0x8AC PUSH1 0x64 PUSH2 0x886 JUMP JUMPDEST SWAP1 JUMP JUMPDEST PUSH2 0x8B7 PUSH2 0x8A2 JUMP JUMPDEST SWAP1 JUMP JUMPDEST CALLVALUE PUSH2 0x8EA JUMPI PUSH2 0x8CA CALLDATASIZE PUSH1 0x4 PUSH2 0x153 JUMP JUMPDEST PUSH2 0x8E6 PUSH2 0x8D5 PUSH2 0x8AF JUMP JUMPDEST PUSH2 0x8DD PUSH2 0x143 JUMP JUMPDEST SWAP2 DUP3 SWAP2 DUP3 PUSH2 0x1E2 JUMP JUMPDEST SUB SWAP1 RETURN JUMPDEST PUSH2 0x149 JUMP JUMPDEST PUSH1 0x0 DUP1 REVERT JUMPDEST PUSH1 0x0 SWAP1 JUMP JUMPDEST PUSH1 0x0 SHR SWAP1 JUMP JUMPDEST PUSH2 0x90B PUSH2 0x910 SWAP2 PUSH2 0x8F9 JUMP JUMPDEST PUSH2 0x3B0 JUMP JUMPDEST SWAP1 JUMP JUMPDEST PUSH2 0x91D SWAP1 SLOAD PUSH2 0x8FF JUMP JUMPDEST SWAP1 JUMP JUMPDEST PUSH2 0x928 PUSH2 0x8F4 JUMP JUMPDEST POP PUSH2 0x933 PUSH1 0x4 PUSH2 0x913 JUMP JUMPDEST SWAP1 JUMP JUMPDEST PUSH1 0x0 SWAP1 JUMP JUMPDEST PUSH2 0x947 PUSH2 0x94C SWAP2 PUSH2 0x8F9 JUMP JUMPDEST PUSH2 0x342 JUMP JUMPDEST SWAP1 JUMP JUMPDEST PUSH2 0x959 SWAP1 SLOAD PUSH2 0x93B JUMP JUMPDEST SWAP1 JUMP JUMPDEST PUSH2 0x964 PUSH2 0x936 JUMP JUMPDEST POP PUSH2 0x98C PUSH2 0x987 PUSH1 0x3 PUSH2 0x981 PUSH2 0x97B PUSH1 0x1 DUP1 PUSH2 0x48E JUMP JUMPDEST SWAP1 PUSH2 0x3D3 JUMP JUMPDEST SWAP1 PUSH2 0x5C8 JUMP JUMPDEST PUSH2 0x94F JUMP JUMPDEST SWAP1 JUMP JUMPDEST PUSH1 0x20 SWAP2 DUP2 MSTORE ADD SWAP1 JUMP JUMPDEST PUSH1 0x0 PUSH32 0x4E6F7420616C6C6F77656420746F207472616E736665722066756E6473000000 SWAP2 ADD MSTORE JUMP JUMPDEST PUSH2 0x9CD PUSH1 0x1D PUSH1 0x20 SWAP3 PUSH2 0x98F JUMP JUMPDEST PUSH2 0x9D6 DUP2 PUSH2 0x998 JUMP JUMPDEST ADD SWAP1 JUMP JUMPDEST PUSH2 0x9F0 SWAP1 PUSH1 0x20 DUP2 ADD SWAP1 PUSH1 0x0 DUP2 DUP4 SUB SWAP2 ADD MSTORE PUSH2 0x9C0 JUMP JUMPDEST SWAP1 JUMP JUMPDEST ISZERO PUSH2 0x9FA JUMPI JUMP JUMPDEST PUSH2 0xA02 PUSH2 0x143 JUMP JUMPDEST PUSH3 0x461BCD PUSH1 0xE5 SHL DUP2 MSTORE DUP1 PUSH2 0xA18 PUSH1 0x4 DUP3 ADD PUSH2 0x9DA JUMP JUMPDEST SUB SWAP1 REVERT JUMPDEST PUSH2 0xA41 PUSH2 0xA29 PUSH1 0x4 PUSH2 0x913 JUMP JUMPDEST PUSH2 0xA3B PUSH2 0xA35 CALLER PUSH2 0x16E JUMP JUMPDEST SWAP2 PUSH2 0x16E JUMP JUMPDEST EQ PUSH2 0x9F3 JUMP JUMPDEST PUSH2 0xA49 PUSH2 0xACF JUMP JUMPDEST JUMP JUMPDEST PUSH1 0x0 PUSH32 0x5661756C74206973206E6F742066756C6C207965740000000000000000000000 SWAP2 ADD MSTORE JUMP JUMPDEST PUSH2 0xA80 PUSH1 0x15 PUSH1 0x20 SWAP3 PUSH2 0x98F JUMP JUMPDEST PUSH2 0xA89 DUP2 PUSH2 0xA4B JUMP JUMPDEST ADD SWAP1 JUMP JUMPDEST PUSH2 0xAA3 SWAP1 PUSH1 0x20 DUP2 ADD SWAP1 PUSH1 0x0 DUP2 DUP4 SUB SWAP2 ADD MSTORE PUSH2 0xA73 JUMP JUMPDEST SWAP1 JUMP JUMPDEST ISZERO PUSH2 0xAAD JUMPI JUMP JUMPDEST PUSH2 0xAB5 PUSH2 0x143 JUMP JUMPDEST PUSH3 0x461BCD PUSH1 0xE5 SHL DUP2 MSTORE DUP1 PUSH2 0xACB PUSH1 0x4 DUP3 ADD PUSH2 0xA8D JUMP JUMPDEST SUB SWAP1 REVERT JUMPDEST PUSH2 0xAFB PUSH2 0xADC PUSH1 0x5 PUSH2 0x94F JUMP JUMPDEST PUSH2 0xAF5 PUSH2 0xAEF PUSH2 0xAEA PUSH2 0x8A2 JUMP JUMPDEST PUSH2 0x1D2 JUMP JUMPDEST SWAP2 PUSH2 0x1D2 JUMP JUMPDEST EQ PUSH2 0xAA6 JUMP JUMPDEST PUSH2 0xB03 PUSH2 0xBED JUMP JUMPDEST JUMP JUMPDEST PUSH2 0xB11 PUSH2 0xB16 SWAP2 PUSH2 0x8F9 JUMP JUMPDEST PUSH2 0x26A JUMP JUMPDEST SWAP1 JUMP JUMPDEST PUSH2 0xB23 SWAP1 SLOAD PUSH2 0xB05 JUMP JUMPDEST SWAP1 JUMP JUMPDEST SWAP1 JUMP JUMPDEST PUSH2 0xB3D PUSH2 0xB38 PUSH2 0xB42 SWAP3 PUSH2 0xB26 JUMP JUMPDEST PUSH2 0x591 JUMP JUMPDEST PUSH2 0x163 JUMP JUMPDEST SWAP1 JUMP JUMPDEST PUSH2 0xB4E SWAP1 PUSH2 0xB29 JUMP JUMPDEST SWAP1 JUMP JUMPDEST PUSH2 0xB5A SWAP1 PUSH2 0x5B0 JUMP JUMPDEST SWAP1 JUMP JUMPDEST PUSH1 0x0 PUSH32 0x4C61756E636870616420636F6E7472616374206E6F7420736574000000000000 SWAP2 ADD MSTORE JUMP JUMPDEST PUSH2 0xB92 PUSH1 0x1A PUSH1 0x20 SWAP3 PUSH2 0x98F JUMP JUMPDEST PUSH2 0xB9B DUP2 PUSH2 0xB5D JUMP JUMPDEST ADD SWAP1 JUMP JUMPDEST PUSH2 0xBB5 SWAP1 PUSH1 0x20 DUP2 ADD SWAP1 PUSH1 0x0 DUP2 DUP4 SUB SWAP2 ADD MSTORE PUSH2 0xB85 JUMP JUMPDEST SWAP1 JUMP JUMPDEST ISZERO PUSH2 0xBBF JUMPI JUMP JUMPDEST PUSH2 0xBC7 PUSH2 0x143 JUMP JUMPDEST PUSH3 0x461BCD PUSH1 0xE5 SHL DUP2 MSTORE DUP1 PUSH2 0xBDD PUSH1 0x4 DUP3 ADD PUSH2 0xB9F JUMP JUMPDEST SUB SWAP1 REVERT JUMPDEST PUSH2 0xBEA SWAP1 PUSH2 0x5B0 JUMP JUMPDEST SWAP1 JUMP JUMPDEST PUSH2 0xC1C PUSH2 0xBFA PUSH1 0x0 PUSH2 0xB19 JUMP JUMPDEST PUSH2 0xC15 PUSH2 0xC0F PUSH2 0xC0A PUSH1 0x0 PUSH2 0xB45 JUMP JUMPDEST PUSH2 0x16E JUMP JUMPDEST SWAP2 PUSH2 0xB51 JUMP JUMPDEST EQ ISZERO PUSH2 0xBB8 JUMP JUMPDEST PUSH2 0xC39 PUSH2 0xC29 PUSH1 0x0 PUSH2 0xB19 JUMP JUMPDEST PUSH2 0xC32 ADDRESS PUSH2 0xBE1 JUMP JUMPDEST BALANCE SWAP1 PUSH2 0x14B4 JUMP JUMPDEST JUMP JUMPDEST PUSH2 0xC43 PUSH2 0xA1C JUMP JUMPDEST JUMP JUMPDEST PUSH2 0xC4D PUSH2 0x936 JUMP JUMPDEST POP PUSH2 0xC57 ADDRESS PUSH2 0xBE1 JUMP JUMPDEST BALANCE SWAP1 JUMP JUMPDEST PUSH1 0x0 PUSH32 0x537562736372697074696F6E206E6F7420656E64656400000000000000000000 SWAP2 ADD MSTORE JUMP JUMPDEST PUSH2 0xC90 PUSH1 0x16 PUSH1 0x20 SWAP3 PUSH2 0x98F JUMP JUMPDEST PUSH2 0xC99 DUP2 PUSH2 0xC5B JUMP JUMPDEST ADD SWAP1 JUMP JUMPDEST PUSH2 0xCB3 SWAP1 PUSH1 0x20 DUP2 ADD SWAP1 PUSH1 0x0 DUP2 DUP4 SUB SWAP2 ADD MSTORE PUSH2 0xC83 JUMP JUMPDEST SWAP1 JUMP JUMPDEST ISZERO PUSH2 0xCBD JUMPI JUMP JUMPDEST PUSH2 0xCC5 PUSH2 0x143 JUMP JUMPDEST PUSH3 0x461BCD PUSH1 0xE5 SHL DUP2 MSTORE DUP1 PUSH2 0xCDB PUSH1 0x4 DUP3 ADD PUSH2 0xC9D JUMP JUMPDEST SUB SWAP1 REVERT JUMPDEST SWAP1 JUMP JUMPDEST PUSH2 0xCF6 PUSH2 0xCF1 PUSH2 0xCFB SWAP3 PUSH2 0xCDF JUMP JUMPDEST PUSH2 0x591 JUMP JUMPDEST PUSH2 0x1D2 JUMP JUMPDEST SWAP1 JUMP JUMPDEST PUSH1 0x1 PUSH2 0xD0A SWAP2 ADD PUSH2 0x1D2 JUMP JUMPDEST SWAP1 JUMP JUMPDEST PUSH2 0xD15 PUSH2 0x8F4 JUMP JUMPDEST POP PUSH2 0xD42 PUSH2 0xD23 PUSH1 0x5 PUSH2 0x94F JUMP JUMPDEST PUSH2 0xD3C PUSH2 0xD36 PUSH2 0xD31 PUSH2 0x8A2 JUMP JUMPDEST PUSH2 0x1D2 JUMP JUMPDEST SWAP2 PUSH2 0x1D2 JUMP JUMPDEST EQ PUSH2 0xCB6 JUMP JUMPDEST PUSH2 0xD58 PUSH2 0xD52 PUSH1 0x1 PUSH1 0x0 SWAP1 PUSH2 0x48E JUMP JUMPDEST SWAP1 PUSH2 0x3D3 JUMP JUMPDEST PUSH2 0xD81 PUSH2 0xD7C PUSH1 0x3 PUSH2 0xD76 PUSH2 0xD70 PUSH1 0x1 PUSH1 0x0 SWAP1 PUSH2 0x48E JUMP JUMPDEST SWAP1 PUSH2 0x3D3 JUMP JUMPDEST SWAP1 PUSH2 0x5C8 JUMP JUMPDEST PUSH2 0x94F JUMP JUMPDEST PUSH2 0xD8B PUSH1 0x1 PUSH2 0xCE2 JUMP JUMPDEST JUMPDEST DUP1 PUSH2 0xDA8 PUSH2 0xDA2 PUSH2 0xD9D PUSH1 0x1 PUSH2 0x47F JUMP JUMPDEST PUSH2 0x1D2 JUMP JUMPDEST SWAP2 PUSH2 0x1D2 JUMP JUMPDEST LT ISZERO PUSH2 0xE21 JUMPI PUSH2 0xDC3 PUSH2 0xDBD PUSH1 0x1 DUP4 SWAP1 PUSH2 0x48E JUMP JUMPDEST SWAP1 PUSH2 0x3D3 JUMP JUMPDEST PUSH2 0xDD7 PUSH2 0xDD2 PUSH1 0x3 DUP4 SWAP1 PUSH2 0x5C8 JUMP JUMPDEST PUSH2 0x94F JUMP JUMPDEST PUSH2 0xDE9 PUSH2 0xDE3 DUP6 PUSH2 0x1D2 JUMP JUMPDEST SWAP2 PUSH2 0x1D2 JUMP JUMPDEST GT PUSH2 0xDFE JUMPI JUMPDEST POP PUSH2 0xDF9 SWAP1 PUSH2 0xCFE JUMP JUMPDEST PUSH2 0xD8C JUMP JUMPDEST SWAP2 POP SWAP2 POP PUSH2 0xDF9 PUSH2 0xE19 PUSH2 0xE14 PUSH1 0x3 DUP5 SWAP1 PUSH2 0x5C8 JUMP JUMPDEST PUSH2 0x94F JUMP JUMPDEST SWAP2 SWAP3 SWAP1 PUSH2 0xDEF JUMP JUMPDEST POP POP SWAP1 JUMP JUMPDEST PUSH1 0x20 PUSH32 0x6F6E000000000000000000000000000000000000000000000000000000000000 SWAP2 PUSH32 0x4F6E6C79206F776E65722063616E20706572666F726D20746869732061637469 PUSH1 0x0 DUP3 ADD MSTORE ADD MSTORE JUMP JUMPDEST PUSH2 0xE81 PUSH1 0x22 PUSH1 0x40 SWAP3 PUSH2 0x98F JUMP JUMPDEST PUSH2 0xE8A DUP2 PUSH2 0xE26 JUMP JUMPDEST ADD SWAP1 JUMP JUMPDEST PUSH2 0xEA4 SWAP1 PUSH1 0x20 DUP2 ADD SWAP1 PUSH1 0x0 DUP2 DUP4 SUB SWAP2 ADD MSTORE PUSH2 0xE74 JUMP JUMPDEST SWAP1 JUMP JUMPDEST ISZERO PUSH2 0xEAE JUMPI JUMP JUMPDEST PUSH2 0xEB6 PUSH2 0x143 JUMP JUMPDEST PUSH3 0x461BCD PUSH1 0xE5 SHL DUP2 MSTORE DUP1 PUSH2 0xECC PUSH1 0x4 DUP3 ADD PUSH2 0xE8E JUMP JUMPDEST SUB SWAP1 REVERT JUMPDEST PUSH2 0xF0C CALLER PUSH2 0xF06 PUSH2 0xF00 PUSH32 0x0 PUSH2 0x16E JUMP JUMPDEST SWAP2 PUSH2 0x16E JUMP JUMPDEST EQ PUSH2 0xEA7 JUMP JUMPDEST PUSH2 0xF14 PUSH2 0xF91 JUMP JUMPDEST JUMP JUMPDEST SWAP1 JUMP JUMPDEST PUSH2 0xF2D PUSH2 0xF28 PUSH2 0xF32 SWAP3 PUSH2 0xF16 JUMP JUMPDEST PUSH2 0x591 JUMP JUMPDEST PUSH2 0x1D2 JUMP JUMPDEST SWAP1 JUMP JUMPDEST PUSH1 0x0 SHL SWAP1 JUMP JUMPDEST SWAP1 PUSH2 0xF48 PUSH1 0x0 NOT SWAP2 PUSH2 0xF35 JUMP JUMPDEST SWAP2 DUP2 NOT AND SWAP2 AND OR SWAP1 JUMP JUMPDEST PUSH2 0xF66 PUSH2 0xF61 PUSH2 0xF6B SWAP3 PUSH2 0x1D2 JUMP JUMPDEST PUSH2 0x591 JUMP JUMPDEST PUSH2 0x1D2 JUMP JUMPDEST SWAP1 JUMP JUMPDEST SWAP1 JUMP JUMPDEST SWAP1 PUSH2 0xF86 PUSH2 0xF81 PUSH2 0xF8D SWAP3 PUSH2 0xF52 JUMP JUMPDEST PUSH2 0xF6E JUMP JUMPDEST DUP3 SLOAD PUSH2 0xF3B JUMP JUMPDEST SWAP1 SSTORE JUMP JUMPDEST PUSH2 0xFA5 PUSH2 0xF9E PUSH1 0x63 PUSH2 0xF19 JUMP JUMPDEST PUSH1 0x5 PUSH2 0xF71 JUMP JUMPDEST JUMP JUMPDEST PUSH2 0xFAF PUSH2 0xED0 JUMP JUMPDEST JUMP JUMPDEST SWAP1 PUSH2 0xFC2 PUSH1 0x1 DUP1 PUSH1 0xA0 SHL SUB SWAP2 PUSH2 0xF35 JUMP JUMPDEST SWAP2 DUP2 NOT AND SWAP2 AND OR SWAP1 JUMP JUMPDEST PUSH2 0xFD5 SWAP1 PUSH2 0x594 JUMP JUMPDEST SWAP1 JUMP JUMPDEST PUSH2 0xFE1 SWAP1 PUSH2 0xFCC JUMP JUMPDEST SWAP1 JUMP JUMPDEST SWAP1 JUMP JUMPDEST SWAP1 PUSH2 0xFFC PUSH2 0xFF7 PUSH2 0x1003 SWAP3 PUSH2 0xFD8 JUMP JUMPDEST PUSH2 0xFE4 JUMP JUMPDEST DUP3 SLOAD PUSH2 0xFB1 JUMP JUMPDEST SWAP1 SSTORE JUMP JUMPDEST PUSH2 0x1012 SWAP1 PUSH1 0x0 PUSH2 0xFE7 JUMP JUMPDEST JUMP JUMPDEST PUSH2 0x1028 PUSH2 0x1023 PUSH2 0x102D SWAP3 PUSH2 0xB26 JUMP JUMPDEST PUSH2 0x591 JUMP JUMPDEST PUSH2 0x1D2 JUMP JUMPDEST SWAP1 JUMP JUMPDEST PUSH1 0x0 PUSH32 0x557365722068617320616C7265616479206465706F7369746564000000000000 SWAP2 ADD MSTORE JUMP JUMPDEST PUSH2 0x1065 PUSH1 0x1A PUSH1 0x20 SWAP3 PUSH2 0x98F JUMP JUMPDEST PUSH2 0x106E DUP2 PUSH2 0x1030 JUMP JUMPDEST ADD SWAP1 JUMP JUMPDEST PUSH2 0x1088 SWAP1 PUSH1 0x20 DUP2 ADD SWAP1 PUSH1 0x0 DUP2 DUP4 SUB SWAP2 ADD MSTORE PUSH2 0x1058 JUMP JUMPDEST SWAP1 JUMP JUMPDEST ISZERO PUSH2 0x1092 JUMPI JUMP JUMPDEST PUSH2 0x109A PUSH2 0x143 JUMP JUMPDEST PUSH3 0x461BCD PUSH1 0xE5 SHL DUP2 MSTORE DUP1 PUSH2 0x10B0 PUSH1 0x4 DUP3 ADD PUSH2 0x1072 JUMP JUMPDEST SUB SWAP1 REVERT JUMPDEST PUSH1 0x0 PUSH32 0x496E76616C6964206465706F73697420616D6F756E7400000000000000000000 SWAP2 ADD MSTORE JUMP JUMPDEST PUSH2 0x10E9 PUSH1 0x16 PUSH1 0x20 SWAP3 PUSH2 0x98F JUMP JUMPDEST PUSH2 0x10F2 DUP2 PUSH2 0x10B4 JUMP JUMPDEST ADD SWAP1 JUMP JUMPDEST PUSH2 0x110C SWAP1 PUSH1 0x20 DUP2 ADD SWAP1 PUSH1 0x0 DUP2 DUP4 SUB SWAP2 ADD MSTORE PUSH2 0x10DC JUMP JUMPDEST SWAP1 JUMP JUMPDEST ISZERO PUSH2 0x1116 JUMPI JUMP JUMPDEST PUSH2 0x111E PUSH2 0x143 JUMP JUMPDEST PUSH3 0x461BCD PUSH1 0xE5 SHL DUP2 MSTORE DUP1 PUSH2 0x1134 PUSH1 0x4 DUP3 ADD PUSH2 0x10F6 JUMP JUMPDEST SUB SWAP1 REVERT JUMPDEST PUSH1 0x20 PUSH32 0x65206465706F7369747300000000000000000000000000000000000000000000 SWAP2 PUSH32 0x5661756C742069732066756C6C2C2063616E6E6F7420616363657074206D6F72 PUSH1 0x0 DUP3 ADD MSTORE ADD MSTORE JUMP JUMPDEST PUSH2 0x1193 PUSH1 0x2A PUSH1 0x40 SWAP3 PUSH2 0x98F JUMP JUMPDEST PUSH2 0x119C DUP2 PUSH2 0x1138 JUMP JUMPDEST ADD SWAP1 JUMP JUMPDEST PUSH2 0x11B6 SWAP1 PUSH1 0x20 DUP2 ADD SWAP1 PUSH1 0x0 DUP2 DUP4 SUB SWAP2 ADD MSTORE PUSH2 0x1186 JUMP JUMPDEST SWAP1 JUMP JUMPDEST ISZERO PUSH2 0x11C0 JUMPI JUMP JUMPDEST PUSH2 0x11C8 PUSH2 0x143 JUMP JUMPDEST PUSH3 0x461BCD PUSH1 0xE5 SHL DUP2 MSTORE DUP1 PUSH2 0x11DE PUSH1 0x4 DUP3 ADD PUSH2 0x11A0 JUMP JUMPDEST SUB SWAP1 REVERT JUMPDEST PUSH2 0x1212 PUSH2 0x11F9 PUSH2 0x11F4 PUSH1 0x3 CALLER SWAP1 PUSH2 0x5C8 JUMP JUMPDEST PUSH2 0x94F JUMP JUMPDEST PUSH2 0x120C PUSH2 0x1206 PUSH1 0x0 PUSH2 0x1014 JUMP JUMPDEST SWAP2 PUSH2 0x1D2 JUMP JUMPDEST EQ PUSH2 0x108B JUMP JUMPDEST CALLVALUE PUSH2 0x122C PUSH2 0x1226 PUSH2 0x1221 PUSH2 0x830 JUMP JUMPDEST PUSH2 0x1D2 JUMP JUMPDEST SWAP2 PUSH2 0x1D2 JUMP JUMPDEST LT ISZERO DUP1 PUSH2 0x1276 JUMPI JUMPDEST PUSH2 0x123D SWAP1 PUSH2 0x110F JUMP JUMPDEST PUSH2 0x126A PUSH2 0x124A PUSH1 0x5 PUSH2 0x94F JUMP JUMPDEST PUSH2 0x1263 PUSH2 0x125D PUSH2 0x1258 PUSH2 0x8A2 JUMP JUMPDEST PUSH2 0x1D2 JUMP JUMPDEST SWAP2 PUSH2 0x1D2 JUMP JUMPDEST GT ISZERO PUSH2 0x11B9 JUMP JUMPDEST PUSH2 0x1274 CALLVALUE CALLER PUSH2 0x1630 JUMP JUMPDEST JUMP JUMPDEST POP PUSH2 0x123D CALLVALUE PUSH2 0x1294 PUSH2 0x128E PUSH2 0x1289 PUSH2 0x7BE JUMP JUMPDEST PUSH2 0x1D2 JUMP JUMPDEST SWAP2 PUSH2 0x1D2 JUMP JUMPDEST GT ISZERO SWAP1 POP PUSH2 0x1234 JUMP JUMPDEST PUSH1 0x0 PUSH32 0x416464726573733A20696E73756666696369656E742062616C616E6365000000 SWAP2 ADD MSTORE JUMP JUMPDEST PUSH2 0x12D2 PUSH1 0x1D PUSH1 0x20 SWAP3 PUSH2 0x98F JUMP JUMPDEST PUSH2 0x12DB DUP2 PUSH2 0x129D JUMP JUMPDEST ADD SWAP1 JUMP JUMPDEST PUSH2 0x12F5 SWAP1 PUSH1 0x20 DUP2 ADD SWAP1 PUSH1 0x0 DUP2 DUP4 SUB SWAP2 ADD MSTORE PUSH2 0x12C5 JUMP JUMPDEST SWAP1 JUMP JUMPDEST ISZERO PUSH2 0x12FF JUMPI JUMP JUMPDEST PUSH2 0x1307 PUSH2 0x143 JUMP JUMPDEST PUSH3 0x461BCD PUSH1 0xE5 SHL DUP2 MSTORE DUP1 PUSH2 0x131D PUSH1 0x4 DUP3 ADD PUSH2 0x12DF JUMP JUMPDEST SUB SWAP1 REVERT JUMPDEST SWAP1 POP SWAP1 JUMP JUMPDEST PUSH2 0x1332 PUSH1 0x0 DUP1 SWAP3 PUSH2 0x1321 JUMP JUMPDEST ADD SWAP1 JUMP JUMPDEST PUSH2 0x133F SWAP1 PUSH2 0x1326 JUMP JUMPDEST SWAP1 JUMP JUMPDEST PUSH1 0x1F DUP1 NOT SWAP2 ADD AND SWAP1 JUMP JUMPDEST PUSH4 0x4E487B71 PUSH1 0xE0 SHL PUSH1 0x0 MSTORE PUSH1 0x41 PUSH1 0x4 MSTORE PUSH1 0x24 PUSH1 0x0 REVERT JUMPDEST SWAP1 PUSH2 0x136C SWAP1 PUSH2 0x1342 JUMP JUMPDEST DUP2 ADD SWAP1 DUP2 LT PUSH8 0xFFFFFFFFFFFFFFFF DUP3 GT OR PUSH2 0x1386 JUMPI PUSH1 0x40 MSTORE JUMP JUMPDEST PUSH2 0x134C JUMP JUMPDEST SWAP1 PUSH2 0x139E PUSH2 0x1397 PUSH2 0x143 JUMP JUMPDEST SWAP3 DUP4 PUSH2 0x1362 JUMP JUMPDEST JUMP JUMPDEST PUSH8 0xFFFFFFFFFFFFFFFF DUP2 GT PUSH2 0x13BE JUMPI PUSH2 0x13BA PUSH1 0x20 SWAP2 PUSH2 0x1342 JUMP JUMPDEST ADD SWAP1 JUMP JUMPDEST PUSH2 0x134C JUMP JUMPDEST SWAP1 PUSH2 0x13D5 PUSH2 0x13D0 DUP4 PUSH2 0x13A0 JUMP JUMPDEST PUSH2 0x138B JUMP JUMPDEST SWAP2 DUP3 MSTORE JUMP JUMPDEST PUSH1 0x60 SWAP1 JUMP JUMPDEST RETURNDATASIZE PUSH1 0x0 EQ PUSH2 0x13FC JUMPI PUSH2 0x13F0 RETURNDATASIZE PUSH2 0x13C3 JUMP JUMPDEST SWAP1 RETURNDATASIZE PUSH1 0x0 PUSH1 0x20 DUP5 ADD RETURNDATACOPY JUMPDEST JUMP JUMPDEST PUSH2 0x1404 PUSH2 0x13DA JUMP JUMPDEST SWAP1 PUSH2 0x13FA JUMP JUMPDEST PUSH1 0x20 PUSH32 0x6563697069656E74206D61792068617665207265766572746564000000000000 SWAP2 PUSH32 0x416464726573733A20756E61626C6520746F2073656E642076616C75652C2072 PUSH1 0x0 DUP3 ADD MSTORE ADD MSTORE JUMP JUMPDEST PUSH2 0x1465 PUSH1 0x3A PUSH1 0x40 SWAP3 PUSH2 0x98F JUMP JUMPDEST PUSH2 0x146E DUP2 PUSH2 0x140A JUMP JUMPDEST ADD SWAP1 JUMP JUMPDEST PUSH2 0x1488 SWAP1 PUSH1 0x20 DUP2 ADD SWAP1 PUSH1 0x0 DUP2 DUP4 SUB SWAP2 ADD MSTORE PUSH2 0x1458 JUMP JUMPDEST SWAP1 JUMP JUMPDEST ISZERO PUSH2 0x1492 JUMPI JUMP JUMPDEST PUSH2 0x149A PUSH2 0x143 JUMP JUMPDEST PUSH3 0x461BCD PUSH1 0xE5 SHL DUP2 MSTORE DUP1 PUSH2 0x14B0 PUSH1 0x4 DUP3 ADD PUSH2 0x1472 JUMP JUMPDEST SUB SWAP1 REVERT JUMPDEST PUSH1 0x0 PUSH2 0x1510 SWAP3 PUSH2 0x14EA DUP3 SWAP4 PUSH2 0x14E5 PUSH2 0x14CB ADDRESS PUSH2 0xBE1 JUMP JUMPDEST BALANCE PUSH2 0x14DE PUSH2 0x14D8 DUP7 PUSH2 0x1D2 JUMP JUMPDEST SWAP2 PUSH2 0x1D2 JUMP JUMPDEST LT ISZERO PUSH2 0x12F8 JUMP JUMPDEST PUSH2 0xB51 JUMP JUMPDEST SWAP1 PUSH2 0x14F3 PUSH2 0x143 JUMP JUMPDEST SWAP1 DUP2 PUSH2 0x14FE DUP2 PUSH2 0x1336 JUMP JUMPDEST SUB SWAP3 GAS CALL PUSH2 0x150A PUSH2 0x13DF JUMP JUMPDEST POP PUSH2 0x148B JUMP JUMPDEST JUMP JUMPDEST PUSH4 0x4E487B71 PUSH1 0xE0 SHL PUSH1 0x0 MSTORE PUSH1 0x11 PUSH1 0x4 MSTORE PUSH1 0x24 PUSH1 0x0 REVERT JUMPDEST PUSH2 0x1537 PUSH2 0x153D SWAP2 SWAP4 SWAP3 SWAP4 PUSH2 0x1D2 JUMP JUMPDEST SWAP3 PUSH2 0x1D2 JUMP JUMPDEST DUP3 ADD DUP1 SWAP3 GT PUSH2 0x1548 JUMPI JUMP JUMPDEST PUSH2 0x1512 JUMP JUMPDEST SWAP1 JUMP JUMPDEST PUSH1 0x0 MSTORE PUSH1 0x20 PUSH1 0x0 KECCAK256 SWAP1 JUMP JUMPDEST SLOAD SWAP1 JUMP JUMPDEST PUSH2 0x1568 DUP2 PUSH2 0x155B JUMP JUMPDEST DUP3 LT ISZERO PUSH2 0x1583 JUMPI PUSH2 0x157A PUSH1 0x1 SWAP2 PUSH2 0x1550 JUMP JUMPDEST SWAP2 MUL ADD SWAP1 PUSH1 0x0 SWAP1 JUMP JUMPDEST PUSH2 0x469 JUMP JUMPDEST SHL SWAP1 JUMP JUMPDEST SWAP2 SWAP1 PUSH1 0x8 PUSH2 0x15AC SWAP2 MUL SWAP2 PUSH2 0x15A6 PUSH1 0x1 DUP1 PUSH1 0xA0 SHL SUB DUP5 PUSH2 0x1588 JUMP JUMPDEST SWAP3 PUSH2 0x1588 JUMP JUMPDEST SWAP2 DUP2 NOT AND SWAP2 AND OR SWAP1 JUMP JUMPDEST SWAP1 JUMP JUMPDEST SWAP2 SWAP1 PUSH2 0x15CF PUSH2 0x15CA PUSH2 0x15D7 SWAP4 PUSH2 0x5BC JUMP JUMPDEST PUSH2 0x15B6 JUMP JUMPDEST SWAP1 DUP4 SLOAD PUSH2 0x158C JUMP JUMPDEST SWAP1 SSTORE JUMP JUMPDEST SWAP1 DUP2 SLOAD SWAP2 PUSH9 0x10000000000000000 DUP4 LT ISZERO PUSH2 0x160B JUMPI DUP3 PUSH2 0x1603 SWAP2 PUSH1 0x1 PUSH2 0x1609 SWAP6 ADD DUP2 SSTORE PUSH2 0x155F JUMP JUMPDEST SWAP1 PUSH2 0x15B9 JUMP JUMPDEST JUMP JUMPDEST PUSH2 0x134C JUMP JUMPDEST SWAP1 PUSH2 0x1625 PUSH2 0x1620 PUSH2 0x162C SWAP3 PUSH2 0x5BC JUMP JUMPDEST PUSH2 0x15B6 JUMP JUMPDEST DUP3 SLOAD PUSH2 0xFB1 JUMP JUMPDEST SWAP1 SSTORE JUMP JUMPDEST PUSH2 0x1678 PUSH2 0x16AD SWAP3 PUSH2 0x1654 PUSH2 0x164D DUP3 PUSH2 0x1648 PUSH1 0x2 PUSH2 0x94F JUMP JUMPDEST PUSH2 0x1528 JUMP JUMPDEST PUSH1 0x2 PUSH2 0xF71 JUMP JUMPDEST PUSH2 0x1672 PUSH2 0x1663 PUSH1 0x3 DUP6 SWAP1 PUSH2 0x5C8 JUMP JUMPDEST SWAP2 PUSH2 0x166D DUP4 PUSH2 0x94F JUMP JUMPDEST PUSH2 0x1528 JUMP JUMPDEST SWAP1 PUSH2 0xF71 JUMP JUMPDEST PUSH2 0x169E PUSH2 0x1697 PUSH2 0x1688 PUSH1 0x1 PUSH2 0xCE2 JUMP JUMPDEST PUSH2 0x1692 PUSH1 0x5 PUSH2 0x94F JUMP JUMPDEST PUSH2 0x1528 JUMP JUMPDEST PUSH1 0x5 PUSH2 0xF71 JUMP JUMPDEST PUSH2 0x16A8 PUSH1 0x1 PUSH2 0x154D JUMP JUMPDEST PUSH2 0x15DB JUMP JUMPDEST PUSH2 0x16B7 PUSH1 0x5 PUSH2 0x94F JUMP JUMPDEST PUSH2 0x16D0 PUSH2 0x16CA PUSH2 0x16C5 PUSH2 0x8A2 JUMP JUMPDEST PUSH2 0x1D2 JUMP JUMPDEST SWAP2 PUSH2 0x1D2 JUMP JUMPDEST EQ PUSH2 0x16D8 JUMPI JUMPDEST JUMP JUMPDEST PUSH2 0x16EA PUSH2 0x16E3 PUSH2 0xD0D JUMP JUMPDEST PUSH1 0x4 PUSH2 0x1610 JUMP JUMPDEST PUSH2 0x16D6 JUMP INVALID LOG2 PUSH5 0x6970667358 0x22 SLT KECCAK256 MOD PUSH1 0x74 BYTE 0xB8 PREVRANDAO 0x24 CALLER 0xAA JUMPDEST SLT 0xFC PUSH5 0x821EE8873F SELFBALANCE 0xB7 MSTORE GAS 0x24 0xE6 0xE2 DUP16 0x25 0xE4 SSTORE STOP OR DUP11 PUSH5 0x736F6C6343 STOP ADDMOD XOR STOP CALLER "},"methodIdentifiers":{"MAX_DEPOSIT()":"dd5967c3","MAX_PARTICIPANTS()":"f3baf070","MIN_DEPOSIT()":"e1e158a5","TOTAL_PARTICIPANTS()":"74244bc9","allowedToTransfer()":"19507d2c","balanceOf(address)":"70a08231","deposit()":"d0e30db0","getAddressAllowedToTransfer()":"04c4fd90","getAddressWithHighestShare()":"42373e74","getBalance()":"12065fe0","getSecondUserShare()":"06dd74a5","launchpadContract()":"116136da","makeTotalParticipant99()":"7cda8ed5","owner()":"8da5cb5b","participants(uint256)":"35c1d349","setLaunchpadContractAddress(address)":"8eaaf2d3","totalSupply()":"18160ddd","transferToLaunchpad()":"0fec1959"}}}}}