{"contracts/launchpad.sol":{"LaunchContract":{"abi":[{"inputs":[{"internalType":"uint256","name":"_maxCap","type":"uint256"},{"internalType":"uint256","name":"_saleStartTime","type":"uint256"},{"internalType":"uint256","name":"_saleEndTime","type":"uint256"},{"internalType":"address payable","name":"_projectOwner","type":"address"},{"internalType":"uint256","name":"_tierOneValue","type":"uint256"},{"internalType":"uint256","name":"_tierTwoValue","type":"uint256"},{"internalType":"uint256","name":"_tierThreeValue","type":"uint256"},{"internalType":"uint256","name":"_tierFourValue","type":"uint256"},{"internalType":"uint256","name":"_tierFiveValue","type":"uint256"},{"internalType":"uint256","name":"_tierSixValue","type":"uint256"},{"internalType":"uint256","name":"_tierSevenValue","type":"uint256"},{"internalType":"uint256","name":"_tierEightValue","type":"uint256"},{"internalType":"uint256","name":"_tierNineValue","type":"uint256"},{"internalType":"uint256","name":"_totalparticipants","type":"uint256"}],"stateMutability":"nonpayable","type":"constructor"},{"anonymous":false,"inputs":[{"indexed":true,"internalType":"address","name":"previousOwner","type":"address"},{"indexed":true,"internalType":"address","name":"newOwner","type":"address"}],"name":"OwnershipTransferred","type":"event"},{"inputs":[],"name":"NAME","outputs":[{"internalType":"string","name":"","type":"string"}],"stateMutability":"view","type":"function"},{"inputs":[{"internalType":"address","name":"_address","type":"address"}],"name":"addWhitelistEight","outputs":[],"stateMutability":"nonpayable","type":"function"},{"inputs":[{"internalType":"address","name":"_address","type":"address"}],"name":"addWhitelistFive","outputs":[],"stateMutability":"nonpayable","type":"function"},{"inputs":[{"internalType":"address","name":"_address","type":"address"}],"name":"addWhitelistFour","outputs":[],"stateMutability":"nonpayable","type":"function"},{"inputs":[{"internalType":"address","name":"_address","type":"address"}],"name":"addWhitelistNine","outputs":[],"stateMutability":"nonpayable","type":"function"},{"inputs":[{"internalType":"address","name":"_address","type":"address"}],"name":"addWhitelistOne","outputs":[],"stateMutability":"nonpayable","type":"function"},{"inputs":[{"internalType":"address","name":"_address","type":"address"}],"name":"addWhitelistSeven","outputs":[],"stateMutability":"nonpayable","type":"function"},{"inputs":[{"internalType":"address","name":"_address","type":"address"}],"name":"addWhitelistSix","outputs":[],"stateMutability":"nonpayable","type":"function"},{"inputs":[{"internalType":"address","name":"_address","type":"address"}],"name":"addWhitelistThree","outputs":[],"stateMutability":"nonpayable","type":"function"},{"inputs":[{"internalType":"address","name":"_address","type":"address"}],"name":"addWhitelistTwo","outputs":[],"stateMutability":"nonpayable","type":"function"},{"inputs":[{"internalType":"address","name":"","type":"address"}],"name":"buyInEightTier","outputs":[{"internalType":"uint256","name":"","type":"uint256"}],"stateMutability":"view","type":"function"},{"inputs":[{"internalType":"address","name":"","type":"address"}],"name":"buyInFiveTier","outputs":[{"internalType":"uint256","name":"","type":"uint256"}],"stateMutability":"view","type":"function"},{"inputs":[{"internalType":"address","name":"","type":"address"}],"name":"buyInFourTier","outputs":[{"internalType":"uint256","name":"","type":"uint256"}],"stateMutability":"view","type":"function"},{"inputs":[{"internalType":"address","name":"","type":"address"}],"name":"buyInNineTier","outputs":[{"internalType":"uint256","name":"","type":"uint256"}],"stateMutability":"view","type":"function"},{"inputs":[{"internalType":"address","name":"","type":"address"}],"name":"buyInOneTier","outputs":[{"internalType":"uint256","name":"","type":"uint256"}],"stateMutability":"view","type":"function"},{"inputs":[{"internalType":"address","name":"","type":"address"}],"name":"buyInSevenTier","outputs":[{"internalType":"uint256","name":"","type":"uint256"}],"stateMutability":"view","type":"function"},{"inputs":[{"internalType":"address","name":"","type":"address"}],"name":"buyInSixTier","outputs":[{"internalType":"uint256","name":"","type":"uint256"}],"stateMutability":"view","type":"function"},{"inputs":[{"internalType":"address","name":"","type":"address"}],"name":"buyInThreeTier","outputs":[{"internalType":"uint256","name":"","type":"uint256"}],"stateMutability":"view","type":"function"},{"inputs":[{"internalType":"address","name":"","type":"address"}],"name":"buyInTwoTier","outputs":[{"internalType":"uint256","name":"","type":"uint256"}],"stateMutability":"view","type":"function"},{"inputs":[{"internalType":"address","name":"_address","type":"address"}],"name":"getWhitelistEight","outputs":[{"internalType":"bool","name":"","type":"bool"}],"stateMutability":"view","type":"function"},{"inputs":[{"internalType":"address","name":"_address","type":"address"}],"name":"getWhitelistFive","outputs":[{"internalType":"bool","name":"","type":"bool"}],"stateMutability":"view","type":"function"},{"inputs":[{"internalType":"address","name":"_address","type":"address"}],"name":"getWhitelistFour","outputs":[{"internalType":"bool","name":"","type":"bool"}],"stateMutability":"view","type":"function"},{"inputs":[{"internalType":"address","name":"_address","type":"address"}],"name":"getWhitelistNine","outputs":[{"internalType":"bool","name":"","type":"bool"}],"stateMutability":"view","type":"function"},{"inputs":[{"internalType":"address","name":"_address","type":"address"}],"name":"getWhitelistOne","outputs":[{"internalType":"bool","name":"","type":"bool"}],"stateMutability":"view","type":"function"},{"inputs":[{"internalType":"address","name":"_address","type":"address"}],"name":"getWhitelistSeven","outputs":[{"internalType":"bool","name":"","type":"bool"}],"stateMutability":"view","type":"function"},{"inputs":[{"internalType":"address","name":"_address","type":"address"}],"name":"getWhitelistSix","outputs":[{"internalType":"bool","name":"","type":"bool"}],"stateMutability":"view","type":"function"},{"inputs":[{"internalType":"address","name":"_address","type":"address"}],"name":"getWhitelistThree","outputs":[{"internalType":"bool","name":"","type":"bool"}],"stateMutability":"view","type":"function"},{"inputs":[{"internalType":"address","name":"_address","type":"address"}],"name":"getWhitelistTwo","outputs":[{"internalType":"bool","name":"","type":"bool"}],"stateMutability":"view","type":"function"},{"inputs":[],"name":"maxAllocaPerUserTierEight","outputs":[{"internalType":"uint256","name":"","type":"uint256"}],"stateMutability":"view","type":"function"},{"inputs":[],"name":"maxAllocaPerUserTierFive","outputs":[{"internalType":"uint256","name":"","type":"uint256"}],"stateMutability":"view","type":"function"},{"inputs":[],"name":"maxAllocaPerUserTierFour","outputs":[{"internalType":"uint256","name":"","type":"uint256"}],"stateMutability":"view","type":"function"},{"inputs":[],"name":"maxAllocaPerUserTierNine","outputs":[{"internalType":"uint256","name":"","type":"uint256"}],"stateMutability":"view","type":"function"},{"inputs":[],"name":"maxAllocaPerUserTierOne","outputs":[{"internalType":"uint256","name":"","type":"uint256"}],"stateMutability":"view","type":"function"},{"inputs":[],"name":"maxAllocaPerUserTierSeven","outputs":[{"internalType":"uint256","name":"","type":"uint256"}],"stateMutability":"view","type":"function"},{"inputs":[],"name":"maxAllocaPerUserTierSix","outputs":[{"internalType":"uint256","name":"","type":"uint256"}],"stateMutability":"view","type":"function"},{"inputs":[],"name":"maxAllocaPerUserTierThree","outputs":[{"internalType":"uint256","name":"","type":"uint256"}],"stateMutability":"view","type":"function"},{"inputs":[],"name":"maxAllocaPerUserTierTwo","outputs":[{"internalType":"uint256","name":"","type":"uint256"}],"stateMutability":"view","type":"function"},{"inputs":[],"name":"maxCap","outputs":[{"internalType":"uint256","name":"","type":"uint256"}],"stateMutability":"view","type":"function"},{"inputs":[],"name":"minAllocaPerUserTierEight","outputs":[{"internalType":"uint256","name":"","type":"uint256"}],"stateMutability":"view","type":"function"},{"inputs":[],"name":"minAllocaPerUserTierFive","outputs":[{"internalType":"uint256","name":"","type":"uint256"}],"stateMutability":"view","type":"function"},{"inputs":[],"name":"minAllocaPerUserTierFour","outputs":[{"internalType":"uint256","name":"","type":"uint256"}],"stateMutability":"view","type":"function"},{"inputs":[],"name":"minAllocaPerUserTierNine","outputs":[{"internalType":"uint256","name":"","type":"uint256"}],"stateMutability":"view","type":"function"},{"inputs":[],"name":"minAllocaPerUserTierOne","outputs":[{"internalType":"uint256","name":"","type":"uint256"}],"stateMutability":"view","type":"function"},{"inputs":[],"name":"minAllocaPerUserTierSeven","outputs":[{"internalType":"uint256","name":"","type":"uint256"}],"stateMutability":"view","type":"function"},{"inputs":[],"name":"minAllocaPerUserTierSix","outputs":[{"internalType":"uint256","name":"","type":"uint256"}],"stateMutability":"view","type":"function"},{"inputs":[],"name":"minAllocaPerUserTierThree","outputs":[{"internalType":"uint256","name":"","type":"uint256"}],"stateMutability":"view","type":"function"},{"inputs":[],"name":"minAllocaPerUserTierTwo","outputs":[{"internalType":"uint256","name":"","type":"uint256"}],"stateMutability":"view","type":"function"},{"inputs":[{"internalType":"address","name":"","type":"address"}],"name":"minBuyInEightTier","outputs":[{"internalType":"uint256","name":"","type":"uint256"}],"stateMutability":"view","type":"function"},{"inputs":[{"internalType":"address","name":"","type":"address"}],"name":"minBuyInFiveTier","outputs":[{"internalType":"uint256","name":"","type":"uint256"}],"stateMutability":"view","type":"function"},{"inputs":[{"internalType":"address","name":"","type":"address"}],"name":"minBuyInFourTier","outputs":[{"internalType":"uint256","name":"","type":"uint256"}],"stateMutability":"view","type":"function"},{"inputs":[{"internalType":"address","name":"","type":"address"}],"name":"minBuyInNineTier","outputs":[{"internalType":"uint256","name":"","type":"uint256"}],"stateMutability":"view","type":"function"},{"inputs":[{"internalType":"address","name":"","type":"address"}],"name":"minBuyInOneTier","outputs":[{"internalType":"uint256","name":"","type":"uint256"}],"stateMutability":"view","type":"function"},{"inputs":[{"internalType":"address","name":"","type":"address"}],"name":"minBuyInSevenTier","outputs":[{"internalType":"uint256","name":"","type":"uint256"}],"stateMutability":"view","type":"function"},{"inputs":[{"internalType":"address","name":"","type":"address"}],"name":"minBuyInSixTier","outputs":[{"internalType":"uint256","name":"","type":"uint256"}],"stateMutability":"view","type":"function"},{"inputs":[{"internalType":"address","name":"","type":"address"}],"name":"minBuyInThreeTier","outputs":[{"internalType":"uint256","name":"","type":"uint256"}],"stateMutability":"view","type":"function"},{"inputs":[{"internalType":"address","name":"","type":"address"}],"name":"minBuyInTwoTier","outputs":[{"internalType":"uint256","name":"","type":"uint256"}],"stateMutability":"view","type":"function"},{"inputs":[],"name":"owner","outputs":[{"internalType":"address","name":"","type":"address"}],"stateMutability":"view","type":"function"},{"inputs":[],"name":"projectOwner","outputs":[{"internalType":"address payable","name":"","type":"address"}],"stateMutability":"view","type":"function"},{"inputs":[],"name":"saleEndTime","outputs":[{"internalType":"uint256","name":"","type":"uint256"}],"stateMutability":"view","type":"function"},{"inputs":[],"name":"saleStartTime","outputs":[{"internalType":"uint256","name":"","type":"uint256"}],"stateMutability":"view","type":"function"},{"inputs":[],"name":"tierEightMaxCap","outputs":[{"internalType":"uint256","name":"","type":"uint256"}],"stateMutability":"view","type":"function"},{"inputs":[],"name":"tierFiveMaxCap","outputs":[{"internalType":"uint256","name":"","type":"uint256"}],"stateMutability":"view","type":"function"},{"inputs":[],"name":"tierFourMaxCap","outputs":[{"internalType":"uint256","name":"","type":"uint256"}],"stateMutability":"view","type":"function"},{"inputs":[],"name":"tierNineMaxCap","outputs":[{"internalType":"uint256","name":"","type":"uint256"}],"stateMutability":"view","type":"function"},{"inputs":[],"name":"tierOneMaxCap","outputs":[{"internalType":"uint256","name":"","type":"uint256"}],"stateMutability":"view","type":"function"},{"inputs":[],"name":"tierSevenMaxCap","outputs":[{"internalType":"uint256","name":"","type":"uint256"}],"stateMutability":"view","type":"function"},{"inputs":[],"name":"tierSixMaxCap","outputs":[{"internalType":"uint256","name":"","type":"uint256"}],"stateMutability":"view","type":"function"},{"inputs":[],"name":"tierThreeMaxCap","outputs":[{"internalType":"uint256","name":"","type":"uint256"}],"stateMutability":"view","type":"function"},{"inputs":[],"name":"tierTwoMaxCap","outputs":[{"internalType":"uint256","name":"","type":"uint256"}],"stateMutability":"view","type":"function"},{"inputs":[],"name":"totalEthInTierEight","outputs":[{"internalType":"uint256","name":"","type":"uint256"}],"stateMutability":"view","type":"function"},{"inputs":[],"name":"totalEthInTierFive","outputs":[{"internalType":"uint256","name":"","type":"uint256"}],"stateMutability":"view","type":"function"},{"inputs":[],"name":"totalEthInTierFour","outputs":[{"internalType":"uint256","name":"","type":"uint256"}],"stateMutability":"view","type":"function"},{"inputs":[],"name":"totalEthInTierNine","outputs":[{"internalType":"uint256","name":"","type":"uint256"}],"stateMutability":"view","type":"function"},{"inputs":[],"name":"totalEthInTierOne","outputs":[{"internalType":"uint256","name":"","type":"uint256"}],"stateMutability":"view","type":"function"},{"inputs":[],"name":"totalEthInTierSeven","outputs":[{"internalType":"uint256","name":"","type":"uint256"}],"stateMutability":"view","type":"function"},{"inputs":[],"name":"totalEthInTierSix","outputs":[{"internalType":"uint256","name":"","type":"uint256"}],"stateMutability":"view","type":"function"},{"inputs":[],"name":"totalEthInTierThree","outputs":[{"internalType":"uint256","name":"","type":"uint256"}],"stateMutability":"view","type":"function"},{"inputs":[],"name":"totalEthInTierTwo","outputs":[{"internalType":"uint256","name":"","type":"uint256"}],"stateMutability":"view","type":"function"},{"inputs":[],"name":"totalEthReceivedInAllTier","outputs":[{"internalType":"uint256","name":"","type":"uint256"}],"stateMutability":"view","type":"function"},{"inputs":[],"name":"totalUserInTierEight","outputs":[{"internalType":"uint256","name":"","type":"uint256"}],"stateMutability":"view","type":"function"},{"inputs":[],"name":"totalUserInTierFive","outputs":[{"internalType":"uint256","name":"","type":"uint256"}],"stateMutability":"view","type":"function"},{"inputs":[],"name":"totalUserInTierFour","outputs":[{"internalType":"uint256","name":"","type":"uint256"}],"stateMutability":"view","type":"function"},{"inputs":[],"name":"totalUserInTierNine","outputs":[{"internalType":"uint256","name":"","type":"uint256"}],"stateMutability":"view","type":"function"},{"inputs":[],"name":"totalUserInTierOne","outputs":[{"internalType":"uint256","name":"","type":"uint256"}],"stateMutability":"view","type":"function"},{"inputs":[],"name":"totalUserInTierSeven","outputs":[{"internalType":"uint256","name":"","type":"uint256"}],"stateMutability":"view","type":"function"},{"inputs":[],"name":"totalUserInTierSix","outputs":[{"internalType":"uint256","name":"","type":"uint256"}],"stateMutability":"view","type":"function"},{"inputs":[],"name":"totalUserInTierThree","outputs":[{"internalType":"uint256","name":"","type":"uint256"}],"stateMutability":"view","type":"function"},{"inputs":[],"name":"totalUserInTierTwo","outputs":[{"internalType":"uint256","name":"","type":"uint256"}],"stateMutability":"view","type":"function"},{"inputs":[],"name":"totalparticipants","outputs":[{"internalType":"uint256","name":"","type":"uint256"}],"stateMutability":"view","type":"function"},{"inputs":[{"internalType":"address","name":"newOwner","type":"address"}],"name":"transferOwnership","outputs":[],"stateMutability":"nonpayable","type":"function"},{"inputs":[{"internalType":"uint256","name":"_tierOneUsersValue","type":"uint256"},{"internalType":"uint256","name":"_tierTwoUsersValue","type":"uint256"},{"internalType":"uint256","name":"_tierThreeUsersValue","type":"uint256"},{"internalType":"uint256","name":"_tierFourUsersValue","type":"uint256"},{"internalType":"uint256","name":"_tierFiveUsersValue","type":"uint256"},{"internalType":"uint256","name":"_tierSixUsersValue","type":"uint256"},{"internalType":"uint256","name":"_tierSevenUsersValue","type":"uint256"},{"internalType":"uint256","name":"_tierEightUsersValue","type":"uint256"},{"internalType":"uint256","name":"_tierNineUsersValue","type":"uint256"}],"name":"updateTierUsersValue","outputs":[],"stateMutability":"nonpayable","type":"function"},{"inputs":[{"internalType":"uint256","name":"_tierOneValue","type":"uint256"},{"internalType":"uint256","name":"_tierTwoValue","type":"uint256"},{"internalType":"uint256","name":"_tierThreeValue","type":"uint256"},{"internalType":"uint256","name":"_tierFourValue","type":"uint256"},{"internalType":"uint256","name":"_tierFiveValue","type":"uint256"},{"internalType":"uint256","name":"_tierSixValue","type":"uint256"},{"internalType":"uint256","name":"_tierSevenValue","type":"uint256"},{"internalType":"uint256","name":"_tierEightValue","type":"uint256"},{"internalType":"uint256","name":"_tierNineValue","type":"uint256"}],"name":"updateTierValues","outputs":[],"stateMutability":"nonpayable","type":"function"},{"stateMutability":"payable","type":"receive"}],"evm":{"bytecode":{"linkReferences":{},"object":"60e0604052346200007a5762000031620000186200025c565b9c9b909b9a919a99929998939897949796959662000482565b6200003b62000080565b61522a6200090f8239608051818181610cf0015261429d015260a051818181610a420152614210015260c051818181611f77015261424d015261522a90f35b62000086565b60405190565b600080fd5b601f801991011690565b634e487b7160e01b600052604160045260246000fd5b90620000b7906200008b565b810190811060018060401b03821117620000d057604052565b62000095565b90620000ed620000e562000080565b9283620000ab565b565b600080fd5b90565b6200010281620000f4565b036200010a57565b600080fd5b905051906200011e82620000f7565b565b60018060a01b031690565b620001369062000120565b90565b62000144816200012b565b036200014c57565b600080fd5b90505190620001608262000139565b565b91906101c08382031262000256576200017f81600085016200010f565b926200018f82602083016200010f565b926200019f83604084016200010f565b92620001af816060850162000151565b92620001bf82608083016200010f565b92620001cf8360a084016200010f565b92620001df8160c085016200010f565b92620001ef8260e083016200010f565b92620002008361010084016200010f565b92620002118161012085016200010f565b92620002228261014083016200010f565b9262000253620002378461016085016200010f565b93620002488161018086016200010f565b936101a0016200010f565b90565b620000ef565b6200027f62005b39803803806200027381620000d6565b92833981019062000162565b909192939495969798999a9b9c9d565b60001b90565b90620002a860018060a01b03916200028f565b9181191691161790565b90565b620002ce620002c8620002d49262000120565b620002b2565b62000120565b90565b620002e290620002b5565b90565b620002f090620002d7565b90565b90565b90620003106200030a6200031892620002e5565b620002f3565b825462000295565b9055565b906200032b600019916200028f565b9181191691161790565b6200034e620003486200035492620000f4565b620002b2565b620000f4565b90565b90565b90620003746200036e6200037c9262000335565b62000357565b82546200031c565b9055565b90565b6200039c62000396620003a29262000380565b620002b2565b620000f4565b90565b90565b620003c1620003bb620003c792620003a5565b620002b2565b620000f4565b90565b90565b620003e6620003e0620003ec92620003ca565b620002b2565b620000f4565b90565b90565b6200040b620004056200041192620003ef565b620002b2565b620000f4565b90565b60001c90565b90565b6200042c620004329162000414565b6200041a565b90565b6200044190546200041d565b90565b634e487b7160e01b600052601260045260246000fd5b620004696200047091620000f4565b91620000f4565b9081156200047c570490565b62000444565b96620004f1620008b89e9d9b97620004e96200050998620005219f9c96620005199e99620004d9620005019a620005119f93620004f99a620004e195620004c8620008ff565b60805260a05260c052600c620002f6565b600d6200035a565b600e6200035a565b600f6200035a565b60106200035a565b60116200035a565b60126200035a565b60136200035a565b60146200035a565b60156200035a565b6200053f6200053766038d7ea4c6800062000383565b60286200035a565b6200055d6200055566038d7ea4c6800062000383565b60296200035a565b6200057b6200057366038d7ea4c6800062000383565b602a6200035a565b620005996200059166038d7ea4c6800062000383565b602b6200035a565b620005b7620005af66038d7ea4c6800062000383565b602c6200035a565b620005d5620005cd66038d7ea4c6800062000383565b602d6200035a565b620005f3620005eb66038d7ea4c6800062000383565b602e6200035a565b620006116200060966038d7ea4c6800062000383565b602f6200035a565b6200062f6200062766038d7ea4c6800062000383565b60306200035a565b620006486200064061029d620003a8565b60166200035a565b62000661620006596101ee620003cd565b60176200035a565b62000679620006716001620003f2565b60186200035a565b62000691620006896001620003f2565b60196200035a565b620006a9620006a16001620003f2565b601a6200035a565b620006c1620006b96001620003f2565b601b6200035a565b620006d9620006d16001620003f2565b601c6200035a565b620006f1620006e96001620003f2565b601d6200035a565b62000709620007016001620003f2565b601e6200035a565b62000738620007306200071d600d62000435565b62000729601662000435565b906200045a565b601f6200035a565b620007676200075f6200074c600e62000435565b62000758601762000435565b906200045a565b60206200035a565b620007966200078e6200077b600f62000435565b62000787601862000435565b906200045a565b60216200035a565b620007c5620007bd620007aa601062000435565b620007b6601962000435565b906200045a565b60226200035a565b620007f4620007ec620007d9601162000435565b620007e5601a62000435565b906200045a565b60236200035a565b620008236200081b62000808601262000435565b62000814601b62000435565b906200045a565b60246200035a565b620008526200084a62000837601362000435565b62000843601c62000435565b906200045a565b60256200035a565b620008816200087962000866601462000435565b62000872601d62000435565b906200045a565b60266200035a565b620008b0620008a862000895601562000435565b620008a1601e62000435565b906200045a565b60276200035a565b600b6200035a565b565b620008c590620002b5565b90565b620008d390620008ba565b90565b90565b90620008f3620008ed620008fb92620008c8565b620008d6565b825462000295565b9055565b6200090c336000620008d9565b56fe6080604052600436101561001d575b3661226c5761001b614204565b005b6100286000356105e7565b806301099885146105e2578063015e2a13146105dd57806302692835146105d857806303440f37146105d357806303673ff7146105ce5780630e3a02e2146105c95780630e919761146105c45780630f738fd5146105bf578063186d54f0146105ba5780631a0e66bf146105b55780631a8b43e4146105b05780631cbaee2d146105ab5780631cbd01ec146105a65780631e2b2a50146105a15780631eaf78341461059c5780631fc0d469146105975780632146d7ff1461059257806322b153341461058d57806323548b8b14610588578063244c4f1014610583578063288a4dee1461057e57806329d6cd87146105795780632ad16bee146105745780632f84901c1461056f578063339855ff1461056a5780633c6bb474146105655780633ff2bbc61461056057806340d094961461055b57806342ec275914610556578063434800fc146105515780634c510db71461054c5780634d9b4b4f146105475780634dce5168146105425780634e6ac0591461053d578063523d6b26146105385780635e18c33014610533578063602072fa1461052e57806362ace63f146105295780636cd52c64146105245780636f507e0d1461051f57806371b9510d1461051a57806374c6bd0d1461051557806376d8711f146105105780637eee20571461050b578063823276c31461050657806382d9effe14610501578063842a8271146104fc5780638a9983d8146104f75780638da5cb5b146104f25780638f78bdcf146104ed5780638fb48741146104e857806390257644146104e357806391ab87ea146104de57806397ede623146104d95780639a1e1bb2146104d45780639ae05f38146104cf5780639b2e5d8b146104ca5780639d9db77d146104c55780639eb11439146104c0578063a0ce460b146104bb578063a315b404146104b6578063a340f0b3146104b1578063a390c97f146104ac578063a3f4df7e146104a7578063a4475ce4146104a2578063adfed46f1461049d578063ae4fdad914610498578063b2c85e1114610493578063b45ccf0b1461048e578063b6c8a99c14610489578063b84536ae14610484578063b9ec0dde1461047f578063becbb04b1461047a578063c31d36f514610475578063c7ac1d4414610470578063d529a5651461046b578063db0bc68314610466578063dfcf605f14610461578063e0daa8ba1461045c578063e7f7814e14610457578063e8891b7d14610452578063ed338ff11461044d578063f00d118a14610448578063f1e81e0714610443578063f2fde38b1461043e578063f6bb87f514610439578063f812795814610434578063fd2348561461042f578063fd8699711461042a578063fde2da1314610425578063fe36f6c9146104205763ff3e7c720361000e57612237565b6121e8565b612199565b61214a565b612105565b6120d0565b61209b565b612058565b612023565b611fde565b611f99565b611f40565b611efb565b611eac565b611e67565b611e22565b611ddd565b611d98565b611d63565b611d1e565b611cd9565b611ca4565b611c61565b611c2c565b611be7565b611ba4565b611b6f565b611b3a565b611a95565b6118ea565b6118a5565b611862565b61182d565b6117de565b61178f565b61174a565b611705565b6116c0565b61167b565b611636565b6115f1565b6115ae565b611579565b611534565b61149d565b61145a565b611425565b6113e0565b61139b565b611356565b611307565b6112c2565b611273565b611224565b6111e1565b6111ac565b61115d565b611118565b6110d3565b61108e565b611059565b611014565b610fcf565b610f82565b610f4d565b610f0a565b610ed7565b610ea2565b610e5f565b610e2a565b610ddb565b610d8c565b610d57565b610d12565b610cb9565b610c84565b610c35565b610bf0565b610b99565b610aa9565b610a64565b610a0b565b6109c6565b610981565b61093c565b6108ed565b6108a8565b610859565b61080a565b6107c5565b610768565b610670565b60e01c90565b60405190565b600080fd5b600080fd5b600091031261060857565b6105f8565b1c90565b90565b610624906008610629930261060d565b610611565b90565b906106379154610614565b90565b610647600b60009061062c565b90565b90565b6106569061064a565b9052565b919061066e9060006020850194019061064d565b565b346106a0576106803660046105fd565b61069c61068b61063a565b6106936105ed565b9182918261065a565b0390f35b6105f3565b60018060a01b031690565b6106b9906106a5565b90565b6106c5816106b0565b036106cc57565b600080fd5b905035906106de826106bc565b565b906020828203126106fa576106f7916000016106d1565b90565b6105f8565b90565b61071661071161071b926106a5565b6106ff565b6106a5565b90565b61072790610702565b90565b6107339061071e565b90565b906107409061072a565b600052602052604060002090565b61076590610760603f91600092610736565b61062c565b90565b346107985761079461078361077e3660046106e0565b61074e565b61078b6105ed565b9182918261065a565b0390f35b6105f3565b151590565b6107ab9061079d565b9052565b91906107c3906000602085019401906107a2565b565b346107f5576107f16107e06107db3660046106e0565b6122f7565b6107e86105ed565b918291826107af565b0390f35b6105f3565b610807600360009061062c565b90565b3461083a5761081a3660046105fd565b6108366108256107fa565b61082d6105ed565b9182918261065a565b0390f35b6105f3565b61085690610851604891600092610736565b61062c565b90565b346108895761088561087461086f3660046106e0565b61083f565b61087c6105ed565b9182918261065a565b0390f35b6105f3565b6108a5906108a0604391600092610736565b61062c565b90565b346108d8576108d46108c36108be3660046106e0565b61088e565b6108cb6105ed565b9182918261065a565b0390f35b6105f3565b6108ea602660009061062c565b90565b3461091d576108fd3660046105fd565b6109196109086108dd565b6109106105ed565b9182918261065a565b0390f35b6105f3565b61093990610934604a91600092610736565b61062c565b90565b3461096c576109686109576109523660046106e0565b610922565b61095f6105ed565b9182918261065a565b0390f35b6105f3565b61097e600860009061062c565b90565b346109b1576109913660046105fd565b6109ad61099c610971565b6109a46105ed565b9182918261065a565b0390f35b6105f3565b6109c3602560009061062c565b90565b346109f6576109d63660046105fd565b6109f26109e16109b6565b6109e96105ed565b9182918261065a565b0390f35b6105f3565b610a08602a60009061062c565b90565b34610a3b57610a1b3660046105fd565b610a37610a266109fb565b610a2e6105ed565b9182918261065a565b0390f35b6105f3565b7f000000000000000000000000000000000000000000000000000000000000000090565b34610a9457610a743660046105fd565b610a90610a7f610a40565b610a876105ed565b9182918261065a565b0390f35b6105f3565b610aa6600a60009061062c565b90565b34610ad957610ab93660046105fd565b610ad5610ac4610a99565b610acc6105ed565b9182918261065a565b0390f35b6105f3565b610ae78161064a565b03610aee57565b600080fd5b90503590610b0082610ade565b565b909161012082840312610b8e57610b1c8360008401610af3565b92610b2a8160208501610af3565b92610b388260408301610af3565b92610b468360608401610af3565b92610b548160808501610af3565b92610b628260a08301610af3565b92610b8b610b738460c08501610af3565b93610b818160e08601610af3565b9361010001610af3565b90565b6105f8565b60000190565b34610bd157610bbb610bac366004610b02565b9796909695919594929461267c565b610bc36105ed565b80610bcd81610b93565b0390f35b6105f3565b610bed90610be8604191600092610736565b61062c565b90565b34610c2057610c1c610c0b610c063660046106e0565b610bd6565b610c136105ed565b9182918261065a565b0390f35b6105f3565b610c32601460009061062c565b90565b34610c6557610c453660046105fd565b610c61610c50610c25565b610c586105ed565b9182918261065a565b0390f35b6105f3565b610c8190610c7c604491600092610736565b61062c565b90565b34610cb457610cb0610c9f610c9a3660046106e0565b610c6a565b610ca76105ed565b9182918261065a565b0390f35b6105f3565b34610ce957610ce5610cd4610ccf3660046106e0565b61268f565b610cdc6105ed565b918291826107af565b0390f35b6105f3565b7f000000000000000000000000000000000000000000000000000000000000000090565b34610d4257610d223660046105fd565b610d3e610d2d610cee565b610d356105ed565b9182918261065a565b0390f35b6105f3565b610d54600e60009061062c565b90565b34610d8757610d673660046105fd565b610d83610d72610d47565b610d7a6105ed565b9182918261065a565b0390f35b6105f3565b34610dbc57610db8610da7610da23660046106e0565b61271a565b610daf6105ed565b918291826107af565b0390f35b6105f3565b610dd890610dd3604b91600092610736565b61062c565b90565b34610e0b57610e07610df6610df13660046106e0565b610dc1565b610dfe6105ed565b9182918261065a565b0390f35b6105f3565b610e2790610e22604291600092610736565b61062c565b90565b34610e5a57610e56610e45610e403660046106e0565b610e10565b610e4d6105ed565b9182918261065a565b0390f35b6105f3565b34610e8d57610e77610e723660046106e0565b61297f565b610e7f6105ed565b80610e8981610b93565b0390f35b6105f3565b610e9f600160009061062c565b90565b34610ed257610eb23660046105fd565b610ece610ebd610e92565b610ec56105ed565b9182918261065a565b0390f35b6105f3565b34610f0557610eef610eea3660046106e0565b6129f5565b610ef76105ed565b80610f0181610b93565b0390f35b6105f3565b34610f3857610f22610f1d3660046106e0565b612a6b565b610f2a6105ed565b80610f3481610b93565b0390f35b6105f3565b610f4a602c60009061062c565b90565b34610f7d57610f5d3660046105fd565b610f79610f68610f3d565b610f706105ed565b9182918261065a565b0390f35b6105f3565b34610fba57610fa4610f95366004610b02565b97969096959195949294612c72565b610fac6105ed565b80610fb681610b93565b0390f35b6105f3565b610fcc602960009061062c565b90565b34610fff57610fdf3660046105fd565b610ffb610fea610fbf565b610ff26105ed565b9182918261065a565b0390f35b6105f3565b611011601a60009061062c565b90565b34611044576110243660046105fd565b61104061102f611004565b6110376105ed565b9182918261065a565b0390f35b6105f3565b611056602260009061062c565b90565b34611089576110693660046105fd565b611085611074611049565b61107c6105ed565b9182918261065a565b0390f35b6105f3565b346110be576110ba6110a96110a43660046106e0565b612c85565b6110b16105ed565b918291826107af565b0390f35b6105f3565b6110d0602860009061062c565b90565b34611103576110e33660046105fd565b6110ff6110ee6110c3565b6110f66105ed565b9182918261065a565b0390f35b6105f3565b611115602360009061062c565b90565b34611148576111283660046105fd565b611144611133611108565b61113b6105ed565b9182918261065a565b0390f35b6105f3565b61115a601960009061062c565b90565b3461118d5761116d3660046105fd565b61118961117861114d565b6111806105ed565b9182918261065a565b0390f35b6105f3565b6111a9906111a4604691600092610736565b61062c565b90565b346111dc576111d86111c76111c23660046106e0565b611192565b6111cf6105ed565b9182918261065a565b0390f35b6105f3565b3461120f576111f96111f43660046106e0565b612d7b565b6112016105ed565b8061120b81610b93565b0390f35b6105f3565b611221602760009061062c565b90565b34611254576112343660046105fd565b61125061123f611214565b6112476105ed565b9182918261065a565b0390f35b6105f3565b6112709061126b603e91600092610736565b61062c565b90565b346112a35761129f61128e6112893660046106e0565b611259565b6112966105ed565b9182918261065a565b0390f35b6105f3565b6112bf906112ba603b91600092610736565b61062c565b90565b346112f2576112ee6112dd6112d83660046106e0565b6112a8565b6112e56105ed565b9182918261065a565b0390f35b6105f3565b611304601860009061062c565b90565b34611337576113173660046105fd565b6113336113226112f7565b61132a6105ed565b9182918261065a565b0390f35b6105f3565b6113539061134e604591600092610736565b61062c565b90565b346113865761138261137161136c3660046106e0565b61133c565b6113796105ed565b9182918261065a565b0390f35b6105f3565b611398601c60009061062c565b90565b346113cb576113ab3660046105fd565b6113c76113b661138b565b6113be6105ed565b9182918261065a565b0390f35b6105f3565b6113dd600d60009061062c565b90565b34611410576113f03660046105fd565b61140c6113fb6113d0565b6114036105ed565b9182918261065a565b0390f35b6105f3565b611422600660009061062c565b90565b34611455576114353660046105fd565b611451611440611415565b6114486105ed565b9182918261065a565b0390f35b6105f3565b346114885761147261146d3660046106e0565b612df1565b61147a6105ed565b8061148481610b93565b0390f35b6105f3565b61149a602460009061062c565b90565b346114cd576114ad3660046105fd565b6114c96114b861148d565b6114c06105ed565b9182918261065a565b0390f35b6105f3565b60018060a01b031690565b6114ed9060086114f2930261060d565b6114d2565b90565b9061150091546114dd565b90565b61150e6000806114f5565b90565b61151a906106b0565b9052565b919061153290600060208501940190611511565b565b34611564576115443660046105fd565b61156061154f611503565b6115576105ed565b9182918261151e565b0390f35b6105f3565b611576600260009061062c565b90565b346115a9576115893660046105fd565b6115a5611594611569565b61159c6105ed565b9182918261065a565b0390f35b6105f3565b346115dc576115c66115c13660046106e0565b612e67565b6115ce6105ed565b806115d881610b93565b0390f35b6105f3565b6115ee601f60009061062c565b90565b34611621576116013660046105fd565b61161d61160c6115e1565b6116146105ed565b9182918261065a565b0390f35b6105f3565b611633600460009061062c565b90565b34611666576116463660046105fd565b611662611651611626565b6116596105ed565b9182918261065a565b0390f35b6105f3565b611678601360009061062c565b90565b346116ab5761168b3660046105fd565b6116a761169661166b565b61169e6105ed565b9182918261065a565b0390f35b6105f3565b6116bd600760009061062c565b90565b346116f0576116d03660046105fd565b6116ec6116db6116b0565b6116e36105ed565b9182918261065a565b0390f35b6105f3565b611702602e60009061062c565b90565b34611735576117153660046105fd565b6117316117206116f5565b6117286105ed565b9182918261065a565b0390f35b6105f3565b611747602f60009061062c565b90565b3461177a5761175a3660046105fd565b61177661176561173a565b61176d6105ed565b9182918261065a565b0390f35b6105f3565b61178c601060009061062c565b90565b346117bf5761179f3660046105fd565b6117bb6117aa61177f565b6117b26105ed565b9182918261065a565b0390f35b6105f3565b6117db906117d6604991600092610736565b61062c565b90565b3461180e5761180a6117f96117f43660046106e0565b6117c4565b6118016105ed565b9182918261065a565b0390f35b6105f3565b61182a90611825603c91600092610736565b61062c565b90565b3461185d576118596118486118433660046106e0565b611813565b6118506105ed565b9182918261065a565b0390f35b6105f3565b346118905761187a6118753660046106e0565b612edd565b6118826105ed565b8061188c81610b93565b0390f35b6105f3565b6118a2601b60009061062c565b90565b346118d5576118b53660046105fd565b6118d16118c0611895565b6118c86105ed565b9182918261065a565b0390f35b6105f3565b6118e7600f60009061062c565b90565b3461191a576118fa3660046105fd565b6119166119056118da565b61190d6105ed565b9182918261065a565b0390f35b6105f3565b601f801991011690565b634e487b7160e01b600052604160045260246000fd5b906119499061191f565b810190811067ffffffffffffffff82111761196357604052565b611929565b9061197b6119746105ed565b928361193f565b565b67ffffffffffffffff811161199b5761199760209161191f565b0190565b611929565b906119b26119ad8361197d565b611968565b918252565b60007f57654c61756e63682e66756e6473000000000000000000000000000000000000910152565b6119e9600e6119a0565b906119f6602083016119b7565b565b611a006119df565b90565b611a0b6119f8565b90565b611a16611a03565b90565b5190565b60209181520190565b60005b838110611a3a575050906000910152565b806020918301518185015201611a29565b611a6a611a73602093611a7893611a6181611a19565b93848093611a1d565b95869101611a26565b61191f565b0190565b611a929160208201916000818403910152611a4b565b90565b34611ac557611aa53660046105fd565b611ac1611ab0611a0e565b611ab86105ed565b91829182611a7c565b0390f35b6105f3565b60018060a01b031690565b611ae5906008611aea930261060d565b611aca565b90565b90611af89154611ad5565b90565b611b08600c600090611aed565b90565b611b14906106a5565b90565b611b2090611b0b565b9052565b9190611b3890600060208501940190611b17565b565b34611b6a57611b4a3660046105fd565b611b66611b55611afb565b611b5d6105ed565b91829182611b24565b0390f35b6105f3565b34611b9f57611b9b611b8a611b853660046106e0565b612ee8565b611b926105ed565b918291826107af565b0390f35b6105f3565b34611bd257611bbc611bb73660046106e0565b612fde565b611bc46105ed565b80611bce81610b93565b0390f35b6105f3565b611be4601e60009061062c565b90565b34611c1757611bf73660046105fd565b611c13611c02611bd7565b611c0a6105ed565b9182918261065a565b0390f35b6105f3565b611c29601160009061062c565b90565b34611c5c57611c3c3660046105fd565b611c58611c47611c1c565b611c4f6105ed565b9182918261065a565b0390f35b6105f3565b34611c8f57611c79611c743660046106e0565b613054565b611c816105ed565b80611c8b81610b93565b0390f35b6105f3565b611ca1600560009061062c565b90565b34611cd457611cb43660046105fd565b611cd0611cbf611c94565b611cc76105ed565b9182918261065a565b0390f35b6105f3565b34611d0957611d05611cf4611cef3660046106e0565b61305f565b611cfc6105ed565b918291826107af565b0390f35b6105f3565b611d1b602160009061062c565b90565b34611d4e57611d2e3660046105fd565b611d4a611d39611d0e565b611d416105ed565b9182918261065a565b0390f35b6105f3565b611d60601260009061062c565b90565b34611d9357611d733660046105fd565b611d8f611d7e611d53565b611d866105ed565b9182918261065a565b0390f35b6105f3565b34611dc857611dc4611db3611dae3660046106e0565b6130ea565b611dbb6105ed565b918291826107af565b0390f35b6105f3565b611dda602b60009061062c565b90565b34611e0d57611ded3660046105fd565b611e09611df8611dcd565b611e006105ed565b9182918261065a565b0390f35b6105f3565b611e1f603060009061062c565b90565b34611e5257611e323660046105fd565b611e4e611e3d611e12565b611e456105ed565b9182918261065a565b0390f35b6105f3565b611e64602d60009061062c565b90565b34611e9757611e773660046105fd565b611e93611e82611e57565b611e8a6105ed565b9182918261065a565b0390f35b6105f3565b611ea9601660009061062c565b90565b34611edc57611ebc3660046105fd565b611ed8611ec7611e9c565b611ecf6105ed565b9182918261065a565b0390f35b6105f3565b611ef890611ef3603d91600092610736565b61062c565b90565b34611f2b57611f27611f16611f113660046106e0565b611ee1565b611f1e6105ed565b9182918261065a565b0390f35b6105f3565b611f3d602060009061062c565b90565b34611f7057611f503660046105fd565b611f6c611f5b611f30565b611f636105ed565b9182918261065a565b0390f35b6105f3565b7f000000000000000000000000000000000000000000000000000000000000000090565b34611fc957611fa93660046105fd565b611fc5611fb4611f75565b611fbc6105ed565b9182918261065a565b0390f35b6105f3565b611fdb600960009061062c565b90565b3461200e57611fee3660046105fd565b61200a611ff9611fce565b6120016105ed565b9182918261065a565b0390f35b6105f3565b612020601760009061062c565b90565b34612053576120333660046105fd565b61204f61203e612013565b6120466105ed565b9182918261065a565b0390f35b6105f3565b346120865761207061206b3660046106e0565b613267565b6120786105ed565b8061208281610b93565b0390f35b6105f3565b612098601d60009061062c565b90565b346120cb576120ab3660046105fd565b6120c76120b661208b565b6120be6105ed565b9182918261065a565b0390f35b6105f3565b34612100576120fc6120eb6120e63660046106e0565b613272565b6120f36105ed565b918291826107af565b0390f35b6105f3565b346121355761213161212061211b3660046106e0565b6132fd565b6121286105ed565b918291826107af565b0390f35b6105f3565b612147601560009061062c565b90565b3461217a5761215a3660046105fd565b61217661216561213a565b61216d6105ed565b9182918261065a565b0390f35b6105f3565b61219690612191604791600092610736565b61062c565b90565b346121c9576121c56121b46121af3660046106e0565b61217f565b6121bc6105ed565b9182918261065a565b0390f35b6105f3565b6121e5906121e0603a91600092610736565b61062c565b90565b34612218576122146122036121fe3660046106e0565b6121ce565b61220b6105ed565b9182918261065a565b0390f35b6105f3565b6122349061222f604091600092610736565b61062c565b90565b346122675761226361225261224d3660046106e0565b61221d565b61225a6105ed565b9182918261065a565b0390f35b6105f3565b600080fd5b600090565b600090565b5490565b90565b61229661229161229b9261227f565b6106ff565b61064a565b90565b60016122aa910161064a565b90565b634e487b7160e01b600052603260045260246000fd5b600052602060002090565b6122d78161227b565b8210156122f2576122e96001916122c3565b91020190600090565b6122ad565b6122ff612271565b50612308612276565b50612313603861227b565b9061231e6000612282565b5b8061233261232c8561064a565b9161064a565b101561237a5761234d612347603883906122ce565b906114f5565b61235f612359846106b0565b916106b0565b146123725761236d9061229e565b61231f565b505050600190565b505050600090565b60001c90565b61239461239991612382565b6114d2565b90565b6123a69054612388565b90565b156123b057565b600080fd5b906123eb98979695949392916123e6336123e06123da6123d5600061239c565b6106b0565b916106b0565b146123a9565b6124b8565b565b60001b90565b90612400600019916123ed565b9181191691161790565b61241e6124196124239261064a565b6106ff565b61064a565b90565b90565b9061243e6124396124459261240a565b612426565b82546123f3565b9055565b61245561245a91612382565b610611565b90565b6124679054612449565b90565b634e487b7160e01b600052601260045260246000fd5b634e487b7160e01b600052601160045260246000fd5b6124a26124a89161064a565b9161064a565b9081156124b3570490565b61246a565b61250d946124f861251498956124f1612506966124ea61251b9e9d9b976124e36124ff98600d612429565b600e612429565b600f612429565b6010612429565b6011612429565b6012612429565b6013612429565b6014612429565b6015612429565b61254261253b61252b600d61245d565b612535601661245d565b90612496565b601f612429565b612569612562612552600e61245d565b61255c601761245d565b90612496565b6020612429565b612590612589612579600f61245d565b612583601861245d565b90612496565b6021612429565b6125b76125b06125a0601061245d565b6125aa601961245d565b90612496565b6022612429565b6125de6125d76125c7601161245d565b6125d1601a61245d565b90612496565b6023612429565b6126056125fe6125ee601261245d565b6125f8601b61245d565b90612496565b6024612429565b61262c612625612615601361245d565b61261f601c61245d565b90612496565b6025612429565b61265361264c61263c601461245d565b612646601d61245d565b90612496565b6026612429565b61267a612673612663601561245d565b61266d601e61245d565b90612496565b6027612429565b565b9061268d98979695949392916123b5565b565b612697612271565b506126a0612276565b506126ab603361227b565b906126b66000612282565b5b806126ca6126c48561064a565b9161064a565b1015612712576126e56126df603383906122ce565b906114f5565b6126f76126f1846106b0565b916106b0565b1461270a576127059061229e565b6126b7565b505050600190565b505050600090565b612722612271565b5061272b612276565b50612736603761227b565b906127416000612282565b5b8061275561274f8561064a565b9161064a565b101561279d5761277061276a603783906122ce565b906114f5565b61278261277c846106b0565b916106b0565b14612795576127909061229e565b612742565b505050600190565b505050600090565b6127d3906127ce336127c86127c26127bd600061239c565b6106b0565b916106b0565b146123a9565b612944565b565b6127e96127e46127ee9261227f565b6106ff565b6106a5565b90565b6127fa906127d5565b90565b60007f496e76616c696420616464726573730000000000000000000000000000000000910152565b612832600f602092611a1d565b61283b816127fd565b0190565b6128559060208101906000818303910152612825565b90565b1561285f57565b6128676105ed565b62461bcd60e51b81528061287d6004820161283f565b0390fd5b90565b600052602060002090565b5490565b61289c8161288f565b8210156128b7576128ae600191612884565b91020190600090565b6122ad565b1b90565b919060086128e09102916128da60018060a01b03846128bc565b926128bc565b9181191691161790565b90565b91906129036128fe61290b9361072a565b6128ea565b9083546128c0565b9055565b908154916801000000000000000083101561293f578261293791600161293d95018155612893565b906128ed565b565b611929565b61297d9061296e8161296761296161295c60006127f1565b6106b0565b916106b0565b1415612858565b6129786039612881565b61290f565b565b612988906127a5565b565b6129b8906129b3336129ad6129a76129a2600061239c565b6106b0565b916106b0565b146123a9565b6129ba565b565b6129f3906129e4816129dd6129d76129d260006127f1565b6106b0565b916106b0565b1415612858565b6129ee6033612881565b61290f565b565b6129fe9061298a565b565b612a2e90612a2933612a23612a1d612a18600061239c565b6106b0565b916106b0565b146123a9565b612a30565b565b612a6990612a5a81612a53612a4d612a4860006127f1565b6106b0565b916106b0565b1415612858565b612a646034612881565b61290f565b565b612a7490612a00565b565b90612aac9897969594939291612aa733612aa1612a9b612a96600061239c565b6106b0565b916106b0565b146123a9565b612aae565b565b612b0394612aee612b0a9895612ae7612afc96612ae0612b119e9d9b97612ad9612af5986016612429565b6017612429565b6018612429565b6019612429565b601a612429565b601b612429565b601c612429565b601d612429565b601e612429565b612b38612b31612b21600d61245d565b612b2b601661245d565b90612496565b601f612429565b612b5f612b58612b48600e61245d565b612b52601761245d565b90612496565b6020612429565b612b86612b7f612b6f600f61245d565b612b79601861245d565b90612496565b6021612429565b612bad612ba6612b96601061245d565b612ba0601961245d565b90612496565b6022612429565b612bd4612bcd612bbd601161245d565b612bc7601a61245d565b90612496565b6023612429565b612bfb612bf4612be4601261245d565b612bee601b61245d565b90612496565b6024612429565b612c22612c1b612c0b601361245d565b612c15601c61245d565b90612496565b6025612429565b612c49612c42612c32601461245d565b612c3c601d61245d565b90612496565b6026612429565b612c70612c69612c59601561245d565b612c63601e61245d565b90612496565b6027612429565b565b90612c839897969594939291612a76565b565b612c8d612271565b50612c96612276565b50612ca1603161227b565b90612cac6000612282565b5b80612cc0612cba8561064a565b9161064a565b1015612d0857612cdb612cd5603183906122ce565b906114f5565b612ced612ce7846106b0565b916106b0565b14612d0057612cfb9061229e565b612cad565b505050600190565b505050600090565b612d3e90612d3933612d33612d2d612d28600061239c565b6106b0565b916106b0565b146123a9565b612d40565b565b612d7990612d6a81612d63612d5d612d5860006127f1565b6106b0565b916106b0565b1415612858565b612d746031612881565b61290f565b565b612d8490612d10565b565b612db490612daf33612da9612da3612d9e600061239c565b6106b0565b916106b0565b146123a9565b612db6565b565b612def90612de081612dd9612dd3612dce60006127f1565b6106b0565b916106b0565b1415612858565b612dea6036612881565b61290f565b565b612dfa90612d86565b565b612e2a90612e2533612e1f612e19612e14600061239c565b6106b0565b916106b0565b146123a9565b612e2c565b565b612e6590612e5681612e4f612e49612e4460006127f1565b6106b0565b916106b0565b1415612858565b612e606035612881565b61290f565b565b612e7090612dfc565b565b612ea090612e9b33612e95612e8f612e8a600061239c565b6106b0565b916106b0565b146123a9565b612ea2565b565b612edb90612ecc81612ec5612ebf612eba60006127f1565b6106b0565b916106b0565b1415612858565b612ed66038612881565b61290f565b565b612ee690612e72565b565b612ef0612271565b50612ef9612276565b50612f04603661227b565b90612f0f6000612282565b5b80612f23612f1d8561064a565b9161064a565b1015612f6b57612f3e612f38603683906122ce565b906114f5565b612f50612f4a846106b0565b916106b0565b14612f6357612f5e9061229e565b612f10565b505050600190565b505050600090565b612fa190612f9c33612f96612f90612f8b600061239c565b6106b0565b916106b0565b146123a9565b612fa3565b565b612fdc90612fcd81612fc6612fc0612fbb60006127f1565b6106b0565b916106b0565b1415612858565b612fd76032612881565b61290f565b565b612fe790612f73565b565b613017906130123361300c613006613001600061239c565b6106b0565b916106b0565b146123a9565b613019565b565b613052906130438161303c61303661303160006127f1565b6106b0565b916106b0565b1415612858565b61304d6037612881565b61290f565b565b61305d90612fe9565b565b613067612271565b50613070612276565b5061307b603261227b565b906130866000612282565b5b8061309a6130948561064a565b9161064a565b10156130e2576130b56130af603283906122ce565b906114f5565b6130c76130c1846106b0565b916106b0565b146130da576130d59061229e565b613087565b505050600190565b505050600090565b6130f2612271565b506130fb612276565b50613106603561227b565b906131116000612282565b5b8061312561311f8561064a565b9161064a565b101561316d5761314061313a603583906122ce565b906114f5565b61315261314c846106b0565b916106b0565b14613165576131609061229e565b613112565b505050600190565b505050600090565b6131a39061319e3361319861319261318d600061239c565b6106b0565b916106b0565b146123a9565b6131e0565b565b906131b660018060a01b03916123ed565b9181191691161790565b906131d56131d06131dc9261072a565b6128ea565b82546131a5565b9055565b6132659061320a816132036131fd6131f860006127f1565b6106b0565b916106b0565b14156123a9565b613214600061239c565b816132486132427f8be0079c531659141344cd1fd0a4f28419497f9722a3daafe3b4186f6b6457e09361072a565b9161072a565b916132516105ed565b8061325b81610b93565b0390a360006131c0565b565b61327090613175565b565b61327a612271565b50613283612276565b5061328e603461227b565b906132996000612282565b5b806132ad6132a78561064a565b9161064a565b10156132f5576132c86132c2603483906122ce565b906114f5565b6132da6132d4846106b0565b916106b0565b146132ed576132e89061229e565b61329a565b505050600190565b505050600090565b613305612271565b5061330e612276565b50613319603961227b565b906133246000612282565b5b806133386133328561064a565b9161064a565b10156133805761335361334d603983906122ce565b906114f5565b61336561335f846106b0565b916106b0565b14613378576133739061229e565b613325565b505050600190565b505050600090565b60007f5468652073616c65206973206e6f742073746172746564207965742000000000910152565b6133bd601c602092611a1d565b6133c681613388565b0190565b6133e090602081019060008183039101526133b0565b90565b156133ea57565b6133f26105ed565b62461bcd60e51b815280613408600482016133ca565b0390fd5b60007f5468652073616c6520697320636c6f7365640000000000000000000000000000910152565b6134416012602092611a1d565b61344a8161340c565b0190565b6134649060208101906000818303910152613434565b90565b1561346e57565b6134766105ed565b62461bcd60e51b81528061348c6004820161344e565b0390fd5b61349f6134a59193929361064a565b9261064a565b82018092116134b057565b612480565b60207f206d617820636170000000000000000000000000000000000000000000000000917f627579546f6b656e733a20707572636861736520776f756c642065786365656460008201520152565b6135106028604092611a1d565b613519816134b5565b0190565b6135339060208101906000818303910152613503565b90565b1561353d57565b6135456105ed565b62461bcd60e51b81528061355b6004820161351d565b0390fd5b60007f796f75722070757263686173696e6720506f77657220697320736f204c6f7700910152565b613594601f602092611a1d565b61359d8161355f565b0190565b6135b79060208101906000818303910152613587565b90565b156135c157565b6135c96105ed565b62461bcd60e51b8152806135df600482016135a1565b0390fd5b60207f2054696572204e696e65206d6178206361700000000000000000000000000000917f627579546f6b656e733a20707572636861736520776f756c642065786365656460008201520152565b61363e6032604092611a1d565b613647816135e3565b0190565b6136619060208101906000818303910152613631565b90565b1561366b57565b6136736105ed565b62461bcd60e51b8152806136896004820161364b565b0390fd5b60207f207468616e20796f757220746965722d39206c696d6974210000000000000000917f627579546f6b656e733a596f752061726520696e76657374696e67206d6f726560008201520152565b6136e86038604092611a1d565b6136f18161368d565b0190565b61370b90602081019060008183039101526136db565b90565b1561371557565b61371d6105ed565b62461bcd60e51b815280613733600482016136f5565b0390fd5b61374361374891612382565b611aca565b90565b6137559054613737565b90565b6137619061071e565b90565b60207f2054696572204569676874206d61782063617000000000000000000000000000917f627579546f6b656e733a20707572636861736520776f756c642065786365656460008201520152565b6137bf6033604092611a1d565b6137c881613764565b0190565b6137e290602081019060008183039101526137b2565b90565b156137ec57565b6137f46105ed565b62461bcd60e51b81528061380a600482016137cc565b0390fd5b60207f207468616e20796f757220746965722d38206c696d6974210000000000000000917f627579546f6b656e733a596f752061726520696e76657374696e67206d6f726560008201520152565b6138696038604092611a1d565b6138728161380e565b0190565b61388c906020810190600081830391015261385c565b90565b1561389657565b61389e6105ed565b62461bcd60e51b8152806138b460048201613876565b0390fd5b60207f205469657220536576656e206d61782063617000000000000000000000000000917f627579546f6b656e733a20707572636861736520776f756c642065786365656460008201520152565b6139136033604092611a1d565b61391c816138b8565b0190565b6139369060208101906000818303910152613906565b90565b1561394057565b6139486105ed565b62461bcd60e51b81528061395e60048201613920565b0390fd5b60207f207468616e20796f757220746965722d37206c696d6974210000000000000000917f627579546f6b656e733a596f752061726520696e76657374696e67206d6f726560008201520152565b6139bd6038604092611a1d565b6139c681613962565b0190565b6139e090602081019060008183039101526139b0565b90565b156139ea57565b6139f26105ed565b62461bcd60e51b815280613a08600482016139ca565b0390fd5b60207f205469657220536978206d617820636170000000000000000000000000000000917f627579546f6b656e733a20707572636861736520776f756c642065786365656460008201520152565b613a676031604092611a1d565b613a7081613a0c565b0190565b613a8a9060208101906000818303910152613a5a565b90565b15613a9457565b613a9c6105ed565b62461bcd60e51b815280613ab260048201613a74565b0390fd5b60207f207468616e20796f757220746965722d36206c696d6974210000000000000000917f627579546f6b656e733a596f752061726520696e76657374696e67206d6f726560008201520152565b613b116038604092611a1d565b613b1a81613ab6565b0190565b613b349060208101906000818303910152613b04565b90565b15613b3e57565b613b466105ed565b62461bcd60e51b815280613b5c60048201613b1e565b0390fd5b60207f20546965722046697665206d6178206361700000000000000000000000000000917f627579546f6b656e733a20707572636861736520776f756c642065786365656460008201520152565b613bbb6032604092611a1d565b613bc481613b60565b0190565b613bde9060208101906000818303910152613bae565b90565b15613be857565b613bf06105ed565b62461bcd60e51b815280613c0660048201613bc8565b0390fd5b60207f207468616e20796f757220746965722d35206c696d6974210000000000000000917f627579546f6b656e733a596f752061726520696e76657374696e67206d6f726560008201520152565b613c656038604092611a1d565b613c6e81613c0a565b0190565b613c889060208101906000818303910152613c58565b90565b15613c9257565b613c9a6105ed565b62461bcd60e51b815280613cb060048201613c72565b0390fd5b60207f205469657220466f7572206d6178206361700000000000000000000000000000917f627579546f6b656e733a20707572636861736520776f756c642065786365656460008201520152565b613d0f6032604092611a1d565b613d1881613cb4565b0190565b613d329060208101906000818303910152613d02565b90565b15613d3c57565b613d446105ed565b62461bcd60e51b815280613d5a60048201613d1c565b0390fd5b60207f207468616e20796f757220746965722d34206c696d6974210000000000000000917f627579546f6b656e733a596f752061726520696e76657374696e67206d6f726560008201520152565b613db96038604092611a1d565b613dc281613d5e565b0190565b613ddc9060208101906000818303910152613dac565b90565b15613de657565b613dee6105ed565b62461bcd60e51b815280613e0460048201613dc6565b0390fd5b60207f207468616e20796f757220746965722d33206c696d6974210000000000000000917f627579546f6b656e733a596f752061726520696e76657374696e67206d6f726560008201520152565b613e636038604092611a1d565b613e6c81613e08565b0190565b613e869060208101906000818303910152613e56565b90565b15613e9057565b613e986105ed565b62461bcd60e51b815280613eae60048201613e70565b0390fd5b60207f2054696572207468726565206d61782063617000000000000000000000000000917f627579546f6b656e733a20707572636861736520776f756c642065786365656460008201520152565b613f0d6033604092611a1d565b613f1681613eb2565b0190565b613f309060208101906000818303910152613f00565b90565b15613f3a57565b613f426105ed565b62461bcd60e51b815280613f5860048201613f1a565b0390fd5b60207f20546965722074776f206d617820636170000000000000000000000000000000917f627579546f6b656e733a20707572636861736520776f756c642065786365656460008201520152565b613fb76031604092611a1d565b613fc081613f5c565b0190565b613fda9060208101906000818303910152613faa565b90565b15613fe457565b613fec6105ed565b62461bcd60e51b81528061400260048201613fc4565b0390fd5b60207f207468616e20796f757220746965722d32206c696d6974210000000000000000917f627579546f6b656e733a596f752061726520696e76657374696e67206d6f726560008201520152565b6140616038604092611a1d565b61406a81614006565b0190565b6140849060208101906000818303910152614054565b90565b1561408e57565b6140966105ed565b62461bcd60e51b8152806140ac6004820161406e565b0390fd5b60207f2054696572206f6e65206d617820636170000000000000000000000000000000917f627579546f6b656e733a20707572636861736520776f756c642065786365656460008201520152565b61410b6031604092611a1d565b614114816140b0565b0190565b61412e90602081019060008183039101526140fe565b90565b1561413857565b6141406105ed565b62461bcd60e51b81528061415660048201614118565b0390fd5b60207f207468616e20796f757220746965722d31206c696d6974210000000000000000917f627579546f6b656e733a596f752061726520696e76657374696e67206d6f726560008201520152565b6141b56038604092611a1d565b6141be8161415a565b0190565b6141d890602081019060008183039101526141a8565b90565b156141e257565b6141ea6105ed565b62461bcd60e51b815280614200600482016141c2565b0390fd5b6142414261423a6142347f000000000000000000000000000000000000000000000000000000000000000061064a565b9161064a565b10156133e3565b61427e426142776142717f000000000000000000000000000000000000000000000000000000000000000061064a565b9161064a565b1115613467565b6142ce61429561428e600161245d565b3490613490565b6142c76142c17f000000000000000000000000000000000000000000000000000000000000000061064a565b9161064a565b1115613536565b6142d733612c85565b60001461443d57614306346143006142f160433390610736565b916142fb8361245d565b613490565b90612429565b61433f61431d61431860433390610736565b61245d565b61433861433261432d602861245d565b61064a565b9161064a565b10156135ba565b61437861435661434f600261245d565b3490613490565b61437161436b614366600d61245d565b61064a565b9161064a565b1115614131565b6143bb61439961439261438d603a3390610736565b61245d565b3490613490565b6143b46143ae6143a9601f61245d565b61064a565b9161064a565b11156141db565b6143e3346143dd6143ce603a3390610736565b916143d88361245d565b613490565b90612429565b6144006143f9346143f4600161245d565b613490565b6001612429565b61441d61441634614411600261245d565b613490565b6002612429565b61443a61442a600c61374b565b61443330613758565b3190615196565b5b565b6144463361305f565b6000146145af576144753461446f61446060443390610736565b9161446a8361245d565b613490565b90612429565b6144ae61448c61448760443390610736565b61245d565b6144a76144a161449c602961245d565b61064a565b9161064a565b10156135ba565b6144e76144c56144be600361245d565b3490613490565b6144e06144da6144d5600e61245d565b61064a565b9161064a565b1115613fdd565b61452a6145086145016144fc603b3390610736565b61245d565b3490613490565b61452361451d614518602061245d565b61064a565b9161064a565b1115614087565b6145523461454c61453d603b3390610736565b916145478361245d565b613490565b90612429565b61456f61456834614563600161245d565b613490565b6001612429565b61458c61458534614580600361245d565b613490565b6003612429565b6145a9614599600c61374b565b6145a230613758565b3190615196565b5b61443b565b6145b83361268f565b600014614721576145e7346145e16145d260453390610736565b916145dc8361245d565b613490565b90612429565b6146206145fe6145f960453390610736565b61245d565b61461961461361460e602a61245d565b61064a565b9161064a565b10156135ba565b61466361464161463a614635603c3390610736565b61245d565b3490613490565b61465c614656614651602161245d565b61064a565b9161064a565b1115613e89565b61469c61467a614673600461245d565b3490613490565b61469561468f61468a600f61245d565b61064a565b9161064a565b1115613f33565b6146c4346146be6146af603c3390610736565b916146b98361245d565b613490565b90612429565b6146e16146da346146d5600161245d565b613490565b6001612429565b6146fe6146f7346146f2600461245d565b613490565b6004612429565b61471b61470b600c61374b565b61471430613758565b3190615196565b5b6145aa565b61472a33613272565b600014614893576147593461475361474460463390610736565b9161474e8361245d565b613490565b90612429565b61479261477061476b60463390610736565b61245d565b61478b614785614780602b61245d565b61064a565b9161064a565b10156135ba565b6147cb6147a96147a2600561245d565b3490613490565b6147c46147be6147b9601061245d565b61064a565b9161064a565b1115613d35565b61480e6147ec6147e56147e0603d3390610736565b61245d565b3490613490565b6148076148016147fc602261245d565b61064a565b9161064a565b1115613ddf565b61483634614830614821603d3390610736565b9161482b8361245d565b613490565b90612429565b61485361484c34614847600161245d565b613490565b6001612429565b61487061486934614864600561245d565b613490565b6005612429565b61488d61487d600c61374b565b61488630613758565b3190615196565b5b61471c565b61489c336130ea565b600014614a05576148cb346148c56148b660473390610736565b916148c08361245d565b613490565b90612429565b6149046148e26148dd60473390610736565b61245d565b6148fd6148f76148f2602c61245d565b61064a565b9161064a565b10156135ba565b61493d61491b614914600661245d565b3490613490565b61493661493061492b601161245d565b61064a565b9161064a565b1115613be1565b61498061495e614957614952603e3390610736565b61245d565b3490613490565b61497961497361496e602361245d565b61064a565b9161064a565b1115613c8b565b6149a8346149a2614993603e3390610736565b9161499d8361245d565b613490565b90612429565b6149c56149be346149b9600161245d565b613490565b6001612429565b6149e26149db346149d6600661245d565b613490565b6006612429565b6149ff6149ef600c61374b565b6149f830613758565b3190615196565b5b61488e565b614a0e33612ee8565b600014614b7757614a3d34614a37614a2860483390610736565b91614a328361245d565b613490565b90612429565b614a76614a54614a4f60483390610736565b61245d565b614a6f614a69614a64602d61245d565b61064a565b9161064a565b10156135ba565b614aaf614a8d614a86600761245d565b3490613490565b614aa8614aa2614a9d601261245d565b61064a565b9161064a565b1115613a8d565b614af2614ad0614ac9614ac4603f3390610736565b61245d565b3490613490565b614aeb614ae5614ae0602461245d565b61064a565b9161064a565b1115613b37565b614b1a34614b14614b05603f3390610736565b91614b0f8361245d565b613490565b90612429565b614b37614b3034614b2b600161245d565b613490565b6001612429565b614b54614b4d34614b48600761245d565b613490565b6007612429565b614b71614b61600c61374b565b614b6a30613758565b3190615196565b5b614a00565b614b803361271a565b600014614ce957614baf34614ba9614b9a60493390610736565b91614ba48361245d565b613490565b90612429565b614be8614bc6614bc160493390610736565b61245d565b614be1614bdb614bd6602e61245d565b61064a565b9161064a565b10156135ba565b614c21614bff614bf8600861245d565b3490613490565b614c1a614c14614c0f601361245d565b61064a565b9161064a565b1115613939565b614c64614c42614c3b614c3660403390610736565b61245d565b3490613490565b614c5d614c57614c52602561245d565b61064a565b9161064a565b11156139e3565b614c8c34614c86614c7760403390610736565b91614c818361245d565b613490565b90612429565b614ca9614ca234614c9d600161245d565b613490565b6001612429565b614cc6614cbf34614cba600861245d565b613490565b6008612429565b614ce3614cd3600c61374b565b614cdc30613758565b3190615196565b5b614b72565b614cf2336122f7565b600014614e5b57614d2134614d1b614d0c604a3390610736565b91614d168361245d565b613490565b90612429565b614d5a614d38614d33604a3390610736565b61245d565b614d53614d4d614d48602f61245d565b61064a565b9161064a565b10156135ba565b614d93614d71614d6a600961245d565b3490613490565b614d8c614d86614d81601461245d565b61064a565b9161064a565b11156137e5565b614dd6614db4614dad614da860413390610736565b61245d565b3490613490565b614dcf614dc9614dc4602661245d565b61064a565b9161064a565b111561388f565b614dfe34614df8614de960413390610736565b91614df38361245d565b613490565b90612429565b614e1b614e1434614e0f600161245d565b613490565b6001612429565b614e38614e3134614e2c600961245d565b613490565b6009612429565b614e55614e45600c61374b565b614e4e30613758565b3190615196565b5b614ce4565b614e64336132fd565b600014614fcc57614e9334614e8d614e7e604b3390610736565b91614e888361245d565b613490565b90612429565b614ecc614eaa614ea5604b3390610736565b61245d565b614ec5614ebf614eba603061245d565b61064a565b9161064a565b10156135ba565b614f05614ee3614edc600a61245d565b3490613490565b614efe614ef8614ef3601561245d565b61064a565b9161064a565b1115613664565b614f48614f26614f1f614f1a60423390610736565b61245d565b3490613490565b614f41614f3b614f36602761245d565b61064a565b9161064a565b111561370e565b614f7034614f6a614f5b60423390610736565b91614f658361245d565b613490565b90612429565b614f8d614f8634614f81600161245d565b613490565b6001612429565b614faa614fa334614f9e600a61245d565b613490565b600a612429565b614fc7614fb7600c61374b565b614fc030613758565b3190615196565b614e56565b600080fd5b60007f416464726573733a20696e73756666696369656e742062616c616e6365000000910152565b615006601d602092611a1d565b61500f81614fd1565b0190565b6150299060208101906000818303910152614ff9565b90565b1561503357565b61503b6105ed565b62461bcd60e51b81528061505160048201615013565b0390fd5b61505e9061071e565b90565b905090565b61507260008092615061565b0190565b61507f90615066565b90565b67ffffffffffffffff81116150a05761509c60209161191f565b0190565b611929565b906150b76150b283615082565b611968565b918252565b606090565b3d6000146150de576150d23d6150a5565b903d6000602084013e5b565b6150e66150bc565b906150dc565b60207f6563697069656e74206d61792068617665207265766572746564000000000000917f416464726573733a20756e61626c6520746f2073656e642076616c75652c207260008201520152565b615147603a604092611a1d565b615150816150ec565b0190565b61516a906020810190600081830391015261513a565b90565b1561517457565b61517c6105ed565b62461bcd60e51b81528061519260048201615154565b0390fd5b60006151f2926151cc82936151c76151ad30613758565b316151c06151ba8661064a565b9161064a565b101561502c565b615055565b906151d56105ed565b90816151e081615076565b03925af16151ec6150c1565b5061516d565b56fea2646970667358221220cc5f0ecabf39b656af321be141f0722eb76e54ba144dd636365802c843cea01664736f6c63430008180033","opcodes":"PUSH1 0xE0 PUSH1 0x40 MSTORE CALLVALUE PUSH3 0x7A JUMPI PUSH3 0x31 PUSH3 0x18 PUSH3 0x25C JUMP JUMPDEST SWAP13 SWAP12 SWAP1 SWAP12 SWAP11 SWAP2 SWAP11 SWAP10 SWAP3 SWAP10 SWAP9 SWAP4 SWAP9 SWAP8 SWAP5 SWAP8 SWAP7 SWAP6 SWAP7 PUSH3 0x482 JUMP JUMPDEST PUSH3 0x3B PUSH3 0x80 JUMP JUMPDEST PUSH2 0x522A PUSH3 0x90F DUP3 CODECOPY PUSH1 0x80 MLOAD DUP2 DUP2 DUP2 PUSH2 0xCF0 ADD MSTORE PUSH2 0x429D ADD MSTORE PUSH1 0xA0 MLOAD DUP2 DUP2 DUP2 PUSH2 0xA42 ADD MSTORE PUSH2 0x4210 ADD MSTORE PUSH1 0xC0 MLOAD DUP2 DUP2 DUP2 PUSH2 0x1F77 ADD MSTORE PUSH2 0x424D ADD MSTORE PUSH2 0x522A SWAP1 RETURN JUMPDEST PUSH3 0x86 JUMP JUMPDEST PUSH1 0x40 MLOAD SWAP1 JUMP JUMPDEST PUSH1 0x0 DUP1 REVERT JUMPDEST PUSH1 0x1F DUP1 NOT SWAP2 ADD AND SWAP1 JUMP JUMPDEST PUSH4 0x4E487B71 PUSH1 0xE0 SHL PUSH1 0x0 MSTORE PUSH1 0x41 PUSH1 0x4 MSTORE PUSH1 0x24 PUSH1 0x0 REVERT JUMPDEST SWAP1 PUSH3 0xB7 SWAP1 PUSH3 0x8B JUMP JUMPDEST DUP2 ADD SWAP1 DUP2 LT PUSH1 0x1 DUP1 PUSH1 0x40 SHL SUB DUP3 GT OR PUSH3 0xD0 JUMPI PUSH1 0x40 MSTORE JUMP JUMPDEST PUSH3 0x95 JUMP JUMPDEST SWAP1 PUSH3 0xED PUSH3 0xE5 PUSH3 0x80 JUMP JUMPDEST SWAP3 DUP4 PUSH3 0xAB JUMP JUMPDEST JUMP JUMPDEST PUSH1 0x0 DUP1 REVERT JUMPDEST SWAP1 JUMP JUMPDEST PUSH3 0x102 DUP2 PUSH3 0xF4 JUMP JUMPDEST SUB PUSH3 0x10A JUMPI JUMP JUMPDEST PUSH1 0x0 DUP1 REVERT JUMPDEST SWAP1 POP MLOAD SWAP1 PUSH3 0x11E DUP3 PUSH3 0xF7 JUMP JUMPDEST JUMP JUMPDEST PUSH1 0x1 DUP1 PUSH1 0xA0 SHL SUB AND SWAP1 JUMP JUMPDEST PUSH3 0x136 SWAP1 PUSH3 0x120 JUMP JUMPDEST SWAP1 JUMP JUMPDEST PUSH3 0x144 DUP2 PUSH3 0x12B JUMP JUMPDEST SUB PUSH3 0x14C JUMPI JUMP JUMPDEST PUSH1 0x0 DUP1 REVERT JUMPDEST SWAP1 POP MLOAD SWAP1 PUSH3 0x160 DUP3 PUSH3 0x139 JUMP JUMPDEST JUMP JUMPDEST SWAP2 SWAP1 PUSH2 0x1C0 DUP4 DUP3 SUB SLT PUSH3 0x256 JUMPI PUSH3 0x17F DUP2 PUSH1 0x0 DUP6 ADD PUSH3 0x10F JUMP JUMPDEST SWAP3 PUSH3 0x18F DUP3 PUSH1 0x20 DUP4 ADD PUSH3 0x10F JUMP JUMPDEST SWAP3 PUSH3 0x19F DUP4 PUSH1 0x40 DUP5 ADD PUSH3 0x10F JUMP JUMPDEST SWAP3 PUSH3 0x1AF DUP2 PUSH1 0x60 DUP6 ADD PUSH3 0x151 JUMP JUMPDEST SWAP3 PUSH3 0x1BF DUP3 PUSH1 0x80 DUP4 ADD PUSH3 0x10F JUMP JUMPDEST SWAP3 PUSH3 0x1CF DUP4 PUSH1 0xA0 DUP5 ADD PUSH3 0x10F JUMP JUMPDEST SWAP3 PUSH3 0x1DF DUP2 PUSH1 0xC0 DUP6 ADD PUSH3 0x10F JUMP JUMPDEST SWAP3 PUSH3 0x1EF DUP3 PUSH1 0xE0 DUP4 ADD PUSH3 0x10F JUMP JUMPDEST SWAP3 PUSH3 0x200 DUP4 PUSH2 0x100 DUP5 ADD PUSH3 0x10F JUMP JUMPDEST SWAP3 PUSH3 0x211 DUP2 PUSH2 0x120 DUP6 ADD PUSH3 0x10F JUMP JUMPDEST SWAP3 PUSH3 0x222 DUP3 PUSH2 0x140 DUP4 ADD PUSH3 0x10F JUMP JUMPDEST SWAP3 PUSH3 0x253 PUSH3 0x237 DUP5 PUSH2 0x160 DUP6 ADD PUSH3 0x10F JUMP JUMPDEST SWAP4 PUSH3 0x248 DUP2 PUSH2 0x180 DUP7 ADD PUSH3 0x10F JUMP JUMPDEST SWAP4 PUSH2 0x1A0 ADD PUSH3 0x10F JUMP JUMPDEST SWAP1 JUMP JUMPDEST PUSH3 0xEF JUMP JUMPDEST PUSH3 0x27F PUSH3 0x5B39 DUP1 CODESIZE SUB DUP1 PUSH3 0x273 DUP2 PUSH3 0xD6 JUMP JUMPDEST SWAP3 DUP4 CODECOPY DUP2 ADD SWAP1 PUSH3 0x162 JUMP JUMPDEST SWAP1 SWAP2 SWAP3 SWAP4 SWAP5 SWAP6 SWAP7 SWAP8 SWAP9 SWAP10 SWAP11 SWAP12 SWAP13 SWAP14 JUMP JUMPDEST PUSH1 0x0 SHL SWAP1 JUMP JUMPDEST SWAP1 PUSH3 0x2A8 PUSH1 0x1 DUP1 PUSH1 0xA0 SHL SUB SWAP2 PUSH3 0x28F JUMP JUMPDEST SWAP2 DUP2 NOT AND SWAP2 AND OR SWAP1 JUMP JUMPDEST SWAP1 JUMP JUMPDEST PUSH3 0x2CE PUSH3 0x2C8 PUSH3 0x2D4 SWAP3 PUSH3 0x120 JUMP JUMPDEST PUSH3 0x2B2 JUMP JUMPDEST PUSH3 0x120 JUMP JUMPDEST SWAP1 JUMP JUMPDEST PUSH3 0x2E2 SWAP1 PUSH3 0x2B5 JUMP JUMPDEST SWAP1 JUMP JUMPDEST PUSH3 0x2F0 SWAP1 PUSH3 0x2D7 JUMP JUMPDEST SWAP1 JUMP JUMPDEST SWAP1 JUMP JUMPDEST SWAP1 PUSH3 0x310 PUSH3 0x30A PUSH3 0x318 SWAP3 PUSH3 0x2E5 JUMP JUMPDEST PUSH3 0x2F3 JUMP JUMPDEST DUP3 SLOAD PUSH3 0x295 JUMP JUMPDEST SWAP1 SSTORE JUMP JUMPDEST SWAP1 PUSH3 0x32B PUSH1 0x0 NOT SWAP2 PUSH3 0x28F JUMP JUMPDEST SWAP2 DUP2 NOT AND SWAP2 AND OR SWAP1 JUMP JUMPDEST PUSH3 0x34E PUSH3 0x348 PUSH3 0x354 SWAP3 PUSH3 0xF4 JUMP JUMPDEST PUSH3 0x2B2 JUMP JUMPDEST PUSH3 0xF4 JUMP JUMPDEST SWAP1 JUMP JUMPDEST SWAP1 JUMP JUMPDEST SWAP1 PUSH3 0x374 PUSH3 0x36E PUSH3 0x37C SWAP3 PUSH3 0x335 JUMP JUMPDEST PUSH3 0x357 JUMP JUMPDEST DUP3 SLOAD PUSH3 0x31C JUMP JUMPDEST SWAP1 SSTORE JUMP JUMPDEST SWAP1 JUMP JUMPDEST PUSH3 0x39C PUSH3 0x396 PUSH3 0x3A2 SWAP3 PUSH3 0x380 JUMP JUMPDEST PUSH3 0x2B2 JUMP JUMPDEST PUSH3 0xF4 JUMP JUMPDEST SWAP1 JUMP JUMPDEST SWAP1 JUMP JUMPDEST PUSH3 0x3C1 PUSH3 0x3BB PUSH3 0x3C7 SWAP3 PUSH3 0x3A5 JUMP JUMPDEST PUSH3 0x2B2 JUMP JUMPDEST PUSH3 0xF4 JUMP JUMPDEST SWAP1 JUMP JUMPDEST SWAP1 JUMP JUMPDEST PUSH3 0x3E6 PUSH3 0x3E0 PUSH3 0x3EC SWAP3 PUSH3 0x3CA JUMP JUMPDEST PUSH3 0x2B2 JUMP JUMPDEST PUSH3 0xF4 JUMP JUMPDEST SWAP1 JUMP JUMPDEST SWAP1 JUMP JUMPDEST PUSH3 0x40B PUSH3 0x405 PUSH3 0x411 SWAP3 PUSH3 0x3EF JUMP JUMPDEST PUSH3 0x2B2 JUMP JUMPDEST PUSH3 0xF4 JUMP JUMPDEST SWAP1 JUMP JUMPDEST PUSH1 0x0 SHR SWAP1 JUMP JUMPDEST SWAP1 JUMP JUMPDEST PUSH3 0x42C PUSH3 0x432 SWAP2 PUSH3 0x414 JUMP JUMPDEST PUSH3 0x41A JUMP JUMPDEST SWAP1 JUMP JUMPDEST PUSH3 0x441 SWAP1 SLOAD PUSH3 0x41D JUMP JUMPDEST SWAP1 JUMP JUMPDEST PUSH4 0x4E487B71 PUSH1 0xE0 SHL PUSH1 0x0 MSTORE PUSH1 0x12 PUSH1 0x4 MSTORE PUSH1 0x24 PUSH1 0x0 REVERT JUMPDEST PUSH3 0x469 PUSH3 0x470 SWAP2 PUSH3 0xF4 JUMP JUMPDEST SWAP2 PUSH3 0xF4 JUMP JUMPDEST SWAP1 DUP2 ISZERO PUSH3 0x47C JUMPI DIV SWAP1 JUMP JUMPDEST PUSH3 0x444 JUMP JUMPDEST SWAP7 PUSH3 0x4F1 PUSH3 0x8B8 SWAP15 SWAP14 SWAP12 SWAP8 PUSH3 0x4E9 PUSH3 0x509 SWAP9 PUSH3 0x521 SWAP16 SWAP13 SWAP7 PUSH3 0x519 SWAP15 SWAP10 PUSH3 0x4D9 PUSH3 0x501 SWAP11 PUSH3 0x511 SWAP16 SWAP4 PUSH3 0x4F9 SWAP11 PUSH3 0x4E1 SWAP6 PUSH3 0x4C8 PUSH3 0x8FF JUMP JUMPDEST PUSH1 0x80 MSTORE PUSH1 0xA0 MSTORE PUSH1 0xC0 MSTORE PUSH1 0xC PUSH3 0x2F6 JUMP JUMPDEST PUSH1 0xD PUSH3 0x35A JUMP JUMPDEST PUSH1 0xE PUSH3 0x35A JUMP JUMPDEST PUSH1 0xF PUSH3 0x35A JUMP JUMPDEST PUSH1 0x10 PUSH3 0x35A JUMP JUMPDEST PUSH1 0x11 PUSH3 0x35A JUMP JUMPDEST PUSH1 0x12 PUSH3 0x35A JUMP JUMPDEST PUSH1 0x13 PUSH3 0x35A JUMP JUMPDEST PUSH1 0x14 PUSH3 0x35A JUMP JUMPDEST PUSH1 0x15 PUSH3 0x35A JUMP JUMPDEST PUSH3 0x53F PUSH3 0x537 PUSH7 0x38D7EA4C68000 PUSH3 0x383 JUMP JUMPDEST PUSH1 0x28 PUSH3 0x35A JUMP JUMPDEST PUSH3 0x55D PUSH3 0x555 PUSH7 0x38D7EA4C68000 PUSH3 0x383 JUMP JUMPDEST PUSH1 0x29 PUSH3 0x35A JUMP JUMPDEST PUSH3 0x57B PUSH3 0x573 PUSH7 0x38D7EA4C68000 PUSH3 0x383 JUMP JUMPDEST PUSH1 0x2A PUSH3 0x35A JUMP JUMPDEST PUSH3 0x599 PUSH3 0x591 PUSH7 0x38D7EA4C68000 PUSH3 0x383 JUMP JUMPDEST PUSH1 0x2B PUSH3 0x35A JUMP JUMPDEST PUSH3 0x5B7 PUSH3 0x5AF PUSH7 0x38D7EA4C68000 PUSH3 0x383 JUMP JUMPDEST PUSH1 0x2C PUSH3 0x35A JUMP JUMPDEST PUSH3 0x5D5 PUSH3 0x5CD PUSH7 0x38D7EA4C68000 PUSH3 0x383 JUMP JUMPDEST PUSH1 0x2D PUSH3 0x35A JUMP JUMPDEST PUSH3 0x5F3 PUSH3 0x5EB PUSH7 0x38D7EA4C68000 PUSH3 0x383 JUMP JUMPDEST PUSH1 0x2E PUSH3 0x35A JUMP JUMPDEST PUSH3 0x611 PUSH3 0x609 PUSH7 0x38D7EA4C68000 PUSH3 0x383 JUMP JUMPDEST PUSH1 0x2F PUSH3 0x35A JUMP JUMPDEST PUSH3 0x62F PUSH3 0x627 PUSH7 0x38D7EA4C68000 PUSH3 0x383 JUMP JUMPDEST PUSH1 0x30 PUSH3 0x35A JUMP JUMPDEST PUSH3 0x648 PUSH3 0x640 PUSH2 0x29D PUSH3 0x3A8 JUMP JUMPDEST PUSH1 0x16 PUSH3 0x35A JUMP JUMPDEST PUSH3 0x661 PUSH3 0x659 PUSH2 0x1EE PUSH3 0x3CD JUMP JUMPDEST PUSH1 0x17 PUSH3 0x35A JUMP JUMPDEST PUSH3 0x679 PUSH3 0x671 PUSH1 0x1 PUSH3 0x3F2 JUMP JUMPDEST PUSH1 0x18 PUSH3 0x35A JUMP JUMPDEST PUSH3 0x691 PUSH3 0x689 PUSH1 0x1 PUSH3 0x3F2 JUMP JUMPDEST PUSH1 0x19 PUSH3 0x35A JUMP JUMPDEST PUSH3 0x6A9 PUSH3 0x6A1 PUSH1 0x1 PUSH3 0x3F2 JUMP JUMPDEST PUSH1 0x1A PUSH3 0x35A JUMP JUMPDEST PUSH3 0x6C1 PUSH3 0x6B9 PUSH1 0x1 PUSH3 0x3F2 JUMP JUMPDEST PUSH1 0x1B PUSH3 0x35A JUMP JUMPDEST PUSH3 0x6D9 PUSH3 0x6D1 PUSH1 0x1 PUSH3 0x3F2 JUMP JUMPDEST PUSH1 0x1C PUSH3 0x35A JUMP JUMPDEST PUSH3 0x6F1 PUSH3 0x6E9 PUSH1 0x1 PUSH3 0x3F2 JUMP JUMPDEST PUSH1 0x1D PUSH3 0x35A JUMP JUMPDEST PUSH3 0x709 PUSH3 0x701 PUSH1 0x1 PUSH3 0x3F2 JUMP JUMPDEST PUSH1 0x1E PUSH3 0x35A JUMP JUMPDEST PUSH3 0x738 PUSH3 0x730 PUSH3 0x71D PUSH1 0xD PUSH3 0x435 JUMP JUMPDEST PUSH3 0x729 PUSH1 0x16 PUSH3 0x435 JUMP JUMPDEST SWAP1 PUSH3 0x45A JUMP JUMPDEST PUSH1 0x1F PUSH3 0x35A JUMP JUMPDEST PUSH3 0x767 PUSH3 0x75F PUSH3 0x74C PUSH1 0xE PUSH3 0x435 JUMP JUMPDEST PUSH3 0x758 PUSH1 0x17 PUSH3 0x435 JUMP JUMPDEST SWAP1 PUSH3 0x45A JUMP JUMPDEST PUSH1 0x20 PUSH3 0x35A JUMP JUMPDEST PUSH3 0x796 PUSH3 0x78E PUSH3 0x77B PUSH1 0xF PUSH3 0x435 JUMP JUMPDEST PUSH3 0x787 PUSH1 0x18 PUSH3 0x435 JUMP JUMPDEST SWAP1 PUSH3 0x45A JUMP JUMPDEST PUSH1 0x21 PUSH3 0x35A JUMP JUMPDEST PUSH3 0x7C5 PUSH3 0x7BD PUSH3 0x7AA PUSH1 0x10 PUSH3 0x435 JUMP JUMPDEST PUSH3 0x7B6 PUSH1 0x19 PUSH3 0x435 JUMP JUMPDEST SWAP1 PUSH3 0x45A JUMP JUMPDEST PUSH1 0x22 PUSH3 0x35A JUMP JUMPDEST PUSH3 0x7F4 PUSH3 0x7EC PUSH3 0x7D9 PUSH1 0x11 PUSH3 0x435 JUMP JUMPDEST PUSH3 0x7E5 PUSH1 0x1A PUSH3 0x435 JUMP JUMPDEST SWAP1 PUSH3 0x45A JUMP JUMPDEST PUSH1 0x23 PUSH3 0x35A JUMP JUMPDEST PUSH3 0x823 PUSH3 0x81B PUSH3 0x808 PUSH1 0x12 PUSH3 0x435 JUMP JUMPDEST PUSH3 0x814 PUSH1 0x1B PUSH3 0x435 JUMP JUMPDEST SWAP1 PUSH3 0x45A JUMP JUMPDEST PUSH1 0x24 PUSH3 0x35A JUMP JUMPDEST PUSH3 0x852 PUSH3 0x84A PUSH3 0x837 PUSH1 0x13 PUSH3 0x435 JUMP JUMPDEST PUSH3 0x843 PUSH1 0x1C PUSH3 0x435 JUMP JUMPDEST SWAP1 PUSH3 0x45A JUMP JUMPDEST PUSH1 0x25 PUSH3 0x35A JUMP JUMPDEST PUSH3 0x881 PUSH3 0x879 PUSH3 0x866 PUSH1 0x14 PUSH3 0x435 JUMP JUMPDEST PUSH3 0x872 PUSH1 0x1D PUSH3 0x435 JUMP JUMPDEST SWAP1 PUSH3 0x45A JUMP JUMPDEST PUSH1 0x26 PUSH3 0x35A JUMP JUMPDEST PUSH3 0x8B0 PUSH3 0x8A8 PUSH3 0x895 PUSH1 0x15 PUSH3 0x435 JUMP JUMPDEST PUSH3 0x8A1 PUSH1 0x1E PUSH3 0x435 JUMP JUMPDEST SWAP1 PUSH3 0x45A JUMP JUMPDEST PUSH1 0x27 PUSH3 0x35A JUMP JUMPDEST PUSH1 0xB PUSH3 0x35A JUMP JUMPDEST JUMP JUMPDEST PUSH3 0x8C5 SWAP1 PUSH3 0x2B5 JUMP JUMPDEST SWAP1 JUMP JUMPDEST PUSH3 0x8D3 SWAP1 PUSH3 0x8BA JUMP JUMPDEST SWAP1 JUMP JUMPDEST SWAP1 JUMP JUMPDEST SWAP1 PUSH3 0x8F3 PUSH3 0x8ED PUSH3 0x8FB SWAP3 PUSH3 0x8C8 JUMP JUMPDEST PUSH3 0x8D6 JUMP JUMPDEST DUP3 SLOAD PUSH3 0x295 JUMP JUMPDEST SWAP1 SSTORE JUMP JUMPDEST PUSH3 0x90C CALLER PUSH1 0x0 PUSH3 0x8D9 JUMP JUMPDEST JUMP INVALID PUSH1 0x80 PUSH1 0x40 MSTORE PUSH1 0x4 CALLDATASIZE LT ISZERO PUSH2 0x1D JUMPI JUMPDEST CALLDATASIZE PUSH2 0x226C JUMPI PUSH2 0x1B PUSH2 0x4204 JUMP JUMPDEST STOP JUMPDEST PUSH2 0x28 PUSH1 0x0 CALLDATALOAD PUSH2 0x5E7 JUMP JUMPDEST DUP1 PUSH4 0x1099885 EQ PUSH2 0x5E2 JUMPI DUP1 PUSH4 0x15E2A13 EQ PUSH2 0x5DD JUMPI DUP1 PUSH4 0x2692835 EQ PUSH2 0x5D8 JUMPI DUP1 PUSH4 0x3440F37 EQ PUSH2 0x5D3 JUMPI DUP1 PUSH4 0x3673FF7 EQ PUSH2 0x5CE JUMPI DUP1 PUSH4 0xE3A02E2 EQ PUSH2 0x5C9 JUMPI DUP1 PUSH4 0xE919761 EQ PUSH2 0x5C4 JUMPI DUP1 PUSH4 0xF738FD5 EQ PUSH2 0x5BF JUMPI DUP1 PUSH4 0x186D54F0 EQ PUSH2 0x5BA JUMPI DUP1 PUSH4 0x1A0E66BF EQ PUSH2 0x5B5 JUMPI DUP1 PUSH4 0x1A8B43E4 EQ PUSH2 0x5B0 JUMPI DUP1 PUSH4 0x1CBAEE2D EQ PUSH2 0x5AB JUMPI DUP1 PUSH4 0x1CBD01EC EQ PUSH2 0x5A6 JUMPI DUP1 PUSH4 0x1E2B2A50 EQ PUSH2 0x5A1 JUMPI DUP1 PUSH4 0x1EAF7834 EQ PUSH2 0x59C JUMPI DUP1 PUSH4 0x1FC0D469 EQ PUSH2 0x597 JUMPI DUP1 PUSH4 0x2146D7FF EQ PUSH2 0x592 JUMPI DUP1 PUSH4 0x22B15334 EQ PUSH2 0x58D JUMPI DUP1 PUSH4 0x23548B8B EQ PUSH2 0x588 JUMPI DUP1 PUSH4 0x244C4F10 EQ PUSH2 0x583 JUMPI DUP1 PUSH4 0x288A4DEE EQ PUSH2 0x57E JUMPI DUP1 PUSH4 0x29D6CD87 EQ PUSH2 0x579 JUMPI DUP1 PUSH4 0x2AD16BEE EQ PUSH2 0x574 JUMPI DUP1 PUSH4 0x2F84901C EQ PUSH2 0x56F JUMPI DUP1 PUSH4 0x339855FF EQ PUSH2 0x56A JUMPI DUP1 PUSH4 0x3C6BB474 EQ PUSH2 0x565 JUMPI DUP1 PUSH4 0x3FF2BBC6 EQ PUSH2 0x560 JUMPI DUP1 PUSH4 0x40D09496 EQ PUSH2 0x55B JUMPI DUP1 PUSH4 0x42EC2759 EQ PUSH2 0x556 JUMPI DUP1 PUSH4 0x434800FC EQ PUSH2 0x551 JUMPI DUP1 PUSH4 0x4C510DB7 EQ PUSH2 0x54C JUMPI DUP1 PUSH4 0x4D9B4B4F EQ PUSH2 0x547 JUMPI DUP1 PUSH4 0x4DCE5168 EQ PUSH2 0x542 JUMPI DUP1 PUSH4 0x4E6AC059 EQ PUSH2 0x53D JUMPI DUP1 PUSH4 0x523D6B26 EQ PUSH2 0x538 JUMPI DUP1 PUSH4 0x5E18C330 EQ PUSH2 0x533 JUMPI DUP1 PUSH4 0x602072FA EQ PUSH2 0x52E JUMPI DUP1 PUSH4 0x62ACE63F EQ PUSH2 0x529 JUMPI DUP1 PUSH4 0x6CD52C64 EQ PUSH2 0x524 JUMPI DUP1 PUSH4 0x6F507E0D EQ PUSH2 0x51F JUMPI DUP1 PUSH4 0x71B9510D EQ PUSH2 0x51A JUMPI DUP1 PUSH4 0x74C6BD0D EQ PUSH2 0x515 JUMPI DUP1 PUSH4 0x76D8711F EQ PUSH2 0x510 JUMPI DUP1 PUSH4 0x7EEE2057 EQ PUSH2 0x50B JUMPI DUP1 PUSH4 0x823276C3 EQ PUSH2 0x506 JUMPI DUP1 PUSH4 0x82D9EFFE EQ PUSH2 0x501 JUMPI DUP1 PUSH4 0x842A8271 EQ PUSH2 0x4FC JUMPI DUP1 PUSH4 0x8A9983D8 EQ PUSH2 0x4F7 JUMPI DUP1 PUSH4 0x8DA5CB5B EQ PUSH2 0x4F2 JUMPI DUP1 PUSH4 0x8F78BDCF EQ PUSH2 0x4ED JUMPI DUP1 PUSH4 0x8FB48741 EQ PUSH2 0x4E8 JUMPI DUP1 PUSH4 0x90257644 EQ PUSH2 0x4E3 JUMPI DUP1 PUSH4 0x91AB87EA EQ PUSH2 0x4DE JUMPI DUP1 PUSH4 0x97EDE623 EQ PUSH2 0x4D9 JUMPI DUP1 PUSH4 0x9A1E1BB2 EQ PUSH2 0x4D4 JUMPI DUP1 PUSH4 0x9AE05F38 EQ PUSH2 0x4CF JUMPI DUP1 PUSH4 0x9B2E5D8B EQ PUSH2 0x4CA JUMPI DUP1 PUSH4 0x9D9DB77D EQ PUSH2 0x4C5 JUMPI DUP1 PUSH4 0x9EB11439 EQ PUSH2 0x4C0 JUMPI DUP1 PUSH4 0xA0CE460B EQ PUSH2 0x4BB JUMPI DUP1 PUSH4 0xA315B404 EQ PUSH2 0x4B6 JUMPI DUP1 PUSH4 0xA340F0B3 EQ PUSH2 0x4B1 JUMPI DUP1 PUSH4 0xA390C97F EQ PUSH2 0x4AC JUMPI DUP1 PUSH4 0xA3F4DF7E EQ PUSH2 0x4A7 JUMPI DUP1 PUSH4 0xA4475CE4 EQ PUSH2 0x4A2 JUMPI DUP1 PUSH4 0xADFED46F EQ PUSH2 0x49D JUMPI DUP1 PUSH4 0xAE4FDAD9 EQ PUSH2 0x498 JUMPI DUP1 PUSH4 0xB2C85E11 EQ PUSH2 0x493 JUMPI DUP1 PUSH4 0xB45CCF0B EQ PUSH2 0x48E JUMPI DUP1 PUSH4 0xB6C8A99C EQ PUSH2 0x489 JUMPI DUP1 PUSH4 0xB84536AE EQ PUSH2 0x484 JUMPI DUP1 PUSH4 0xB9EC0DDE EQ PUSH2 0x47F JUMPI DUP1 PUSH4 0xBECBB04B EQ PUSH2 0x47A JUMPI DUP1 PUSH4 0xC31D36F5 EQ PUSH2 0x475 JUMPI DUP1 PUSH4 0xC7AC1D44 EQ PUSH2 0x470 JUMPI DUP1 PUSH4 0xD529A565 EQ PUSH2 0x46B JUMPI DUP1 PUSH4 0xDB0BC683 EQ PUSH2 0x466 JUMPI DUP1 PUSH4 0xDFCF605F EQ PUSH2 0x461 JUMPI DUP1 PUSH4 0xE0DAA8BA EQ PUSH2 0x45C JUMPI DUP1 PUSH4 0xE7F7814E EQ PUSH2 0x457 JUMPI DUP1 PUSH4 0xE8891B7D EQ PUSH2 0x452 JUMPI DUP1 PUSH4 0xED338FF1 EQ PUSH2 0x44D JUMPI DUP1 PUSH4 0xF00D118A EQ PUSH2 0x448 JUMPI DUP1 PUSH4 0xF1E81E07 EQ PUSH2 0x443 JUMPI DUP1 PUSH4 0xF2FDE38B EQ PUSH2 0x43E JUMPI DUP1 PUSH4 0xF6BB87F5 EQ PUSH2 0x439 JUMPI DUP1 PUSH4 0xF8127958 EQ PUSH2 0x434 JUMPI DUP1 PUSH4 0xFD234856 EQ PUSH2 0x42F JUMPI DUP1 PUSH4 0xFD869971 EQ PUSH2 0x42A JUMPI DUP1 PUSH4 0xFDE2DA13 EQ PUSH2 0x425 JUMPI DUP1 PUSH4 0xFE36F6C9 EQ PUSH2 0x420 JUMPI PUSH4 0xFF3E7C72 SUB PUSH2 0xE JUMPI PUSH2 0x2237 JUMP JUMPDEST PUSH2 0x21E8 JUMP JUMPDEST PUSH2 0x2199 JUMP JUMPDEST PUSH2 0x214A JUMP JUMPDEST PUSH2 0x2105 JUMP JUMPDEST PUSH2 0x20D0 JUMP JUMPDEST PUSH2 0x209B JUMP JUMPDEST PUSH2 0x2058 JUMP JUMPDEST PUSH2 0x2023 JUMP JUMPDEST PUSH2 0x1FDE JUMP JUMPDEST PUSH2 0x1F99 JUMP JUMPDEST PUSH2 0x1F40 JUMP JUMPDEST PUSH2 0x1EFB JUMP JUMPDEST PUSH2 0x1EAC JUMP JUMPDEST PUSH2 0x1E67 JUMP JUMPDEST PUSH2 0x1E22 JUMP JUMPDEST PUSH2 0x1DDD JUMP JUMPDEST PUSH2 0x1D98 JUMP JUMPDEST PUSH2 0x1D63 JUMP JUMPDEST PUSH2 0x1D1E JUMP JUMPDEST PUSH2 0x1CD9 JUMP JUMPDEST PUSH2 0x1CA4 JUMP JUMPDEST PUSH2 0x1C61 JUMP JUMPDEST PUSH2 0x1C2C JUMP JUMPDEST PUSH2 0x1BE7 JUMP JUMPDEST PUSH2 0x1BA4 JUMP JUMPDEST PUSH2 0x1B6F JUMP JUMPDEST PUSH2 0x1B3A JUMP JUMPDEST PUSH2 0x1A95 JUMP JUMPDEST PUSH2 0x18EA JUMP JUMPDEST PUSH2 0x18A5 JUMP JUMPDEST PUSH2 0x1862 JUMP JUMPDEST PUSH2 0x182D JUMP JUMPDEST PUSH2 0x17DE JUMP JUMPDEST PUSH2 0x178F JUMP JUMPDEST PUSH2 0x174A JUMP JUMPDEST PUSH2 0x1705 JUMP JUMPDEST PUSH2 0x16C0 JUMP JUMPDEST PUSH2 0x167B JUMP JUMPDEST PUSH2 0x1636 JUMP JUMPDEST PUSH2 0x15F1 JUMP JUMPDEST PUSH2 0x15AE JUMP JUMPDEST PUSH2 0x1579 JUMP JUMPDEST PUSH2 0x1534 JUMP JUMPDEST PUSH2 0x149D JUMP JUMPDEST PUSH2 0x145A JUMP JUMPDEST PUSH2 0x1425 JUMP JUMPDEST PUSH2 0x13E0 JUMP JUMPDEST PUSH2 0x139B JUMP JUMPDEST PUSH2 0x1356 JUMP JUMPDEST PUSH2 0x1307 JUMP JUMPDEST PUSH2 0x12C2 JUMP JUMPDEST PUSH2 0x1273 JUMP JUMPDEST PUSH2 0x1224 JUMP JUMPDEST PUSH2 0x11E1 JUMP JUMPDEST PUSH2 0x11AC JUMP JUMPDEST PUSH2 0x115D JUMP JUMPDEST PUSH2 0x1118 JUMP JUMPDEST PUSH2 0x10D3 JUMP JUMPDEST PUSH2 0x108E JUMP JUMPDEST PUSH2 0x1059 JUMP JUMPDEST PUSH2 0x1014 JUMP JUMPDEST PUSH2 0xFCF JUMP JUMPDEST PUSH2 0xF82 JUMP JUMPDEST PUSH2 0xF4D JUMP JUMPDEST PUSH2 0xF0A JUMP JUMPDEST PUSH2 0xED7 JUMP JUMPDEST PUSH2 0xEA2 JUMP JUMPDEST PUSH2 0xE5F JUMP JUMPDEST PUSH2 0xE2A JUMP JUMPDEST PUSH2 0xDDB JUMP JUMPDEST PUSH2 0xD8C JUMP JUMPDEST PUSH2 0xD57 JUMP JUMPDEST PUSH2 0xD12 JUMP JUMPDEST PUSH2 0xCB9 JUMP JUMPDEST PUSH2 0xC84 JUMP JUMPDEST PUSH2 0xC35 JUMP JUMPDEST PUSH2 0xBF0 JUMP JUMPDEST PUSH2 0xB99 JUMP JUMPDEST PUSH2 0xAA9 JUMP JUMPDEST PUSH2 0xA64 JUMP JUMPDEST PUSH2 0xA0B JUMP JUMPDEST PUSH2 0x9C6 JUMP JUMPDEST PUSH2 0x981 JUMP JUMPDEST PUSH2 0x93C JUMP JUMPDEST PUSH2 0x8ED JUMP JUMPDEST PUSH2 0x8A8 JUMP JUMPDEST PUSH2 0x859 JUMP JUMPDEST PUSH2 0x80A JUMP JUMPDEST PUSH2 0x7C5 JUMP JUMPDEST PUSH2 0x768 JUMP JUMPDEST PUSH2 0x670 JUMP JUMPDEST PUSH1 0xE0 SHR SWAP1 JUMP JUMPDEST PUSH1 0x40 MLOAD SWAP1 JUMP JUMPDEST PUSH1 0x0 DUP1 REVERT JUMPDEST PUSH1 0x0 DUP1 REVERT JUMPDEST PUSH1 0x0 SWAP2 SUB SLT PUSH2 0x608 JUMPI JUMP JUMPDEST PUSH2 0x5F8 JUMP JUMPDEST SHR SWAP1 JUMP JUMPDEST SWAP1 JUMP JUMPDEST PUSH2 0x624 SWAP1 PUSH1 0x8 PUSH2 0x629 SWAP4 MUL PUSH2 0x60D JUMP JUMPDEST PUSH2 0x611 JUMP JUMPDEST SWAP1 JUMP JUMPDEST SWAP1 PUSH2 0x637 SWAP2 SLOAD PUSH2 0x614 JUMP JUMPDEST SWAP1 JUMP JUMPDEST PUSH2 0x647 PUSH1 0xB PUSH1 0x0 SWAP1 PUSH2 0x62C JUMP JUMPDEST SWAP1 JUMP JUMPDEST SWAP1 JUMP JUMPDEST PUSH2 0x656 SWAP1 PUSH2 0x64A JUMP JUMPDEST SWAP1 MSTORE JUMP JUMPDEST SWAP2 SWAP1 PUSH2 0x66E SWAP1 PUSH1 0x0 PUSH1 0x20 DUP6 ADD SWAP5 ADD SWAP1 PUSH2 0x64D JUMP JUMPDEST JUMP JUMPDEST CALLVALUE PUSH2 0x6A0 JUMPI PUSH2 0x680 CALLDATASIZE PUSH1 0x4 PUSH2 0x5FD JUMP JUMPDEST PUSH2 0x69C PUSH2 0x68B PUSH2 0x63A JUMP JUMPDEST PUSH2 0x693 PUSH2 0x5ED JUMP JUMPDEST SWAP2 DUP3 SWAP2 DUP3 PUSH2 0x65A JUMP JUMPDEST SUB SWAP1 RETURN JUMPDEST PUSH2 0x5F3 JUMP JUMPDEST PUSH1 0x1 DUP1 PUSH1 0xA0 SHL SUB AND SWAP1 JUMP JUMPDEST PUSH2 0x6B9 SWAP1 PUSH2 0x6A5 JUMP JUMPDEST SWAP1 JUMP JUMPDEST PUSH2 0x6C5 DUP2 PUSH2 0x6B0 JUMP JUMPDEST SUB PUSH2 0x6CC JUMPI JUMP JUMPDEST PUSH1 0x0 DUP1 REVERT JUMPDEST SWAP1 POP CALLDATALOAD SWAP1 PUSH2 0x6DE DUP3 PUSH2 0x6BC JUMP JUMPDEST JUMP JUMPDEST SWAP1 PUSH1 0x20 DUP3 DUP3 SUB SLT PUSH2 0x6FA JUMPI PUSH2 0x6F7 SWAP2 PUSH1 0x0 ADD PUSH2 0x6D1 JUMP JUMPDEST SWAP1 JUMP JUMPDEST PUSH2 0x5F8 JUMP JUMPDEST SWAP1 JUMP JUMPDEST PUSH2 0x716 PUSH2 0x711 PUSH2 0x71B SWAP3 PUSH2 0x6A5 JUMP JUMPDEST PUSH2 0x6FF JUMP JUMPDEST PUSH2 0x6A5 JUMP JUMPDEST SWAP1 JUMP JUMPDEST PUSH2 0x727 SWAP1 PUSH2 0x702 JUMP JUMPDEST SWAP1 JUMP JUMPDEST PUSH2 0x733 SWAP1 PUSH2 0x71E JUMP JUMPDEST SWAP1 JUMP JUMPDEST SWAP1 PUSH2 0x740 SWAP1 PUSH2 0x72A JUMP JUMPDEST PUSH1 0x0 MSTORE PUSH1 0x20 MSTORE PUSH1 0x40 PUSH1 0x0 KECCAK256 SWAP1 JUMP JUMPDEST PUSH2 0x765 SWAP1 PUSH2 0x760 PUSH1 0x3F SWAP2 PUSH1 0x0 SWAP3 PUSH2 0x736 JUMP JUMPDEST PUSH2 0x62C JUMP JUMPDEST SWAP1 JUMP JUMPDEST CALLVALUE PUSH2 0x798 JUMPI PUSH2 0x794 PUSH2 0x783 PUSH2 0x77E CALLDATASIZE PUSH1 0x4 PUSH2 0x6E0 JUMP JUMPDEST PUSH2 0x74E JUMP JUMPDEST PUSH2 0x78B PUSH2 0x5ED JUMP JUMPDEST SWAP2 DUP3 SWAP2 DUP3 PUSH2 0x65A JUMP JUMPDEST SUB SWAP1 RETURN JUMPDEST PUSH2 0x5F3 JUMP JUMPDEST ISZERO ISZERO SWAP1 JUMP JUMPDEST PUSH2 0x7AB SWAP1 PUSH2 0x79D JUMP JUMPDEST SWAP1 MSTORE JUMP JUMPDEST SWAP2 SWAP1 PUSH2 0x7C3 SWAP1 PUSH1 0x0 PUSH1 0x20 DUP6 ADD SWAP5 ADD SWAP1 PUSH2 0x7A2 JUMP JUMPDEST JUMP JUMPDEST CALLVALUE PUSH2 0x7F5 JUMPI PUSH2 0x7F1 PUSH2 0x7E0 PUSH2 0x7DB CALLDATASIZE PUSH1 0x4 PUSH2 0x6E0 JUMP JUMPDEST PUSH2 0x22F7 JUMP JUMPDEST PUSH2 0x7E8 PUSH2 0x5ED JUMP JUMPDEST SWAP2 DUP3 SWAP2 DUP3 PUSH2 0x7AF JUMP JUMPDEST SUB SWAP1 RETURN JUMPDEST PUSH2 0x5F3 JUMP JUMPDEST PUSH2 0x807 PUSH1 0x3 PUSH1 0x0 SWAP1 PUSH2 0x62C JUMP JUMPDEST SWAP1 JUMP JUMPDEST CALLVALUE PUSH2 0x83A JUMPI PUSH2 0x81A CALLDATASIZE PUSH1 0x4 PUSH2 0x5FD JUMP JUMPDEST PUSH2 0x836 PUSH2 0x825 PUSH2 0x7FA JUMP JUMPDEST PUSH2 0x82D PUSH2 0x5ED JUMP JUMPDEST SWAP2 DUP3 SWAP2 DUP3 PUSH2 0x65A JUMP JUMPDEST SUB SWAP1 RETURN JUMPDEST PUSH2 0x5F3 JUMP JUMPDEST PUSH2 0x856 SWAP1 PUSH2 0x851 PUSH1 0x48 SWAP2 PUSH1 0x0 SWAP3 PUSH2 0x736 JUMP JUMPDEST PUSH2 0x62C JUMP JUMPDEST SWAP1 JUMP JUMPDEST CALLVALUE PUSH2 0x889 JUMPI PUSH2 0x885 PUSH2 0x874 PUSH2 0x86F CALLDATASIZE PUSH1 0x4 PUSH2 0x6E0 JUMP JUMPDEST PUSH2 0x83F JUMP JUMPDEST PUSH2 0x87C PUSH2 0x5ED JUMP JUMPDEST SWAP2 DUP3 SWAP2 DUP3 PUSH2 0x65A JUMP JUMPDEST SUB SWAP1 RETURN JUMPDEST PUSH2 0x5F3 JUMP JUMPDEST PUSH2 0x8A5 SWAP1 PUSH2 0x8A0 PUSH1 0x43 SWAP2 PUSH1 0x0 SWAP3 PUSH2 0x736 JUMP JUMPDEST PUSH2 0x62C JUMP JUMPDEST SWAP1 JUMP JUMPDEST CALLVALUE PUSH2 0x8D8 JUMPI PUSH2 0x8D4 PUSH2 0x8C3 PUSH2 0x8BE CALLDATASIZE PUSH1 0x4 PUSH2 0x6E0 JUMP JUMPDEST PUSH2 0x88E JUMP JUMPDEST PUSH2 0x8CB PUSH2 0x5ED JUMP JUMPDEST SWAP2 DUP3 SWAP2 DUP3 PUSH2 0x65A JUMP JUMPDEST SUB SWAP1 RETURN JUMPDEST PUSH2 0x5F3 JUMP JUMPDEST PUSH2 0x8EA PUSH1 0x26 PUSH1 0x0 SWAP1 PUSH2 0x62C JUMP JUMPDEST SWAP1 JUMP JUMPDEST CALLVALUE PUSH2 0x91D JUMPI PUSH2 0x8FD CALLDATASIZE PUSH1 0x4 PUSH2 0x5FD JUMP JUMPDEST PUSH2 0x919 PUSH2 0x908 PUSH2 0x8DD JUMP JUMPDEST PUSH2 0x910 PUSH2 0x5ED JUMP JUMPDEST SWAP2 DUP3 SWAP2 DUP3 PUSH2 0x65A JUMP JUMPDEST SUB SWAP1 RETURN JUMPDEST PUSH2 0x5F3 JUMP JUMPDEST PUSH2 0x939 SWAP1 PUSH2 0x934 PUSH1 0x4A SWAP2 PUSH1 0x0 SWAP3 PUSH2 0x736 JUMP JUMPDEST PUSH2 0x62C JUMP JUMPDEST SWAP1 JUMP JUMPDEST CALLVALUE PUSH2 0x96C JUMPI PUSH2 0x968 PUSH2 0x957 PUSH2 0x952 CALLDATASIZE PUSH1 0x4 PUSH2 0x6E0 JUMP JUMPDEST PUSH2 0x922 JUMP JUMPDEST PUSH2 0x95F PUSH2 0x5ED JUMP JUMPDEST SWAP2 DUP3 SWAP2 DUP3 PUSH2 0x65A JUMP JUMPDEST SUB SWAP1 RETURN JUMPDEST PUSH2 0x5F3 JUMP JUMPDEST PUSH2 0x97E PUSH1 0x8 PUSH1 0x0 SWAP1 PUSH2 0x62C JUMP JUMPDEST SWAP1 JUMP JUMPDEST CALLVALUE PUSH2 0x9B1 JUMPI PUSH2 0x991 CALLDATASIZE PUSH1 0x4 PUSH2 0x5FD JUMP JUMPDEST PUSH2 0x9AD PUSH2 0x99C PUSH2 0x971 JUMP JUMPDEST PUSH2 0x9A4 PUSH2 0x5ED JUMP JUMPDEST SWAP2 DUP3 SWAP2 DUP3 PUSH2 0x65A JUMP JUMPDEST SUB SWAP1 RETURN JUMPDEST PUSH2 0x5F3 JUMP JUMPDEST PUSH2 0x9C3 PUSH1 0x25 PUSH1 0x0 SWAP1 PUSH2 0x62C JUMP JUMPDEST SWAP1 JUMP JUMPDEST CALLVALUE PUSH2 0x9F6 JUMPI PUSH2 0x9D6 CALLDATASIZE PUSH1 0x4 PUSH2 0x5FD JUMP JUMPDEST PUSH2 0x9F2 PUSH2 0x9E1 PUSH2 0x9B6 JUMP JUMPDEST PUSH2 0x9E9 PUSH2 0x5ED JUMP JUMPDEST SWAP2 DUP3 SWAP2 DUP3 PUSH2 0x65A JUMP JUMPDEST SUB SWAP1 RETURN JUMPDEST PUSH2 0x5F3 JUMP JUMPDEST PUSH2 0xA08 PUSH1 0x2A PUSH1 0x0 SWAP1 PUSH2 0x62C JUMP JUMPDEST SWAP1 JUMP JUMPDEST CALLVALUE PUSH2 0xA3B JUMPI PUSH2 0xA1B CALLDATASIZE PUSH1 0x4 PUSH2 0x5FD JUMP JUMPDEST PUSH2 0xA37 PUSH2 0xA26 PUSH2 0x9FB JUMP JUMPDEST PUSH2 0xA2E PUSH2 0x5ED JUMP JUMPDEST SWAP2 DUP3 SWAP2 DUP3 PUSH2 0x65A JUMP JUMPDEST SUB SWAP1 RETURN JUMPDEST PUSH2 0x5F3 JUMP JUMPDEST PUSH32 0x0 SWAP1 JUMP JUMPDEST CALLVALUE PUSH2 0xA94 JUMPI PUSH2 0xA74 CALLDATASIZE PUSH1 0x4 PUSH2 0x5FD JUMP JUMPDEST PUSH2 0xA90 PUSH2 0xA7F PUSH2 0xA40 JUMP JUMPDEST PUSH2 0xA87 PUSH2 0x5ED JUMP JUMPDEST SWAP2 DUP3 SWAP2 DUP3 PUSH2 0x65A JUMP JUMPDEST SUB SWAP1 RETURN JUMPDEST PUSH2 0x5F3 JUMP JUMPDEST PUSH2 0xAA6 PUSH1 0xA PUSH1 0x0 SWAP1 PUSH2 0x62C JUMP JUMPDEST SWAP1 JUMP JUMPDEST CALLVALUE PUSH2 0xAD9 JUMPI PUSH2 0xAB9 CALLDATASIZE PUSH1 0x4 PUSH2 0x5FD JUMP JUMPDEST PUSH2 0xAD5 PUSH2 0xAC4 PUSH2 0xA99 JUMP JUMPDEST PUSH2 0xACC PUSH2 0x5ED JUMP JUMPDEST SWAP2 DUP3 SWAP2 DUP3 PUSH2 0x65A JUMP JUMPDEST SUB SWAP1 RETURN JUMPDEST PUSH2 0x5F3 JUMP JUMPDEST PUSH2 0xAE7 DUP2 PUSH2 0x64A JUMP JUMPDEST SUB PUSH2 0xAEE JUMPI JUMP JUMPDEST PUSH1 0x0 DUP1 REVERT JUMPDEST SWAP1 POP CALLDATALOAD SWAP1 PUSH2 0xB00 DUP3 PUSH2 0xADE JUMP JUMPDEST JUMP JUMPDEST SWAP1 SWAP2 PUSH2 0x120 DUP3 DUP5 SUB SLT PUSH2 0xB8E JUMPI PUSH2 0xB1C DUP4 PUSH1 0x0 DUP5 ADD PUSH2 0xAF3 JUMP JUMPDEST SWAP3 PUSH2 0xB2A DUP2 PUSH1 0x20 DUP6 ADD PUSH2 0xAF3 JUMP JUMPDEST SWAP3 PUSH2 0xB38 DUP3 PUSH1 0x40 DUP4 ADD PUSH2 0xAF3 JUMP JUMPDEST SWAP3 PUSH2 0xB46 DUP4 PUSH1 0x60 DUP5 ADD PUSH2 0xAF3 JUMP JUMPDEST SWAP3 PUSH2 0xB54 DUP2 PUSH1 0x80 DUP6 ADD PUSH2 0xAF3 JUMP JUMPDEST SWAP3 PUSH2 0xB62 DUP3 PUSH1 0xA0 DUP4 ADD PUSH2 0xAF3 JUMP JUMPDEST SWAP3 PUSH2 0xB8B PUSH2 0xB73 DUP5 PUSH1 0xC0 DUP6 ADD PUSH2 0xAF3 JUMP JUMPDEST SWAP4 PUSH2 0xB81 DUP2 PUSH1 0xE0 DUP7 ADD PUSH2 0xAF3 JUMP JUMPDEST SWAP4 PUSH2 0x100 ADD PUSH2 0xAF3 JUMP JUMPDEST SWAP1 JUMP JUMPDEST PUSH2 0x5F8 JUMP JUMPDEST PUSH1 0x0 ADD SWAP1 JUMP JUMPDEST CALLVALUE PUSH2 0xBD1 JUMPI PUSH2 0xBBB PUSH2 0xBAC CALLDATASIZE PUSH1 0x4 PUSH2 0xB02 JUMP JUMPDEST SWAP8 SWAP7 SWAP1 SWAP7 SWAP6 SWAP2 SWAP6 SWAP5 SWAP3 SWAP5 PUSH2 0x267C JUMP JUMPDEST PUSH2 0xBC3 PUSH2 0x5ED JUMP JUMPDEST DUP1 PUSH2 0xBCD DUP2 PUSH2 0xB93 JUMP JUMPDEST SUB SWAP1 RETURN JUMPDEST PUSH2 0x5F3 JUMP JUMPDEST PUSH2 0xBED SWAP1 PUSH2 0xBE8 PUSH1 0x41 SWAP2 PUSH1 0x0 SWAP3 PUSH2 0x736 JUMP JUMPDEST PUSH2 0x62C JUMP JUMPDEST SWAP1 JUMP JUMPDEST CALLVALUE PUSH2 0xC20 JUMPI PUSH2 0xC1C PUSH2 0xC0B PUSH2 0xC06 CALLDATASIZE PUSH1 0x4 PUSH2 0x6E0 JUMP JUMPDEST PUSH2 0xBD6 JUMP JUMPDEST PUSH2 0xC13 PUSH2 0x5ED JUMP JUMPDEST SWAP2 DUP3 SWAP2 DUP3 PUSH2 0x65A JUMP JUMPDEST SUB SWAP1 RETURN JUMPDEST PUSH2 0x5F3 JUMP JUMPDEST PUSH2 0xC32 PUSH1 0x14 PUSH1 0x0 SWAP1 PUSH2 0x62C JUMP JUMPDEST SWAP1 JUMP JUMPDEST CALLVALUE PUSH2 0xC65 JUMPI PUSH2 0xC45 CALLDATASIZE PUSH1 0x4 PUSH2 0x5FD JUMP JUMPDEST PUSH2 0xC61 PUSH2 0xC50 PUSH2 0xC25 JUMP JUMPDEST PUSH2 0xC58 PUSH2 0x5ED JUMP JUMPDEST SWAP2 DUP3 SWAP2 DUP3 PUSH2 0x65A JUMP JUMPDEST SUB SWAP1 RETURN JUMPDEST PUSH2 0x5F3 JUMP JUMPDEST PUSH2 0xC81 SWAP1 PUSH2 0xC7C PUSH1 0x44 SWAP2 PUSH1 0x0 SWAP3 PUSH2 0x736 JUMP JUMPDEST PUSH2 0x62C JUMP JUMPDEST SWAP1 JUMP JUMPDEST CALLVALUE PUSH2 0xCB4 JUMPI PUSH2 0xCB0 PUSH2 0xC9F PUSH2 0xC9A CALLDATASIZE PUSH1 0x4 PUSH2 0x6E0 JUMP JUMPDEST PUSH2 0xC6A JUMP JUMPDEST PUSH2 0xCA7 PUSH2 0x5ED JUMP JUMPDEST SWAP2 DUP3 SWAP2 DUP3 PUSH2 0x65A JUMP JUMPDEST SUB SWAP1 RETURN JUMPDEST PUSH2 0x5F3 JUMP JUMPDEST CALLVALUE PUSH2 0xCE9 JUMPI PUSH2 0xCE5 PUSH2 0xCD4 PUSH2 0xCCF CALLDATASIZE PUSH1 0x4 PUSH2 0x6E0 JUMP JUMPDEST PUSH2 0x268F JUMP JUMPDEST PUSH2 0xCDC PUSH2 0x5ED JUMP JUMPDEST SWAP2 DUP3 SWAP2 DUP3 PUSH2 0x7AF JUMP JUMPDEST SUB SWAP1 RETURN JUMPDEST PUSH2 0x5F3 JUMP JUMPDEST PUSH32 0x0 SWAP1 JUMP JUMPDEST CALLVALUE PUSH2 0xD42 JUMPI PUSH2 0xD22 CALLDATASIZE PUSH1 0x4 PUSH2 0x5FD JUMP JUMPDEST PUSH2 0xD3E PUSH2 0xD2D PUSH2 0xCEE JUMP JUMPDEST PUSH2 0xD35 PUSH2 0x5ED JUMP JUMPDEST SWAP2 DUP3 SWAP2 DUP3 PUSH2 0x65A JUMP JUMPDEST SUB SWAP1 RETURN JUMPDEST PUSH2 0x5F3 JUMP JUMPDEST PUSH2 0xD54 PUSH1 0xE PUSH1 0x0 SWAP1 PUSH2 0x62C JUMP JUMPDEST SWAP1 JUMP JUMPDEST CALLVALUE PUSH2 0xD87 JUMPI PUSH2 0xD67 CALLDATASIZE PUSH1 0x4 PUSH2 0x5FD JUMP JUMPDEST PUSH2 0xD83 PUSH2 0xD72 PUSH2 0xD47 JUMP JUMPDEST PUSH2 0xD7A PUSH2 0x5ED JUMP JUMPDEST SWAP2 DUP3 SWAP2 DUP3 PUSH2 0x65A JUMP JUMPDEST SUB SWAP1 RETURN JUMPDEST PUSH2 0x5F3 JUMP JUMPDEST CALLVALUE PUSH2 0xDBC JUMPI PUSH2 0xDB8 PUSH2 0xDA7 PUSH2 0xDA2 CALLDATASIZE PUSH1 0x4 PUSH2 0x6E0 JUMP JUMPDEST PUSH2 0x271A JUMP JUMPDEST PUSH2 0xDAF PUSH2 0x5ED JUMP JUMPDEST SWAP2 DUP3 SWAP2 DUP3 PUSH2 0x7AF JUMP JUMPDEST SUB SWAP1 RETURN JUMPDEST PUSH2 0x5F3 JUMP JUMPDEST PUSH2 0xDD8 SWAP1 PUSH2 0xDD3 PUSH1 0x4B SWAP2 PUSH1 0x0 SWAP3 PUSH2 0x736 JUMP JUMPDEST PUSH2 0x62C JUMP JUMPDEST SWAP1 JUMP JUMPDEST CALLVALUE PUSH2 0xE0B JUMPI PUSH2 0xE07 PUSH2 0xDF6 PUSH2 0xDF1 CALLDATASIZE PUSH1 0x4 PUSH2 0x6E0 JUMP JUMPDEST PUSH2 0xDC1 JUMP JUMPDEST PUSH2 0xDFE PUSH2 0x5ED JUMP JUMPDEST SWAP2 DUP3 SWAP2 DUP3 PUSH2 0x65A JUMP JUMPDEST SUB SWAP1 RETURN JUMPDEST PUSH2 0x5F3 JUMP JUMPDEST PUSH2 0xE27 SWAP1 PUSH2 0xE22 PUSH1 0x42 SWAP2 PUSH1 0x0 SWAP3 PUSH2 0x736 JUMP JUMPDEST PUSH2 0x62C JUMP JUMPDEST SWAP1 JUMP JUMPDEST CALLVALUE PUSH2 0xE5A JUMPI PUSH2 0xE56 PUSH2 0xE45 PUSH2 0xE40 CALLDATASIZE PUSH1 0x4 PUSH2 0x6E0 JUMP JUMPDEST PUSH2 0xE10 JUMP JUMPDEST PUSH2 0xE4D PUSH2 0x5ED JUMP JUMPDEST SWAP2 DUP3 SWAP2 DUP3 PUSH2 0x65A JUMP JUMPDEST SUB SWAP1 RETURN JUMPDEST PUSH2 0x5F3 JUMP JUMPDEST CALLVALUE PUSH2 0xE8D JUMPI PUSH2 0xE77 PUSH2 0xE72 CALLDATASIZE PUSH1 0x4 PUSH2 0x6E0 JUMP JUMPDEST PUSH2 0x297F JUMP JUMPDEST PUSH2 0xE7F PUSH2 0x5ED JUMP JUMPDEST DUP1 PUSH2 0xE89 DUP2 PUSH2 0xB93 JUMP JUMPDEST SUB SWAP1 RETURN JUMPDEST PUSH2 0x5F3 JUMP JUMPDEST PUSH2 0xE9F PUSH1 0x1 PUSH1 0x0 SWAP1 PUSH2 0x62C JUMP JUMPDEST SWAP1 JUMP JUMPDEST CALLVALUE PUSH2 0xED2 JUMPI PUSH2 0xEB2 CALLDATASIZE PUSH1 0x4 PUSH2 0x5FD JUMP JUMPDEST PUSH2 0xECE PUSH2 0xEBD PUSH2 0xE92 JUMP JUMPDEST PUSH2 0xEC5 PUSH2 0x5ED JUMP JUMPDEST SWAP2 DUP3 SWAP2 DUP3 PUSH2 0x65A JUMP JUMPDEST SUB SWAP1 RETURN JUMPDEST PUSH2 0x5F3 JUMP JUMPDEST CALLVALUE PUSH2 0xF05 JUMPI PUSH2 0xEEF PUSH2 0xEEA CALLDATASIZE PUSH1 0x4 PUSH2 0x6E0 JUMP JUMPDEST PUSH2 0x29F5 JUMP JUMPDEST PUSH2 0xEF7 PUSH2 0x5ED JUMP JUMPDEST DUP1 PUSH2 0xF01 DUP2 PUSH2 0xB93 JUMP JUMPDEST SUB SWAP1 RETURN JUMPDEST PUSH2 0x5F3 JUMP JUMPDEST CALLVALUE PUSH2 0xF38 JUMPI PUSH2 0xF22 PUSH2 0xF1D CALLDATASIZE PUSH1 0x4 PUSH2 0x6E0 JUMP JUMPDEST PUSH2 0x2A6B JUMP JUMPDEST PUSH2 0xF2A PUSH2 0x5ED JUMP JUMPDEST DUP1 PUSH2 0xF34 DUP2 PUSH2 0xB93 JUMP JUMPDEST SUB SWAP1 RETURN JUMPDEST PUSH2 0x5F3 JUMP JUMPDEST PUSH2 0xF4A PUSH1 0x2C PUSH1 0x0 SWAP1 PUSH2 0x62C JUMP JUMPDEST SWAP1 JUMP JUMPDEST CALLVALUE PUSH2 0xF7D JUMPI PUSH2 0xF5D CALLDATASIZE PUSH1 0x4 PUSH2 0x5FD JUMP JUMPDEST PUSH2 0xF79 PUSH2 0xF68 PUSH2 0xF3D JUMP JUMPDEST PUSH2 0xF70 PUSH2 0x5ED JUMP JUMPDEST SWAP2 DUP3 SWAP2 DUP3 PUSH2 0x65A JUMP JUMPDEST SUB SWAP1 RETURN JUMPDEST PUSH2 0x5F3 JUMP JUMPDEST CALLVALUE PUSH2 0xFBA JUMPI PUSH2 0xFA4 PUSH2 0xF95 CALLDATASIZE PUSH1 0x4 PUSH2 0xB02 JUMP JUMPDEST SWAP8 SWAP7 SWAP1 SWAP7 SWAP6 SWAP2 SWAP6 SWAP5 SWAP3 SWAP5 PUSH2 0x2C72 JUMP JUMPDEST PUSH2 0xFAC PUSH2 0x5ED JUMP JUMPDEST DUP1 PUSH2 0xFB6 DUP2 PUSH2 0xB93 JUMP JUMPDEST SUB SWAP1 RETURN JUMPDEST PUSH2 0x5F3 JUMP JUMPDEST PUSH2 0xFCC PUSH1 0x29 PUSH1 0x0 SWAP1 PUSH2 0x62C JUMP JUMPDEST SWAP1 JUMP JUMPDEST CALLVALUE PUSH2 0xFFF JUMPI PUSH2 0xFDF CALLDATASIZE PUSH1 0x4 PUSH2 0x5FD JUMP JUMPDEST PUSH2 0xFFB PUSH2 0xFEA PUSH2 0xFBF JUMP JUMPDEST PUSH2 0xFF2 PUSH2 0x5ED JUMP JUMPDEST SWAP2 DUP3 SWAP2 DUP3 PUSH2 0x65A JUMP JUMPDEST SUB SWAP1 RETURN JUMPDEST PUSH2 0x5F3 JUMP JUMPDEST PUSH2 0x1011 PUSH1 0x1A PUSH1 0x0 SWAP1 PUSH2 0x62C JUMP JUMPDEST SWAP1 JUMP JUMPDEST CALLVALUE PUSH2 0x1044 JUMPI PUSH2 0x1024 CALLDATASIZE PUSH1 0x4 PUSH2 0x5FD JUMP JUMPDEST PUSH2 0x1040 PUSH2 0x102F PUSH2 0x1004 JUMP JUMPDEST PUSH2 0x1037 PUSH2 0x5ED JUMP JUMPDEST SWAP2 DUP3 SWAP2 DUP3 PUSH2 0x65A JUMP JUMPDEST SUB SWAP1 RETURN JUMPDEST PUSH2 0x5F3 JUMP JUMPDEST PUSH2 0x1056 PUSH1 0x22 PUSH1 0x0 SWAP1 PUSH2 0x62C JUMP JUMPDEST SWAP1 JUMP JUMPDEST CALLVALUE PUSH2 0x1089 JUMPI PUSH2 0x1069 CALLDATASIZE PUSH1 0x4 PUSH2 0x5FD JUMP JUMPDEST PUSH2 0x1085 PUSH2 0x1074 PUSH2 0x1049 JUMP JUMPDEST PUSH2 0x107C PUSH2 0x5ED JUMP JUMPDEST SWAP2 DUP3 SWAP2 DUP3 PUSH2 0x65A JUMP JUMPDEST SUB SWAP1 RETURN JUMPDEST PUSH2 0x5F3 JUMP JUMPDEST CALLVALUE PUSH2 0x10BE JUMPI PUSH2 0x10BA PUSH2 0x10A9 PUSH2 0x10A4 CALLDATASIZE PUSH1 0x4 PUSH2 0x6E0 JUMP JUMPDEST PUSH2 0x2C85 JUMP JUMPDEST PUSH2 0x10B1 PUSH2 0x5ED JUMP JUMPDEST SWAP2 DUP3 SWAP2 DUP3 PUSH2 0x7AF JUMP JUMPDEST SUB SWAP1 RETURN JUMPDEST PUSH2 0x5F3 JUMP JUMPDEST PUSH2 0x10D0 PUSH1 0x28 PUSH1 0x0 SWAP1 PUSH2 0x62C JUMP JUMPDEST SWAP1 JUMP JUMPDEST CALLVALUE PUSH2 0x1103 JUMPI PUSH2 0x10E3 CALLDATASIZE PUSH1 0x4 PUSH2 0x5FD JUMP JUMPDEST PUSH2 0x10FF PUSH2 0x10EE PUSH2 0x10C3 JUMP JUMPDEST PUSH2 0x10F6 PUSH2 0x5ED JUMP JUMPDEST SWAP2 DUP3 SWAP2 DUP3 PUSH2 0x65A JUMP JUMPDEST SUB SWAP1 RETURN JUMPDEST PUSH2 0x5F3 JUMP JUMPDEST PUSH2 0x1115 PUSH1 0x23 PUSH1 0x0 SWAP1 PUSH2 0x62C JUMP JUMPDEST SWAP1 JUMP JUMPDEST CALLVALUE PUSH2 0x1148 JUMPI PUSH2 0x1128 CALLDATASIZE PUSH1 0x4 PUSH2 0x5FD JUMP JUMPDEST PUSH2 0x1144 PUSH2 0x1133 PUSH2 0x1108 JUMP JUMPDEST PUSH2 0x113B PUSH2 0x5ED JUMP JUMPDEST SWAP2 DUP3 SWAP2 DUP3 PUSH2 0x65A JUMP JUMPDEST SUB SWAP1 RETURN JUMPDEST PUSH2 0x5F3 JUMP JUMPDEST PUSH2 0x115A PUSH1 0x19 PUSH1 0x0 SWAP1 PUSH2 0x62C JUMP JUMPDEST SWAP1 JUMP JUMPDEST CALLVALUE PUSH2 0x118D JUMPI PUSH2 0x116D CALLDATASIZE PUSH1 0x4 PUSH2 0x5FD JUMP JUMPDEST PUSH2 0x1189 PUSH2 0x1178 PUSH2 0x114D JUMP JUMPDEST PUSH2 0x1180 PUSH2 0x5ED JUMP JUMPDEST SWAP2 DUP3 SWAP2 DUP3 PUSH2 0x65A JUMP JUMPDEST SUB SWAP1 RETURN JUMPDEST PUSH2 0x5F3 JUMP JUMPDEST PUSH2 0x11A9 SWAP1 PUSH2 0x11A4 PUSH1 0x46 SWAP2 PUSH1 0x0 SWAP3 PUSH2 0x736 JUMP JUMPDEST PUSH2 0x62C JUMP JUMPDEST SWAP1 JUMP JUMPDEST CALLVALUE PUSH2 0x11DC JUMPI PUSH2 0x11D8 PUSH2 0x11C7 PUSH2 0x11C2 CALLDATASIZE PUSH1 0x4 PUSH2 0x6E0 JUMP JUMPDEST PUSH2 0x1192 JUMP JUMPDEST PUSH2 0x11CF PUSH2 0x5ED JUMP JUMPDEST SWAP2 DUP3 SWAP2 DUP3 PUSH2 0x65A JUMP JUMPDEST SUB SWAP1 RETURN JUMPDEST PUSH2 0x5F3 JUMP JUMPDEST CALLVALUE PUSH2 0x120F JUMPI PUSH2 0x11F9 PUSH2 0x11F4 CALLDATASIZE PUSH1 0x4 PUSH2 0x6E0 JUMP JUMPDEST PUSH2 0x2D7B JUMP JUMPDEST PUSH2 0x1201 PUSH2 0x5ED JUMP JUMPDEST DUP1 PUSH2 0x120B DUP2 PUSH2 0xB93 JUMP JUMPDEST SUB SWAP1 RETURN JUMPDEST PUSH2 0x5F3 JUMP JUMPDEST PUSH2 0x1221 PUSH1 0x27 PUSH1 0x0 SWAP1 PUSH2 0x62C JUMP JUMPDEST SWAP1 JUMP JUMPDEST CALLVALUE PUSH2 0x1254 JUMPI PUSH2 0x1234 CALLDATASIZE PUSH1 0x4 PUSH2 0x5FD JUMP JUMPDEST PUSH2 0x1250 PUSH2 0x123F PUSH2 0x1214 JUMP JUMPDEST PUSH2 0x1247 PUSH2 0x5ED JUMP JUMPDEST SWAP2 DUP3 SWAP2 DUP3 PUSH2 0x65A JUMP JUMPDEST SUB SWAP1 RETURN JUMPDEST PUSH2 0x5F3 JUMP JUMPDEST PUSH2 0x1270 SWAP1 PUSH2 0x126B PUSH1 0x3E SWAP2 PUSH1 0x0 SWAP3 PUSH2 0x736 JUMP JUMPDEST PUSH2 0x62C JUMP JUMPDEST SWAP1 JUMP JUMPDEST CALLVALUE PUSH2 0x12A3 JUMPI PUSH2 0x129F PUSH2 0x128E PUSH2 0x1289 CALLDATASIZE PUSH1 0x4 PUSH2 0x6E0 JUMP JUMPDEST PUSH2 0x1259 JUMP JUMPDEST PUSH2 0x1296 PUSH2 0x5ED JUMP JUMPDEST SWAP2 DUP3 SWAP2 DUP3 PUSH2 0x65A JUMP JUMPDEST SUB SWAP1 RETURN JUMPDEST PUSH2 0x5F3 JUMP JUMPDEST PUSH2 0x12BF SWAP1 PUSH2 0x12BA PUSH1 0x3B SWAP2 PUSH1 0x0 SWAP3 PUSH2 0x736 JUMP JUMPDEST PUSH2 0x62C JUMP JUMPDEST SWAP1 JUMP JUMPDEST CALLVALUE PUSH2 0x12F2 JUMPI PUSH2 0x12EE PUSH2 0x12DD PUSH2 0x12D8 CALLDATASIZE PUSH1 0x4 PUSH2 0x6E0 JUMP JUMPDEST PUSH2 0x12A8 JUMP JUMPDEST PUSH2 0x12E5 PUSH2 0x5ED JUMP JUMPDEST SWAP2 DUP3 SWAP2 DUP3 PUSH2 0x65A JUMP JUMPDEST SUB SWAP1 RETURN JUMPDEST PUSH2 0x5F3 JUMP JUMPDEST PUSH2 0x1304 PUSH1 0x18 PUSH1 0x0 SWAP1 PUSH2 0x62C JUMP JUMPDEST SWAP1 JUMP JUMPDEST CALLVALUE PUSH2 0x1337 JUMPI PUSH2 0x1317 CALLDATASIZE PUSH1 0x4 PUSH2 0x5FD JUMP JUMPDEST PUSH2 0x1333 PUSH2 0x1322 PUSH2 0x12F7 JUMP JUMPDEST PUSH2 0x132A PUSH2 0x5ED JUMP JUMPDEST SWAP2 DUP3 SWAP2 DUP3 PUSH2 0x65A JUMP JUMPDEST SUB SWAP1 RETURN JUMPDEST PUSH2 0x5F3 JUMP JUMPDEST PUSH2 0x1353 SWAP1 PUSH2 0x134E PUSH1 0x45 SWAP2 PUSH1 0x0 SWAP3 PUSH2 0x736 JUMP JUMPDEST PUSH2 0x62C JUMP JUMPDEST SWAP1 JUMP JUMPDEST CALLVALUE PUSH2 0x1386 JUMPI PUSH2 0x1382 PUSH2 0x1371 PUSH2 0x136C CALLDATASIZE PUSH1 0x4 PUSH2 0x6E0 JUMP JUMPDEST PUSH2 0x133C JUMP JUMPDEST PUSH2 0x1379 PUSH2 0x5ED JUMP JUMPDEST SWAP2 DUP3 SWAP2 DUP3 PUSH2 0x65A JUMP JUMPDEST SUB SWAP1 RETURN JUMPDEST PUSH2 0x5F3 JUMP JUMPDEST PUSH2 0x1398 PUSH1 0x1C PUSH1 0x0 SWAP1 PUSH2 0x62C JUMP JUMPDEST SWAP1 JUMP JUMPDEST CALLVALUE PUSH2 0x13CB JUMPI PUSH2 0x13AB CALLDATASIZE PUSH1 0x4 PUSH2 0x5FD JUMP JUMPDEST PUSH2 0x13C7 PUSH2 0x13B6 PUSH2 0x138B JUMP JUMPDEST PUSH2 0x13BE PUSH2 0x5ED JUMP JUMPDEST SWAP2 DUP3 SWAP2 DUP3 PUSH2 0x65A JUMP JUMPDEST SUB SWAP1 RETURN JUMPDEST PUSH2 0x5F3 JUMP JUMPDEST PUSH2 0x13DD PUSH1 0xD PUSH1 0x0 SWAP1 PUSH2 0x62C JUMP JUMPDEST SWAP1 JUMP JUMPDEST CALLVALUE PUSH2 0x1410 JUMPI PUSH2 0x13F0 CALLDATASIZE PUSH1 0x4 PUSH2 0x5FD JUMP JUMPDEST PUSH2 0x140C PUSH2 0x13FB PUSH2 0x13D0 JUMP JUMPDEST PUSH2 0x1403 PUSH2 0x5ED JUMP JUMPDEST SWAP2 DUP3 SWAP2 DUP3 PUSH2 0x65A JUMP JUMPDEST SUB SWAP1 RETURN JUMPDEST PUSH2 0x5F3 JUMP JUMPDEST PUSH2 0x1422 PUSH1 0x6 PUSH1 0x0 SWAP1 PUSH2 0x62C JUMP JUMPDEST SWAP1 JUMP JUMPDEST CALLVALUE PUSH2 0x1455 JUMPI PUSH2 0x1435 CALLDATASIZE PUSH1 0x4 PUSH2 0x5FD JUMP JUMPDEST PUSH2 0x1451 PUSH2 0x1440 PUSH2 0x1415 JUMP JUMPDEST PUSH2 0x1448 PUSH2 0x5ED JUMP JUMPDEST SWAP2 DUP3 SWAP2 DUP3 PUSH2 0x65A JUMP JUMPDEST SUB SWAP1 RETURN JUMPDEST PUSH2 0x5F3 JUMP JUMPDEST CALLVALUE PUSH2 0x1488 JUMPI PUSH2 0x1472 PUSH2 0x146D CALLDATASIZE PUSH1 0x4 PUSH2 0x6E0 JUMP JUMPDEST PUSH2 0x2DF1 JUMP JUMPDEST PUSH2 0x147A PUSH2 0x5ED JUMP JUMPDEST DUP1 PUSH2 0x1484 DUP2 PUSH2 0xB93 JUMP JUMPDEST SUB SWAP1 RETURN JUMPDEST PUSH2 0x5F3 JUMP JUMPDEST PUSH2 0x149A PUSH1 0x24 PUSH1 0x0 SWAP1 PUSH2 0x62C JUMP JUMPDEST SWAP1 JUMP JUMPDEST CALLVALUE PUSH2 0x14CD JUMPI PUSH2 0x14AD CALLDATASIZE PUSH1 0x4 PUSH2 0x5FD JUMP JUMPDEST PUSH2 0x14C9 PUSH2 0x14B8 PUSH2 0x148D JUMP JUMPDEST PUSH2 0x14C0 PUSH2 0x5ED JUMP JUMPDEST SWAP2 DUP3 SWAP2 DUP3 PUSH2 0x65A JUMP JUMPDEST SUB SWAP1 RETURN JUMPDEST PUSH2 0x5F3 JUMP JUMPDEST PUSH1 0x1 DUP1 PUSH1 0xA0 SHL SUB AND SWAP1 JUMP JUMPDEST PUSH2 0x14ED SWAP1 PUSH1 0x8 PUSH2 0x14F2 SWAP4 MUL PUSH2 0x60D JUMP JUMPDEST PUSH2 0x14D2 JUMP JUMPDEST SWAP1 JUMP JUMPDEST SWAP1 PUSH2 0x1500 SWAP2 SLOAD PUSH2 0x14DD JUMP JUMPDEST SWAP1 JUMP JUMPDEST PUSH2 0x150E PUSH1 0x0 DUP1 PUSH2 0x14F5 JUMP JUMPDEST SWAP1 JUMP JUMPDEST PUSH2 0x151A SWAP1 PUSH2 0x6B0 JUMP JUMPDEST SWAP1 MSTORE JUMP JUMPDEST SWAP2 SWAP1 PUSH2 0x1532 SWAP1 PUSH1 0x0 PUSH1 0x20 DUP6 ADD SWAP5 ADD SWAP1 PUSH2 0x1511 JUMP JUMPDEST JUMP JUMPDEST CALLVALUE PUSH2 0x1564 JUMPI PUSH2 0x1544 CALLDATASIZE PUSH1 0x4 PUSH2 0x5FD JUMP JUMPDEST PUSH2 0x1560 PUSH2 0x154F PUSH2 0x1503 JUMP JUMPDEST PUSH2 0x1557 PUSH2 0x5ED JUMP JUMPDEST SWAP2 DUP3 SWAP2 DUP3 PUSH2 0x151E JUMP JUMPDEST SUB SWAP1 RETURN JUMPDEST PUSH2 0x5F3 JUMP JUMPDEST PUSH2 0x1576 PUSH1 0x2 PUSH1 0x0 SWAP1 PUSH2 0x62C JUMP JUMPDEST SWAP1 JUMP JUMPDEST CALLVALUE PUSH2 0x15A9 JUMPI PUSH2 0x1589 CALLDATASIZE PUSH1 0x4 PUSH2 0x5FD JUMP JUMPDEST PUSH2 0x15A5 PUSH2 0x1594 PUSH2 0x1569 JUMP JUMPDEST PUSH2 0x159C PUSH2 0x5ED JUMP JUMPDEST SWAP2 DUP3 SWAP2 DUP3 PUSH2 0x65A JUMP JUMPDEST SUB SWAP1 RETURN JUMPDEST PUSH2 0x5F3 JUMP JUMPDEST CALLVALUE PUSH2 0x15DC JUMPI PUSH2 0x15C6 PUSH2 0x15C1 CALLDATASIZE PUSH1 0x4 PUSH2 0x6E0 JUMP JUMPDEST PUSH2 0x2E67 JUMP JUMPDEST PUSH2 0x15CE PUSH2 0x5ED JUMP JUMPDEST DUP1 PUSH2 0x15D8 DUP2 PUSH2 0xB93 JUMP JUMPDEST SUB SWAP1 RETURN JUMPDEST PUSH2 0x5F3 JUMP JUMPDEST PUSH2 0x15EE PUSH1 0x1F PUSH1 0x0 SWAP1 PUSH2 0x62C JUMP JUMPDEST SWAP1 JUMP JUMPDEST CALLVALUE PUSH2 0x1621 JUMPI PUSH2 0x1601 CALLDATASIZE PUSH1 0x4 PUSH2 0x5FD JUMP JUMPDEST PUSH2 0x161D PUSH2 0x160C PUSH2 0x15E1 JUMP JUMPDEST PUSH2 0x1614 PUSH2 0x5ED JUMP JUMPDEST SWAP2 DUP3 SWAP2 DUP3 PUSH2 0x65A JUMP JUMPDEST SUB SWAP1 RETURN JUMPDEST PUSH2 0x5F3 JUMP JUMPDEST PUSH2 0x1633 PUSH1 0x4 PUSH1 0x0 SWAP1 PUSH2 0x62C JUMP JUMPDEST SWAP1 JUMP JUMPDEST CALLVALUE PUSH2 0x1666 JUMPI PUSH2 0x1646 CALLDATASIZE PUSH1 0x4 PUSH2 0x5FD JUMP JUMPDEST PUSH2 0x1662 PUSH2 0x1651 PUSH2 0x1626 JUMP JUMPDEST PUSH2 0x1659 PUSH2 0x5ED JUMP JUMPDEST SWAP2 DUP3 SWAP2 DUP3 PUSH2 0x65A JUMP JUMPDEST SUB SWAP1 RETURN JUMPDEST PUSH2 0x5F3 JUMP JUMPDEST PUSH2 0x1678 PUSH1 0x13 PUSH1 0x0 SWAP1 PUSH2 0x62C JUMP JUMPDEST SWAP1 JUMP JUMPDEST CALLVALUE PUSH2 0x16AB JUMPI PUSH2 0x168B CALLDATASIZE PUSH1 0x4 PUSH2 0x5FD JUMP JUMPDEST PUSH2 0x16A7 PUSH2 0x1696 PUSH2 0x166B JUMP JUMPDEST PUSH2 0x169E PUSH2 0x5ED JUMP JUMPDEST SWAP2 DUP3 SWAP2 DUP3 PUSH2 0x65A JUMP JUMPDEST SUB SWAP1 RETURN JUMPDEST PUSH2 0x5F3 JUMP JUMPDEST PUSH2 0x16BD PUSH1 0x7 PUSH1 0x0 SWAP1 PUSH2 0x62C JUMP JUMPDEST SWAP1 JUMP JUMPDEST CALLVALUE PUSH2 0x16F0 JUMPI PUSH2 0x16D0 CALLDATASIZE PUSH1 0x4 PUSH2 0x5FD JUMP JUMPDEST PUSH2 0x16EC PUSH2 0x16DB PUSH2 0x16B0 JUMP JUMPDEST PUSH2 0x16E3 PUSH2 0x5ED JUMP JUMPDEST SWAP2 DUP3 SWAP2 DUP3 PUSH2 0x65A JUMP JUMPDEST SUB SWAP1 RETURN JUMPDEST PUSH2 0x5F3 JUMP JUMPDEST PUSH2 0x1702 PUSH1 0x2E PUSH1 0x0 SWAP1 PUSH2 0x62C JUMP JUMPDEST SWAP1 JUMP JUMPDEST CALLVALUE PUSH2 0x1735 JUMPI PUSH2 0x1715 CALLDATASIZE PUSH1 0x4 PUSH2 0x5FD JUMP JUMPDEST PUSH2 0x1731 PUSH2 0x1720 PUSH2 0x16F5 JUMP JUMPDEST PUSH2 0x1728 PUSH2 0x5ED JUMP JUMPDEST SWAP2 DUP3 SWAP2 DUP3 PUSH2 0x65A JUMP JUMPDEST SUB SWAP1 RETURN JUMPDEST PUSH2 0x5F3 JUMP JUMPDEST PUSH2 0x1747 PUSH1 0x2F PUSH1 0x0 SWAP1 PUSH2 0x62C JUMP JUMPDEST SWAP1 JUMP JUMPDEST CALLVALUE PUSH2 0x177A JUMPI PUSH2 0x175A CALLDATASIZE PUSH1 0x4 PUSH2 0x5FD JUMP JUMPDEST PUSH2 0x1776 PUSH2 0x1765 PUSH2 0x173A JUMP JUMPDEST PUSH2 0x176D PUSH2 0x5ED JUMP JUMPDEST SWAP2 DUP3 SWAP2 DUP3 PUSH2 0x65A JUMP JUMPDEST SUB SWAP1 RETURN JUMPDEST PUSH2 0x5F3 JUMP JUMPDEST PUSH2 0x178C PUSH1 0x10 PUSH1 0x0 SWAP1 PUSH2 0x62C JUMP JUMPDEST SWAP1 JUMP JUMPDEST CALLVALUE PUSH2 0x17BF JUMPI PUSH2 0x179F CALLDATASIZE PUSH1 0x4 PUSH2 0x5FD JUMP JUMPDEST PUSH2 0x17BB PUSH2 0x17AA PUSH2 0x177F JUMP JUMPDEST PUSH2 0x17B2 PUSH2 0x5ED JUMP JUMPDEST SWAP2 DUP3 SWAP2 DUP3 PUSH2 0x65A JUMP JUMPDEST SUB SWAP1 RETURN JUMPDEST PUSH2 0x5F3 JUMP JUMPDEST PUSH2 0x17DB SWAP1 PUSH2 0x17D6 PUSH1 0x49 SWAP2 PUSH1 0x0 SWAP3 PUSH2 0x736 JUMP JUMPDEST PUSH2 0x62C JUMP JUMPDEST SWAP1 JUMP JUMPDEST CALLVALUE PUSH2 0x180E JUMPI PUSH2 0x180A PUSH2 0x17F9 PUSH2 0x17F4 CALLDATASIZE PUSH1 0x4 PUSH2 0x6E0 JUMP JUMPDEST PUSH2 0x17C4 JUMP JUMPDEST PUSH2 0x1801 PUSH2 0x5ED JUMP JUMPDEST SWAP2 DUP3 SWAP2 DUP3 PUSH2 0x65A JUMP JUMPDEST SUB SWAP1 RETURN JUMPDEST PUSH2 0x5F3 JUMP JUMPDEST PUSH2 0x182A SWAP1 PUSH2 0x1825 PUSH1 0x3C SWAP2 PUSH1 0x0 SWAP3 PUSH2 0x736 JUMP JUMPDEST PUSH2 0x62C JUMP JUMPDEST SWAP1 JUMP JUMPDEST CALLVALUE PUSH2 0x185D JUMPI PUSH2 0x1859 PUSH2 0x1848 PUSH2 0x1843 CALLDATASIZE PUSH1 0x4 PUSH2 0x6E0 JUMP JUMPDEST PUSH2 0x1813 JUMP JUMPDEST PUSH2 0x1850 PUSH2 0x5ED JUMP JUMPDEST SWAP2 DUP3 SWAP2 DUP3 PUSH2 0x65A JUMP JUMPDEST SUB SWAP1 RETURN JUMPDEST PUSH2 0x5F3 JUMP JUMPDEST CALLVALUE PUSH2 0x1890 JUMPI PUSH2 0x187A PUSH2 0x1875 CALLDATASIZE PUSH1 0x4 PUSH2 0x6E0 JUMP JUMPDEST PUSH2 0x2EDD JUMP JUMPDEST PUSH2 0x1882 PUSH2 0x5ED JUMP JUMPDEST DUP1 PUSH2 0x188C DUP2 PUSH2 0xB93 JUMP JUMPDEST SUB SWAP1 RETURN JUMPDEST PUSH2 0x5F3 JUMP JUMPDEST PUSH2 0x18A2 PUSH1 0x1B PUSH1 0x0 SWAP1 PUSH2 0x62C JUMP JUMPDEST SWAP1 JUMP JUMPDEST CALLVALUE PUSH2 0x18D5 JUMPI PUSH2 0x18B5 CALLDATASIZE PUSH1 0x4 PUSH2 0x5FD JUMP JUMPDEST PUSH2 0x18D1 PUSH2 0x18C0 PUSH2 0x1895 JUMP JUMPDEST PUSH2 0x18C8 PUSH2 0x5ED JUMP JUMPDEST SWAP2 DUP3 SWAP2 DUP3 PUSH2 0x65A JUMP JUMPDEST SUB SWAP1 RETURN JUMPDEST PUSH2 0x5F3 JUMP JUMPDEST PUSH2 0x18E7 PUSH1 0xF PUSH1 0x0 SWAP1 PUSH2 0x62C JUMP JUMPDEST SWAP1 JUMP JUMPDEST CALLVALUE PUSH2 0x191A JUMPI PUSH2 0x18FA CALLDATASIZE PUSH1 0x4 PUSH2 0x5FD JUMP JUMPDEST PUSH2 0x1916 PUSH2 0x1905 PUSH2 0x18DA JUMP JUMPDEST PUSH2 0x190D PUSH2 0x5ED JUMP JUMPDEST SWAP2 DUP3 SWAP2 DUP3 PUSH2 0x65A JUMP JUMPDEST SUB SWAP1 RETURN JUMPDEST PUSH2 0x5F3 JUMP JUMPDEST PUSH1 0x1F DUP1 NOT SWAP2 ADD AND SWAP1 JUMP JUMPDEST PUSH4 0x4E487B71 PUSH1 0xE0 SHL PUSH1 0x0 MSTORE PUSH1 0x41 PUSH1 0x4 MSTORE PUSH1 0x24 PUSH1 0x0 REVERT JUMPDEST SWAP1 PUSH2 0x1949 SWAP1 PUSH2 0x191F JUMP JUMPDEST DUP2 ADD SWAP1 DUP2 LT PUSH8 0xFFFFFFFFFFFFFFFF DUP3 GT OR PUSH2 0x1963 JUMPI PUSH1 0x40 MSTORE JUMP JUMPDEST PUSH2 0x1929 JUMP JUMPDEST SWAP1 PUSH2 0x197B PUSH2 0x1974 PUSH2 0x5ED JUMP JUMPDEST SWAP3 DUP4 PUSH2 0x193F JUMP JUMPDEST JUMP JUMPDEST PUSH8 0xFFFFFFFFFFFFFFFF DUP2 GT PUSH2 0x199B JUMPI PUSH2 0x1997 PUSH1 0x20 SWAP2 PUSH2 0x191F JUMP JUMPDEST ADD SWAP1 JUMP JUMPDEST PUSH2 0x1929 JUMP JUMPDEST SWAP1 PUSH2 0x19B2 PUSH2 0x19AD DUP4 PUSH2 0x197D JUMP JUMPDEST PUSH2 0x1968 JUMP JUMPDEST SWAP2 DUP3 MSTORE JUMP JUMPDEST PUSH1 0x0 PUSH32 0x57654C61756E63682E66756E6473000000000000000000000000000000000000 SWAP2 ADD MSTORE JUMP JUMPDEST PUSH2 0x19E9 PUSH1 0xE PUSH2 0x19A0 JUMP JUMPDEST SWAP1 PUSH2 0x19F6 PUSH1 0x20 DUP4 ADD PUSH2 0x19B7 JUMP JUMPDEST JUMP JUMPDEST PUSH2 0x1A00 PUSH2 0x19DF JUMP JUMPDEST SWAP1 JUMP JUMPDEST PUSH2 0x1A0B PUSH2 0x19F8 JUMP JUMPDEST SWAP1 JUMP JUMPDEST PUSH2 0x1A16 PUSH2 0x1A03 JUMP JUMPDEST SWAP1 JUMP JUMPDEST MLOAD SWAP1 JUMP JUMPDEST PUSH1 0x20 SWAP2 DUP2 MSTORE ADD SWAP1 JUMP JUMPDEST PUSH1 0x0 JUMPDEST DUP4 DUP2 LT PUSH2 0x1A3A JUMPI POP POP SWAP1 PUSH1 0x0 SWAP2 ADD MSTORE JUMP JUMPDEST DUP1 PUSH1 0x20 SWAP2 DUP4 ADD MLOAD DUP2 DUP6 ADD MSTORE ADD PUSH2 0x1A29 JUMP JUMPDEST PUSH2 0x1A6A PUSH2 0x1A73 PUSH1 0x20 SWAP4 PUSH2 0x1A78 SWAP4 PUSH2 0x1A61 DUP2 PUSH2 0x1A19 JUMP JUMPDEST SWAP4 DUP5 DUP1 SWAP4 PUSH2 0x1A1D JUMP JUMPDEST SWAP6 DUP7 SWAP2 ADD PUSH2 0x1A26 JUMP JUMPDEST PUSH2 0x191F JUMP JUMPDEST ADD SWAP1 JUMP JUMPDEST PUSH2 0x1A92 SWAP2 PUSH1 0x20 DUP3 ADD SWAP2 PUSH1 0x0 DUP2 DUP5 SUB SWAP2 ADD MSTORE PUSH2 0x1A4B JUMP JUMPDEST SWAP1 JUMP JUMPDEST CALLVALUE PUSH2 0x1AC5 JUMPI PUSH2 0x1AA5 CALLDATASIZE PUSH1 0x4 PUSH2 0x5FD JUMP JUMPDEST PUSH2 0x1AC1 PUSH2 0x1AB0 PUSH2 0x1A0E JUMP JUMPDEST PUSH2 0x1AB8 PUSH2 0x5ED JUMP JUMPDEST SWAP2 DUP3 SWAP2 DUP3 PUSH2 0x1A7C JUMP JUMPDEST SUB SWAP1 RETURN JUMPDEST PUSH2 0x5F3 JUMP JUMPDEST PUSH1 0x1 DUP1 PUSH1 0xA0 SHL SUB AND SWAP1 JUMP JUMPDEST PUSH2 0x1AE5 SWAP1 PUSH1 0x8 PUSH2 0x1AEA SWAP4 MUL PUSH2 0x60D JUMP JUMPDEST PUSH2 0x1ACA JUMP JUMPDEST SWAP1 JUMP JUMPDEST SWAP1 PUSH2 0x1AF8 SWAP2 SLOAD PUSH2 0x1AD5 JUMP JUMPDEST SWAP1 JUMP JUMPDEST PUSH2 0x1B08 PUSH1 0xC PUSH1 0x0 SWAP1 PUSH2 0x1AED JUMP JUMPDEST SWAP1 JUMP JUMPDEST PUSH2 0x1B14 SWAP1 PUSH2 0x6A5 JUMP JUMPDEST SWAP1 JUMP JUMPDEST PUSH2 0x1B20 SWAP1 PUSH2 0x1B0B JUMP JUMPDEST SWAP1 MSTORE JUMP JUMPDEST SWAP2 SWAP1 PUSH2 0x1B38 SWAP1 PUSH1 0x0 PUSH1 0x20 DUP6 ADD SWAP5 ADD SWAP1 PUSH2 0x1B17 JUMP JUMPDEST JUMP JUMPDEST CALLVALUE PUSH2 0x1B6A JUMPI PUSH2 0x1B4A CALLDATASIZE PUSH1 0x4 PUSH2 0x5FD JUMP JUMPDEST PUSH2 0x1B66 PUSH2 0x1B55 PUSH2 0x1AFB JUMP JUMPDEST PUSH2 0x1B5D PUSH2 0x5ED JUMP JUMPDEST SWAP2 DUP3 SWAP2 DUP3 PUSH2 0x1B24 JUMP JUMPDEST SUB SWAP1 RETURN JUMPDEST PUSH2 0x5F3 JUMP JUMPDEST CALLVALUE PUSH2 0x1B9F JUMPI PUSH2 0x1B9B PUSH2 0x1B8A PUSH2 0x1B85 CALLDATASIZE PUSH1 0x4 PUSH2 0x6E0 JUMP JUMPDEST PUSH2 0x2EE8 JUMP JUMPDEST PUSH2 0x1B92 PUSH2 0x5ED JUMP JUMPDEST SWAP2 DUP3 SWAP2 DUP3 PUSH2 0x7AF JUMP JUMPDEST SUB SWAP1 RETURN JUMPDEST PUSH2 0x5F3 JUMP JUMPDEST CALLVALUE PUSH2 0x1BD2 JUMPI PUSH2 0x1BBC PUSH2 0x1BB7 CALLDATASIZE PUSH1 0x4 PUSH2 0x6E0 JUMP JUMPDEST PUSH2 0x2FDE JUMP JUMPDEST PUSH2 0x1BC4 PUSH2 0x5ED JUMP JUMPDEST DUP1 PUSH2 0x1BCE DUP2 PUSH2 0xB93 JUMP JUMPDEST SUB SWAP1 RETURN JUMPDEST PUSH2 0x5F3 JUMP JUMPDEST PUSH2 0x1BE4 PUSH1 0x1E PUSH1 0x0 SWAP1 PUSH2 0x62C JUMP JUMPDEST SWAP1 JUMP JUMPDEST CALLVALUE PUSH2 0x1C17 JUMPI PUSH2 0x1BF7 CALLDATASIZE PUSH1 0x4 PUSH2 0x5FD JUMP JUMPDEST PUSH2 0x1C13 PUSH2 0x1C02 PUSH2 0x1BD7 JUMP JUMPDEST PUSH2 0x1C0A PUSH2 0x5ED JUMP JUMPDEST SWAP2 DUP3 SWAP2 DUP3 PUSH2 0x65A JUMP JUMPDEST SUB SWAP1 RETURN JUMPDEST PUSH2 0x5F3 JUMP JUMPDEST PUSH2 0x1C29 PUSH1 0x11 PUSH1 0x0 SWAP1 PUSH2 0x62C JUMP JUMPDEST SWAP1 JUMP JUMPDEST CALLVALUE PUSH2 0x1C5C JUMPI PUSH2 0x1C3C CALLDATASIZE PUSH1 0x4 PUSH2 0x5FD JUMP JUMPDEST PUSH2 0x1C58 PUSH2 0x1C47 PUSH2 0x1C1C JUMP JUMPDEST PUSH2 0x1C4F PUSH2 0x5ED JUMP JUMPDEST SWAP2 DUP3 SWAP2 DUP3 PUSH2 0x65A JUMP JUMPDEST SUB SWAP1 RETURN JUMPDEST PUSH2 0x5F3 JUMP JUMPDEST CALLVALUE PUSH2 0x1C8F JUMPI PUSH2 0x1C79 PUSH2 0x1C74 CALLDATASIZE PUSH1 0x4 PUSH2 0x6E0 JUMP JUMPDEST PUSH2 0x3054 JUMP JUMPDEST PUSH2 0x1C81 PUSH2 0x5ED JUMP JUMPDEST DUP1 PUSH2 0x1C8B DUP2 PUSH2 0xB93 JUMP JUMPDEST SUB SWAP1 RETURN JUMPDEST PUSH2 0x5F3 JUMP JUMPDEST PUSH2 0x1CA1 PUSH1 0x5 PUSH1 0x0 SWAP1 PUSH2 0x62C JUMP JUMPDEST SWAP1 JUMP JUMPDEST CALLVALUE PUSH2 0x1CD4 JUMPI PUSH2 0x1CB4 CALLDATASIZE PUSH1 0x4 PUSH2 0x5FD JUMP JUMPDEST PUSH2 0x1CD0 PUSH2 0x1CBF PUSH2 0x1C94 JUMP JUMPDEST PUSH2 0x1CC7 PUSH2 0x5ED JUMP JUMPDEST SWAP2 DUP3 SWAP2 DUP3 PUSH2 0x65A JUMP JUMPDEST SUB SWAP1 RETURN JUMPDEST PUSH2 0x5F3 JUMP JUMPDEST CALLVALUE PUSH2 0x1D09 JUMPI PUSH2 0x1D05 PUSH2 0x1CF4 PUSH2 0x1CEF CALLDATASIZE PUSH1 0x4 PUSH2 0x6E0 JUMP JUMPDEST PUSH2 0x305F JUMP JUMPDEST PUSH2 0x1CFC PUSH2 0x5ED JUMP JUMPDEST SWAP2 DUP3 SWAP2 DUP3 PUSH2 0x7AF JUMP JUMPDEST SUB SWAP1 RETURN JUMPDEST PUSH2 0x5F3 JUMP JUMPDEST PUSH2 0x1D1B PUSH1 0x21 PUSH1 0x0 SWAP1 PUSH2 0x62C JUMP JUMPDEST SWAP1 JUMP JUMPDEST CALLVALUE PUSH2 0x1D4E JUMPI PUSH2 0x1D2E CALLDATASIZE PUSH1 0x4 PUSH2 0x5FD JUMP JUMPDEST PUSH2 0x1D4A PUSH2 0x1D39 PUSH2 0x1D0E JUMP JUMPDEST PUSH2 0x1D41 PUSH2 0x5ED JUMP JUMPDEST SWAP2 DUP3 SWAP2 DUP3 PUSH2 0x65A JUMP JUMPDEST SUB SWAP1 RETURN JUMPDEST PUSH2 0x5F3 JUMP JUMPDEST PUSH2 0x1D60 PUSH1 0x12 PUSH1 0x0 SWAP1 PUSH2 0x62C JUMP JUMPDEST SWAP1 JUMP JUMPDEST CALLVALUE PUSH2 0x1D93 JUMPI PUSH2 0x1D73 CALLDATASIZE PUSH1 0x4 PUSH2 0x5FD JUMP JUMPDEST PUSH2 0x1D8F PUSH2 0x1D7E PUSH2 0x1D53 JUMP JUMPDEST PUSH2 0x1D86 PUSH2 0x5ED JUMP JUMPDEST SWAP2 DUP3 SWAP2 DUP3 PUSH2 0x65A JUMP JUMPDEST SUB SWAP1 RETURN JUMPDEST PUSH2 0x5F3 JUMP JUMPDEST CALLVALUE PUSH2 0x1DC8 JUMPI PUSH2 0x1DC4 PUSH2 0x1DB3 PUSH2 0x1DAE CALLDATASIZE PUSH1 0x4 PUSH2 0x6E0 JUMP JUMPDEST PUSH2 0x30EA JUMP JUMPDEST PUSH2 0x1DBB PUSH2 0x5ED JUMP JUMPDEST SWAP2 DUP3 SWAP2 DUP3 PUSH2 0x7AF JUMP JUMPDEST SUB SWAP1 RETURN JUMPDEST PUSH2 0x5F3 JUMP JUMPDEST PUSH2 0x1DDA PUSH1 0x2B PUSH1 0x0 SWAP1 PUSH2 0x62C JUMP JUMPDEST SWAP1 JUMP JUMPDEST CALLVALUE PUSH2 0x1E0D JUMPI PUSH2 0x1DED CALLDATASIZE PUSH1 0x4 PUSH2 0x5FD JUMP JUMPDEST PUSH2 0x1E09 PUSH2 0x1DF8 PUSH2 0x1DCD JUMP JUMPDEST PUSH2 0x1E00 PUSH2 0x5ED JUMP JUMPDEST SWAP2 DUP3 SWAP2 DUP3 PUSH2 0x65A JUMP JUMPDEST SUB SWAP1 RETURN JUMPDEST PUSH2 0x5F3 JUMP JUMPDEST PUSH2 0x1E1F PUSH1 0x30 PUSH1 0x0 SWAP1 PUSH2 0x62C JUMP JUMPDEST SWAP1 JUMP JUMPDEST CALLVALUE PUSH2 0x1E52 JUMPI PUSH2 0x1E32 CALLDATASIZE PUSH1 0x4 PUSH2 0x5FD JUMP JUMPDEST PUSH2 0x1E4E PUSH2 0x1E3D PUSH2 0x1E12 JUMP JUMPDEST PUSH2 0x1E45 PUSH2 0x5ED JUMP JUMPDEST SWAP2 DUP3 SWAP2 DUP3 PUSH2 0x65A JUMP JUMPDEST SUB SWAP1 RETURN JUMPDEST PUSH2 0x5F3 JUMP JUMPDEST PUSH2 0x1E64 PUSH1 0x2D PUSH1 0x0 SWAP1 PUSH2 0x62C JUMP JUMPDEST SWAP1 JUMP JUMPDEST CALLVALUE PUSH2 0x1E97 JUMPI PUSH2 0x1E77 CALLDATASIZE PUSH1 0x4 PUSH2 0x5FD JUMP JUMPDEST PUSH2 0x1E93 PUSH2 0x1E82 PUSH2 0x1E57 JUMP JUMPDEST PUSH2 0x1E8A PUSH2 0x5ED JUMP JUMPDEST SWAP2 DUP3 SWAP2 DUP3 PUSH2 0x65A JUMP JUMPDEST SUB SWAP1 RETURN JUMPDEST PUSH2 0x5F3 JUMP JUMPDEST PUSH2 0x1EA9 PUSH1 0x16 PUSH1 0x0 SWAP1 PUSH2 0x62C JUMP JUMPDEST SWAP1 JUMP JUMPDEST CALLVALUE PUSH2 0x1EDC JUMPI PUSH2 0x1EBC CALLDATASIZE PUSH1 0x4 PUSH2 0x5FD JUMP JUMPDEST PUSH2 0x1ED8 PUSH2 0x1EC7 PUSH2 0x1E9C JUMP JUMPDEST PUSH2 0x1ECF PUSH2 0x5ED JUMP JUMPDEST SWAP2 DUP3 SWAP2 DUP3 PUSH2 0x65A JUMP JUMPDEST SUB SWAP1 RETURN JUMPDEST PUSH2 0x5F3 JUMP JUMPDEST PUSH2 0x1EF8 SWAP1 PUSH2 0x1EF3 PUSH1 0x3D SWAP2 PUSH1 0x0 SWAP3 PUSH2 0x736 JUMP JUMPDEST PUSH2 0x62C JUMP JUMPDEST SWAP1 JUMP JUMPDEST CALLVALUE PUSH2 0x1F2B JUMPI PUSH2 0x1F27 PUSH2 0x1F16 PUSH2 0x1F11 CALLDATASIZE PUSH1 0x4 PUSH2 0x6E0 JUMP JUMPDEST PUSH2 0x1EE1 JUMP JUMPDEST PUSH2 0x1F1E PUSH2 0x5ED JUMP JUMPDEST SWAP2 DUP3 SWAP2 DUP3 PUSH2 0x65A JUMP JUMPDEST SUB SWAP1 RETURN JUMPDEST PUSH2 0x5F3 JUMP JUMPDEST PUSH2 0x1F3D PUSH1 0x20 PUSH1 0x0 SWAP1 PUSH2 0x62C JUMP JUMPDEST SWAP1 JUMP JUMPDEST CALLVALUE PUSH2 0x1F70 JUMPI PUSH2 0x1F50 CALLDATASIZE PUSH1 0x4 PUSH2 0x5FD JUMP JUMPDEST PUSH2 0x1F6C PUSH2 0x1F5B PUSH2 0x1F30 JUMP JUMPDEST PUSH2 0x1F63 PUSH2 0x5ED JUMP JUMPDEST SWAP2 DUP3 SWAP2 DUP3 PUSH2 0x65A JUMP JUMPDEST SUB SWAP1 RETURN JUMPDEST PUSH2 0x5F3 JUMP JUMPDEST PUSH32 0x0 SWAP1 JUMP JUMPDEST CALLVALUE PUSH2 0x1FC9 JUMPI PUSH2 0x1FA9 CALLDATASIZE PUSH1 0x4 PUSH2 0x5FD JUMP JUMPDEST PUSH2 0x1FC5 PUSH2 0x1FB4 PUSH2 0x1F75 JUMP JUMPDEST PUSH2 0x1FBC PUSH2 0x5ED JUMP JUMPDEST SWAP2 DUP3 SWAP2 DUP3 PUSH2 0x65A JUMP JUMPDEST SUB SWAP1 RETURN JUMPDEST PUSH2 0x5F3 JUMP JUMPDEST PUSH2 0x1FDB PUSH1 0x9 PUSH1 0x0 SWAP1 PUSH2 0x62C JUMP JUMPDEST SWAP1 JUMP JUMPDEST CALLVALUE PUSH2 0x200E JUMPI PUSH2 0x1FEE CALLDATASIZE PUSH1 0x4 PUSH2 0x5FD JUMP JUMPDEST PUSH2 0x200A PUSH2 0x1FF9 PUSH2 0x1FCE JUMP JUMPDEST PUSH2 0x2001 PUSH2 0x5ED JUMP JUMPDEST SWAP2 DUP3 SWAP2 DUP3 PUSH2 0x65A JUMP JUMPDEST SUB SWAP1 RETURN JUMPDEST PUSH2 0x5F3 JUMP JUMPDEST PUSH2 0x2020 PUSH1 0x17 PUSH1 0x0 SWAP1 PUSH2 0x62C JUMP JUMPDEST SWAP1 JUMP JUMPDEST CALLVALUE PUSH2 0x2053 JUMPI PUSH2 0x2033 CALLDATASIZE PUSH1 0x4 PUSH2 0x5FD JUMP JUMPDEST PUSH2 0x204F PUSH2 0x203E PUSH2 0x2013 JUMP JUMPDEST PUSH2 0x2046 PUSH2 0x5ED JUMP JUMPDEST SWAP2 DUP3 SWAP2 DUP3 PUSH2 0x65A JUMP JUMPDEST SUB SWAP1 RETURN JUMPDEST PUSH2 0x5F3 JUMP JUMPDEST CALLVALUE PUSH2 0x2086 JUMPI PUSH2 0x2070 PUSH2 0x206B CALLDATASIZE PUSH1 0x4 PUSH2 0x6E0 JUMP JUMPDEST PUSH2 0x3267 JUMP JUMPDEST PUSH2 0x2078 PUSH2 0x5ED JUMP JUMPDEST DUP1 PUSH2 0x2082 DUP2 PUSH2 0xB93 JUMP JUMPDEST SUB SWAP1 RETURN JUMPDEST PUSH2 0x5F3 JUMP JUMPDEST PUSH2 0x2098 PUSH1 0x1D PUSH1 0x0 SWAP1 PUSH2 0x62C JUMP JUMPDEST SWAP1 JUMP JUMPDEST CALLVALUE PUSH2 0x20CB JUMPI PUSH2 0x20AB CALLDATASIZE PUSH1 0x4 PUSH2 0x5FD JUMP JUMPDEST PUSH2 0x20C7 PUSH2 0x20B6 PUSH2 0x208B JUMP JUMPDEST PUSH2 0x20BE PUSH2 0x5ED JUMP JUMPDEST SWAP2 DUP3 SWAP2 DUP3 PUSH2 0x65A JUMP JUMPDEST SUB SWAP1 RETURN JUMPDEST PUSH2 0x5F3 JUMP JUMPDEST CALLVALUE PUSH2 0x2100 JUMPI PUSH2 0x20FC PUSH2 0x20EB PUSH2 0x20E6 CALLDATASIZE PUSH1 0x4 PUSH2 0x6E0 JUMP JUMPDEST PUSH2 0x3272 JUMP JUMPDEST PUSH2 0x20F3 PUSH2 0x5ED JUMP JUMPDEST SWAP2 DUP3 SWAP2 DUP3 PUSH2 0x7AF JUMP JUMPDEST SUB SWAP1 RETURN JUMPDEST PUSH2 0x5F3 JUMP JUMPDEST CALLVALUE PUSH2 0x2135 JUMPI PUSH2 0x2131 PUSH2 0x2120 PUSH2 0x211B CALLDATASIZE PUSH1 0x4 PUSH2 0x6E0 JUMP JUMPDEST PUSH2 0x32FD JUMP JUMPDEST PUSH2 0x2128 PUSH2 0x5ED JUMP JUMPDEST SWAP2 DUP3 SWAP2 DUP3 PUSH2 0x7AF JUMP JUMPDEST SUB SWAP1 RETURN JUMPDEST PUSH2 0x5F3 JUMP JUMPDEST PUSH2 0x2147 PUSH1 0x15 PUSH1 0x0 SWAP1 PUSH2 0x62C JUMP JUMPDEST SWAP1 JUMP JUMPDEST CALLVALUE PUSH2 0x217A JUMPI PUSH2 0x215A CALLDATASIZE PUSH1 0x4 PUSH2 0x5FD JUMP JUMPDEST PUSH2 0x2176 PUSH2 0x2165 PUSH2 0x213A JUMP JUMPDEST PUSH2 0x216D PUSH2 0x5ED JUMP JUMPDEST SWAP2 DUP3 SWAP2 DUP3 PUSH2 0x65A JUMP JUMPDEST SUB SWAP1 RETURN JUMPDEST PUSH2 0x5F3 JUMP JUMPDEST PUSH2 0x2196 SWAP1 PUSH2 0x2191 PUSH1 0x47 SWAP2 PUSH1 0x0 SWAP3 PUSH2 0x736 JUMP JUMPDEST PUSH2 0x62C JUMP JUMPDEST SWAP1 JUMP JUMPDEST CALLVALUE PUSH2 0x21C9 JUMPI PUSH2 0x21C5 PUSH2 0x21B4 PUSH2 0x21AF CALLDATASIZE PUSH1 0x4 PUSH2 0x6E0 JUMP JUMPDEST PUSH2 0x217F JUMP JUMPDEST PUSH2 0x21BC PUSH2 0x5ED JUMP JUMPDEST SWAP2 DUP3 SWAP2 DUP3 PUSH2 0x65A JUMP JUMPDEST SUB SWAP1 RETURN JUMPDEST PUSH2 0x5F3 JUMP JUMPDEST PUSH2 0x21E5 SWAP1 PUSH2 0x21E0 PUSH1 0x3A SWAP2 PUSH1 0x0 SWAP3 PUSH2 0x736 JUMP JUMPDEST PUSH2 0x62C JUMP JUMPDEST SWAP1 JUMP JUMPDEST CALLVALUE PUSH2 0x2218 JUMPI PUSH2 0x2214 PUSH2 0x2203 PUSH2 0x21FE CALLDATASIZE PUSH1 0x4 PUSH2 0x6E0 JUMP JUMPDEST PUSH2 0x21CE JUMP JUMPDEST PUSH2 0x220B PUSH2 0x5ED JUMP JUMPDEST SWAP2 DUP3 SWAP2 DUP3 PUSH2 0x65A JUMP JUMPDEST SUB SWAP1 RETURN JUMPDEST PUSH2 0x5F3 JUMP JUMPDEST PUSH2 0x2234 SWAP1 PUSH2 0x222F PUSH1 0x40 SWAP2 PUSH1 0x0 SWAP3 PUSH2 0x736 JUMP JUMPDEST PUSH2 0x62C JUMP JUMPDEST SWAP1 JUMP JUMPDEST CALLVALUE PUSH2 0x2267 JUMPI PUSH2 0x2263 PUSH2 0x2252 PUSH2 0x224D CALLDATASIZE PUSH1 0x4 PUSH2 0x6E0 JUMP JUMPDEST PUSH2 0x221D JUMP JUMPDEST PUSH2 0x225A PUSH2 0x5ED JUMP JUMPDEST SWAP2 DUP3 SWAP2 DUP3 PUSH2 0x65A JUMP JUMPDEST SUB SWAP1 RETURN JUMPDEST PUSH2 0x5F3 JUMP JUMPDEST PUSH1 0x0 DUP1 REVERT JUMPDEST PUSH1 0x0 SWAP1 JUMP JUMPDEST PUSH1 0x0 SWAP1 JUMP JUMPDEST SLOAD SWAP1 JUMP JUMPDEST SWAP1 JUMP JUMPDEST PUSH2 0x2296 PUSH2 0x2291 PUSH2 0x229B SWAP3 PUSH2 0x227F JUMP JUMPDEST PUSH2 0x6FF JUMP JUMPDEST PUSH2 0x64A JUMP JUMPDEST SWAP1 JUMP JUMPDEST PUSH1 0x1 PUSH2 0x22AA SWAP2 ADD PUSH2 0x64A JUMP JUMPDEST SWAP1 JUMP JUMPDEST PUSH4 0x4E487B71 PUSH1 0xE0 SHL PUSH1 0x0 MSTORE PUSH1 0x32 PUSH1 0x4 MSTORE PUSH1 0x24 PUSH1 0x0 REVERT JUMPDEST PUSH1 0x0 MSTORE PUSH1 0x20 PUSH1 0x0 KECCAK256 SWAP1 JUMP JUMPDEST PUSH2 0x22D7 DUP2 PUSH2 0x227B JUMP JUMPDEST DUP3 LT ISZERO PUSH2 0x22F2 JUMPI PUSH2 0x22E9 PUSH1 0x1 SWAP2 PUSH2 0x22C3 JUMP JUMPDEST SWAP2 MUL ADD SWAP1 PUSH1 0x0 SWAP1 JUMP JUMPDEST PUSH2 0x22AD JUMP JUMPDEST PUSH2 0x22FF PUSH2 0x2271 JUMP JUMPDEST POP PUSH2 0x2308 PUSH2 0x2276 JUMP JUMPDEST POP PUSH2 0x2313 PUSH1 0x38 PUSH2 0x227B JUMP JUMPDEST SWAP1 PUSH2 0x231E PUSH1 0x0 PUSH2 0x2282 JUMP JUMPDEST JUMPDEST DUP1 PUSH2 0x2332 PUSH2 0x232C DUP6 PUSH2 0x64A JUMP JUMPDEST SWAP2 PUSH2 0x64A JUMP JUMPDEST LT ISZERO PUSH2 0x237A JUMPI PUSH2 0x234D PUSH2 0x2347 PUSH1 0x38 DUP4 SWAP1 PUSH2 0x22CE JUMP JUMPDEST SWAP1 PUSH2 0x14F5 JUMP JUMPDEST PUSH2 0x235F PUSH2 0x2359 DUP5 PUSH2 0x6B0 JUMP JUMPDEST SWAP2 PUSH2 0x6B0 JUMP JUMPDEST EQ PUSH2 0x2372 JUMPI PUSH2 0x236D SWAP1 PUSH2 0x229E JUMP JUMPDEST PUSH2 0x231F JUMP JUMPDEST POP POP POP PUSH1 0x1 SWAP1 JUMP JUMPDEST POP POP POP PUSH1 0x0 SWAP1 JUMP JUMPDEST PUSH1 0x0 SHR SWAP1 JUMP JUMPDEST PUSH2 0x2394 PUSH2 0x2399 SWAP2 PUSH2 0x2382 JUMP JUMPDEST PUSH2 0x14D2 JUMP JUMPDEST SWAP1 JUMP JUMPDEST PUSH2 0x23A6 SWAP1 SLOAD PUSH2 0x2388 JUMP JUMPDEST SWAP1 JUMP JUMPDEST ISZERO PUSH2 0x23B0 JUMPI JUMP JUMPDEST PUSH1 0x0 DUP1 REVERT JUMPDEST SWAP1 PUSH2 0x23EB SWAP9 SWAP8 SWAP7 SWAP6 SWAP5 SWAP4 SWAP3 SWAP2 PUSH2 0x23E6 CALLER PUSH2 0x23E0 PUSH2 0x23DA PUSH2 0x23D5 PUSH1 0x0 PUSH2 0x239C JUMP JUMPDEST PUSH2 0x6B0 JUMP JUMPDEST SWAP2 PUSH2 0x6B0 JUMP JUMPDEST EQ PUSH2 0x23A9 JUMP JUMPDEST PUSH2 0x24B8 JUMP JUMPDEST JUMP JUMPDEST PUSH1 0x0 SHL SWAP1 JUMP JUMPDEST SWAP1 PUSH2 0x2400 PUSH1 0x0 NOT SWAP2 PUSH2 0x23ED JUMP JUMPDEST SWAP2 DUP2 NOT AND SWAP2 AND OR SWAP1 JUMP JUMPDEST PUSH2 0x241E PUSH2 0x2419 PUSH2 0x2423 SWAP3 PUSH2 0x64A JUMP JUMPDEST PUSH2 0x6FF JUMP JUMPDEST PUSH2 0x64A JUMP JUMPDEST SWAP1 JUMP JUMPDEST SWAP1 JUMP JUMPDEST SWAP1 PUSH2 0x243E PUSH2 0x2439 PUSH2 0x2445 SWAP3 PUSH2 0x240A JUMP JUMPDEST PUSH2 0x2426 JUMP JUMPDEST DUP3 SLOAD PUSH2 0x23F3 JUMP JUMPDEST SWAP1 SSTORE JUMP JUMPDEST PUSH2 0x2455 PUSH2 0x245A SWAP2 PUSH2 0x2382 JUMP JUMPDEST PUSH2 0x611 JUMP JUMPDEST SWAP1 JUMP JUMPDEST PUSH2 0x2467 SWAP1 SLOAD PUSH2 0x2449 JUMP JUMPDEST SWAP1 JUMP JUMPDEST PUSH4 0x4E487B71 PUSH1 0xE0 SHL PUSH1 0x0 MSTORE PUSH1 0x12 PUSH1 0x4 MSTORE PUSH1 0x24 PUSH1 0x0 REVERT JUMPDEST PUSH4 0x4E487B71 PUSH1 0xE0 SHL PUSH1 0x0 MSTORE PUSH1 0x11 PUSH1 0x4 MSTORE PUSH1 0x24 PUSH1 0x0 REVERT JUMPDEST PUSH2 0x24A2 PUSH2 0x24A8 SWAP2 PUSH2 0x64A JUMP JUMPDEST SWAP2 PUSH2 0x64A JUMP JUMPDEST SWAP1 DUP2 ISZERO PUSH2 0x24B3 JUMPI DIV SWAP1 JUMP JUMPDEST PUSH2 0x246A JUMP JUMPDEST PUSH2 0x250D SWAP5 PUSH2 0x24F8 PUSH2 0x2514 SWAP9 SWAP6 PUSH2 0x24F1 PUSH2 0x2506 SWAP7 PUSH2 0x24EA PUSH2 0x251B SWAP15 SWAP14 SWAP12 SWAP8 PUSH2 0x24E3 PUSH2 0x24FF SWAP9 PUSH1 0xD PUSH2 0x2429 JUMP JUMPDEST PUSH1 0xE PUSH2 0x2429 JUMP JUMPDEST PUSH1 0xF PUSH2 0x2429 JUMP JUMPDEST PUSH1 0x10 PUSH2 0x2429 JUMP JUMPDEST PUSH1 0x11 PUSH2 0x2429 JUMP JUMPDEST PUSH1 0x12 PUSH2 0x2429 JUMP JUMPDEST PUSH1 0x13 PUSH2 0x2429 JUMP JUMPDEST PUSH1 0x14 PUSH2 0x2429 JUMP JUMPDEST PUSH1 0x15 PUSH2 0x2429 JUMP JUMPDEST PUSH2 0x2542 PUSH2 0x253B PUSH2 0x252B PUSH1 0xD PUSH2 0x245D JUMP JUMPDEST PUSH2 0x2535 PUSH1 0x16 PUSH2 0x245D JUMP JUMPDEST SWAP1 PUSH2 0x2496 JUMP JUMPDEST PUSH1 0x1F PUSH2 0x2429 JUMP JUMPDEST PUSH2 0x2569 PUSH2 0x2562 PUSH2 0x2552 PUSH1 0xE PUSH2 0x245D JUMP JUMPDEST PUSH2 0x255C PUSH1 0x17 PUSH2 0x245D JUMP JUMPDEST SWAP1 PUSH2 0x2496 JUMP JUMPDEST PUSH1 0x20 PUSH2 0x2429 JUMP JUMPDEST PUSH2 0x2590 PUSH2 0x2589 PUSH2 0x2579 PUSH1 0xF PUSH2 0x245D JUMP JUMPDEST PUSH2 0x2583 PUSH1 0x18 PUSH2 0x245D JUMP JUMPDEST SWAP1 PUSH2 0x2496 JUMP JUMPDEST PUSH1 0x21 PUSH2 0x2429 JUMP JUMPDEST PUSH2 0x25B7 PUSH2 0x25B0 PUSH2 0x25A0 PUSH1 0x10 PUSH2 0x245D JUMP JUMPDEST PUSH2 0x25AA PUSH1 0x19 PUSH2 0x245D JUMP JUMPDEST SWAP1 PUSH2 0x2496 JUMP JUMPDEST PUSH1 0x22 PUSH2 0x2429 JUMP JUMPDEST PUSH2 0x25DE PUSH2 0x25D7 PUSH2 0x25C7 PUSH1 0x11 PUSH2 0x245D JUMP JUMPDEST PUSH2 0x25D1 PUSH1 0x1A PUSH2 0x245D JUMP JUMPDEST SWAP1 PUSH2 0x2496 JUMP JUMPDEST PUSH1 0x23 PUSH2 0x2429 JUMP JUMPDEST PUSH2 0x2605 PUSH2 0x25FE PUSH2 0x25EE PUSH1 0x12 PUSH2 0x245D JUMP JUMPDEST PUSH2 0x25F8 PUSH1 0x1B PUSH2 0x245D JUMP JUMPDEST SWAP1 PUSH2 0x2496 JUMP JUMPDEST PUSH1 0x24 PUSH2 0x2429 JUMP JUMPDEST PUSH2 0x262C PUSH2 0x2625 PUSH2 0x2615 PUSH1 0x13 PUSH2 0x245D JUMP JUMPDEST PUSH2 0x261F PUSH1 0x1C PUSH2 0x245D JUMP JUMPDEST SWAP1 PUSH2 0x2496 JUMP JUMPDEST PUSH1 0x25 PUSH2 0x2429 JUMP JUMPDEST PUSH2 0x2653 PUSH2 0x264C PUSH2 0x263C PUSH1 0x14 PUSH2 0x245D JUMP JUMPDEST PUSH2 0x2646 PUSH1 0x1D PUSH2 0x245D JUMP JUMPDEST SWAP1 PUSH2 0x2496 JUMP JUMPDEST PUSH1 0x26 PUSH2 0x2429 JUMP JUMPDEST PUSH2 0x267A PUSH2 0x2673 PUSH2 0x2663 PUSH1 0x15 PUSH2 0x245D JUMP JUMPDEST PUSH2 0x266D PUSH1 0x1E PUSH2 0x245D JUMP JUMPDEST SWAP1 PUSH2 0x2496 JUMP JUMPDEST PUSH1 0x27 PUSH2 0x2429 JUMP JUMPDEST JUMP JUMPDEST SWAP1 PUSH2 0x268D SWAP9 SWAP8 SWAP7 SWAP6 SWAP5 SWAP4 SWAP3 SWAP2 PUSH2 0x23B5 JUMP JUMPDEST JUMP JUMPDEST PUSH2 0x2697 PUSH2 0x2271 JUMP JUMPDEST POP PUSH2 0x26A0 PUSH2 0x2276 JUMP JUMPDEST POP PUSH2 0x26AB PUSH1 0x33 PUSH2 0x227B JUMP JUMPDEST SWAP1 PUSH2 0x26B6 PUSH1 0x0 PUSH2 0x2282 JUMP JUMPDEST JUMPDEST DUP1 PUSH2 0x26CA PUSH2 0x26C4 DUP6 PUSH2 0x64A JUMP JUMPDEST SWAP2 PUSH2 0x64A JUMP JUMPDEST LT ISZERO PUSH2 0x2712 JUMPI PUSH2 0x26E5 PUSH2 0x26DF PUSH1 0x33 DUP4 SWAP1 PUSH2 0x22CE JUMP JUMPDEST SWAP1 PUSH2 0x14F5 JUMP JUMPDEST PUSH2 0x26F7 PUSH2 0x26F1 DUP5 PUSH2 0x6B0 JUMP JUMPDEST SWAP2 PUSH2 0x6B0 JUMP JUMPDEST EQ PUSH2 0x270A JUMPI PUSH2 0x2705 SWAP1 PUSH2 0x229E JUMP JUMPDEST PUSH2 0x26B7 JUMP JUMPDEST POP POP POP PUSH1 0x1 SWAP1 JUMP JUMPDEST POP POP POP PUSH1 0x0 SWAP1 JUMP JUMPDEST PUSH2 0x2722 PUSH2 0x2271 JUMP JUMPDEST POP PUSH2 0x272B PUSH2 0x2276 JUMP JUMPDEST POP PUSH2 0x2736 PUSH1 0x37 PUSH2 0x227B JUMP JUMPDEST SWAP1 PUSH2 0x2741 PUSH1 0x0 PUSH2 0x2282 JUMP JUMPDEST JUMPDEST DUP1 PUSH2 0x2755 PUSH2 0x274F DUP6 PUSH2 0x64A JUMP JUMPDEST SWAP2 PUSH2 0x64A JUMP JUMPDEST LT ISZERO PUSH2 0x279D JUMPI PUSH2 0x2770 PUSH2 0x276A PUSH1 0x37 DUP4 SWAP1 PUSH2 0x22CE JUMP JUMPDEST SWAP1 PUSH2 0x14F5 JUMP JUMPDEST PUSH2 0x2782 PUSH2 0x277C DUP5 PUSH2 0x6B0 JUMP JUMPDEST SWAP2 PUSH2 0x6B0 JUMP JUMPDEST EQ PUSH2 0x2795 JUMPI PUSH2 0x2790 SWAP1 PUSH2 0x229E JUMP JUMPDEST PUSH2 0x2742 JUMP JUMPDEST POP POP POP PUSH1 0x1 SWAP1 JUMP JUMPDEST POP POP POP PUSH1 0x0 SWAP1 JUMP JUMPDEST PUSH2 0x27D3 SWAP1 PUSH2 0x27CE CALLER PUSH2 0x27C8 PUSH2 0x27C2 PUSH2 0x27BD PUSH1 0x0 PUSH2 0x239C JUMP JUMPDEST PUSH2 0x6B0 JUMP JUMPDEST SWAP2 PUSH2 0x6B0 JUMP JUMPDEST EQ PUSH2 0x23A9 JUMP JUMPDEST PUSH2 0x2944 JUMP JUMPDEST JUMP JUMPDEST PUSH2 0x27E9 PUSH2 0x27E4 PUSH2 0x27EE SWAP3 PUSH2 0x227F JUMP JUMPDEST PUSH2 0x6FF JUMP JUMPDEST PUSH2 0x6A5 JUMP JUMPDEST SWAP1 JUMP JUMPDEST PUSH2 0x27FA SWAP1 PUSH2 0x27D5 JUMP JUMPDEST SWAP1 JUMP JUMPDEST PUSH1 0x0 PUSH32 0x496E76616C696420616464726573730000000000000000000000000000000000 SWAP2 ADD MSTORE JUMP JUMPDEST PUSH2 0x2832 PUSH1 0xF PUSH1 0x20 SWAP3 PUSH2 0x1A1D JUMP JUMPDEST PUSH2 0x283B DUP2 PUSH2 0x27FD JUMP JUMPDEST ADD SWAP1 JUMP JUMPDEST PUSH2 0x2855 SWAP1 PUSH1 0x20 DUP2 ADD SWAP1 PUSH1 0x0 DUP2 DUP4 SUB SWAP2 ADD MSTORE PUSH2 0x2825 JUMP JUMPDEST SWAP1 JUMP JUMPDEST ISZERO PUSH2 0x285F JUMPI JUMP JUMPDEST PUSH2 0x2867 PUSH2 0x5ED JUMP JUMPDEST PUSH3 0x461BCD PUSH1 0xE5 SHL DUP2 MSTORE DUP1 PUSH2 0x287D PUSH1 0x4 DUP3 ADD PUSH2 0x283F JUMP JUMPDEST SUB SWAP1 REVERT JUMPDEST SWAP1 JUMP JUMPDEST PUSH1 0x0 MSTORE PUSH1 0x20 PUSH1 0x0 KECCAK256 SWAP1 JUMP JUMPDEST SLOAD SWAP1 JUMP JUMPDEST PUSH2 0x289C DUP2 PUSH2 0x288F JUMP JUMPDEST DUP3 LT ISZERO PUSH2 0x28B7 JUMPI PUSH2 0x28AE PUSH1 0x1 SWAP2 PUSH2 0x2884 JUMP JUMPDEST SWAP2 MUL ADD SWAP1 PUSH1 0x0 SWAP1 JUMP JUMPDEST PUSH2 0x22AD JUMP JUMPDEST SHL SWAP1 JUMP JUMPDEST SWAP2 SWAP1 PUSH1 0x8 PUSH2 0x28E0 SWAP2 MUL SWAP2 PUSH2 0x28DA PUSH1 0x1 DUP1 PUSH1 0xA0 SHL SUB DUP5 PUSH2 0x28BC JUMP JUMPDEST SWAP3 PUSH2 0x28BC JUMP JUMPDEST SWAP2 DUP2 NOT AND SWAP2 AND OR SWAP1 JUMP JUMPDEST SWAP1 JUMP JUMPDEST SWAP2 SWAP1 PUSH2 0x2903 PUSH2 0x28FE PUSH2 0x290B SWAP4 PUSH2 0x72A JUMP JUMPDEST PUSH2 0x28EA JUMP JUMPDEST SWAP1 DUP4 SLOAD PUSH2 0x28C0 JUMP JUMPDEST SWAP1 SSTORE JUMP JUMPDEST SWAP1 DUP2 SLOAD SWAP2 PUSH9 0x10000000000000000 DUP4 LT ISZERO PUSH2 0x293F JUMPI DUP3 PUSH2 0x2937 SWAP2 PUSH1 0x1 PUSH2 0x293D SWAP6 ADD DUP2 SSTORE PUSH2 0x2893 JUMP JUMPDEST SWAP1 PUSH2 0x28ED JUMP JUMPDEST JUMP JUMPDEST PUSH2 0x1929 JUMP JUMPDEST PUSH2 0x297D SWAP1 PUSH2 0x296E DUP2 PUSH2 0x2967 PUSH2 0x2961 PUSH2 0x295C PUSH1 0x0 PUSH2 0x27F1 JUMP JUMPDEST PUSH2 0x6B0 JUMP JUMPDEST SWAP2 PUSH2 0x6B0 JUMP JUMPDEST EQ ISZERO PUSH2 0x2858 JUMP JUMPDEST PUSH2 0x2978 PUSH1 0x39 PUSH2 0x2881 JUMP JUMPDEST PUSH2 0x290F JUMP JUMPDEST JUMP JUMPDEST PUSH2 0x2988 SWAP1 PUSH2 0x27A5 JUMP JUMPDEST JUMP JUMPDEST PUSH2 0x29B8 SWAP1 PUSH2 0x29B3 CALLER PUSH2 0x29AD PUSH2 0x29A7 PUSH2 0x29A2 PUSH1 0x0 PUSH2 0x239C JUMP JUMPDEST PUSH2 0x6B0 JUMP JUMPDEST SWAP2 PUSH2 0x6B0 JUMP JUMPDEST EQ PUSH2 0x23A9 JUMP JUMPDEST PUSH2 0x29BA JUMP JUMPDEST JUMP JUMPDEST PUSH2 0x29F3 SWAP1 PUSH2 0x29E4 DUP2 PUSH2 0x29DD PUSH2 0x29D7 PUSH2 0x29D2 PUSH1 0x0 PUSH2 0x27F1 JUMP JUMPDEST PUSH2 0x6B0 JUMP JUMPDEST SWAP2 PUSH2 0x6B0 JUMP JUMPDEST EQ ISZERO PUSH2 0x2858 JUMP JUMPDEST PUSH2 0x29EE PUSH1 0x33 PUSH2 0x2881 JUMP JUMPDEST PUSH2 0x290F JUMP JUMPDEST JUMP JUMPDEST PUSH2 0x29FE SWAP1 PUSH2 0x298A JUMP JUMPDEST JUMP JUMPDEST PUSH2 0x2A2E SWAP1 PUSH2 0x2A29 CALLER PUSH2 0x2A23 PUSH2 0x2A1D PUSH2 0x2A18 PUSH1 0x0 PUSH2 0x239C JUMP JUMPDEST PUSH2 0x6B0 JUMP JUMPDEST SWAP2 PUSH2 0x6B0 JUMP JUMPDEST EQ PUSH2 0x23A9 JUMP JUMPDEST PUSH2 0x2A30 JUMP JUMPDEST JUMP JUMPDEST PUSH2 0x2A69 SWAP1 PUSH2 0x2A5A DUP2 PUSH2 0x2A53 PUSH2 0x2A4D PUSH2 0x2A48 PUSH1 0x0 PUSH2 0x27F1 JUMP JUMPDEST PUSH2 0x6B0 JUMP JUMPDEST SWAP2 PUSH2 0x6B0 JUMP JUMPDEST EQ ISZERO PUSH2 0x2858 JUMP JUMPDEST PUSH2 0x2A64 PUSH1 0x34 PUSH2 0x2881 JUMP JUMPDEST PUSH2 0x290F JUMP JUMPDEST JUMP JUMPDEST PUSH2 0x2A74 SWAP1 PUSH2 0x2A00 JUMP JUMPDEST JUMP JUMPDEST SWAP1 PUSH2 0x2AAC SWAP9 SWAP8 SWAP7 SWAP6 SWAP5 SWAP4 SWAP3 SWAP2 PUSH2 0x2AA7 CALLER PUSH2 0x2AA1 PUSH2 0x2A9B PUSH2 0x2A96 PUSH1 0x0 PUSH2 0x239C JUMP JUMPDEST PUSH2 0x6B0 JUMP JUMPDEST SWAP2 PUSH2 0x6B0 JUMP JUMPDEST EQ PUSH2 0x23A9 JUMP JUMPDEST PUSH2 0x2AAE JUMP JUMPDEST JUMP JUMPDEST PUSH2 0x2B03 SWAP5 PUSH2 0x2AEE PUSH2 0x2B0A SWAP9 SWAP6 PUSH2 0x2AE7 PUSH2 0x2AFC SWAP7 PUSH2 0x2AE0 PUSH2 0x2B11 SWAP15 SWAP14 SWAP12 SWAP8 PUSH2 0x2AD9 PUSH2 0x2AF5 SWAP9 PUSH1 0x16 PUSH2 0x2429 JUMP JUMPDEST PUSH1 0x17 PUSH2 0x2429 JUMP JUMPDEST PUSH1 0x18 PUSH2 0x2429 JUMP JUMPDEST PUSH1 0x19 PUSH2 0x2429 JUMP JUMPDEST PUSH1 0x1A PUSH2 0x2429 JUMP JUMPDEST PUSH1 0x1B PUSH2 0x2429 JUMP JUMPDEST PUSH1 0x1C PUSH2 0x2429 JUMP JUMPDEST PUSH1 0x1D PUSH2 0x2429 JUMP JUMPDEST PUSH1 0x1E PUSH2 0x2429 JUMP JUMPDEST PUSH2 0x2B38 PUSH2 0x2B31 PUSH2 0x2B21 PUSH1 0xD PUSH2 0x245D JUMP JUMPDEST PUSH2 0x2B2B PUSH1 0x16 PUSH2 0x245D JUMP JUMPDEST SWAP1 PUSH2 0x2496 JUMP JUMPDEST PUSH1 0x1F PUSH2 0x2429 JUMP JUMPDEST PUSH2 0x2B5F PUSH2 0x2B58 PUSH2 0x2B48 PUSH1 0xE PUSH2 0x245D JUMP JUMPDEST PUSH2 0x2B52 PUSH1 0x17 PUSH2 0x245D JUMP JUMPDEST SWAP1 PUSH2 0x2496 JUMP JUMPDEST PUSH1 0x20 PUSH2 0x2429 JUMP JUMPDEST PUSH2 0x2B86 PUSH2 0x2B7F PUSH2 0x2B6F PUSH1 0xF PUSH2 0x245D JUMP JUMPDEST PUSH2 0x2B79 PUSH1 0x18 PUSH2 0x245D JUMP JUMPDEST SWAP1 PUSH2 0x2496 JUMP JUMPDEST PUSH1 0x21 PUSH2 0x2429 JUMP JUMPDEST PUSH2 0x2BAD PUSH2 0x2BA6 PUSH2 0x2B96 PUSH1 0x10 PUSH2 0x245D JUMP JUMPDEST PUSH2 0x2BA0 PUSH1 0x19 PUSH2 0x245D JUMP JUMPDEST SWAP1 PUSH2 0x2496 JUMP JUMPDEST PUSH1 0x22 PUSH2 0x2429 JUMP JUMPDEST PUSH2 0x2BD4 PUSH2 0x2BCD PUSH2 0x2BBD PUSH1 0x11 PUSH2 0x245D JUMP JUMPDEST PUSH2 0x2BC7 PUSH1 0x1A PUSH2 0x245D JUMP JUMPDEST SWAP1 PUSH2 0x2496 JUMP JUMPDEST PUSH1 0x23 PUSH2 0x2429 JUMP JUMPDEST PUSH2 0x2BFB PUSH2 0x2BF4 PUSH2 0x2BE4 PUSH1 0x12 PUSH2 0x245D JUMP JUMPDEST PUSH2 0x2BEE PUSH1 0x1B PUSH2 0x245D JUMP JUMPDEST SWAP1 PUSH2 0x2496 JUMP JUMPDEST PUSH1 0x24 PUSH2 0x2429 JUMP JUMPDEST PUSH2 0x2C22 PUSH2 0x2C1B PUSH2 0x2C0B PUSH1 0x13 PUSH2 0x245D JUMP JUMPDEST PUSH2 0x2C15 PUSH1 0x1C PUSH2 0x245D JUMP JUMPDEST SWAP1 PUSH2 0x2496 JUMP JUMPDEST PUSH1 0x25 PUSH2 0x2429 JUMP JUMPDEST PUSH2 0x2C49 PUSH2 0x2C42 PUSH2 0x2C32 PUSH1 0x14 PUSH2 0x245D JUMP JUMPDEST PUSH2 0x2C3C PUSH1 0x1D PUSH2 0x245D JUMP JUMPDEST SWAP1 PUSH2 0x2496 JUMP JUMPDEST PUSH1 0x26 PUSH2 0x2429 JUMP JUMPDEST PUSH2 0x2C70 PUSH2 0x2C69 PUSH2 0x2C59 PUSH1 0x15 PUSH2 0x245D JUMP JUMPDEST PUSH2 0x2C63 PUSH1 0x1E PUSH2 0x245D JUMP JUMPDEST SWAP1 PUSH2 0x2496 JUMP JUMPDEST PUSH1 0x27 PUSH2 0x2429 JUMP JUMPDEST JUMP JUMPDEST SWAP1 PUSH2 0x2C83 SWAP9 SWAP8 SWAP7 SWAP6 SWAP5 SWAP4 SWAP3 SWAP2 PUSH2 0x2A76 JUMP JUMPDEST JUMP JUMPDEST PUSH2 0x2C8D PUSH2 0x2271 JUMP JUMPDEST POP PUSH2 0x2C96 PUSH2 0x2276 JUMP JUMPDEST POP PUSH2 0x2CA1 PUSH1 0x31 PUSH2 0x227B JUMP JUMPDEST SWAP1 PUSH2 0x2CAC PUSH1 0x0 PUSH2 0x2282 JUMP JUMPDEST JUMPDEST DUP1 PUSH2 0x2CC0 PUSH2 0x2CBA DUP6 PUSH2 0x64A JUMP JUMPDEST SWAP2 PUSH2 0x64A JUMP JUMPDEST LT ISZERO PUSH2 0x2D08 JUMPI PUSH2 0x2CDB PUSH2 0x2CD5 PUSH1 0x31 DUP4 SWAP1 PUSH2 0x22CE JUMP JUMPDEST SWAP1 PUSH2 0x14F5 JUMP JUMPDEST PUSH2 0x2CED PUSH2 0x2CE7 DUP5 PUSH2 0x6B0 JUMP JUMPDEST SWAP2 PUSH2 0x6B0 JUMP JUMPDEST EQ PUSH2 0x2D00 JUMPI PUSH2 0x2CFB SWAP1 PUSH2 0x229E JUMP JUMPDEST PUSH2 0x2CAD JUMP JUMPDEST POP POP POP PUSH1 0x1 SWAP1 JUMP JUMPDEST POP POP POP PUSH1 0x0 SWAP1 JUMP JUMPDEST PUSH2 0x2D3E SWAP1 PUSH2 0x2D39 CALLER PUSH2 0x2D33 PUSH2 0x2D2D PUSH2 0x2D28 PUSH1 0x0 PUSH2 0x239C JUMP JUMPDEST PUSH2 0x6B0 JUMP JUMPDEST SWAP2 PUSH2 0x6B0 JUMP JUMPDEST EQ PUSH2 0x23A9 JUMP JUMPDEST PUSH2 0x2D40 JUMP JUMPDEST JUMP JUMPDEST PUSH2 0x2D79 SWAP1 PUSH2 0x2D6A DUP2 PUSH2 0x2D63 PUSH2 0x2D5D PUSH2 0x2D58 PUSH1 0x0 PUSH2 0x27F1 JUMP JUMPDEST PUSH2 0x6B0 JUMP JUMPDEST SWAP2 PUSH2 0x6B0 JUMP JUMPDEST EQ ISZERO PUSH2 0x2858 JUMP JUMPDEST PUSH2 0x2D74 PUSH1 0x31 PUSH2 0x2881 JUMP JUMPDEST PUSH2 0x290F JUMP JUMPDEST JUMP JUMPDEST PUSH2 0x2D84 SWAP1 PUSH2 0x2D10 JUMP JUMPDEST JUMP JUMPDEST PUSH2 0x2DB4 SWAP1 PUSH2 0x2DAF CALLER PUSH2 0x2DA9 PUSH2 0x2DA3 PUSH2 0x2D9E PUSH1 0x0 PUSH2 0x239C JUMP JUMPDEST PUSH2 0x6B0 JUMP JUMPDEST SWAP2 PUSH2 0x6B0 JUMP JUMPDEST EQ PUSH2 0x23A9 JUMP JUMPDEST PUSH2 0x2DB6 JUMP JUMPDEST JUMP JUMPDEST PUSH2 0x2DEF SWAP1 PUSH2 0x2DE0 DUP2 PUSH2 0x2DD9 PUSH2 0x2DD3 PUSH2 0x2DCE PUSH1 0x0 PUSH2 0x27F1 JUMP JUMPDEST PUSH2 0x6B0 JUMP JUMPDEST SWAP2 PUSH2 0x6B0 JUMP JUMPDEST EQ ISZERO PUSH2 0x2858 JUMP JUMPDEST PUSH2 0x2DEA PUSH1 0x36 PUSH2 0x2881 JUMP JUMPDEST PUSH2 0x290F JUMP JUMPDEST JUMP JUMPDEST PUSH2 0x2DFA SWAP1 PUSH2 0x2D86 JUMP JUMPDEST JUMP JUMPDEST PUSH2 0x2E2A SWAP1 PUSH2 0x2E25 CALLER PUSH2 0x2E1F PUSH2 0x2E19 PUSH2 0x2E14 PUSH1 0x0 PUSH2 0x239C JUMP JUMPDEST PUSH2 0x6B0 JUMP JUMPDEST SWAP2 PUSH2 0x6B0 JUMP JUMPDEST EQ PUSH2 0x23A9 JUMP JUMPDEST PUSH2 0x2E2C JUMP JUMPDEST JUMP JUMPDEST PUSH2 0x2E65 SWAP1 PUSH2 0x2E56 DUP2 PUSH2 0x2E4F PUSH2 0x2E49 PUSH2 0x2E44 PUSH1 0x0 PUSH2 0x27F1 JUMP JUMPDEST PUSH2 0x6B0 JUMP JUMPDEST SWAP2 PUSH2 0x6B0 JUMP JUMPDEST EQ ISZERO PUSH2 0x2858 JUMP JUMPDEST PUSH2 0x2E60 PUSH1 0x35 PUSH2 0x2881 JUMP JUMPDEST PUSH2 0x290F JUMP JUMPDEST JUMP JUMPDEST PUSH2 0x2E70 SWAP1 PUSH2 0x2DFC JUMP JUMPDEST JUMP JUMPDEST PUSH2 0x2EA0 SWAP1 PUSH2 0x2E9B CALLER PUSH2 0x2E95 PUSH2 0x2E8F PUSH2 0x2E8A PUSH1 0x0 PUSH2 0x239C JUMP JUMPDEST PUSH2 0x6B0 JUMP JUMPDEST SWAP2 PUSH2 0x6B0 JUMP JUMPDEST EQ PUSH2 0x23A9 JUMP JUMPDEST PUSH2 0x2EA2 JUMP JUMPDEST JUMP JUMPDEST PUSH2 0x2EDB SWAP1 PUSH2 0x2ECC DUP2 PUSH2 0x2EC5 PUSH2 0x2EBF PUSH2 0x2EBA PUSH1 0x0 PUSH2 0x27F1 JUMP JUMPDEST PUSH2 0x6B0 JUMP JUMPDEST SWAP2 PUSH2 0x6B0 JUMP JUMPDEST EQ ISZERO PUSH2 0x2858 JUMP JUMPDEST PUSH2 0x2ED6 PUSH1 0x38 PUSH2 0x2881 JUMP JUMPDEST PUSH2 0x290F JUMP JUMPDEST JUMP JUMPDEST PUSH2 0x2EE6 SWAP1 PUSH2 0x2E72 JUMP JUMPDEST JUMP JUMPDEST PUSH2 0x2EF0 PUSH2 0x2271 JUMP JUMPDEST POP PUSH2 0x2EF9 PUSH2 0x2276 JUMP JUMPDEST POP PUSH2 0x2F04 PUSH1 0x36 PUSH2 0x227B JUMP JUMPDEST SWAP1 PUSH2 0x2F0F PUSH1 0x0 PUSH2 0x2282 JUMP JUMPDEST JUMPDEST DUP1 PUSH2 0x2F23 PUSH2 0x2F1D DUP6 PUSH2 0x64A JUMP JUMPDEST SWAP2 PUSH2 0x64A JUMP JUMPDEST LT ISZERO PUSH2 0x2F6B JUMPI PUSH2 0x2F3E PUSH2 0x2F38 PUSH1 0x36 DUP4 SWAP1 PUSH2 0x22CE JUMP JUMPDEST SWAP1 PUSH2 0x14F5 JUMP JUMPDEST PUSH2 0x2F50 PUSH2 0x2F4A DUP5 PUSH2 0x6B0 JUMP JUMPDEST SWAP2 PUSH2 0x6B0 JUMP JUMPDEST EQ PUSH2 0x2F63 JUMPI PUSH2 0x2F5E SWAP1 PUSH2 0x229E JUMP JUMPDEST PUSH2 0x2F10 JUMP JUMPDEST POP POP POP PUSH1 0x1 SWAP1 JUMP JUMPDEST POP POP POP PUSH1 0x0 SWAP1 JUMP JUMPDEST PUSH2 0x2FA1 SWAP1 PUSH2 0x2F9C CALLER PUSH2 0x2F96 PUSH2 0x2F90 PUSH2 0x2F8B PUSH1 0x0 PUSH2 0x239C JUMP JUMPDEST PUSH2 0x6B0 JUMP JUMPDEST SWAP2 PUSH2 0x6B0 JUMP JUMPDEST EQ PUSH2 0x23A9 JUMP JUMPDEST PUSH2 0x2FA3 JUMP JUMPDEST JUMP JUMPDEST PUSH2 0x2FDC SWAP1 PUSH2 0x2FCD DUP2 PUSH2 0x2FC6 PUSH2 0x2FC0 PUSH2 0x2FBB PUSH1 0x0 PUSH2 0x27F1 JUMP JUMPDEST PUSH2 0x6B0 JUMP JUMPDEST SWAP2 PUSH2 0x6B0 JUMP JUMPDEST EQ ISZERO PUSH2 0x2858 JUMP JUMPDEST PUSH2 0x2FD7 PUSH1 0x32 PUSH2 0x2881 JUMP JUMPDEST PUSH2 0x290F JUMP JUMPDEST JUMP JUMPDEST PUSH2 0x2FE7 SWAP1 PUSH2 0x2F73 JUMP JUMPDEST JUMP JUMPDEST PUSH2 0x3017 SWAP1 PUSH2 0x3012 CALLER PUSH2 0x300C PUSH2 0x3006 PUSH2 0x3001 PUSH1 0x0 PUSH2 0x239C JUMP JUMPDEST PUSH2 0x6B0 JUMP JUMPDEST SWAP2 PUSH2 0x6B0 JUMP JUMPDEST EQ PUSH2 0x23A9 JUMP JUMPDEST PUSH2 0x3019 JUMP JUMPDEST JUMP JUMPDEST PUSH2 0x3052 SWAP1 PUSH2 0x3043 DUP2 PUSH2 0x303C PUSH2 0x3036 PUSH2 0x3031 PUSH1 0x0 PUSH2 0x27F1 JUMP JUMPDEST PUSH2 0x6B0 JUMP JUMPDEST SWAP2 PUSH2 0x6B0 JUMP JUMPDEST EQ ISZERO PUSH2 0x2858 JUMP JUMPDEST PUSH2 0x304D PUSH1 0x37 PUSH2 0x2881 JUMP JUMPDEST PUSH2 0x290F JUMP JUMPDEST JUMP JUMPDEST PUSH2 0x305D SWAP1 PUSH2 0x2FE9 JUMP JUMPDEST JUMP JUMPDEST PUSH2 0x3067 PUSH2 0x2271 JUMP JUMPDEST POP PUSH2 0x3070 PUSH2 0x2276 JUMP JUMPDEST POP PUSH2 0x307B PUSH1 0x32 PUSH2 0x227B JUMP JUMPDEST SWAP1 PUSH2 0x3086 PUSH1 0x0 PUSH2 0x2282 JUMP JUMPDEST JUMPDEST DUP1 PUSH2 0x309A PUSH2 0x3094 DUP6 PUSH2 0x64A JUMP JUMPDEST SWAP2 PUSH2 0x64A JUMP JUMPDEST LT ISZERO PUSH2 0x30E2 JUMPI PUSH2 0x30B5 PUSH2 0x30AF PUSH1 0x32 DUP4 SWAP1 PUSH2 0x22CE JUMP JUMPDEST SWAP1 PUSH2 0x14F5 JUMP JUMPDEST PUSH2 0x30C7 PUSH2 0x30C1 DUP5 PUSH2 0x6B0 JUMP JUMPDEST SWAP2 PUSH2 0x6B0 JUMP JUMPDEST EQ PUSH2 0x30DA JUMPI PUSH2 0x30D5 SWAP1 PUSH2 0x229E JUMP JUMPDEST PUSH2 0x3087 JUMP JUMPDEST POP POP POP PUSH1 0x1 SWAP1 JUMP JUMPDEST POP POP POP PUSH1 0x0 SWAP1 JUMP JUMPDEST PUSH2 0x30F2 PUSH2 0x2271 JUMP JUMPDEST POP PUSH2 0x30FB PUSH2 0x2276 JUMP JUMPDEST POP PUSH2 0x3106 PUSH1 0x35 PUSH2 0x227B JUMP JUMPDEST SWAP1 PUSH2 0x3111 PUSH1 0x0 PUSH2 0x2282 JUMP JUMPDEST JUMPDEST DUP1 PUSH2 0x3125 PUSH2 0x311F DUP6 PUSH2 0x64A JUMP JUMPDEST SWAP2 PUSH2 0x64A JUMP JUMPDEST LT ISZERO PUSH2 0x316D JUMPI PUSH2 0x3140 PUSH2 0x313A PUSH1 0x35 DUP4 SWAP1 PUSH2 0x22CE JUMP JUMPDEST SWAP1 PUSH2 0x14F5 JUMP JUMPDEST PUSH2 0x3152 PUSH2 0x314C DUP5 PUSH2 0x6B0 JUMP JUMPDEST SWAP2 PUSH2 0x6B0 JUMP JUMPDEST EQ PUSH2 0x3165 JUMPI PUSH2 0x3160 SWAP1 PUSH2 0x229E JUMP JUMPDEST PUSH2 0x3112 JUMP JUMPDEST POP POP POP PUSH1 0x1 SWAP1 JUMP JUMPDEST POP POP POP PUSH1 0x0 SWAP1 JUMP JUMPDEST PUSH2 0x31A3 SWAP1 PUSH2 0x319E CALLER PUSH2 0x3198 PUSH2 0x3192 PUSH2 0x318D PUSH1 0x0 PUSH2 0x239C JUMP JUMPDEST PUSH2 0x6B0 JUMP JUMPDEST SWAP2 PUSH2 0x6B0 JUMP JUMPDEST EQ PUSH2 0x23A9 JUMP JUMPDEST PUSH2 0x31E0 JUMP JUMPDEST JUMP JUMPDEST SWAP1 PUSH2 0x31B6 PUSH1 0x1 DUP1 PUSH1 0xA0 SHL SUB SWAP2 PUSH2 0x23ED JUMP JUMPDEST SWAP2 DUP2 NOT AND SWAP2 AND OR SWAP1 JUMP JUMPDEST SWAP1 PUSH2 0x31D5 PUSH2 0x31D0 PUSH2 0x31DC SWAP3 PUSH2 0x72A JUMP JUMPDEST PUSH2 0x28EA JUMP JUMPDEST DUP3 SLOAD PUSH2 0x31A5 JUMP JUMPDEST SWAP1 SSTORE JUMP JUMPDEST PUSH2 0x3265 SWAP1 PUSH2 0x320A DUP2 PUSH2 0x3203 PUSH2 0x31FD PUSH2 0x31F8 PUSH1 0x0 PUSH2 0x27F1 JUMP JUMPDEST PUSH2 0x6B0 JUMP JUMPDEST SWAP2 PUSH2 0x6B0 JUMP JUMPDEST EQ ISZERO PUSH2 0x23A9 JUMP JUMPDEST PUSH2 0x3214 PUSH1 0x0 PUSH2 0x239C JUMP JUMPDEST DUP2 PUSH2 0x3248 PUSH2 0x3242 PUSH32 0x8BE0079C531659141344CD1FD0A4F28419497F9722A3DAAFE3B4186F6B6457E0 SWAP4 PUSH2 0x72A JUMP JUMPDEST SWAP2 PUSH2 0x72A JUMP JUMPDEST SWAP2 PUSH2 0x3251 PUSH2 0x5ED JUMP JUMPDEST DUP1 PUSH2 0x325B DUP2 PUSH2 0xB93 JUMP JUMPDEST SUB SWAP1 LOG3 PUSH1 0x0 PUSH2 0x31C0 JUMP JUMPDEST JUMP JUMPDEST PUSH2 0x3270 SWAP1 PUSH2 0x3175 JUMP JUMPDEST JUMP JUMPDEST PUSH2 0x327A PUSH2 0x2271 JUMP JUMPDEST POP PUSH2 0x3283 PUSH2 0x2276 JUMP JUMPDEST POP PUSH2 0x328E PUSH1 0x34 PUSH2 0x227B JUMP JUMPDEST SWAP1 PUSH2 0x3299 PUSH1 0x0 PUSH2 0x2282 JUMP JUMPDEST JUMPDEST DUP1 PUSH2 0x32AD PUSH2 0x32A7 DUP6 PUSH2 0x64A JUMP JUMPDEST SWAP2 PUSH2 0x64A JUMP JUMPDEST LT ISZERO PUSH2 0x32F5 JUMPI PUSH2 0x32C8 PUSH2 0x32C2 PUSH1 0x34 DUP4 SWAP1 PUSH2 0x22CE JUMP JUMPDEST SWAP1 PUSH2 0x14F5 JUMP JUMPDEST PUSH2 0x32DA PUSH2 0x32D4 DUP5 PUSH2 0x6B0 JUMP JUMPDEST SWAP2 PUSH2 0x6B0 JUMP JUMPDEST EQ PUSH2 0x32ED JUMPI PUSH2 0x32E8 SWAP1 PUSH2 0x229E JUMP JUMPDEST PUSH2 0x329A JUMP JUMPDEST POP POP POP PUSH1 0x1 SWAP1 JUMP JUMPDEST POP POP POP PUSH1 0x0 SWAP1 JUMP JUMPDEST PUSH2 0x3305 PUSH2 0x2271 JUMP JUMPDEST POP PUSH2 0x330E PUSH2 0x2276 JUMP JUMPDEST POP PUSH2 0x3319 PUSH1 0x39 PUSH2 0x227B JUMP JUMPDEST SWAP1 PUSH2 0x3324 PUSH1 0x0 PUSH2 0x2282 JUMP JUMPDEST JUMPDEST DUP1 PUSH2 0x3338 PUSH2 0x3332 DUP6 PUSH2 0x64A JUMP JUMPDEST SWAP2 PUSH2 0x64A JUMP JUMPDEST LT ISZERO PUSH2 0x3380 JUMPI PUSH2 0x3353 PUSH2 0x334D PUSH1 0x39 DUP4 SWAP1 PUSH2 0x22CE JUMP JUMPDEST SWAP1 PUSH2 0x14F5 JUMP JUMPDEST PUSH2 0x3365 PUSH2 0x335F DUP5 PUSH2 0x6B0 JUMP JUMPDEST SWAP2 PUSH2 0x6B0 JUMP JUMPDEST EQ PUSH2 0x3378 JUMPI PUSH2 0x3373 SWAP1 PUSH2 0x229E JUMP JUMPDEST PUSH2 0x3325 JUMP JUMPDEST POP POP POP PUSH1 0x1 SWAP1 JUMP JUMPDEST POP POP POP PUSH1 0x0 SWAP1 JUMP JUMPDEST PUSH1 0x0 PUSH32 0x5468652073616C65206973206E6F742073746172746564207965742000000000 SWAP2 ADD MSTORE JUMP JUMPDEST PUSH2 0x33BD PUSH1 0x1C PUSH1 0x20 SWAP3 PUSH2 0x1A1D JUMP JUMPDEST PUSH2 0x33C6 DUP2 PUSH2 0x3388 JUMP JUMPDEST ADD SWAP1 JUMP JUMPDEST PUSH2 0x33E0 SWAP1 PUSH1 0x20 DUP2 ADD SWAP1 PUSH1 0x0 DUP2 DUP4 SUB SWAP2 ADD MSTORE PUSH2 0x33B0 JUMP JUMPDEST SWAP1 JUMP JUMPDEST ISZERO PUSH2 0x33EA JUMPI JUMP JUMPDEST PUSH2 0x33F2 PUSH2 0x5ED JUMP JUMPDEST PUSH3 0x461BCD PUSH1 0xE5 SHL DUP2 MSTORE DUP1 PUSH2 0x3408 PUSH1 0x4 DUP3 ADD PUSH2 0x33CA JUMP JUMPDEST SUB SWAP1 REVERT JUMPDEST PUSH1 0x0 PUSH32 0x5468652073616C6520697320636C6F7365640000000000000000000000000000 SWAP2 ADD MSTORE JUMP JUMPDEST PUSH2 0x3441 PUSH1 0x12 PUSH1 0x20 SWAP3 PUSH2 0x1A1D JUMP JUMPDEST PUSH2 0x344A DUP2 PUSH2 0x340C JUMP JUMPDEST ADD SWAP1 JUMP JUMPDEST PUSH2 0x3464 SWAP1 PUSH1 0x20 DUP2 ADD SWAP1 PUSH1 0x0 DUP2 DUP4 SUB SWAP2 ADD MSTORE PUSH2 0x3434 JUMP JUMPDEST SWAP1 JUMP JUMPDEST ISZERO PUSH2 0x346E JUMPI JUMP JUMPDEST PUSH2 0x3476 PUSH2 0x5ED JUMP JUMPDEST PUSH3 0x461BCD PUSH1 0xE5 SHL DUP2 MSTORE DUP1 PUSH2 0x348C PUSH1 0x4 DUP3 ADD PUSH2 0x344E JUMP JUMPDEST SUB SWAP1 REVERT JUMPDEST PUSH2 0x349F PUSH2 0x34A5 SWAP2 SWAP4 SWAP3 SWAP4 PUSH2 0x64A JUMP JUMPDEST SWAP3 PUSH2 0x64A JUMP JUMPDEST DUP3 ADD DUP1 SWAP3 GT PUSH2 0x34B0 JUMPI JUMP JUMPDEST PUSH2 0x2480 JUMP JUMPDEST PUSH1 0x20 PUSH32 0x206D617820636170000000000000000000000000000000000000000000000000 SWAP2 PUSH32 0x627579546F6B656E733A20707572636861736520776F756C6420657863656564 PUSH1 0x0 DUP3 ADD MSTORE ADD MSTORE JUMP JUMPDEST PUSH2 0x3510 PUSH1 0x28 PUSH1 0x40 SWAP3 PUSH2 0x1A1D JUMP JUMPDEST PUSH2 0x3519 DUP2 PUSH2 0x34B5 JUMP JUMPDEST ADD SWAP1 JUMP JUMPDEST PUSH2 0x3533 SWAP1 PUSH1 0x20 DUP2 ADD SWAP1 PUSH1 0x0 DUP2 DUP4 SUB SWAP2 ADD MSTORE PUSH2 0x3503 JUMP JUMPDEST SWAP1 JUMP JUMPDEST ISZERO PUSH2 0x353D JUMPI JUMP JUMPDEST PUSH2 0x3545 PUSH2 0x5ED JUMP JUMPDEST PUSH3 0x461BCD PUSH1 0xE5 SHL DUP2 MSTORE DUP1 PUSH2 0x355B PUSH1 0x4 DUP3 ADD PUSH2 0x351D JUMP JUMPDEST SUB SWAP1 REVERT JUMPDEST PUSH1 0x0 PUSH32 0x796F75722070757263686173696E6720506F77657220697320736F204C6F7700 SWAP2 ADD MSTORE JUMP JUMPDEST PUSH2 0x3594 PUSH1 0x1F PUSH1 0x20 SWAP3 PUSH2 0x1A1D JUMP JUMPDEST PUSH2 0x359D DUP2 PUSH2 0x355F JUMP JUMPDEST ADD SWAP1 JUMP JUMPDEST PUSH2 0x35B7 SWAP1 PUSH1 0x20 DUP2 ADD SWAP1 PUSH1 0x0 DUP2 DUP4 SUB SWAP2 ADD MSTORE PUSH2 0x3587 JUMP JUMPDEST SWAP1 JUMP JUMPDEST ISZERO PUSH2 0x35C1 JUMPI JUMP JUMPDEST PUSH2 0x35C9 PUSH2 0x5ED JUMP JUMPDEST PUSH3 0x461BCD PUSH1 0xE5 SHL DUP2 MSTORE DUP1 PUSH2 0x35DF PUSH1 0x4 DUP3 ADD PUSH2 0x35A1 JUMP JUMPDEST SUB SWAP1 REVERT JUMPDEST PUSH1 0x20 PUSH32 0x2054696572204E696E65206D6178206361700000000000000000000000000000 SWAP2 PUSH32 0x627579546F6B656E733A20707572636861736520776F756C6420657863656564 PUSH1 0x0 DUP3 ADD MSTORE ADD MSTORE JUMP JUMPDEST PUSH2 0x363E PUSH1 0x32 PUSH1 0x40 SWAP3 PUSH2 0x1A1D JUMP JUMPDEST PUSH2 0x3647 DUP2 PUSH2 0x35E3 JUMP JUMPDEST ADD SWAP1 JUMP JUMPDEST PUSH2 0x3661 SWAP1 PUSH1 0x20 DUP2 ADD SWAP1 PUSH1 0x0 DUP2 DUP4 SUB SWAP2 ADD MSTORE PUSH2 0x3631 JUMP JUMPDEST SWAP1 JUMP JUMPDEST ISZERO PUSH2 0x366B JUMPI JUMP JUMPDEST PUSH2 0x3673 PUSH2 0x5ED JUMP JUMPDEST PUSH3 0x461BCD PUSH1 0xE5 SHL DUP2 MSTORE DUP1 PUSH2 0x3689 PUSH1 0x4 DUP3 ADD PUSH2 0x364B JUMP JUMPDEST SUB SWAP1 REVERT JUMPDEST PUSH1 0x20 PUSH32 0x207468616E20796F757220746965722D39206C696D6974210000000000000000 SWAP2 PUSH32 0x627579546F6B656E733A596F752061726520696E76657374696E67206D6F7265 PUSH1 0x0 DUP3 ADD MSTORE ADD MSTORE JUMP JUMPDEST PUSH2 0x36E8 PUSH1 0x38 PUSH1 0x40 SWAP3 PUSH2 0x1A1D JUMP JUMPDEST PUSH2 0x36F1 DUP2 PUSH2 0x368D JUMP JUMPDEST ADD SWAP1 JUMP JUMPDEST PUSH2 0x370B SWAP1 PUSH1 0x20 DUP2 ADD SWAP1 PUSH1 0x0 DUP2 DUP4 SUB SWAP2 ADD MSTORE PUSH2 0x36DB JUMP JUMPDEST SWAP1 JUMP JUMPDEST ISZERO PUSH2 0x3715 JUMPI JUMP JUMPDEST PUSH2 0x371D PUSH2 0x5ED JUMP JUMPDEST PUSH3 0x461BCD PUSH1 0xE5 SHL DUP2 MSTORE DUP1 PUSH2 0x3733 PUSH1 0x4 DUP3 ADD PUSH2 0x36F5 JUMP JUMPDEST SUB SWAP1 REVERT JUMPDEST PUSH2 0x3743 PUSH2 0x3748 SWAP2 PUSH2 0x2382 JUMP JUMPDEST PUSH2 0x1ACA JUMP JUMPDEST SWAP1 JUMP JUMPDEST PUSH2 0x3755 SWAP1 SLOAD PUSH2 0x3737 JUMP JUMPDEST SWAP1 JUMP JUMPDEST PUSH2 0x3761 SWAP1 PUSH2 0x71E JUMP JUMPDEST SWAP1 JUMP JUMPDEST PUSH1 0x20 PUSH32 0x2054696572204569676874206D61782063617000000000000000000000000000 SWAP2 PUSH32 0x627579546F6B656E733A20707572636861736520776F756C6420657863656564 PUSH1 0x0 DUP3 ADD MSTORE ADD MSTORE JUMP JUMPDEST PUSH2 0x37BF PUSH1 0x33 PUSH1 0x40 SWAP3 PUSH2 0x1A1D JUMP JUMPDEST PUSH2 0x37C8 DUP2 PUSH2 0x3764 JUMP JUMPDEST ADD SWAP1 JUMP JUMPDEST PUSH2 0x37E2 SWAP1 PUSH1 0x20 DUP2 ADD SWAP1 PUSH1 0x0 DUP2 DUP4 SUB SWAP2 ADD MSTORE PUSH2 0x37B2 JUMP JUMPDEST SWAP1 JUMP JUMPDEST ISZERO PUSH2 0x37EC JUMPI JUMP JUMPDEST PUSH2 0x37F4 PUSH2 0x5ED JUMP JUMPDEST PUSH3 0x461BCD PUSH1 0xE5 SHL DUP2 MSTORE DUP1 PUSH2 0x380A PUSH1 0x4 DUP3 ADD PUSH2 0x37CC JUMP JUMPDEST SUB SWAP1 REVERT JUMPDEST PUSH1 0x20 PUSH32 0x207468616E20796F757220746965722D38206C696D6974210000000000000000 SWAP2 PUSH32 0x627579546F6B656E733A596F752061726520696E76657374696E67206D6F7265 PUSH1 0x0 DUP3 ADD MSTORE ADD MSTORE JUMP JUMPDEST PUSH2 0x3869 PUSH1 0x38 PUSH1 0x40 SWAP3 PUSH2 0x1A1D JUMP JUMPDEST PUSH2 0x3872 DUP2 PUSH2 0x380E JUMP JUMPDEST ADD SWAP1 JUMP JUMPDEST PUSH2 0x388C SWAP1 PUSH1 0x20 DUP2 ADD SWAP1 PUSH1 0x0 DUP2 DUP4 SUB SWAP2 ADD MSTORE PUSH2 0x385C JUMP JUMPDEST SWAP1 JUMP JUMPDEST ISZERO PUSH2 0x3896 JUMPI JUMP JUMPDEST PUSH2 0x389E PUSH2 0x5ED JUMP JUMPDEST PUSH3 0x461BCD PUSH1 0xE5 SHL DUP2 MSTORE DUP1 PUSH2 0x38B4 PUSH1 0x4 DUP3 ADD PUSH2 0x3876 JUMP JUMPDEST SUB SWAP1 REVERT JUMPDEST PUSH1 0x20 PUSH32 0x205469657220536576656E206D61782063617000000000000000000000000000 SWAP2 PUSH32 0x627579546F6B656E733A20707572636861736520776F756C6420657863656564 PUSH1 0x0 DUP3 ADD MSTORE ADD MSTORE JUMP JUMPDEST PUSH2 0x3913 PUSH1 0x33 PUSH1 0x40 SWAP3 PUSH2 0x1A1D JUMP JUMPDEST PUSH2 0x391C DUP2 PUSH2 0x38B8 JUMP JUMPDEST ADD SWAP1 JUMP JUMPDEST PUSH2 0x3936 SWAP1 PUSH1 0x20 DUP2 ADD SWAP1 PUSH1 0x0 DUP2 DUP4 SUB SWAP2 ADD MSTORE PUSH2 0x3906 JUMP JUMPDEST SWAP1 JUMP JUMPDEST ISZERO PUSH2 0x3940 JUMPI JUMP JUMPDEST PUSH2 0x3948 PUSH2 0x5ED JUMP JUMPDEST PUSH3 0x461BCD PUSH1 0xE5 SHL DUP2 MSTORE DUP1 PUSH2 0x395E PUSH1 0x4 DUP3 ADD PUSH2 0x3920 JUMP JUMPDEST SUB SWAP1 REVERT JUMPDEST PUSH1 0x20 PUSH32 0x207468616E20796F757220746965722D37206C696D6974210000000000000000 SWAP2 PUSH32 0x627579546F6B656E733A596F752061726520696E76657374696E67206D6F7265 PUSH1 0x0 DUP3 ADD MSTORE ADD MSTORE JUMP JUMPDEST PUSH2 0x39BD PUSH1 0x38 PUSH1 0x40 SWAP3 PUSH2 0x1A1D JUMP JUMPDEST PUSH2 0x39C6 DUP2 PUSH2 0x3962 JUMP JUMPDEST ADD SWAP1 JUMP JUMPDEST PUSH2 0x39E0 SWAP1 PUSH1 0x20 DUP2 ADD SWAP1 PUSH1 0x0 DUP2 DUP4 SUB SWAP2 ADD MSTORE PUSH2 0x39B0 JUMP JUMPDEST SWAP1 JUMP JUMPDEST ISZERO PUSH2 0x39EA JUMPI JUMP JUMPDEST PUSH2 0x39F2 PUSH2 0x5ED JUMP JUMPDEST PUSH3 0x461BCD PUSH1 0xE5 SHL DUP2 MSTORE DUP1 PUSH2 0x3A08 PUSH1 0x4 DUP3 ADD PUSH2 0x39CA JUMP JUMPDEST SUB SWAP1 REVERT JUMPDEST PUSH1 0x20 PUSH32 0x205469657220536978206D617820636170000000000000000000000000000000 SWAP2 PUSH32 0x627579546F6B656E733A20707572636861736520776F756C6420657863656564 PUSH1 0x0 DUP3 ADD MSTORE ADD MSTORE JUMP JUMPDEST PUSH2 0x3A67 PUSH1 0x31 PUSH1 0x40 SWAP3 PUSH2 0x1A1D JUMP JUMPDEST PUSH2 0x3A70 DUP2 PUSH2 0x3A0C JUMP JUMPDEST ADD SWAP1 JUMP JUMPDEST PUSH2 0x3A8A SWAP1 PUSH1 0x20 DUP2 ADD SWAP1 PUSH1 0x0 DUP2 DUP4 SUB SWAP2 ADD MSTORE PUSH2 0x3A5A JUMP JUMPDEST SWAP1 JUMP JUMPDEST ISZERO PUSH2 0x3A94 JUMPI JUMP JUMPDEST PUSH2 0x3A9C PUSH2 0x5ED JUMP JUMPDEST PUSH3 0x461BCD PUSH1 0xE5 SHL DUP2 MSTORE DUP1 PUSH2 0x3AB2 PUSH1 0x4 DUP3 ADD PUSH2 0x3A74 JUMP JUMPDEST SUB SWAP1 REVERT JUMPDEST PUSH1 0x20 PUSH32 0x207468616E20796F757220746965722D36206C696D6974210000000000000000 SWAP2 PUSH32 0x627579546F6B656E733A596F752061726520696E76657374696E67206D6F7265 PUSH1 0x0 DUP3 ADD MSTORE ADD MSTORE JUMP JUMPDEST PUSH2 0x3B11 PUSH1 0x38 PUSH1 0x40 SWAP3 PUSH2 0x1A1D JUMP JUMPDEST PUSH2 0x3B1A DUP2 PUSH2 0x3AB6 JUMP JUMPDEST ADD SWAP1 JUMP JUMPDEST PUSH2 0x3B34 SWAP1 PUSH1 0x20 DUP2 ADD SWAP1 PUSH1 0x0 DUP2 DUP4 SUB SWAP2 ADD MSTORE PUSH2 0x3B04 JUMP JUMPDEST SWAP1 JUMP JUMPDEST ISZERO PUSH2 0x3B3E JUMPI JUMP JUMPDEST PUSH2 0x3B46 PUSH2 0x5ED JUMP JUMPDEST PUSH3 0x461BCD PUSH1 0xE5 SHL DUP2 MSTORE DUP1 PUSH2 0x3B5C PUSH1 0x4 DUP3 ADD PUSH2 0x3B1E JUMP JUMPDEST SUB SWAP1 REVERT JUMPDEST PUSH1 0x20 PUSH32 0x20546965722046697665206D6178206361700000000000000000000000000000 SWAP2 PUSH32 0x627579546F6B656E733A20707572636861736520776F756C6420657863656564 PUSH1 0x0 DUP3 ADD MSTORE ADD MSTORE JUMP JUMPDEST PUSH2 0x3BBB PUSH1 0x32 PUSH1 0x40 SWAP3 PUSH2 0x1A1D JUMP JUMPDEST PUSH2 0x3BC4 DUP2 PUSH2 0x3B60 JUMP JUMPDEST ADD SWAP1 JUMP JUMPDEST PUSH2 0x3BDE SWAP1 PUSH1 0x20 DUP2 ADD SWAP1 PUSH1 0x0 DUP2 DUP4 SUB SWAP2 ADD MSTORE PUSH2 0x3BAE JUMP JUMPDEST SWAP1 JUMP JUMPDEST ISZERO PUSH2 0x3BE8 JUMPI JUMP JUMPDEST PUSH2 0x3BF0 PUSH2 0x5ED JUMP JUMPDEST PUSH3 0x461BCD PUSH1 0xE5 SHL DUP2 MSTORE DUP1 PUSH2 0x3C06 PUSH1 0x4 DUP3 ADD PUSH2 0x3BC8 JUMP JUMPDEST SUB SWAP1 REVERT JUMPDEST PUSH1 0x20 PUSH32 0x207468616E20796F757220746965722D35206C696D6974210000000000000000 SWAP2 PUSH32 0x627579546F6B656E733A596F752061726520696E76657374696E67206D6F7265 PUSH1 0x0 DUP3 ADD MSTORE ADD MSTORE JUMP JUMPDEST PUSH2 0x3C65 PUSH1 0x38 PUSH1 0x40 SWAP3 PUSH2 0x1A1D JUMP JUMPDEST PUSH2 0x3C6E DUP2 PUSH2 0x3C0A JUMP JUMPDEST ADD SWAP1 JUMP JUMPDEST PUSH2 0x3C88 SWAP1 PUSH1 0x20 DUP2 ADD SWAP1 PUSH1 0x0 DUP2 DUP4 SUB SWAP2 ADD MSTORE PUSH2 0x3C58 JUMP JUMPDEST SWAP1 JUMP JUMPDEST ISZERO PUSH2 0x3C92 JUMPI JUMP JUMPDEST PUSH2 0x3C9A PUSH2 0x5ED JUMP JUMPDEST PUSH3 0x461BCD PUSH1 0xE5 SHL DUP2 MSTORE DUP1 PUSH2 0x3CB0 PUSH1 0x4 DUP3 ADD PUSH2 0x3C72 JUMP JUMPDEST SUB SWAP1 REVERT JUMPDEST PUSH1 0x20 PUSH32 0x205469657220466F7572206D6178206361700000000000000000000000000000 SWAP2 PUSH32 0x627579546F6B656E733A20707572636861736520776F756C6420657863656564 PUSH1 0x0 DUP3 ADD MSTORE ADD MSTORE JUMP JUMPDEST PUSH2 0x3D0F PUSH1 0x32 PUSH1 0x40 SWAP3 PUSH2 0x1A1D JUMP JUMPDEST PUSH2 0x3D18 DUP2 PUSH2 0x3CB4 JUMP JUMPDEST ADD SWAP1 JUMP JUMPDEST PUSH2 0x3D32 SWAP1 PUSH1 0x20 DUP2 ADD SWAP1 PUSH1 0x0 DUP2 DUP4 SUB SWAP2 ADD MSTORE PUSH2 0x3D02 JUMP JUMPDEST SWAP1 JUMP JUMPDEST ISZERO PUSH2 0x3D3C JUMPI JUMP JUMPDEST PUSH2 0x3D44 PUSH2 0x5ED JUMP JUMPDEST PUSH3 0x461BCD PUSH1 0xE5 SHL DUP2 MSTORE DUP1 PUSH2 0x3D5A PUSH1 0x4 DUP3 ADD PUSH2 0x3D1C JUMP JUMPDEST SUB SWAP1 REVERT JUMPDEST PUSH1 0x20 PUSH32 0x207468616E20796F757220746965722D34206C696D6974210000000000000000 SWAP2 PUSH32 0x627579546F6B656E733A596F752061726520696E76657374696E67206D6F7265 PUSH1 0x0 DUP3 ADD MSTORE ADD MSTORE JUMP JUMPDEST PUSH2 0x3DB9 PUSH1 0x38 PUSH1 0x40 SWAP3 PUSH2 0x1A1D JUMP JUMPDEST PUSH2 0x3DC2 DUP2 PUSH2 0x3D5E JUMP JUMPDEST ADD SWAP1 JUMP JUMPDEST PUSH2 0x3DDC SWAP1 PUSH1 0x20 DUP2 ADD SWAP1 PUSH1 0x0 DUP2 DUP4 SUB SWAP2 ADD MSTORE PUSH2 0x3DAC JUMP JUMPDEST SWAP1 JUMP JUMPDEST ISZERO PUSH2 0x3DE6 JUMPI JUMP JUMPDEST PUSH2 0x3DEE PUSH2 0x5ED JUMP JUMPDEST PUSH3 0x461BCD PUSH1 0xE5 SHL DUP2 MSTORE DUP1 PUSH2 0x3E04 PUSH1 0x4 DUP3 ADD PUSH2 0x3DC6 JUMP JUMPDEST SUB SWAP1 REVERT JUMPDEST PUSH1 0x20 PUSH32 0x207468616E20796F757220746965722D33206C696D6974210000000000000000 SWAP2 PUSH32 0x627579546F6B656E733A596F752061726520696E76657374696E67206D6F7265 PUSH1 0x0 DUP3 ADD MSTORE ADD MSTORE JUMP JUMPDEST PUSH2 0x3E63 PUSH1 0x38 PUSH1 0x40 SWAP3 PUSH2 0x1A1D JUMP JUMPDEST PUSH2 0x3E6C DUP2 PUSH2 0x3E08 JUMP JUMPDEST ADD SWAP1 JUMP JUMPDEST PUSH2 0x3E86 SWAP1 PUSH1 0x20 DUP2 ADD SWAP1 PUSH1 0x0 DUP2 DUP4 SUB SWAP2 ADD MSTORE PUSH2 0x3E56 JUMP JUMPDEST SWAP1 JUMP JUMPDEST ISZERO PUSH2 0x3E90 JUMPI JUMP JUMPDEST PUSH2 0x3E98 PUSH2 0x5ED JUMP JUMPDEST PUSH3 0x461BCD PUSH1 0xE5 SHL DUP2 MSTORE DUP1 PUSH2 0x3EAE PUSH1 0x4 DUP3 ADD PUSH2 0x3E70 JUMP JUMPDEST SUB SWAP1 REVERT JUMPDEST PUSH1 0x20 PUSH32 0x2054696572207468726565206D61782063617000000000000000000000000000 SWAP2 PUSH32 0x627579546F6B656E733A20707572636861736520776F756C6420657863656564 PUSH1 0x0 DUP3 ADD MSTORE ADD MSTORE JUMP JUMPDEST PUSH2 0x3F0D PUSH1 0x33 PUSH1 0x40 SWAP3 PUSH2 0x1A1D JUMP JUMPDEST PUSH2 0x3F16 DUP2 PUSH2 0x3EB2 JUMP JUMPDEST ADD SWAP1 JUMP JUMPDEST PUSH2 0x3F30 SWAP1 PUSH1 0x20 DUP2 ADD SWAP1 PUSH1 0x0 DUP2 DUP4 SUB SWAP2 ADD MSTORE PUSH2 0x3F00 JUMP JUMPDEST SWAP1 JUMP JUMPDEST ISZERO PUSH2 0x3F3A JUMPI JUMP JUMPDEST PUSH2 0x3F42 PUSH2 0x5ED JUMP JUMPDEST PUSH3 0x461BCD PUSH1 0xE5 SHL DUP2 MSTORE DUP1 PUSH2 0x3F58 PUSH1 0x4 DUP3 ADD PUSH2 0x3F1A JUMP JUMPDEST SUB SWAP1 REVERT JUMPDEST PUSH1 0x20 PUSH32 0x20546965722074776F206D617820636170000000000000000000000000000000 SWAP2 PUSH32 0x627579546F6B656E733A20707572636861736520776F756C6420657863656564 PUSH1 0x0 DUP3 ADD MSTORE ADD MSTORE JUMP JUMPDEST PUSH2 0x3FB7 PUSH1 0x31 PUSH1 0x40 SWAP3 PUSH2 0x1A1D JUMP JUMPDEST PUSH2 0x3FC0 DUP2 PUSH2 0x3F5C JUMP JUMPDEST ADD SWAP1 JUMP JUMPDEST PUSH2 0x3FDA SWAP1 PUSH1 0x20 DUP2 ADD SWAP1 PUSH1 0x0 DUP2 DUP4 SUB SWAP2 ADD MSTORE PUSH2 0x3FAA JUMP JUMPDEST SWAP1 JUMP JUMPDEST ISZERO PUSH2 0x3FE4 JUMPI JUMP JUMPDEST PUSH2 0x3FEC PUSH2 0x5ED JUMP JUMPDEST PUSH3 0x461BCD PUSH1 0xE5 SHL DUP2 MSTORE DUP1 PUSH2 0x4002 PUSH1 0x4 DUP3 ADD PUSH2 0x3FC4 JUMP JUMPDEST SUB SWAP1 REVERT JUMPDEST PUSH1 0x20 PUSH32 0x207468616E20796F757220746965722D32206C696D6974210000000000000000 SWAP2 PUSH32 0x627579546F6B656E733A596F752061726520696E76657374696E67206D6F7265 PUSH1 0x0 DUP3 ADD MSTORE ADD MSTORE JUMP JUMPDEST PUSH2 0x4061 PUSH1 0x38 PUSH1 0x40 SWAP3 PUSH2 0x1A1D JUMP JUMPDEST PUSH2 0x406A DUP2 PUSH2 0x4006 JUMP JUMPDEST ADD SWAP1 JUMP JUMPDEST PUSH2 0x4084 SWAP1 PUSH1 0x20 DUP2 ADD SWAP1 PUSH1 0x0 DUP2 DUP4 SUB SWAP2 ADD MSTORE PUSH2 0x4054 JUMP JUMPDEST SWAP1 JUMP JUMPDEST ISZERO PUSH2 0x408E JUMPI JUMP JUMPDEST PUSH2 0x4096 PUSH2 0x5ED JUMP JUMPDEST PUSH3 0x461BCD PUSH1 0xE5 SHL DUP2 MSTORE DUP1 PUSH2 0x40AC PUSH1 0x4 DUP3 ADD PUSH2 0x406E JUMP JUMPDEST SUB SWAP1 REVERT JUMPDEST PUSH1 0x20 PUSH32 0x2054696572206F6E65206D617820636170000000000000000000000000000000 SWAP2 PUSH32 0x627579546F6B656E733A20707572636861736520776F756C6420657863656564 PUSH1 0x0 DUP3 ADD MSTORE ADD MSTORE JUMP JUMPDEST PUSH2 0x410B PUSH1 0x31 PUSH1 0x40 SWAP3 PUSH2 0x1A1D JUMP JUMPDEST PUSH2 0x4114 DUP2 PUSH2 0x40B0 JUMP JUMPDEST ADD SWAP1 JUMP JUMPDEST PUSH2 0x412E SWAP1 PUSH1 0x20 DUP2 ADD SWAP1 PUSH1 0x0 DUP2 DUP4 SUB SWAP2 ADD MSTORE PUSH2 0x40FE JUMP JUMPDEST SWAP1 JUMP JUMPDEST ISZERO PUSH2 0x4138 JUMPI JUMP JUMPDEST PUSH2 0x4140 PUSH2 0x5ED JUMP JUMPDEST PUSH3 0x461BCD PUSH1 0xE5 SHL DUP2 MSTORE DUP1 PUSH2 0x4156 PUSH1 0x4 DUP3 ADD PUSH2 0x4118 JUMP JUMPDEST SUB SWAP1 REVERT JUMPDEST PUSH1 0x20 PUSH32 0x207468616E20796F757220746965722D31206C696D6974210000000000000000 SWAP2 PUSH32 0x627579546F6B656E733A596F752061726520696E76657374696E67206D6F7265 PUSH1 0x0 DUP3 ADD MSTORE ADD MSTORE JUMP JUMPDEST PUSH2 0x41B5 PUSH1 0x38 PUSH1 0x40 SWAP3 PUSH2 0x1A1D JUMP JUMPDEST PUSH2 0x41BE DUP2 PUSH2 0x415A JUMP JUMPDEST ADD SWAP1 JUMP JUMPDEST PUSH2 0x41D8 SWAP1 PUSH1 0x20 DUP2 ADD SWAP1 PUSH1 0x0 DUP2 DUP4 SUB SWAP2 ADD MSTORE PUSH2 0x41A8 JUMP JUMPDEST SWAP1 JUMP JUMPDEST ISZERO PUSH2 0x41E2 JUMPI JUMP JUMPDEST PUSH2 0x41EA PUSH2 0x5ED JUMP JUMPDEST PUSH3 0x461BCD PUSH1 0xE5 SHL DUP2 MSTORE DUP1 PUSH2 0x4200 PUSH1 0x4 DUP3 ADD PUSH2 0x41C2 JUMP JUMPDEST SUB SWAP1 REVERT JUMPDEST PUSH2 0x4241 TIMESTAMP PUSH2 0x423A PUSH2 0x4234 PUSH32 0x0 PUSH2 0x64A JUMP JUMPDEST SWAP2 PUSH2 0x64A JUMP JUMPDEST LT ISZERO PUSH2 0x33E3 JUMP JUMPDEST PUSH2 0x427E TIMESTAMP PUSH2 0x4277 PUSH2 0x4271 PUSH32 0x0 PUSH2 0x64A JUMP JUMPDEST SWAP2 PUSH2 0x64A JUMP JUMPDEST GT ISZERO PUSH2 0x3467 JUMP JUMPDEST PUSH2 0x42CE PUSH2 0x4295 PUSH2 0x428E PUSH1 0x1 PUSH2 0x245D JUMP JUMPDEST CALLVALUE SWAP1 PUSH2 0x3490 JUMP JUMPDEST PUSH2 0x42C7 PUSH2 0x42C1 PUSH32 0x0 PUSH2 0x64A JUMP JUMPDEST SWAP2 PUSH2 0x64A JUMP JUMPDEST GT ISZERO PUSH2 0x3536 JUMP JUMPDEST PUSH2 0x42D7 CALLER PUSH2 0x2C85 JUMP JUMPDEST PUSH1 0x0 EQ PUSH2 0x443D JUMPI PUSH2 0x4306 CALLVALUE PUSH2 0x4300 PUSH2 0x42F1 PUSH1 0x43 CALLER SWAP1 PUSH2 0x736 JUMP JUMPDEST SWAP2 PUSH2 0x42FB DUP4 PUSH2 0x245D JUMP JUMPDEST PUSH2 0x3490 JUMP JUMPDEST SWAP1 PUSH2 0x2429 JUMP JUMPDEST PUSH2 0x433F PUSH2 0x431D PUSH2 0x4318 PUSH1 0x43 CALLER SWAP1 PUSH2 0x736 JUMP JUMPDEST PUSH2 0x245D JUMP JUMPDEST PUSH2 0x4338 PUSH2 0x4332 PUSH2 0x432D PUSH1 0x28 PUSH2 0x245D JUMP JUMPDEST PUSH2 0x64A JUMP JUMPDEST SWAP2 PUSH2 0x64A JUMP JUMPDEST LT ISZERO PUSH2 0x35BA JUMP JUMPDEST PUSH2 0x4378 PUSH2 0x4356 PUSH2 0x434F PUSH1 0x2 PUSH2 0x245D JUMP JUMPDEST CALLVALUE SWAP1 PUSH2 0x3490 JUMP JUMPDEST PUSH2 0x4371 PUSH2 0x436B PUSH2 0x4366 PUSH1 0xD PUSH2 0x245D JUMP JUMPDEST PUSH2 0x64A JUMP JUMPDEST SWAP2 PUSH2 0x64A JUMP JUMPDEST GT ISZERO PUSH2 0x4131 JUMP JUMPDEST PUSH2 0x43BB PUSH2 0x4399 PUSH2 0x4392 PUSH2 0x438D PUSH1 0x3A CALLER SWAP1 PUSH2 0x736 JUMP JUMPDEST PUSH2 0x245D JUMP JUMPDEST CALLVALUE SWAP1 PUSH2 0x3490 JUMP JUMPDEST PUSH2 0x43B4 PUSH2 0x43AE PUSH2 0x43A9 PUSH1 0x1F PUSH2 0x245D JUMP JUMPDEST PUSH2 0x64A JUMP JUMPDEST SWAP2 PUSH2 0x64A JUMP JUMPDEST GT ISZERO PUSH2 0x41DB JUMP JUMPDEST PUSH2 0x43E3 CALLVALUE PUSH2 0x43DD PUSH2 0x43CE PUSH1 0x3A CALLER SWAP1 PUSH2 0x736 JUMP JUMPDEST SWAP2 PUSH2 0x43D8 DUP4 PUSH2 0x245D JUMP JUMPDEST PUSH2 0x3490 JUMP JUMPDEST SWAP1 PUSH2 0x2429 JUMP JUMPDEST PUSH2 0x4400 PUSH2 0x43F9 CALLVALUE PUSH2 0x43F4 PUSH1 0x1 PUSH2 0x245D JUMP JUMPDEST PUSH2 0x3490 JUMP JUMPDEST PUSH1 0x1 PUSH2 0x2429 JUMP JUMPDEST PUSH2 0x441D PUSH2 0x4416 CALLVALUE PUSH2 0x4411 PUSH1 0x2 PUSH2 0x245D JUMP JUMPDEST PUSH2 0x3490 JUMP JUMPDEST PUSH1 0x2 PUSH2 0x2429 JUMP JUMPDEST PUSH2 0x443A PUSH2 0x442A PUSH1 0xC PUSH2 0x374B JUMP JUMPDEST PUSH2 0x4433 ADDRESS PUSH2 0x3758 JUMP JUMPDEST BALANCE SWAP1 PUSH2 0x5196 JUMP JUMPDEST JUMPDEST JUMP JUMPDEST PUSH2 0x4446 CALLER PUSH2 0x305F JUMP JUMPDEST PUSH1 0x0 EQ PUSH2 0x45AF JUMPI PUSH2 0x4475 CALLVALUE PUSH2 0x446F PUSH2 0x4460 PUSH1 0x44 CALLER SWAP1 PUSH2 0x736 JUMP JUMPDEST SWAP2 PUSH2 0x446A DUP4 PUSH2 0x245D JUMP JUMPDEST PUSH2 0x3490 JUMP JUMPDEST SWAP1 PUSH2 0x2429 JUMP JUMPDEST PUSH2 0x44AE PUSH2 0x448C PUSH2 0x4487 PUSH1 0x44 CALLER SWAP1 PUSH2 0x736 JUMP JUMPDEST PUSH2 0x245D JUMP JUMPDEST PUSH2 0x44A7 PUSH2 0x44A1 PUSH2 0x449C PUSH1 0x29 PUSH2 0x245D JUMP JUMPDEST PUSH2 0x64A JUMP JUMPDEST SWAP2 PUSH2 0x64A JUMP JUMPDEST LT ISZERO PUSH2 0x35BA JUMP JUMPDEST PUSH2 0x44E7 PUSH2 0x44C5 PUSH2 0x44BE PUSH1 0x3 PUSH2 0x245D JUMP JUMPDEST CALLVALUE SWAP1 PUSH2 0x3490 JUMP JUMPDEST PUSH2 0x44E0 PUSH2 0x44DA PUSH2 0x44D5 PUSH1 0xE PUSH2 0x245D JUMP JUMPDEST PUSH2 0x64A JUMP JUMPDEST SWAP2 PUSH2 0x64A JUMP JUMPDEST GT ISZERO PUSH2 0x3FDD JUMP JUMPDEST PUSH2 0x452A PUSH2 0x4508 PUSH2 0x4501 PUSH2 0x44FC PUSH1 0x3B CALLER SWAP1 PUSH2 0x736 JUMP JUMPDEST PUSH2 0x245D JUMP JUMPDEST CALLVALUE SWAP1 PUSH2 0x3490 JUMP JUMPDEST PUSH2 0x4523 PUSH2 0x451D PUSH2 0x4518 PUSH1 0x20 PUSH2 0x245D JUMP JUMPDEST PUSH2 0x64A JUMP JUMPDEST SWAP2 PUSH2 0x64A JUMP JUMPDEST GT ISZERO PUSH2 0x4087 JUMP JUMPDEST PUSH2 0x4552 CALLVALUE PUSH2 0x454C PUSH2 0x453D PUSH1 0x3B CALLER SWAP1 PUSH2 0x736 JUMP JUMPDEST SWAP2 PUSH2 0x4547 DUP4 PUSH2 0x245D JUMP JUMPDEST PUSH2 0x3490 JUMP JUMPDEST SWAP1 PUSH2 0x2429 JUMP JUMPDEST PUSH2 0x456F PUSH2 0x4568 CALLVALUE PUSH2 0x4563 PUSH1 0x1 PUSH2 0x245D JUMP JUMPDEST PUSH2 0x3490 JUMP JUMPDEST PUSH1 0x1 PUSH2 0x2429 JUMP JUMPDEST PUSH2 0x458C PUSH2 0x4585 CALLVALUE PUSH2 0x4580 PUSH1 0x3 PUSH2 0x245D JUMP JUMPDEST PUSH2 0x3490 JUMP JUMPDEST PUSH1 0x3 PUSH2 0x2429 JUMP JUMPDEST PUSH2 0x45A9 PUSH2 0x4599 PUSH1 0xC PUSH2 0x374B JUMP JUMPDEST PUSH2 0x45A2 ADDRESS PUSH2 0x3758 JUMP JUMPDEST BALANCE SWAP1 PUSH2 0x5196 JUMP JUMPDEST JUMPDEST PUSH2 0x443B JUMP JUMPDEST PUSH2 0x45B8 CALLER PUSH2 0x268F JUMP JUMPDEST PUSH1 0x0 EQ PUSH2 0x4721 JUMPI PUSH2 0x45E7 CALLVALUE PUSH2 0x45E1 PUSH2 0x45D2 PUSH1 0x45 CALLER SWAP1 PUSH2 0x736 JUMP JUMPDEST SWAP2 PUSH2 0x45DC DUP4 PUSH2 0x245D JUMP JUMPDEST PUSH2 0x3490 JUMP JUMPDEST SWAP1 PUSH2 0x2429 JUMP JUMPDEST PUSH2 0x4620 PUSH2 0x45FE PUSH2 0x45F9 PUSH1 0x45 CALLER SWAP1 PUSH2 0x736 JUMP JUMPDEST PUSH2 0x245D JUMP JUMPDEST PUSH2 0x4619 PUSH2 0x4613 PUSH2 0x460E PUSH1 0x2A PUSH2 0x245D JUMP JUMPDEST PUSH2 0x64A JUMP JUMPDEST SWAP2 PUSH2 0x64A JUMP JUMPDEST LT ISZERO PUSH2 0x35BA JUMP JUMPDEST PUSH2 0x4663 PUSH2 0x4641 PUSH2 0x463A PUSH2 0x4635 PUSH1 0x3C CALLER SWAP1 PUSH2 0x736 JUMP JUMPDEST PUSH2 0x245D JUMP JUMPDEST CALLVALUE SWAP1 PUSH2 0x3490 JUMP JUMPDEST PUSH2 0x465C PUSH2 0x4656 PUSH2 0x4651 PUSH1 0x21 PUSH2 0x245D JUMP JUMPDEST PUSH2 0x64A JUMP JUMPDEST SWAP2 PUSH2 0x64A JUMP JUMPDEST GT ISZERO PUSH2 0x3E89 JUMP JUMPDEST PUSH2 0x469C PUSH2 0x467A PUSH2 0x4673 PUSH1 0x4 PUSH2 0x245D JUMP JUMPDEST CALLVALUE SWAP1 PUSH2 0x3490 JUMP JUMPDEST PUSH2 0x4695 PUSH2 0x468F PUSH2 0x468A PUSH1 0xF PUSH2 0x245D JUMP JUMPDEST PUSH2 0x64A JUMP JUMPDEST SWAP2 PUSH2 0x64A JUMP JUMPDEST GT ISZERO PUSH2 0x3F33 JUMP JUMPDEST PUSH2 0x46C4 CALLVALUE PUSH2 0x46BE PUSH2 0x46AF PUSH1 0x3C CALLER SWAP1 PUSH2 0x736 JUMP JUMPDEST SWAP2 PUSH2 0x46B9 DUP4 PUSH2 0x245D JUMP JUMPDEST PUSH2 0x3490 JUMP JUMPDEST SWAP1 PUSH2 0x2429 JUMP JUMPDEST PUSH2 0x46E1 PUSH2 0x46DA CALLVALUE PUSH2 0x46D5 PUSH1 0x1 PUSH2 0x245D JUMP JUMPDEST PUSH2 0x3490 JUMP JUMPDEST PUSH1 0x1 PUSH2 0x2429 JUMP JUMPDEST PUSH2 0x46FE PUSH2 0x46F7 CALLVALUE PUSH2 0x46F2 PUSH1 0x4 PUSH2 0x245D JUMP JUMPDEST PUSH2 0x3490 JUMP JUMPDEST PUSH1 0x4 PUSH2 0x2429 JUMP JUMPDEST PUSH2 0x471B PUSH2 0x470B PUSH1 0xC PUSH2 0x374B JUMP JUMPDEST PUSH2 0x4714 ADDRESS PUSH2 0x3758 JUMP JUMPDEST BALANCE SWAP1 PUSH2 0x5196 JUMP JUMPDEST JUMPDEST PUSH2 0x45AA JUMP JUMPDEST PUSH2 0x472A CALLER PUSH2 0x3272 JUMP JUMPDEST PUSH1 0x0 EQ PUSH2 0x4893 JUMPI PUSH2 0x4759 CALLVALUE PUSH2 0x4753 PUSH2 0x4744 PUSH1 0x46 CALLER SWAP1 PUSH2 0x736 JUMP JUMPDEST SWAP2 PUSH2 0x474E DUP4 PUSH2 0x245D JUMP JUMPDEST PUSH2 0x3490 JUMP JUMPDEST SWAP1 PUSH2 0x2429 JUMP JUMPDEST PUSH2 0x4792 PUSH2 0x4770 PUSH2 0x476B PUSH1 0x46 CALLER SWAP1 PUSH2 0x736 JUMP JUMPDEST PUSH2 0x245D JUMP JUMPDEST PUSH2 0x478B PUSH2 0x4785 PUSH2 0x4780 PUSH1 0x2B PUSH2 0x245D JUMP JUMPDEST PUSH2 0x64A JUMP JUMPDEST SWAP2 PUSH2 0x64A JUMP JUMPDEST LT ISZERO PUSH2 0x35BA JUMP JUMPDEST PUSH2 0x47CB PUSH2 0x47A9 PUSH2 0x47A2 PUSH1 0x5 PUSH2 0x245D JUMP JUMPDEST CALLVALUE SWAP1 PUSH2 0x3490 JUMP JUMPDEST PUSH2 0x47C4 PUSH2 0x47BE PUSH2 0x47B9 PUSH1 0x10 PUSH2 0x245D JUMP JUMPDEST PUSH2 0x64A JUMP JUMPDEST SWAP2 PUSH2 0x64A JUMP JUMPDEST GT ISZERO PUSH2 0x3D35 JUMP JUMPDEST PUSH2 0x480E PUSH2 0x47EC PUSH2 0x47E5 PUSH2 0x47E0 PUSH1 0x3D CALLER SWAP1 PUSH2 0x736 JUMP JUMPDEST PUSH2 0x245D JUMP JUMPDEST CALLVALUE SWAP1 PUSH2 0x3490 JUMP JUMPDEST PUSH2 0x4807 PUSH2 0x4801 PUSH2 0x47FC PUSH1 0x22 PUSH2 0x245D JUMP JUMPDEST PUSH2 0x64A JUMP JUMPDEST SWAP2 PUSH2 0x64A JUMP JUMPDEST GT ISZERO PUSH2 0x3DDF JUMP JUMPDEST PUSH2 0x4836 CALLVALUE PUSH2 0x4830 PUSH2 0x4821 PUSH1 0x3D CALLER SWAP1 PUSH2 0x736 JUMP JUMPDEST SWAP2 PUSH2 0x482B DUP4 PUSH2 0x245D JUMP JUMPDEST PUSH2 0x3490 JUMP JUMPDEST SWAP1 PUSH2 0x2429 JUMP JUMPDEST PUSH2 0x4853 PUSH2 0x484C CALLVALUE PUSH2 0x4847 PUSH1 0x1 PUSH2 0x245D JUMP JUMPDEST PUSH2 0x3490 JUMP JUMPDEST PUSH1 0x1 PUSH2 0x2429 JUMP JUMPDEST PUSH2 0x4870 PUSH2 0x4869 CALLVALUE PUSH2 0x4864 PUSH1 0x5 PUSH2 0x245D JUMP JUMPDEST PUSH2 0x3490 JUMP JUMPDEST PUSH1 0x5 PUSH2 0x2429 JUMP JUMPDEST PUSH2 0x488D PUSH2 0x487D PUSH1 0xC PUSH2 0x374B JUMP JUMPDEST PUSH2 0x4886 ADDRESS PUSH2 0x3758 JUMP JUMPDEST BALANCE SWAP1 PUSH2 0x5196 JUMP JUMPDEST JUMPDEST PUSH2 0x471C JUMP JUMPDEST PUSH2 0x489C CALLER PUSH2 0x30EA JUMP JUMPDEST PUSH1 0x0 EQ PUSH2 0x4A05 JUMPI PUSH2 0x48CB CALLVALUE PUSH2 0x48C5 PUSH2 0x48B6 PUSH1 0x47 CALLER SWAP1 PUSH2 0x736 JUMP JUMPDEST SWAP2 PUSH2 0x48C0 DUP4 PUSH2 0x245D JUMP JUMPDEST PUSH2 0x3490 JUMP JUMPDEST SWAP1 PUSH2 0x2429 JUMP JUMPDEST PUSH2 0x4904 PUSH2 0x48E2 PUSH2 0x48DD PUSH1 0x47 CALLER SWAP1 PUSH2 0x736 JUMP JUMPDEST PUSH2 0x245D JUMP JUMPDEST PUSH2 0x48FD PUSH2 0x48F7 PUSH2 0x48F2 PUSH1 0x2C PUSH2 0x245D JUMP JUMPDEST PUSH2 0x64A JUMP JUMPDEST SWAP2 PUSH2 0x64A JUMP JUMPDEST LT ISZERO PUSH2 0x35BA JUMP JUMPDEST PUSH2 0x493D PUSH2 0x491B PUSH2 0x4914 PUSH1 0x6 PUSH2 0x245D JUMP JUMPDEST CALLVALUE SWAP1 PUSH2 0x3490 JUMP JUMPDEST PUSH2 0x4936 PUSH2 0x4930 PUSH2 0x492B PUSH1 0x11 PUSH2 0x245D JUMP JUMPDEST PUSH2 0x64A JUMP JUMPDEST SWAP2 PUSH2 0x64A JUMP JUMPDEST GT ISZERO PUSH2 0x3BE1 JUMP JUMPDEST PUSH2 0x4980 PUSH2 0x495E PUSH2 0x4957 PUSH2 0x4952 PUSH1 0x3E CALLER SWAP1 PUSH2 0x736 JUMP JUMPDEST PUSH2 0x245D JUMP JUMPDEST CALLVALUE SWAP1 PUSH2 0x3490 JUMP JUMPDEST PUSH2 0x4979 PUSH2 0x4973 PUSH2 0x496E PUSH1 0x23 PUSH2 0x245D JUMP JUMPDEST PUSH2 0x64A JUMP JUMPDEST SWAP2 PUSH2 0x64A JUMP JUMPDEST GT ISZERO PUSH2 0x3C8B JUMP JUMPDEST PUSH2 0x49A8 CALLVALUE PUSH2 0x49A2 PUSH2 0x4993 PUSH1 0x3E CALLER SWAP1 PUSH2 0x736 JUMP JUMPDEST SWAP2 PUSH2 0x499D DUP4 PUSH2 0x245D JUMP JUMPDEST PUSH2 0x3490 JUMP JUMPDEST SWAP1 PUSH2 0x2429 JUMP JUMPDEST PUSH2 0x49C5 PUSH2 0x49BE CALLVALUE PUSH2 0x49B9 PUSH1 0x1 PUSH2 0x245D JUMP JUMPDEST PUSH2 0x3490 JUMP JUMPDEST PUSH1 0x1 PUSH2 0x2429 JUMP JUMPDEST PUSH2 0x49E2 PUSH2 0x49DB CALLVALUE PUSH2 0x49D6 PUSH1 0x6 PUSH2 0x245D JUMP JUMPDEST PUSH2 0x3490 JUMP JUMPDEST PUSH1 0x6 PUSH2 0x2429 JUMP JUMPDEST PUSH2 0x49FF PUSH2 0x49EF PUSH1 0xC PUSH2 0x374B JUMP JUMPDEST PUSH2 0x49F8 ADDRESS PUSH2 0x3758 JUMP JUMPDEST BALANCE SWAP1 PUSH2 0x5196 JUMP JUMPDEST JUMPDEST PUSH2 0x488E JUMP JUMPDEST PUSH2 0x4A0E CALLER PUSH2 0x2EE8 JUMP JUMPDEST PUSH1 0x0 EQ PUSH2 0x4B77 JUMPI PUSH2 0x4A3D CALLVALUE PUSH2 0x4A37 PUSH2 0x4A28 PUSH1 0x48 CALLER SWAP1 PUSH2 0x736 JUMP JUMPDEST SWAP2 PUSH2 0x4A32 DUP4 PUSH2 0x245D JUMP JUMPDEST PUSH2 0x3490 JUMP JUMPDEST SWAP1 PUSH2 0x2429 JUMP JUMPDEST PUSH2 0x4A76 PUSH2 0x4A54 PUSH2 0x4A4F PUSH1 0x48 CALLER SWAP1 PUSH2 0x736 JUMP JUMPDEST PUSH2 0x245D JUMP JUMPDEST PUSH2 0x4A6F PUSH2 0x4A69 PUSH2 0x4A64 PUSH1 0x2D PUSH2 0x245D JUMP JUMPDEST PUSH2 0x64A JUMP JUMPDEST SWAP2 PUSH2 0x64A JUMP JUMPDEST LT ISZERO PUSH2 0x35BA JUMP JUMPDEST PUSH2 0x4AAF PUSH2 0x4A8D PUSH2 0x4A86 PUSH1 0x7 PUSH2 0x245D JUMP JUMPDEST CALLVALUE SWAP1 PUSH2 0x3490 JUMP JUMPDEST PUSH2 0x4AA8 PUSH2 0x4AA2 PUSH2 0x4A9D PUSH1 0x12 PUSH2 0x245D JUMP JUMPDEST PUSH2 0x64A JUMP JUMPDEST SWAP2 PUSH2 0x64A JUMP JUMPDEST GT ISZERO PUSH2 0x3A8D JUMP JUMPDEST PUSH2 0x4AF2 PUSH2 0x4AD0 PUSH2 0x4AC9 PUSH2 0x4AC4 PUSH1 0x3F CALLER SWAP1 PUSH2 0x736 JUMP JUMPDEST PUSH2 0x245D JUMP JUMPDEST CALLVALUE SWAP1 PUSH2 0x3490 JUMP JUMPDEST PUSH2 0x4AEB PUSH2 0x4AE5 PUSH2 0x4AE0 PUSH1 0x24 PUSH2 0x245D JUMP JUMPDEST PUSH2 0x64A JUMP JUMPDEST SWAP2 PUSH2 0x64A JUMP JUMPDEST GT ISZERO PUSH2 0x3B37 JUMP JUMPDEST PUSH2 0x4B1A CALLVALUE PUSH2 0x4B14 PUSH2 0x4B05 PUSH1 0x3F CALLER SWAP1 PUSH2 0x736 JUMP JUMPDEST SWAP2 PUSH2 0x4B0F DUP4 PUSH2 0x245D JUMP JUMPDEST PUSH2 0x3490 JUMP JUMPDEST SWAP1 PUSH2 0x2429 JUMP JUMPDEST PUSH2 0x4B37 PUSH2 0x4B30 CALLVALUE PUSH2 0x4B2B PUSH1 0x1 PUSH2 0x245D JUMP JUMPDEST PUSH2 0x3490 JUMP JUMPDEST PUSH1 0x1 PUSH2 0x2429 JUMP JUMPDEST PUSH2 0x4B54 PUSH2 0x4B4D CALLVALUE PUSH2 0x4B48 PUSH1 0x7 PUSH2 0x245D JUMP JUMPDEST PUSH2 0x3490 JUMP JUMPDEST PUSH1 0x7 PUSH2 0x2429 JUMP JUMPDEST PUSH2 0x4B71 PUSH2 0x4B61 PUSH1 0xC PUSH2 0x374B JUMP JUMPDEST PUSH2 0x4B6A ADDRESS PUSH2 0x3758 JUMP JUMPDEST BALANCE SWAP1 PUSH2 0x5196 JUMP JUMPDEST JUMPDEST PUSH2 0x4A00 JUMP JUMPDEST PUSH2 0x4B80 CALLER PUSH2 0x271A JUMP JUMPDEST PUSH1 0x0 EQ PUSH2 0x4CE9 JUMPI PUSH2 0x4BAF CALLVALUE PUSH2 0x4BA9 PUSH2 0x4B9A PUSH1 0x49 CALLER SWAP1 PUSH2 0x736 JUMP JUMPDEST SWAP2 PUSH2 0x4BA4 DUP4 PUSH2 0x245D JUMP JUMPDEST PUSH2 0x3490 JUMP JUMPDEST SWAP1 PUSH2 0x2429 JUMP JUMPDEST PUSH2 0x4BE8 PUSH2 0x4BC6 PUSH2 0x4BC1 PUSH1 0x49 CALLER SWAP1 PUSH2 0x736 JUMP JUMPDEST PUSH2 0x245D JUMP JUMPDEST PUSH2 0x4BE1 PUSH2 0x4BDB PUSH2 0x4BD6 PUSH1 0x2E PUSH2 0x245D JUMP JUMPDEST PUSH2 0x64A JUMP JUMPDEST SWAP2 PUSH2 0x64A JUMP JUMPDEST LT ISZERO PUSH2 0x35BA JUMP JUMPDEST PUSH2 0x4C21 PUSH2 0x4BFF PUSH2 0x4BF8 PUSH1 0x8 PUSH2 0x245D JUMP JUMPDEST CALLVALUE SWAP1 PUSH2 0x3490 JUMP JUMPDEST PUSH2 0x4C1A PUSH2 0x4C14 PUSH2 0x4C0F PUSH1 0x13 PUSH2 0x245D JUMP JUMPDEST PUSH2 0x64A JUMP JUMPDEST SWAP2 PUSH2 0x64A JUMP JUMPDEST GT ISZERO PUSH2 0x3939 JUMP JUMPDEST PUSH2 0x4C64 PUSH2 0x4C42 PUSH2 0x4C3B PUSH2 0x4C36 PUSH1 0x40 CALLER SWAP1 PUSH2 0x736 JUMP JUMPDEST PUSH2 0x245D JUMP JUMPDEST CALLVALUE SWAP1 PUSH2 0x3490 JUMP JUMPDEST PUSH2 0x4C5D PUSH2 0x4C57 PUSH2 0x4C52 PUSH1 0x25 PUSH2 0x245D JUMP JUMPDEST PUSH2 0x64A JUMP JUMPDEST SWAP2 PUSH2 0x64A JUMP JUMPDEST GT ISZERO PUSH2 0x39E3 JUMP JUMPDEST PUSH2 0x4C8C CALLVALUE PUSH2 0x4C86 PUSH2 0x4C77 PUSH1 0x40 CALLER SWAP1 PUSH2 0x736 JUMP JUMPDEST SWAP2 PUSH2 0x4C81 DUP4 PUSH2 0x245D JUMP JUMPDEST PUSH2 0x3490 JUMP JUMPDEST SWAP1 PUSH2 0x2429 JUMP JUMPDEST PUSH2 0x4CA9 PUSH2 0x4CA2 CALLVALUE PUSH2 0x4C9D PUSH1 0x1 PUSH2 0x245D JUMP JUMPDEST PUSH2 0x3490 JUMP JUMPDEST PUSH1 0x1 PUSH2 0x2429 JUMP JUMPDEST PUSH2 0x4CC6 PUSH2 0x4CBF CALLVALUE PUSH2 0x4CBA PUSH1 0x8 PUSH2 0x245D JUMP JUMPDEST PUSH2 0x3490 JUMP JUMPDEST PUSH1 0x8 PUSH2 0x2429 JUMP JUMPDEST PUSH2 0x4CE3 PUSH2 0x4CD3 PUSH1 0xC PUSH2 0x374B JUMP JUMPDEST PUSH2 0x4CDC ADDRESS PUSH2 0x3758 JUMP JUMPDEST BALANCE SWAP1 PUSH2 0x5196 JUMP JUMPDEST JUMPDEST PUSH2 0x4B72 JUMP JUMPDEST PUSH2 0x4CF2 CALLER PUSH2 0x22F7 JUMP JUMPDEST PUSH1 0x0 EQ PUSH2 0x4E5B JUMPI PUSH2 0x4D21 CALLVALUE PUSH2 0x4D1B PUSH2 0x4D0C PUSH1 0x4A CALLER SWAP1 PUSH2 0x736 JUMP JUMPDEST SWAP2 PUSH2 0x4D16 DUP4 PUSH2 0x245D JUMP JUMPDEST PUSH2 0x3490 JUMP JUMPDEST SWAP1 PUSH2 0x2429 JUMP JUMPDEST PUSH2 0x4D5A PUSH2 0x4D38 PUSH2 0x4D33 PUSH1 0x4A CALLER SWAP1 PUSH2 0x736 JUMP JUMPDEST PUSH2 0x245D JUMP JUMPDEST PUSH2 0x4D53 PUSH2 0x4D4D PUSH2 0x4D48 PUSH1 0x2F PUSH2 0x245D JUMP JUMPDEST PUSH2 0x64A JUMP JUMPDEST SWAP2 PUSH2 0x64A JUMP JUMPDEST LT ISZERO PUSH2 0x35BA JUMP JUMPDEST PUSH2 0x4D93 PUSH2 0x4D71 PUSH2 0x4D6A PUSH1 0x9 PUSH2 0x245D JUMP JUMPDEST CALLVALUE SWAP1 PUSH2 0x3490 JUMP JUMPDEST PUSH2 0x4D8C PUSH2 0x4D86 PUSH2 0x4D81 PUSH1 0x14 PUSH2 0x245D JUMP JUMPDEST PUSH2 0x64A JUMP JUMPDEST SWAP2 PUSH2 0x64A JUMP JUMPDEST GT ISZERO PUSH2 0x37E5 JUMP JUMPDEST PUSH2 0x4DD6 PUSH2 0x4DB4 PUSH2 0x4DAD PUSH2 0x4DA8 PUSH1 0x41 CALLER SWAP1 PUSH2 0x736 JUMP JUMPDEST PUSH2 0x245D JUMP JUMPDEST CALLVALUE SWAP1 PUSH2 0x3490 JUMP JUMPDEST PUSH2 0x4DCF PUSH2 0x4DC9 PUSH2 0x4DC4 PUSH1 0x26 PUSH2 0x245D JUMP JUMPDEST PUSH2 0x64A JUMP JUMPDEST SWAP2 PUSH2 0x64A JUMP JUMPDEST GT ISZERO PUSH2 0x388F JUMP JUMPDEST PUSH2 0x4DFE CALLVALUE PUSH2 0x4DF8 PUSH2 0x4DE9 PUSH1 0x41 CALLER SWAP1 PUSH2 0x736 JUMP JUMPDEST SWAP2 PUSH2 0x4DF3 DUP4 PUSH2 0x245D JUMP JUMPDEST PUSH2 0x3490 JUMP JUMPDEST SWAP1 PUSH2 0x2429 JUMP JUMPDEST PUSH2 0x4E1B PUSH2 0x4E14 CALLVALUE PUSH2 0x4E0F PUSH1 0x1 PUSH2 0x245D JUMP JUMPDEST PUSH2 0x3490 JUMP JUMPDEST PUSH1 0x1 PUSH2 0x2429 JUMP JUMPDEST PUSH2 0x4E38 PUSH2 0x4E31 CALLVALUE PUSH2 0x4E2C PUSH1 0x9 PUSH2 0x245D JUMP JUMPDEST PUSH2 0x3490 JUMP JUMPDEST PUSH1 0x9 PUSH2 0x2429 JUMP JUMPDEST PUSH2 0x4E55 PUSH2 0x4E45 PUSH1 0xC PUSH2 0x374B JUMP JUMPDEST PUSH2 0x4E4E ADDRESS PUSH2 0x3758 JUMP JUMPDEST BALANCE SWAP1 PUSH2 0x5196 JUMP JUMPDEST JUMPDEST PUSH2 0x4CE4 JUMP JUMPDEST PUSH2 0x4E64 CALLER PUSH2 0x32FD JUMP JUMPDEST PUSH1 0x0 EQ PUSH2 0x4FCC JUMPI PUSH2 0x4E93 CALLVALUE PUSH2 0x4E8D PUSH2 0x4E7E PUSH1 0x4B CALLER SWAP1 PUSH2 0x736 JUMP JUMPDEST SWAP2 PUSH2 0x4E88 DUP4 PUSH2 0x245D JUMP JUMPDEST PUSH2 0x3490 JUMP JUMPDEST SWAP1 PUSH2 0x2429 JUMP JUMPDEST PUSH2 0x4ECC PUSH2 0x4EAA PUSH2 0x4EA5 PUSH1 0x4B CALLER SWAP1 PUSH2 0x736 JUMP JUMPDEST PUSH2 0x245D JUMP JUMPDEST PUSH2 0x4EC5 PUSH2 0x4EBF PUSH2 0x4EBA PUSH1 0x30 PUSH2 0x245D JUMP JUMPDEST PUSH2 0x64A JUMP JUMPDEST SWAP2 PUSH2 0x64A JUMP JUMPDEST LT ISZERO PUSH2 0x35BA JUMP JUMPDEST PUSH2 0x4F05 PUSH2 0x4EE3 PUSH2 0x4EDC PUSH1 0xA PUSH2 0x245D JUMP JUMPDEST CALLVALUE SWAP1 PUSH2 0x3490 JUMP JUMPDEST PUSH2 0x4EFE PUSH2 0x4EF8 PUSH2 0x4EF3 PUSH1 0x15 PUSH2 0x245D JUMP JUMPDEST PUSH2 0x64A JUMP JUMPDEST SWAP2 PUSH2 0x64A JUMP JUMPDEST GT ISZERO PUSH2 0x3664 JUMP JUMPDEST PUSH2 0x4F48 PUSH2 0x4F26 PUSH2 0x4F1F PUSH2 0x4F1A PUSH1 0x42 CALLER SWAP1 PUSH2 0x736 JUMP JUMPDEST PUSH2 0x245D JUMP JUMPDEST CALLVALUE SWAP1 PUSH2 0x3490 JUMP JUMPDEST PUSH2 0x4F41 PUSH2 0x4F3B PUSH2 0x4F36 PUSH1 0x27 PUSH2 0x245D JUMP JUMPDEST PUSH2 0x64A JUMP JUMPDEST SWAP2 PUSH2 0x64A JUMP JUMPDEST GT ISZERO PUSH2 0x370E JUMP JUMPDEST PUSH2 0x4F70 CALLVALUE PUSH2 0x4F6A PUSH2 0x4F5B PUSH1 0x42 CALLER SWAP1 PUSH2 0x736 JUMP JUMPDEST SWAP2 PUSH2 0x4F65 DUP4 PUSH2 0x245D JUMP JUMPDEST PUSH2 0x3490 JUMP JUMPDEST SWAP1 PUSH2 0x2429 JUMP JUMPDEST PUSH2 0x4F8D PUSH2 0x4F86 CALLVALUE PUSH2 0x4F81 PUSH1 0x1 PUSH2 0x245D JUMP JUMPDEST PUSH2 0x3490 JUMP JUMPDEST PUSH1 0x1 PUSH2 0x2429 JUMP JUMPDEST PUSH2 0x4FAA PUSH2 0x4FA3 CALLVALUE PUSH2 0x4F9E PUSH1 0xA PUSH2 0x245D JUMP JUMPDEST PUSH2 0x3490 JUMP JUMPDEST PUSH1 0xA PUSH2 0x2429 JUMP JUMPDEST PUSH2 0x4FC7 PUSH2 0x4FB7 PUSH1 0xC PUSH2 0x374B JUMP JUMPDEST PUSH2 0x4FC0 ADDRESS PUSH2 0x3758 JUMP JUMPDEST BALANCE SWAP1 PUSH2 0x5196 JUMP JUMPDEST PUSH2 0x4E56 JUMP JUMPDEST PUSH1 0x0 DUP1 REVERT JUMPDEST PUSH1 0x0 PUSH32 0x416464726573733A20696E73756666696369656E742062616C616E6365000000 SWAP2 ADD MSTORE JUMP JUMPDEST PUSH2 0x5006 PUSH1 0x1D PUSH1 0x20 SWAP3 PUSH2 0x1A1D JUMP JUMPDEST PUSH2 0x500F DUP2 PUSH2 0x4FD1 JUMP JUMPDEST ADD SWAP1 JUMP JUMPDEST PUSH2 0x5029 SWAP1 PUSH1 0x20 DUP2 ADD SWAP1 PUSH1 0x0 DUP2 DUP4 SUB SWAP2 ADD MSTORE PUSH2 0x4FF9 JUMP JUMPDEST SWAP1 JUMP JUMPDEST ISZERO PUSH2 0x5033 JUMPI JUMP JUMPDEST PUSH2 0x503B PUSH2 0x5ED JUMP JUMPDEST PUSH3 0x461BCD PUSH1 0xE5 SHL DUP2 MSTORE DUP1 PUSH2 0x5051 PUSH1 0x4 DUP3 ADD PUSH2 0x5013 JUMP JUMPDEST SUB SWAP1 REVERT JUMPDEST PUSH2 0x505E SWAP1 PUSH2 0x71E JUMP JUMPDEST SWAP1 JUMP JUMPDEST SWAP1 POP SWAP1 JUMP JUMPDEST PUSH2 0x5072 PUSH1 0x0 DUP1 SWAP3 PUSH2 0x5061 JUMP JUMPDEST ADD SWAP1 JUMP JUMPDEST PUSH2 0x507F SWAP1 PUSH2 0x5066 JUMP JUMPDEST SWAP1 JUMP JUMPDEST PUSH8 0xFFFFFFFFFFFFFFFF DUP2 GT PUSH2 0x50A0 JUMPI PUSH2 0x509C PUSH1 0x20 SWAP2 PUSH2 0x191F JUMP JUMPDEST ADD SWAP1 JUMP JUMPDEST PUSH2 0x1929 JUMP JUMPDEST SWAP1 PUSH2 0x50B7 PUSH2 0x50B2 DUP4 PUSH2 0x5082 JUMP JUMPDEST PUSH2 0x1968 JUMP JUMPDEST SWAP2 DUP3 MSTORE JUMP JUMPDEST PUSH1 0x60 SWAP1 JUMP JUMPDEST RETURNDATASIZE PUSH1 0x0 EQ PUSH2 0x50DE JUMPI PUSH2 0x50D2 RETURNDATASIZE PUSH2 0x50A5 JUMP JUMPDEST SWAP1 RETURNDATASIZE PUSH1 0x0 PUSH1 0x20 DUP5 ADD RETURNDATACOPY JUMPDEST JUMP JUMPDEST PUSH2 0x50E6 PUSH2 0x50BC JUMP JUMPDEST SWAP1 PUSH2 0x50DC JUMP JUMPDEST PUSH1 0x20 PUSH32 0x6563697069656E74206D61792068617665207265766572746564000000000000 SWAP2 PUSH32 0x416464726573733A20756E61626C6520746F2073656E642076616C75652C2072 PUSH1 0x0 DUP3 ADD MSTORE ADD MSTORE JUMP JUMPDEST PUSH2 0x5147 PUSH1 0x3A PUSH1 0x40 SWAP3 PUSH2 0x1A1D JUMP JUMPDEST PUSH2 0x5150 DUP2 PUSH2 0x50EC JUMP JUMPDEST ADD SWAP1 JUMP JUMPDEST PUSH2 0x516A SWAP1 PUSH1 0x20 DUP2 ADD SWAP1 PUSH1 0x0 DUP2 DUP4 SUB SWAP2 ADD MSTORE PUSH2 0x513A JUMP JUMPDEST SWAP1 JUMP JUMPDEST ISZERO PUSH2 0x5174 JUMPI JUMP JUMPDEST PUSH2 0x517C PUSH2 0x5ED JUMP JUMPDEST PUSH3 0x461BCD PUSH1 0xE5 SHL DUP2 MSTORE DUP1 PUSH2 0x5192 PUSH1 0x4 DUP3 ADD PUSH2 0x5154 JUMP JUMPDEST SUB SWAP1 REVERT JUMPDEST PUSH1 0x0 PUSH2 0x51F2 SWAP3 PUSH2 0x51CC DUP3 SWAP4 PUSH2 0x51C7 PUSH2 0x51AD ADDRESS PUSH2 0x3758 JUMP JUMPDEST BALANCE PUSH2 0x51C0 PUSH2 0x51BA DUP7 PUSH2 0x64A JUMP JUMPDEST SWAP2 PUSH2 0x64A JUMP JUMPDEST LT ISZERO PUSH2 0x502C JUMP JUMPDEST PUSH2 0x5055 JUMP JUMPDEST SWAP1 PUSH2 0x51D5 PUSH2 0x5ED JUMP JUMPDEST SWAP1 DUP2 PUSH2 0x51E0 DUP2 PUSH2 0x5076 JUMP JUMPDEST SUB SWAP3 GAS CALL PUSH2 0x51EC PUSH2 0x50C1 JUMP JUMPDEST POP PUSH2 0x516D JUMP JUMPDEST JUMP INVALID LOG2 PUSH5 0x6970667358 0x22 SLT KECCAK256 0xCC PUSH0 0xE 0xCA 0xBF CODECOPY 0xB6 JUMP 0xAF ORIGIN SHL 0xE1 COINBASE CREATE PUSH19 0x2EB76E54BA144DD636365802C843CEA0166473 PUSH16 0x6C634300081800330000000000000000 "},"methodIdentifiers":{"NAME()":"a3f4df7e","addWhitelistEight(address)":"a315b404","addWhitelistFive(address)":"8fb48741","addWhitelistFour(address)":"3ff2bbc6","addWhitelistNine(address)":"2f84901c","addWhitelistOne(address)":"62ace63f","addWhitelistSeven(address)":"b6c8a99c","addWhitelistSix(address)":"842a8271","addWhitelistThree(address)":"3c6bb474","addWhitelistTwo(address)":"ae4fdad9","buyInEightTier(address)":"1eaf7834","buyInFiveTier(address)":"6f507e0d","buyInFourTier(address)":"e7f7814e","buyInNineTier(address)":"2ad16bee","buyInOneTier(address)":"fe36f6c9","buyInSevenTier(address)":"ff3e7c72","buyInSixTier(address)":"015e2a13","buyInThreeTier(address)":"a0ce460b","buyInTwoTier(address)":"71b9510d","getWhitelistEight(address)":"02692835","getWhitelistFive(address)":"c7ac1d44","getWhitelistFour(address)":"f8127958","getWhitelistNine(address)":"fd234856","getWhitelistOne(address)":"4dce5168","getWhitelistSeven(address)":"288a4dee","getWhitelistSix(address)":"adfed46f","getWhitelistThree(address)":"22b15334","getWhitelistTwo(address)":"b9ec0dde","maxAllocaPerUserTierEight()":"0e919761","maxAllocaPerUserTierFive()":"523d6b26","maxAllocaPerUserTierFour()":"4d9b4b4f","maxAllocaPerUserTierNine()":"6cd52c64","maxAllocaPerUserTierOne()":"90257644","maxAllocaPerUserTierSeven()":"1a0e66bf","maxAllocaPerUserTierSix()":"8a9983d8","maxAllocaPerUserTierThree()":"becbb04b","maxAllocaPerUserTierTwo()":"e8891b7d","maxCap()":"23548b8b","minAllocaPerUserTierEight()":"9b2e5d8b","minAllocaPerUserTierFive()":"40d09496","minAllocaPerUserTierFour()":"d529a565","minAllocaPerUserTierNine()":"db0bc683","minAllocaPerUserTierOne()":"4e6ac059","minAllocaPerUserTierSeven()":"9ae05f38","minAllocaPerUserTierSix()":"dfcf605f","minAllocaPerUserTierThree()":"1a8b43e4","minAllocaPerUserTierTwo()":"434800fc","minBuyInEightTier(address)":"0f738fd5","minBuyInFiveTier(address)":"fde2da13","minBuyInFourTier(address)":"602072fa","minBuyInNineTier(address)":"29d6cd87","minBuyInOneTier(address)":"0e3a02e2","minBuyInSevenTier(address)":"9eb11439","minBuyInSixTier(address)":"03673ff7","minBuyInThreeTier(address)":"76d8711f","minBuyInTwoTier(address)":"2146d7ff","owner()":"8da5cb5b","projectOwner()":"a4475ce4","saleEndTime()":"ed338ff1","saleStartTime()":"1cbaee2d","tierEightMaxCap()":"1fc0d469","tierFiveMaxCap()":"b45ccf0b","tierFourMaxCap()":"9d9db77d","tierNineMaxCap()":"fd869971","tierOneMaxCap()":"823276c3","tierSevenMaxCap()":"97ede623","tierSixMaxCap()":"c31d36f5","tierThreeMaxCap()":"a390c97f","tierTwoMaxCap()":"244c4f10","totalEthInTierEight()":"f00d118a","totalEthInTierFive()":"82d9effe","totalEthInTierFour()":"b84536ae","totalEthInTierNine()":"1cbd01ec","totalEthInTierOne()":"8f78bdcf","totalEthInTierSeven()":"186d54f0","totalEthInTierSix()":"9a1e1bb2","totalEthInTierThree()":"91ab87ea","totalEthInTierTwo()":"03440f37","totalEthReceivedInAllTier()":"339855ff","totalUserInTierEight()":"f6bb87f5","totalUserInTierFive()":"4c510db7","totalUserInTierFour()":"5e18c330","totalUserInTierNine()":"b2c85e11","totalUserInTierOne()":"e0daa8ba","totalUserInTierSeven()":"7eee2057","totalUserInTierSix()":"a340f0b3","totalUserInTierThree()":"74c6bd0d","totalUserInTierTwo()":"f1e81e07","totalparticipants()":"01099885","transferOwnership(address)":"f2fde38b","updateTierUsersValue(uint256,uint256,uint256,uint256,uint256,uint256,uint256,uint256,uint256)":"42ec2759","updateTierValues(uint256,uint256,uint256,uint256,uint256,uint256,uint256,uint256,uint256)":"1e2b2a50"}}}}}